{
  "_format": "hh-sol-artifact-1",
  "contractName": "Campaign",
  "sourceName": "contracts/Campaign.sol",
  "abi": [
    {
      "inputs": [
        {
          "internalType": "string",
          "name": "_name",
          "type": "string"
        },
        {
          "internalType": "string",
          "name": "_description",
          "type": "string"
        },
        {
          "internalType": "address",
          "name": "_author",
          "type": "address"
        },
        {
          "internalType": "uint256",
          "name": "_sPeriod",
          "type": "uint256"
        },
        {
          "internalType": "uint256",
          "name": "_totalProjectTime",
          "type": "uint256"
        },
        {
          "internalType": "uint256",
          "name": "_totalAmountNeeded",
          "type": "uint256"
        },
        {
          "internalType": "uint256[]",
          "name": "_stages",
          "type": "uint256[]"
        }
      ],
      "stateMutability": "nonpayable",
      "type": "constructor"
    },
    {
      "anonymous": false,
      "inputs": [],
      "name": "CampaignCompleted",
      "type": "event"
    },
    {
      "anonymous": false,
      "inputs": [],
      "name": "CampaignRaised",
      "type": "event"
    },
    {
      "anonymous": false,
      "inputs": [
        {
          "components": [
            {
              "internalType": "string",
              "name": "name",
              "type": "string"
            },
            {
              "internalType": "address",
              "name": "addr",
              "type": "address"
            },
            {
              "internalType": "bool",
              "name": "isValid",
              "type": "bool"
            }
          ],
          "indexed": false,
          "internalType": "struct Campaign.Investor",
          "name": "i",
          "type": "tuple"
        },
        {
          "indexed": false,
          "internalType": "uint256",
          "name": "amount",
          "type": "uint256"
        }
      ],
      "name": "FundsPledged",
      "type": "event"
    },
    {
      "anonymous": false,
      "inputs": [
        {
          "components": [
            {
              "internalType": "string",
              "name": "name",
              "type": "string"
            },
            {
              "internalType": "address",
              "name": "addr",
              "type": "address"
            },
            {
              "internalType": "bool",
              "name": "isValid",
              "type": "bool"
            }
          ],
          "indexed": false,
          "internalType": "struct Campaign.Investor",
          "name": "i",
          "type": "tuple"
        }
      ],
      "name": "FundsPulledOut",
      "type": "event"
    },
    {
      "anonymous": false,
      "inputs": [
        {
          "components": [
            {
              "internalType": "uint256",
              "name": "amountNeeded",
              "type": "uint256"
            },
            {
              "internalType": "uint256",
              "name": "deadline",
              "type": "uint256"
            },
            {
              "internalType": "bool",
              "name": "voted",
              "type": "bool"
            }
          ],
          "indexed": false,
          "internalType": "struct Campaign.Stage",
          "name": "s",
          "type": "tuple"
        }
      ],
      "name": "FundsReleased",
      "type": "event"
    },
    {
      "inputs": [],
      "name": "author",
      "outputs": [
        {
          "internalType": "address payable",
          "name": "",
          "type": "address"
        }
      ],
      "stateMutability": "view",
      "type": "function"
    },
    {
      "inputs": [],
      "name": "cancelCampaign",
      "outputs": [],
      "stateMutability": "nonpayable",
      "type": "function"
    },
    {
      "inputs": [],
      "name": "cancelled",
      "outputs": [
        {
          "internalType": "bool",
          "name": "",
          "type": "bool"
        }
      ],
      "stateMutability": "view",
      "type": "function"
    },
    {
      "inputs": [],
      "name": "completeCampaign",
      "outputs": [],
      "stateMutability": "nonpayable",
      "type": "function"
    },
    {
      "inputs": [],
      "name": "currentStage",
      "outputs": [
        {
          "internalType": "uint256",
          "name": "",
          "type": "uint256"
        }
      ],
      "stateMutability": "view",
      "type": "function"
    },
    {
      "inputs": [],
      "name": "description",
      "outputs": [
        {
          "internalType": "string",
          "name": "",
          "type": "string"
        }
      ],
      "stateMutability": "view",
      "type": "function"
    },
    {
      "inputs": [],
      "name": "escrow",
      "outputs": [
        {
          "internalType": "contract Escrow",
          "name": "",
          "type": "address"
        }
      ],
      "stateMutability": "view",
      "type": "function"
    },
    {
      "inputs": [],
      "name": "getInvestorProfile",
      "outputs": [
        {
          "components": [
            {
              "internalType": "uint256",
              "name": "amount",
              "type": "uint256"
            },
            {
              "internalType": "bool",
              "name": "isValid",
              "type": "bool"
            }
          ],
          "internalType": "struct Escrow.Investment",
          "name": "",
          "type": "tuple"
        }
      ],
      "stateMutability": "view",
      "type": "function"
    },
    {
      "inputs": [],
      "name": "getInvestorRatio",
      "outputs": [
        {
          "internalType": "uint256",
          "name": "",
          "type": "uint256"
        }
      ],
      "stateMutability": "view",
      "type": "function"
    },
    {
      "inputs": [
        {
          "internalType": "uint256",
          "name": "stageNo",
          "type": "uint256"
        }
      ],
      "name": "getStageDetail",
      "outputs": [
        {
          "components": [
            {
              "internalType": "uint256",
              "name": "amountNeeded",
              "type": "uint256"
            },
            {
              "internalType": "uint256",
              "name": "deadline",
              "type": "uint256"
            },
            {
              "internalType": "bool",
              "name": "voted",
              "type": "bool"
            }
          ],
          "internalType": "struct Campaign.Stage",
          "name": "",
          "type": "tuple"
        }
      ],
      "stateMutability": "view",
      "type": "function"
    },
    {
      "inputs": [
        {
          "internalType": "uint256",
          "name": "",
          "type": "uint256"
        }
      ],
      "name": "investorLUT",
      "outputs": [
        {
          "internalType": "address",
          "name": "",
          "type": "address"
        }
      ],
      "stateMutability": "view",
      "type": "function"
    },
    {
      "inputs": [
        {
          "internalType": "address",
          "name": "",
          "type": "address"
        }
      ],
      "name": "investors",
      "outputs": [
        {
          "internalType": "string",
          "name": "name",
          "type": "string"
        },
        {
          "internalType": "address",
          "name": "addr",
          "type": "address"
        },
        {
          "internalType": "bool",
          "name": "isValid",
          "type": "bool"
        }
      ],
      "stateMutability": "view",
      "type": "function"
    },
    {
      "inputs": [],
      "name": "name",
      "outputs": [
        {
          "internalType": "string",
          "name": "",
          "type": "string"
        }
      ],
      "stateMutability": "view",
      "type": "function"
    },
    {
      "inputs": [],
      "name": "pledgeFunds",
      "outputs": [],
      "stateMutability": "payable",
      "type": "function"
    },
    {
      "inputs": [],
      "name": "projectDeadlineStartTime",
      "outputs": [
        {
          "internalType": "uint256",
          "name": "",
          "type": "uint256"
        }
      ],
      "stateMutability": "view",
      "type": "function"
    },
    {
      "inputs": [],
      "name": "refund",
      "outputs": [],
      "stateMutability": "nonpayable",
      "type": "function"
    },
    {
      "inputs": [
        {
          "internalType": "string",
          "name": "_name",
          "type": "string"
        }
      ],
      "name": "registerInvestor",
      "outputs": [],
      "stateMutability": "nonpayable",
      "type": "function"
    },
    {
      "inputs": [],
      "name": "releaseFunds",
      "outputs": [],
      "stateMutability": "nonpayable",
      "type": "function"
    },
    {
      "inputs": [],
      "name": "stagePeriod",
      "outputs": [
        {
          "internalType": "uint256",
          "name": "",
          "type": "uint256"
        }
      ],
      "stateMutability": "view",
      "type": "function"
    },
    {
      "inputs": [],
      "name": "totalAmountNeeded",
      "outputs": [
        {
          "internalType": "uint256",
          "name": "",
          "type": "uint256"
        }
      ],
      "stateMutability": "view",
      "type": "function"
    },
    {
      "inputs": [],
      "name": "totalProjectTime",
      "outputs": [
        {
          "internalType": "uint256",
          "name": "",
          "type": "uint256"
        }
      ],
      "stateMutability": "view",
      "type": "function"
    },
    {
      "inputs": [
        {
          "internalType": "uint256",
          "name": "stageNo",
          "type": "uint256"
        }
      ],
      "name": "voted",
      "outputs": [],
      "stateMutability": "nonpayable",
      "type": "function"
    }
  ],
  "bytecode": "0x60806040526001600e553480156200001657600080fd5b506040516200462d3803806200462d83398181016040528101906200003c9190620005f7565b86600090816200004d919062000948565b5085600190816200005f919062000948565b5084600260006101000a81548173ffffffffffffffffffffffffffffffffffffffff021916908373ffffffffffffffffffffffffffffffffffffffff1602179055506201518084620000b2919062000a5e565b6004819055506201518083620000c9919062000a5e565b6005819055508160068190555084604051620000e590620002db565b620000f1919062000ace565b604051809103906000f0801580156200010e573d6000803e3d6000fd5b50600360006101000a81548173ffffffffffffffffffffffffffffffffffffffff021916908373ffffffffffffffffffffffffffffffffffffffff160217905550600060045460055462000163919062000b1a565b905060008111620001ab576040517f08c379a0000000000000000000000000000000000000000000000000000000008152600401620001a29062000bb3565b60405180910390fd5b60005b818110156200026b57600d6040518060600160405280858481518110620001da57620001d962000bd5565b5b602002602001015181526020016004548152602001600015158152509080600181540180825580915050600190039060005260206000209060030201600090919091909150600082015181600001556020820151816001015560408201518160020160006101000a81548160ff02191690831515021790555050508080620002629062000c04565b915050620001ae565b506001600760006101000a81548160ff0219169083151502179055506000600760016101000a81548160ff0219169083151502179055506000600c8190555060006008819055506000600760026101000a81548160ff021916908315150217905550505050505050505062000c51565b6113e7806200324683390190565b6000604051905090565b600080fd5b600080fd5b600080fd5b600080fd5b6000601f19601f8301169050919050565b7f4e487b7100000000000000000000000000000000000000000000000000000000600052604160045260246000fd5b620003528262000307565b810181811067ffffffffffffffff8211171562000374576200037362000318565b5b80604052505050565b600062000389620002e9565b905062000397828262000347565b919050565b600067ffffffffffffffff821115620003ba57620003b962000318565b5b620003c58262000307565b9050602081019050919050565b60005b83811015620003f2578082015181840152602081019050620003d5565b60008484015250505050565b6000620004156200040f846200039c565b6200037d565b90508281526020810184848401111562000434576200043362000302565b5b62000441848285620003d2565b509392505050565b600082601f830112620004615762000460620002fd565b5b815162000473848260208601620003fe565b91505092915050565b600073ffffffffffffffffffffffffffffffffffffffff82169050919050565b6000620004a9826200047c565b9050919050565b620004bb816200049c565b8114620004c757600080fd5b50565b600081519050620004db81620004b0565b92915050565b6000819050919050565b620004f681620004e1565b81146200050257600080fd5b50565b6000815190506200051681620004eb565b92915050565b600067ffffffffffffffff8211156200053a576200053962000318565b5b602082029050602081019050919050565b600080fd5b60006200056762000561846200051c565b6200037d565b905080838252602082019050602084028301858111156200058d576200058c6200054b565b5b835b81811015620005ba5780620005a5888262000505565b8452602084019350506020810190506200058f565b5050509392505050565b600082601f830112620005dc57620005db620002fd565b5b8151620005ee84826020860162000550565b91505092915050565b600080600080600080600060e0888a031215620006195762000618620002f3565b5b600088015167ffffffffffffffff8111156200063a5762000639620002f8565b5b620006488a828b0162000449565b975050602088015167ffffffffffffffff8111156200066c576200066b620002f8565b5b6200067a8a828b0162000449565b96505060406200068d8a828b01620004ca565b9550506060620006a08a828b0162000505565b9450506080620006b38a828b0162000505565b93505060a0620006c68a828b0162000505565b92505060c088015167ffffffffffffffff811115620006ea57620006e9620002f8565b5b620006f88a828b01620005c4565b91505092959891949750929550565b600081519050919050565b7f4e487b7100000000000000000000000000000000000000000000000000000000600052602260045260246000fd5b600060028204905060018216806200075a57607f821691505b60208210810362000770576200076f62000712565b5b50919050565b60008190508160005260206000209050919050565b60006020601f8301049050919050565b600082821b905092915050565b600060088302620007da7fffffffffffffffffffffffffffffffffffffffffffffffffffffffffffffffff826200079b565b620007e686836200079b565b95508019841693508086168417925050509392505050565b6000819050919050565b600062000829620008236200081d84620004e1565b620007fe565b620004e1565b9050919050565b6000819050919050565b620008458362000808565b6200085d620008548262000830565b848454620007a8565b825550505050565b600090565b6200087462000865565b620008818184846200083a565b505050565b5b81811015620008a9576200089d6000826200086a565b60018101905062000887565b5050565b601f821115620008f857620008c28162000776565b620008cd846200078b565b81016020851015620008dd578190505b620008f5620008ec856200078b565b83018262000886565b50505b505050565b600082821c905092915050565b60006200091d60001984600802620008fd565b1980831691505092915050565b60006200093883836200090a565b9150826002028217905092915050565b620009538262000707565b67ffffffffffffffff8111156200096f576200096e62000318565b5b6200097b825462000741565b62000988828285620008ad565b600060209050601f831160018114620009c05760008415620009ab578287015190505b620009b785826200092a565b86555062000a27565b601f198416620009d08662000776565b60005b82811015620009fa57848901518255600182019150602085019450602081019050620009d3565b8683101562000a1a578489015162000a16601f8916826200090a565b8355505b6001600288020188555050505b505050505050565b7f4e487b7100000000000000000000000000000000000000000000000000000000600052601160045260246000fd5b600062000a6b82620004e1565b915062000a7883620004e1565b925082820262000a8881620004e1565b9150828204841483151762000aa25762000aa162000a2f565b5b5092915050565b600062000ab6826200047c565b9050919050565b62000ac88162000aa9565b82525050565b600060208201905062000ae5600083018462000abd565b92915050565b7f4e487b7100000000000000000000000000000000000000000000000000000000600052601260045260246000fd5b600062000b2782620004e1565b915062000b3483620004e1565b92508262000b475762000b4662000aeb565b5b828204905092915050565b600082825260208201905092915050565b7f496e76616c696420506572696f64000000000000000000000000000000000000600082015250565b600062000b9b600e8362000b52565b915062000ba88262000b63565b602082019050919050565b6000602082019050818103600083015262000bce8162000b8c565b9050919050565b7f4e487b7100000000000000000000000000000000000000000000000000000000600052603260045260246000fd5b600062000c1182620004e1565b91507fffffffffffffffffffffffffffffffffffffffffffffffffffffffffffffffff820362000c465762000c4562000a2f565b5b600182019050919050565b6125e58062000c616000396000f3fe6080604052600436106101355760003560e01c8063980e7844116100ab578063b84842311161006f578063b8484231146103af578063c435cf2d146103da578063d06ef16414610405578063dffde3ce14610430578063e2fdcc171461045b578063ec3246a21461048657610135565b8063980e7844146103215780639a82a09a146103385780639c10558214610363578063a6c3e6b91461036d578063b7acb19c1461039857610135565b8063590e1ae3116100fd578063590e1ae3146102355780635bf5d54c1461024c57806369d89575146102775780636f7bc9be1461028e5780637284e416146102cd5780638fbb38ff146102f857610135565b806305760a5a1461013a57806306fdde03146101655780630bfd1a1114610190578063344612c7146101cd5780633ba8e565146101f8575b600080fd5b34801561014657600080fd5b5061014f6104af565b60405161015c91906114f0565b60405180910390f35b34801561017157600080fd5b5061017a6104b5565b604051610187919061159b565b60405180910390f35b34801561019c57600080fd5b506101b760048036038101906101b291906115fd565b610543565b6040516101c49190611696565b60405180910390f35b3480156101d957600080fd5b506101e261060c565b6040516101ef91906114f0565b60405180910390f35b34801561020457600080fd5b5061021f600480360381019061021a91906115fd565b610612565b60405161022c91906116f2565b60405180910390f35b34801561024157600080fd5b5061024a610651565b005b34801561025857600080fd5b506102616107e4565b60405161026e91906114f0565b60405180910390f35b34801561028357600080fd5b5061028c6107ea565b005b34801561029a57600080fd5b506102b560048036038101906102b09190611739565b610992565b6040516102c493929190611775565b60405180910390f35b3480156102d957600080fd5b506102e2610a71565b6040516102ef919061159b565b60405180910390f35b34801561030457600080fd5b5061031f600480360381019061031a91906115fd565b610aff565b005b34801561032d57600080fd5b50610336610b4c565b005b34801561034457600080fd5b5061034d610d00565b60405161035a91906117b3565b60405180910390f35b61036b610d13565b005b34801561037957600080fd5b50610382610fa7565b60405161038f91906117ef565b60405180910390f35b3480156103a457600080fd5b506103ad610fcd565b005b3480156103bb57600080fd5b506103c46110e1565b6040516103d191906114f0565b60405180910390f35b3480156103e657600080fd5b506103ef611184565b6040516103fc9190611839565b60405180910390f35b34801561041157600080fd5b5061041a61122c565b60405161042791906114f0565b60405180910390f35b34801561043c57600080fd5b50610445611232565b60405161045291906114f0565b60405180910390f35b34801561046757600080fd5b50610470611238565b60405161047d91906118b3565b60405180910390f35b34801561049257600080fd5b506104ad60048036038101906104a89190611a03565b61125e565b005b60045481565b600080546104c290611a7b565b80601f01602080910402602001604051908101604052809291908181526020018280546104ee90611a7b565b801561053b5780601f106105105761010080835404028352916020019161053b565b820191906000526020600020905b81548152906001019060200180831161051e57829003601f168201915b505050505081565b61054b611498565b60045460055461055b9190611b0a565b82111561059d576040517f08c379a000000000000000000000000000000000000000000000000000000000815260040161059490611b87565b60405180910390fd5b600d6001836105ac9190611ba7565b815481106105bd576105bc611bdb565b5b906000526020600020906003020160405180606001604052908160008201548152602001600182015481526020016002820160009054906101000a900460ff1615151515815250509050919050565b60065481565b600b818154811061062257600080fd5b906000526020600020016000915054906101000a900473ffffffffffffffffffffffffffffffffffffffff1681565b600a60003373ffffffffffffffffffffffffffffffffffffffff1673ffffffffffffffffffffffffffffffffffffffff16815260200190815260200160002060010160149054906101000a900460ff166106e0576040517f08c379a00000000000000000000000000000000000000000000000000000000081526004016106d790611c7c565b60405180910390fd5b600360009054906101000a900473ffffffffffffffffffffffffffffffffffffffff1673ffffffffffffffffffffffffffffffffffffffff1663fa89401a336040518263ffffffff1660e01b815260040161073b91906116f2565b600060405180830381600087803b15801561075557600080fd5b505af1158015610769573d6000803e3d6000fd5b505050507f1b7ba75643ab42927a47f2481d63cb47a9cd2dca64188a70849cf8e6ccd9db0f600a60003373ffffffffffffffffffffffffffffffffffffffff1673ffffffffffffffffffffffffffffffffffffffff1681526020019081526020016000206040516107da9190611e30565b60405180910390a1565b600e5481565b6004546005546107fa9190611b0a565b600e54111561083e576040517f08c379a000000000000000000000000000000000000000000000000000000000815260040161083590611b87565b60405180910390fd5b6000600d6001600e546108519190611ba7565b8154811061086257610861611bdb565b5b906000526020600020906003020160405180606001604052908160008201548152602001600182015481526020016002820160009054906101000a900460ff1615151515815250509050600360009054906101000a900473ffffffffffffffffffffffffffffffffffffffff1673ffffffffffffffffffffffffffffffffffffffff1663efcf51cc600b83600001516040518363ffffffff1660e01b815260040161090e929190611f20565b600060405180830381600087803b15801561092857600080fd5b505af115801561093c573d6000803e3d6000fd5b50505050600e600081548092919061095390611f50565b91905055507fab0bbc5225ed82879961bbdb8f081389f2fb2fff5f855db942d1565241974208816040516109879190611696565b60405180910390a150565b600a6020528060005260406000206000915090508060000180546109b590611a7b565b80601f01602080910402602001604051908101604052809291908181526020018280546109e190611a7b565b8015610a2e5780601f10610a0357610100808354040283529160200191610a2e565b820191906000526020600020905b815481529060010190602001808311610a1157829003601f168201915b5050505050908060010160009054906101000a900473ffffffffffffffffffffffffffffffffffffffff16908060010160149054906101000a900460ff16905083565b60018054610a7e90611a7b565b80601f0160208091040260200160405190810160405280929190818152602001828054610aaa90611a7b565b8015610af75780601f10610acc57610100808354040283529160200191610af7565b820191906000526020600020905b815481529060010190602001808311610ada57829003601f168201915b505050505081565b6001600d600183610b109190611ba7565b81548110610b2157610b20611bdb565b5b906000526020600020906003020160020160006101000a81548160ff02191690831515021790555050565b600260009054906101000a900473ffffffffffffffffffffffffffffffffffffffff1673ffffffffffffffffffffffffffffffffffffffff163373ffffffffffffffffffffffffffffffffffffffff1614610bdc576040517f08c379a0000000000000000000000000000000000000000000000000000000008152600401610bd39061200a565b60405180910390fd5b60005b600c54811015610cc757600360009054906101000a900473ffffffffffffffffffffffffffffffffffffffff1673ffffffffffffffffffffffffffffffffffffffff1663fa89401a600b8381548110610c3b57610c3a611bdb565b5b9060005260206000200160009054906101000a900473ffffffffffffffffffffffffffffffffffffffff166040518263ffffffff1660e01b8152600401610c8291906116f2565b600060405180830381600087803b158015610c9c57600080fd5b505af1158015610cb0573d6000803e3d6000fd5b505050508080610cbf90611f50565b915050610bdf565b506000600760006101000a81548160ff0219169083151502179055506001600760026101000a81548160ff021916908315150217905550565b600760029054906101000a900460ff1681565b600a60003373ffffffffffffffffffffffffffffffffffffffff1673ffffffffffffffffffffffffffffffffffffffff16815260200190815260200160002060010160149054906101000a900460ff16610da2576040517f08c379a0000000000000000000000000000000000000000000000000000000008152600401610d999061209c565b60405180910390fd5b600360009054906101000a900473ffffffffffffffffffffffffffffffffffffffff1673ffffffffffffffffffffffffffffffffffffffff1663f340fa0134336040518363ffffffff1660e01b8152600401610dfe91906116f2565b6000604051808303818588803b158015610e1757600080fd5b505af1158015610e2b573d6000803e3d6000fd5b505050505060646006546064600360009054906101000a900473ffffffffffffffffffffffffffffffffffffffff1673ffffffffffffffffffffffffffffffffffffffff1631610e7b91906120bc565b610e859190611b0a565b10610f2e576001600760016101000a81548160ff0219169083151502179055504260088190555060004290506000600454600554610ec39190611b0a565b905060005b81811015610f2a5760045483610ede91906120fe565b600d8281548110610ef257610ef1611bdb565b5b90600052602060002090600302016001018190555060045483610f1591906120fe565b92508080610f2290611f50565b915050610ec8565b5050505b7fadaf7b0a13ca988bb7ec352abeea5619f1865a53553dbd99c06a1089cbdf8a4d600a60003373ffffffffffffffffffffffffffffffffffffffff1673ffffffffffffffffffffffffffffffffffffffff16815260200190815260200160002034604051610f9d929190612132565b60405180910390a1565b600260009054906101000a900473ffffffffffffffffffffffffffffffffffffffff1681565b600260009054906101000a900473ffffffffffffffffffffffffffffffffffffffff1673ffffffffffffffffffffffffffffffffffffffff163373ffffffffffffffffffffffffffffffffffffffff161461105d576040517f08c379a0000000000000000000000000000000000000000000000000000000008152600401611054906121d4565b60405180910390fd5b600360009054906101000a900473ffffffffffffffffffffffffffffffffffffffff1673ffffffffffffffffffffffffffffffffffffffff1663a369db8d6040518163ffffffff1660e01b8152600401600060405180830381600087803b1580156110c757600080fd5b505af11580156110db573d6000803e3d6000fd5b50505050565b6000600360009054906101000a900473ffffffffffffffffffffffffffffffffffffffff1673ffffffffffffffffffffffffffffffffffffffff16639e0b51fb336040518263ffffffff1660e01b815260040161113e91906116f2565b602060405180830381865afa15801561115b573d6000803e3d6000fd5b505050506040513d601f19601f8201168201806040525081019061117f9190612209565b905090565b61118c6114bb565b600360009054906101000a900473ffffffffffffffffffffffffffffffffffffffff1673ffffffffffffffffffffffffffffffffffffffff1663bcad0083336040518263ffffffff1660e01b81526004016111e791906116f2565b6040805180830381865afa158015611203573d6000803e3d6000fd5b505050506040513d601f19601f8201168201806040525081019061122791906122b7565b905090565b60085481565b60055481565b600360009054906101000a900473ffffffffffffffffffffffffffffffffffffffff1681565b600a60003373ffffffffffffffffffffffffffffffffffffffff1673ffffffffffffffffffffffffffffffffffffffff16815260200190815260200160002060010160149054906101000a900460ff16156112ee576040517f08c379a00000000000000000000000000000000000000000000000000000000081526004016112e590612330565b60405180910390fd5b33600a60003373ffffffffffffffffffffffffffffffffffffffff1673ffffffffffffffffffffffffffffffffffffffff16815260200190815260200160002060010160006101000a81548173ffffffffffffffffffffffffffffffffffffffff021916908373ffffffffffffffffffffffffffffffffffffffff16021790555080600a60003373ffffffffffffffffffffffffffffffffffffffff1673ffffffffffffffffffffffffffffffffffffffff16815260200190815260200160002060000190816113be91906124dd565b506001600a60003373ffffffffffffffffffffffffffffffffffffffff1673ffffffffffffffffffffffffffffffffffffffff16815260200190815260200160002060010160146101000a81548160ff021916908315150217905550600b339080600181540180825580915050600190039060005260206000200160009091909190916101000a81548173ffffffffffffffffffffffffffffffffffffffff021916908373ffffffffffffffffffffffffffffffffffffffff160217905550600c600081548092919061149090611f50565b919050555050565b604051806060016040528060008152602001600081526020016000151581525090565b6040518060400160405280600081526020016000151581525090565b6000819050919050565b6114ea816114d7565b82525050565b600060208201905061150560008301846114e1565b92915050565b600081519050919050565b600082825260208201905092915050565b60005b8381101561154557808201518184015260208101905061152a565b60008484015250505050565b6000601f19601f8301169050919050565b600061156d8261150b565b6115778185611516565b9350611587818560208601611527565b61159081611551565b840191505092915050565b600060208201905081810360008301526115b58184611562565b905092915050565b6000604051905090565b600080fd5b600080fd5b6115da816114d7565b81146115e557600080fd5b50565b6000813590506115f7816115d1565b92915050565b600060208284031215611613576116126115c7565b5b6000611621848285016115e8565b91505092915050565b611633816114d7565b82525050565b60008115159050919050565b61164e81611639565b82525050565b60608201600082015161166a600085018261162a565b50602082015161167d602085018261162a565b5060408201516116906040850182611645565b50505050565b60006060820190506116ab6000830184611654565b92915050565b600073ffffffffffffffffffffffffffffffffffffffff82169050919050565b60006116dc826116b1565b9050919050565b6116ec816116d1565b82525050565b600060208201905061170760008301846116e3565b92915050565b611716816116d1565b811461172157600080fd5b50565b6000813590506117338161170d565b92915050565b60006020828403121561174f5761174e6115c7565b5b600061175d84828501611724565b91505092915050565b61176f81611639565b82525050565b6000606082019050818103600083015261178f8186611562565b905061179e60208301856116e3565b6117ab6040830184611766565b949350505050565b60006020820190506117c86000830184611766565b92915050565b60006117d9826116b1565b9050919050565b6117e9816117ce565b82525050565b600060208201905061180460008301846117e0565b92915050565b604082016000820151611820600085018261162a565b5060208201516118336020850182611645565b50505050565b600060408201905061184e600083018461180a565b92915050565b6000819050919050565b600061187961187461186f846116b1565b611854565b6116b1565b9050919050565b600061188b8261185e565b9050919050565b600061189d82611880565b9050919050565b6118ad81611892565b82525050565b60006020820190506118c860008301846118a4565b92915050565b600080fd5b600080fd5b7f4e487b7100000000000000000000000000000000000000000000000000000000600052604160045260246000fd5b61191082611551565b810181811067ffffffffffffffff8211171561192f5761192e6118d8565b5b80604052505050565b60006119426115bd565b905061194e8282611907565b919050565b600067ffffffffffffffff82111561196e5761196d6118d8565b5b61197782611551565b9050602081019050919050565b82818337600083830152505050565b60006119a66119a184611953565b611938565b9050828152602081018484840111156119c2576119c16118d3565b5b6119cd848285611984565b509392505050565b600082601f8301126119ea576119e96118ce565b5b81356119fa848260208601611993565b91505092915050565b600060208284031215611a1957611a186115c7565b5b600082013567ffffffffffffffff811115611a3757611a366115cc565b5b611a43848285016119d5565b91505092915050565b7f4e487b7100000000000000000000000000000000000000000000000000000000600052602260045260246000fd5b60006002820490506001821680611a9357607f821691505b602082108103611aa657611aa5611a4c565b5b50919050565b7f4e487b7100000000000000000000000000000000000000000000000000000000600052601260045260246000fd5b7f4e487b7100000000000000000000000000000000000000000000000000000000600052601160045260246000fd5b6000611b15826114d7565b9150611b20836114d7565b925082611b3057611b2f611aac565b5b828204905092915050565b7f496e76616c6964205374616765204e6f2e000000000000000000000000000000600082015250565b6000611b71601183611516565b9150611b7c82611b3b565b602082019050919050565b60006020820190508181036000830152611ba081611b64565b9050919050565b6000611bb2826114d7565b9150611bbd836114d7565b9250828203905081811115611bd557611bd4611adb565b5b92915050565b7f4e487b7100000000000000000000000000000000000000000000000000000000600052603260045260246000fd5b7f4f6e6c7920696e766573746f72732063616e2063616c6c20746869732066756e60008201527f6374696f6e000000000000000000000000000000000000000000000000000000602082015250565b6000611c66602583611516565b9150611c7182611c0a565b604082019050919050565b60006020820190508181036000830152611c9581611c59565b9050919050565b600082825260208201905092915050565b60008190508160005260206000209050919050565b60008154611ccf81611a7b565b611cd98186611c9c565b94506001821660008114611cf45760018114611d0a57611d3d565b60ff198316865281151560200286019350611d3d565b611d1385611cad565b60005b83811015611d3557815481890152600182019150602081019050611d16565b808801955050505b50505092915050565b60008160001c9050919050565b600073ffffffffffffffffffffffffffffffffffffffff82169050919050565b6000611d86611d8183611d46565b611d53565b9050919050565b611d96816116d1565b82525050565b60008160a01c9050919050565b600060ff82169050919050565b6000611dc9611dc483611d9c565b611da9565b9050919050565b60006060830160008084018583036000870152611ded8382611cc2565b92505060018401549050611e0081611d73565b611e0d6020870182611d8d565b50611e1781611db6565b611e246040870182611645565b50819250505092915050565b60006020820190508181036000830152611e4a8184611dd0565b905092915050565b600081549050919050565b600082825260208201905092915050565b60008190508160005260206000209050919050565b6000611e8f8383611d8d565b60208301905092915050565b6000611ea78254611d73565b9050919050565b6000600182019050919050565b6000611ec682611e52565b611ed08185611e5d565b9350611edb83611e6e565b8060005b83811015611f1357611ef082611e9b565b611efa8882611e83565b9750611f0583611eae565b925050600181019050611edf565b5085935050505092915050565b60006040820190508181036000830152611f3a8185611ebb565b9050611f4960208301846114e1565b9392505050565b6000611f5b826114d7565b91507fffffffffffffffffffffffffffffffffffffffffffffffffffffffffffffffff8203611f8d57611f8c611adb565b5b600182019050919050565b7f4f6e6c792043616d706169676e20617574686f722063616e2063616e63656c2060008201527f612063616d706169676e2e000000000000000000000000000000000000000000602082015250565b6000611ff4602b83611516565b9150611fff82611f98565b604082019050919050565b6000602082019050818103600083015261202381611fe7565b9050919050565b7f506c6561736520526567697374657220617320696e766573746f72206265666f60008201527f726520706c656467696e672066756e6473000000000000000000000000000000602082015250565b6000612086603183611516565b91506120918261202a565b604082019050919050565b600060208201905081810360008301526120b581612079565b9050919050565b60006120c7826114d7565b91506120d2836114d7565b92508282026120e0816114d7565b915082820484148315176120f7576120f6611adb565b5b5092915050565b6000612109826114d7565b9150612114836114d7565b925082820190508082111561212c5761212b611adb565b5b92915050565b6000604082019050818103600083015261214c8185611dd0565b905061215b60208301846114e1565b9392505050565b7f4f6e6c792043616d706169676e20617574686f722063616e20636f6d706c657460008201527f6520612063616d706169676e2e00000000000000000000000000000000000000602082015250565b60006121be602d83611516565b91506121c982612162565b604082019050919050565b600060208201905081810360008301526121ed816121b1565b9050919050565b600081519050612203816115d1565b92915050565b60006020828403121561221f5761221e6115c7565b5b600061222d848285016121f4565b91505092915050565b600080fd5b61224481611639565b811461224f57600080fd5b50565b6000815190506122618161223b565b92915050565b60006040828403121561227d5761227c612236565b5b6122876040611938565b90506000612297848285016121f4565b60008301525060206122ab84828501612252565b60208301525092915050565b6000604082840312156122cd576122cc6115c7565b5b60006122db84828501612267565b91505092915050565b7f416c726561647920526567697374657265640000000000000000000000000000600082015250565b600061231a601283611516565b9150612325826122e4565b602082019050919050565b600060208201905081810360008301526123498161230d565b9050919050565b60006020601f8301049050919050565b600082821b905092915050565b60006008830261239d7fffffffffffffffffffffffffffffffffffffffffffffffffffffffffffffffff82612360565b6123a78683612360565b95508019841693508086168417925050509392505050565b60006123da6123d56123d0846114d7565b611854565b6114d7565b9050919050565b6000819050919050565b6123f4836123bf565b612408612400826123e1565b84845461236d565b825550505050565b600090565b61241d612410565b6124288184846123eb565b505050565b5b8181101561244c57612441600082612415565b60018101905061242e565b5050565b601f8211156124915761246281611cad565b61246b84612350565b8101602085101561247a578190505b61248e61248685612350565b83018261242d565b50505b505050565b600082821c905092915050565b60006124b460001984600802612496565b1980831691505092915050565b60006124cd83836124a3565b9150826002028217905092915050565b6124e68261150b565b67ffffffffffffffff8111156124ff576124fe6118d8565b5b6125098254611a7b565b612514828285612450565b600060209050601f8311600181146125475760008415612535578287015190505b61253f85826124c1565b8655506125a7565b601f19841661255586611cad565b60005b8281101561257d57848901518255600182019150602085019450602081019050612558565b8683101561259a5784890151612596601f8916826124a3565b8355505b6001600288020188555050505b50505050505056fea2646970667358221220ad43ccb79c6ea785731851724ecd9829bca68a3a61e804c8d3e25d1d4c84b9f964736f6c6343000811003360806040523480156200001157600080fd5b50604051620013e7380380620013e7833981810160405281019062000037919062000157565b60008060006101000a81548160ff021916908360018111156200005f576200005e62000189565b5b021790555080600260006101000a81548173ffffffffffffffffffffffffffffffffffffffff021916908373ffffffffffffffffffffffffffffffffffffffff16021790555033600360006101000a81548173ffffffffffffffffffffffffffffffffffffffff021916908373ffffffffffffffffffffffffffffffffffffffff16021790555050620001b8565b600080fd5b600073ffffffffffffffffffffffffffffffffffffffff82169050919050565b60006200011f82620000f2565b9050919050565b620001318162000112565b81146200013d57600080fd5b50565b600081519050620001518162000126565b92915050565b60006020828403121562000170576200016f620000ed565b5b6000620001808482850162000140565b91505092915050565b7f4e487b7100000000000000000000000000000000000000000000000000000000600052602160045260246000fd5b61121f80620001c86000396000f3fe6080604052600436106100705760003560e01c8063bcad00831161004e578063bcad0083146100f4578063efcf51cc14610131578063f340fa011461015a578063fa89401a1461017657610070565b806308551a53146100755780639e0b51fb146100a0578063a369db8d146100dd575b600080fd5b34801561008157600080fd5b5061008a61019f565b6040516100979190610b42565b60405180910390f35b3480156100ac57600080fd5b506100c760048036038101906100c29190610ba5565b6101c5565b6040516100d49190610beb565b60405180910390f35b3480156100e957600080fd5b506100f26102b9565b005b34801561010057600080fd5b5061011b60048036038101906101169190610ba5565b61042b565b6040516101289190610c5f565b60405180910390f35b34801561013d57600080fd5b5061015860048036038101906101539190610d0b565b61053a565b005b610174600480360381019061016f9190610ba5565b610823565b005b34801561018257600080fd5b5061019d60048036038101906101989190610ba5565b61094c565b005b600260009054906101000a900473ffffffffffffffffffffffffffffffffffffffff1681565b600081600160008273ffffffffffffffffffffffffffffffffffffffff1673ffffffffffffffffffffffffffffffffffffffff16815260200190815260200160002060010160009054906101000a900460ff16610257576040517f08c379a000000000000000000000000000000000000000000000000000000000815260040161024e90610dee565b60405180910390fd5b476064600160008673ffffffffffffffffffffffffffffffffffffffff1673ffffffffffffffffffffffffffffffffffffffff168152602001908152602001600020600001546102a79190610e3d565b6102b19190610eae565b915050919050565b600360009054906101000a900473ffffffffffffffffffffffffffffffffffffffff1673ffffffffffffffffffffffffffffffffffffffff163373ffffffffffffffffffffffffffffffffffffffff1614610349576040517f08c379a000000000000000000000000000000000000000000000000000000000815260040161034090610f51565b60405180910390fd5b60004711156103bc57600260009054906101000a900473ffffffffffffffffffffffffffffffffffffffff1673ffffffffffffffffffffffffffffffffffffffff166108fc479081150290604051600060405180830381858888f193505050501580156103ba573d6000803e3d6000fd5b505b60016000806101000a81548160ff021916908360018111156103e1576103e0610f71565b5b021790555060004714610429576040517f08c379a000000000000000000000000000000000000000000000000000000000815260040161042090611012565b60405180910390fd5b565b610433610ae5565b81600160008273ffffffffffffffffffffffffffffffffffffffff1673ffffffffffffffffffffffffffffffffffffffff16815260200190815260200160002060010160009054906101000a900460ff166104c3576040517f08c379a00000000000000000000000000000000000000000000000000000000081526004016104ba90610dee565b60405180910390fd5b600160008473ffffffffffffffffffffffffffffffffffffffff1673ffffffffffffffffffffffffffffffffffffffff168152602001908152602001600020604051806040016040529081600082015481526020016001820160009054906101000a900460ff161515151581525050915050919050565b600360009054906101000a900473ffffffffffffffffffffffffffffffffffffffff1673ffffffffffffffffffffffffffffffffffffffff163373ffffffffffffffffffffffffffffffffffffffff16146105ca576040517f08c379a00000000000000000000000000000000000000000000000000000000081526004016105c190610f51565b60405180910390fd5b60005b8383905081101561081d576000476064600160008888878181106105f4576105f3611032565b5b90506020020160208101906106099190610ba5565b73ffffffffffffffffffffffffffffffffffffffff1673ffffffffffffffffffffffffffffffffffffffff168152602001908152602001600020600001546106519190610e3d565b61065b9190610eae565b9050478311156106a0576040517f08c379a0000000000000000000000000000000000000000000000000000000008152600401610697906110ad565b60405180910390fd5b600260009054906101000a900473ffffffffffffffffffffffffffffffffffffffff1673ffffffffffffffffffffffffffffffffffffffff166108fc849081150290604051600060405180830381858888f19350505050158015610708573d6000803e3d6000fd5b506064816001600088888781811061072357610722611032565b5b90506020020160208101906107389190610ba5565b73ffffffffffffffffffffffffffffffffffffffff1673ffffffffffffffffffffffffffffffffffffffff168152602001908152602001600020600001546107809190610e3d565b61078a9190610eae565b600160008787868181106107a1576107a0611032565b5b90506020020160208101906107b69190610ba5565b73ffffffffffffffffffffffffffffffffffffffff1673ffffffffffffffffffffffffffffffffffffffff168152602001908152602001600020600001600082825461080291906110cd565b9250508190555050808061081590611101565b9150506105cd565b50505050565b60018081111561083657610835610f71565b5b60008054906101000a900460ff16600181111561085657610855610f71565b5b03610896576040517f08c379a000000000000000000000000000000000000000000000000000000000815260040161088d90611195565b60405180910390fd5b34600160008373ffffffffffffffffffffffffffffffffffffffff1673ffffffffffffffffffffffffffffffffffffffff16815260200190815260200160002060000160008282546108e891906111b5565b9250508190555060018060008373ffffffffffffffffffffffffffffffffffffffff1673ffffffffffffffffffffffffffffffffffffffff16815260200190815260200160002060010160006101000a81548160ff02191690831515021790555050565b80600160008273ffffffffffffffffffffffffffffffffffffffff1673ffffffffffffffffffffffffffffffffffffffff16815260200190815260200160002060010160009054906101000a900460ff166109dc576040517f08c379a00000000000000000000000000000000000000000000000000000000081526004016109d390610dee565b60405180910390fd5b6000476064600160008673ffffffffffffffffffffffffffffffffffffffff1673ffffffffffffffffffffffffffffffffffffffff16815260200190815260200160002060000154610a2e9190610e3d565b610a389190610eae565b90508273ffffffffffffffffffffffffffffffffffffffff166108fc60648347610a629190610e3d565b610a6c9190610eae565b9081150290604051600060405180830381858888f19350505050158015610a97573d6000803e3d6000fd5b506000600160008573ffffffffffffffffffffffffffffffffffffffff1673ffffffffffffffffffffffffffffffffffffffff16815260200190815260200160002060000181905550505050565b6040518060400160405280600081526020016000151581525090565b600073ffffffffffffffffffffffffffffffffffffffff82169050919050565b6000610b2c82610b01565b9050919050565b610b3c81610b21565b82525050565b6000602082019050610b576000830184610b33565b92915050565b600080fd5b600080fd5b6000610b7282610b01565b9050919050565b610b8281610b67565b8114610b8d57600080fd5b50565b600081359050610b9f81610b79565b92915050565b600060208284031215610bbb57610bba610b5d565b5b6000610bc984828501610b90565b91505092915050565b6000819050919050565b610be581610bd2565b82525050565b6000602082019050610c006000830184610bdc565b92915050565b610c0f81610bd2565b82525050565b60008115159050919050565b610c2a81610c15565b82525050565b604082016000820151610c466000850182610c06565b506020820151610c596020850182610c21565b50505050565b6000604082019050610c746000830184610c30565b92915050565b600080fd5b600080fd5b600080fd5b60008083601f840112610c9f57610c9e610c7a565b5b8235905067ffffffffffffffff811115610cbc57610cbb610c7f565b5b602083019150836020820283011115610cd857610cd7610c84565b5b9250929050565b610ce881610bd2565b8114610cf357600080fd5b50565b600081359050610d0581610cdf565b92915050565b600080600060408486031215610d2457610d23610b5d565b5b600084013567ffffffffffffffff811115610d4257610d41610b62565b5b610d4e86828701610c89565b93509350506020610d6186828701610cf6565b9150509250925092565b600082825260208201905092915050565b7f4f6e6c7920496e766573746f72732063616e2063616c6c207468652066756e6360008201527f74696f6e00000000000000000000000000000000000000000000000000000000602082015250565b6000610dd8602483610d6b565b9150610de382610d7c565b604082019050919050565b60006020820190508181036000830152610e0781610dcb565b9050919050565b7f4e487b7100000000000000000000000000000000000000000000000000000000600052601160045260246000fd5b6000610e4882610bd2565b9150610e5383610bd2565b9250828202610e6181610bd2565b91508282048414831517610e7857610e77610e0e565b5b5092915050565b7f4e487b7100000000000000000000000000000000000000000000000000000000600052601260045260246000fd5b6000610eb982610bd2565b9150610ec483610bd2565b925082610ed457610ed3610e7f565b5b828204905092915050565b7f4f6e6c79206f776e6572732063616e2063616c6c207468652066756e6374696f60008201527f6e00000000000000000000000000000000000000000000000000000000000000602082015250565b6000610f3b602183610d6b565b9150610f4682610edf565b604082019050919050565b60006020820190508181036000830152610f6a81610f2e565b9050919050565b7f4e487b7100000000000000000000000000000000000000000000000000000000600052602160045260246000fd5b7f42616c616e6365206973207374696c6c206c65667420696e2074686520636f6e60008201527f7472616374000000000000000000000000000000000000000000000000000000602082015250565b6000610ffc602583610d6b565b915061100782610fa0565b604082019050919050565b6000602082019050818103600083015261102b81610fef565b9050919050565b7f4e487b7100000000000000000000000000000000000000000000000000000000600052603260045260246000fd5b7f416d6f756e7420657863656564732062616c616e636500000000000000000000600082015250565b6000611097601683610d6b565b91506110a282611061565b602082019050919050565b600060208201905081810360008301526110c68161108a565b9050919050565b60006110d882610bd2565b91506110e383610bd2565b92508282039050818111156110fb576110fa610e0e565b5b92915050565b600061110c82610bd2565b91507fffffffffffffffffffffffffffffffffffffffffffffffffffffffffffffffff820361113e5761113d610e0e565b5b600182019050919050565b7f416c726561647920506169640000000000000000000000000000000000000000600082015250565b600061117f600c83610d6b565b915061118a82611149565b602082019050919050565b600060208201905081810360008301526111ae81611172565b9050919050565b60006111c082610bd2565b91506111cb83610bd2565b92508282019050808211156111e3576111e2610e0e565b5b9291505056fea26469706673582212206bf030930813d3ec2708d11be77a8d1b7c30c1130b13888ce97c9300624bc18164736f6c63430008110033",
  "linkReferences": {},
  "deployedLinkReferences": {}
}