{
  "_format": "hh-sol-artifact-1",
  "contractName": "Campaign",
  "sourceName": "contracts/Campaign.sol",
  "abi": [
    {
      "inputs": [
        {
          "internalType": "string",
          "name": "_name",
          "type": "string"
        },
        {
          "internalType": "string",
          "name": "_description",
          "type": "string"
        },
        {
          "internalType": "address",
          "name": "_author",
          "type": "address"
        },
        {
          "internalType": "uint256",
          "name": "_sPeriod",
          "type": "uint256"
        },
        {
          "internalType": "uint256",
          "name": "_totalProjectTime",
          "type": "uint256"
        },
        {
          "internalType": "uint256",
          "name": "_totalAmountNeeded",
          "type": "uint256"
        },
        {
          "internalType": "uint256[]",
          "name": "_stages",
          "type": "uint256[]"
        },
        {
          "internalType": "string",
          "name": "_coverImg",
          "type": "string"
        }
      ],
      "stateMutability": "nonpayable",
      "type": "constructor"
    },
    {
      "anonymous": false,
      "inputs": [],
      "name": "CampaignCompleted",
      "type": "event"
    },
    {
      "anonymous": false,
      "inputs": [],
      "name": "CampaignRaised",
      "type": "event"
    },
    {
      "anonymous": false,
      "inputs": [
        {
          "components": [
            {
              "internalType": "string",
              "name": "name",
              "type": "string"
            },
            {
              "internalType": "address",
              "name": "addr",
              "type": "address"
            },
            {
              "internalType": "bool",
              "name": "isValid",
              "type": "bool"
            }
          ],
          "indexed": false,
          "internalType": "struct Campaign.Investor",
          "name": "i",
          "type": "tuple"
        },
        {
          "indexed": false,
          "internalType": "uint256",
          "name": "amount",
          "type": "uint256"
        }
      ],
      "name": "FundsPledged",
      "type": "event"
    },
    {
      "anonymous": false,
      "inputs": [
        {
          "components": [
            {
              "internalType": "string",
              "name": "name",
              "type": "string"
            },
            {
              "internalType": "address",
              "name": "addr",
              "type": "address"
            },
            {
              "internalType": "bool",
              "name": "isValid",
              "type": "bool"
            }
          ],
          "indexed": false,
          "internalType": "struct Campaign.Investor",
          "name": "i",
          "type": "tuple"
        }
      ],
      "name": "FundsPulledOut",
      "type": "event"
    },
    {
      "anonymous": false,
      "inputs": [
        {
          "components": [
            {
              "internalType": "uint256",
              "name": "amountNeeded",
              "type": "uint256"
            },
            {
              "internalType": "uint256",
              "name": "deadline",
              "type": "uint256"
            },
            {
              "internalType": "bool",
              "name": "voted",
              "type": "bool"
            }
          ],
          "indexed": false,
          "internalType": "struct Campaign.Stage",
          "name": "s",
          "type": "tuple"
        }
      ],
      "name": "FundsReleased",
      "type": "event"
    },
    {
      "inputs": [],
      "name": "author",
      "outputs": [
        {
          "internalType": "address payable",
          "name": "",
          "type": "address"
        }
      ],
      "stateMutability": "view",
      "type": "function"
    },
    {
      "inputs": [],
      "name": "cancelCampaign",
      "outputs": [],
      "stateMutability": "nonpayable",
      "type": "function"
    },
    {
      "inputs": [],
      "name": "cancelled",
      "outputs": [
        {
          "internalType": "bool",
          "name": "",
          "type": "bool"
        }
      ],
      "stateMutability": "view",
      "type": "function"
    },
    {
      "inputs": [],
      "name": "completeCampaign",
      "outputs": [],
      "stateMutability": "nonpayable",
      "type": "function"
    },
    {
      "inputs": [],
      "name": "coverImg",
      "outputs": [
        {
          "internalType": "string",
          "name": "",
          "type": "string"
        }
      ],
      "stateMutability": "view",
      "type": "function"
    },
    {
      "inputs": [],
      "name": "currentStage",
      "outputs": [
        {
          "internalType": "uint256",
          "name": "",
          "type": "uint256"
        }
      ],
      "stateMutability": "view",
      "type": "function"
    },
    {
      "inputs": [],
      "name": "description",
      "outputs": [
        {
          "internalType": "string",
          "name": "",
          "type": "string"
        }
      ],
      "stateMutability": "view",
      "type": "function"
    },
    {
      "inputs": [],
      "name": "escrow",
      "outputs": [
        {
          "internalType": "contract Escrow",
          "name": "",
          "type": "address"
        }
      ],
      "stateMutability": "view",
      "type": "function"
    },
    {
      "inputs": [],
      "name": "getInvestorProfile",
      "outputs": [
        {
          "components": [
            {
              "internalType": "uint256",
              "name": "amount",
              "type": "uint256"
            },
            {
              "internalType": "uint256",
              "name": "ratio",
              "type": "uint256"
            },
            {
              "internalType": "bool",
              "name": "isValid",
              "type": "bool"
            }
          ],
          "internalType": "struct Escrow.Investment",
          "name": "",
          "type": "tuple"
        }
      ],
      "stateMutability": "view",
      "type": "function"
    },
    {
      "inputs": [],
      "name": "getInvestorRatio",
      "outputs": [
        {
          "internalType": "uint256",
          "name": "",
          "type": "uint256"
        }
      ],
      "stateMutability": "view",
      "type": "function"
    },
    {
      "inputs": [
        {
          "internalType": "uint256",
          "name": "stageNo",
          "type": "uint256"
        }
      ],
      "name": "getStageDetail",
      "outputs": [
        {
          "components": [
            {
              "internalType": "uint256",
              "name": "amountNeeded",
              "type": "uint256"
            },
            {
              "internalType": "uint256",
              "name": "deadline",
              "type": "uint256"
            },
            {
              "internalType": "bool",
              "name": "voted",
              "type": "bool"
            }
          ],
          "internalType": "struct Campaign.Stage",
          "name": "",
          "type": "tuple"
        }
      ],
      "stateMutability": "view",
      "type": "function"
    },
    {
      "inputs": [],
      "name": "goalReached",
      "outputs": [
        {
          "internalType": "bool",
          "name": "",
          "type": "bool"
        }
      ],
      "stateMutability": "view",
      "type": "function"
    },
    {
      "inputs": [
        {
          "internalType": "uint256",
          "name": "",
          "type": "uint256"
        }
      ],
      "name": "investorLUT",
      "outputs": [
        {
          "internalType": "address",
          "name": "",
          "type": "address"
        }
      ],
      "stateMutability": "view",
      "type": "function"
    },
    {
      "inputs": [
        {
          "internalType": "address",
          "name": "",
          "type": "address"
        }
      ],
      "name": "investors",
      "outputs": [
        {
          "internalType": "string",
          "name": "name",
          "type": "string"
        },
        {
          "internalType": "address",
          "name": "addr",
          "type": "address"
        },
        {
          "internalType": "bool",
          "name": "isValid",
          "type": "bool"
        }
      ],
      "stateMutability": "view",
      "type": "function"
    },
    {
      "inputs": [],
      "name": "name",
      "outputs": [
        {
          "internalType": "string",
          "name": "",
          "type": "string"
        }
      ],
      "stateMutability": "view",
      "type": "function"
    },
    {
      "inputs": [],
      "name": "pledgeFunds",
      "outputs": [],
      "stateMutability": "payable",
      "type": "function"
    },
    {
      "inputs": [],
      "name": "projectDeadlineStartTime",
      "outputs": [
        {
          "internalType": "uint256",
          "name": "",
          "type": "uint256"
        }
      ],
      "stateMutability": "view",
      "type": "function"
    },
    {
      "inputs": [],
      "name": "refund",
      "outputs": [],
      "stateMutability": "nonpayable",
      "type": "function"
    },
    {
      "inputs": [
        {
          "internalType": "string",
          "name": "_name",
          "type": "string"
        }
      ],
      "name": "registerInvestor",
      "outputs": [],
      "stateMutability": "nonpayable",
      "type": "function"
    },
    {
      "inputs": [],
      "name": "releaseFunds",
      "outputs": [],
      "stateMutability": "nonpayable",
      "type": "function"
    },
    {
      "inputs": [],
      "name": "stagePeriod",
      "outputs": [
        {
          "internalType": "uint256",
          "name": "",
          "type": "uint256"
        }
      ],
      "stateMutability": "view",
      "type": "function"
    },
    {
      "inputs": [],
      "name": "totalAmountNeeded",
      "outputs": [
        {
          "internalType": "uint256",
          "name": "",
          "type": "uint256"
        }
      ],
      "stateMutability": "view",
      "type": "function"
    },
    {
      "inputs": [],
      "name": "totalProjectTime",
      "outputs": [
        {
          "internalType": "uint256",
          "name": "",
          "type": "uint256"
        }
      ],
      "stateMutability": "view",
      "type": "function"
    },
    {
      "inputs": [
        {
          "internalType": "uint256",
          "name": "stageNo",
          "type": "uint256"
        }
      ],
      "name": "voted",
      "outputs": [],
      "stateMutability": "nonpayable",
      "type": "function"
    }
  ],
  "bytecode": "0x60806040526001600f553480156200001657600080fd5b5060405162004b9538038062004b9583398181016040528101906200003c91906200060a565b87600090816200004d919062000990565b5086600190816200005f919062000990565b5085600260006101000a81548173ffffffffffffffffffffffffffffffffffffffff021916908373ffffffffffffffffffffffffffffffffffffffff1602179055506201518085620000b2919062000aa6565b6004819055506201518084620000c9919062000aa6565b6005819055508260068190555085604051620000e590620002ee565b620000f1919062000b16565b604051809103906000f0801580156200010e573d6000803e3d6000fd5b50600360006101000a81548173ffffffffffffffffffffffffffffffffffffffff021916908373ffffffffffffffffffffffffffffffffffffffff160217905550600060045460055462000163919062000b62565b905060008111620001ab576040517f08c379a0000000000000000000000000000000000000000000000000000000008152600401620001a29062000bfb565b60405180910390fd5b60005b818110156200026b57600e6040518060600160405280868481518110620001da57620001d962000c1d565b5b602002602001015181526020016004548152602001600015158152509080600181540180825580915050600190039060005260206000209060030201600090919091909150600082015181600001556020820151816001015560408201518160020160006101000a81548160ff02191690831515021790555050508080620002629062000c4c565b915050620001ae565b5081600990816200027d919062000990565b506001600760006101000a81548160ff0219169083151502179055506000600760016101000a81548160ff0219169083151502179055506000600d8190555060006008819055506000600760026101000a81548160ff02191690831515021790555050505050505050505062000c99565b6117c680620033cf83390190565b6000604051905090565b600080fd5b600080fd5b600080fd5b600080fd5b6000601f19601f8301169050919050565b7f4e487b7100000000000000000000000000000000000000000000000000000000600052604160045260246000fd5b62000365826200031a565b810181811067ffffffffffffffff821117156200038757620003866200032b565b5b80604052505050565b60006200039c620002fc565b9050620003aa82826200035a565b919050565b600067ffffffffffffffff821115620003cd57620003cc6200032b565b5b620003d8826200031a565b9050602081019050919050565b60005b8381101562000405578082015181840152602081019050620003e8565b60008484015250505050565b6000620004286200042284620003af565b62000390565b90508281526020810184848401111562000447576200044662000315565b5b62000454848285620003e5565b509392505050565b600082601f83011262000474576200047362000310565b5b81516200048684826020860162000411565b91505092915050565b600073ffffffffffffffffffffffffffffffffffffffff82169050919050565b6000620004bc826200048f565b9050919050565b620004ce81620004af565b8114620004da57600080fd5b50565b600081519050620004ee81620004c3565b92915050565b6000819050919050565b6200050981620004f4565b81146200051557600080fd5b50565b6000815190506200052981620004fe565b92915050565b600067ffffffffffffffff8211156200054d576200054c6200032b565b5b602082029050602081019050919050565b600080fd5b60006200057a62000574846200052f565b62000390565b90508083825260208201905060208402830185811115620005a0576200059f6200055e565b5b835b81811015620005cd5780620005b8888262000518565b845260208401935050602081019050620005a2565b5050509392505050565b600082601f830112620005ef57620005ee62000310565b5b81516200060184826020860162000563565b91505092915050565b600080600080600080600080610100898b0312156200062e576200062d62000306565b5b600089015167ffffffffffffffff8111156200064f576200064e6200030b565b5b6200065d8b828c016200045c565b985050602089015167ffffffffffffffff8111156200068157620006806200030b565b5b6200068f8b828c016200045c565b9750506040620006a28b828c01620004dd565b9650506060620006b58b828c0162000518565b9550506080620006c88b828c0162000518565b94505060a0620006db8b828c0162000518565b93505060c089015167ffffffffffffffff811115620006ff57620006fe6200030b565b5b6200070d8b828c01620005d7565b92505060e089015167ffffffffffffffff8111156200073157620007306200030b565b5b6200073f8b828c016200045c565b9150509295985092959890939650565b600081519050919050565b7f4e487b7100000000000000000000000000000000000000000000000000000000600052602260045260246000fd5b60006002820490506001821680620007a257607f821691505b602082108103620007b857620007b76200075a565b5b50919050565b60008190508160005260206000209050919050565b60006020601f8301049050919050565b600082821b905092915050565b600060088302620008227fffffffffffffffffffffffffffffffffffffffffffffffffffffffffffffffff82620007e3565b6200082e8683620007e3565b95508019841693508086168417925050509392505050565b6000819050919050565b6000620008716200086b6200086584620004f4565b62000846565b620004f4565b9050919050565b6000819050919050565b6200088d8362000850565b620008a56200089c8262000878565b848454620007f0565b825550505050565b600090565b620008bc620008ad565b620008c981848462000882565b505050565b5b81811015620008f157620008e5600082620008b2565b600181019050620008cf565b5050565b601f82111562000940576200090a81620007be565b6200091584620007d3565b8101602085101562000925578190505b6200093d6200093485620007d3565b830182620008ce565b50505b505050565b600082821c905092915050565b6000620009656000198460080262000945565b1980831691505092915050565b600062000980838362000952565b9150826002028217905092915050565b6200099b826200074f565b67ffffffffffffffff811115620009b757620009b66200032b565b5b620009c3825462000789565b620009d0828285620008f5565b600060209050601f83116001811462000a085760008415620009f3578287015190505b620009ff858262000972565b86555062000a6f565b601f19841662000a1886620007be565b60005b8281101562000a425784890151825560018201915060208501945060208101905062000a1b565b8683101562000a62578489015162000a5e601f89168262000952565b8355505b6001600288020188555050505b505050505050565b7f4e487b7100000000000000000000000000000000000000000000000000000000600052601160045260246000fd5b600062000ab382620004f4565b915062000ac083620004f4565b925082820262000ad081620004f4565b9150828204841483151762000aea5762000ae962000a77565b5b5092915050565b600062000afe826200048f565b9050919050565b62000b108162000af1565b82525050565b600060208201905062000b2d600083018462000b05565b92915050565b7f4e487b7100000000000000000000000000000000000000000000000000000000600052601260045260246000fd5b600062000b6f82620004f4565b915062000b7c83620004f4565b92508262000b8f5762000b8e62000b33565b5b828204905092915050565b600082825260208201905092915050565b7f496e76616c696420506572696f64000000000000000000000000000000000000600082015250565b600062000be3600e8362000b9a565b915062000bf08262000bab565b602082019050919050565b6000602082019050818103600083015262000c168162000bd4565b9050919050565b7f4e487b7100000000000000000000000000000000000000000000000000000000600052603260045260246000fd5b600062000c5982620004f4565b91507fffffffffffffffffffffffffffffffffffffffffffffffffffffffffffffffff820362000c8e5762000c8d62000a77565b5b600182019050919050565b6127268062000ca96000396000f3fe60806040526004361061014b5760003560e01c8063980e7844116100b6578063b84842311161006f578063b84842311461041b578063c435cf2d14610446578063d06ef16414610471578063dffde3ce1461049c578063e2fdcc17146104c7578063ec3246a2146104f25761014b565b8063980e7844146103625780639a82a09a146103795780639c105582146103a4578063a6c3e6b9146103ae578063ac87b01b146103d9578063b7acb19c146104045761014b565b80635bf5d54c116101085780635bf5d54c1461026257806369d895751461028d5780636f7bc9be146102a45780637284e416146102e35780637d3d65221461030e5780638fbb38ff146103395761014b565b806305760a5a1461015057806306fdde031461017b5780630bfd1a11146101a6578063344612c7146101e35780633ba8e5651461020e578063590e1ae31461024b575b600080fd5b34801561015c57600080fd5b5061016561051b565b604051610172919061160a565b60405180910390f35b34801561018757600080fd5b50610190610521565b60405161019d91906116b5565b60405180910390f35b3480156101b257600080fd5b506101cd60048036038101906101c89190611717565b6105af565b6040516101da91906117b0565b60405180910390f35b3480156101ef57600080fd5b506101f8610678565b604051610205919061160a565b60405180910390f35b34801561021a57600080fd5b5061023560048036038101906102309190611717565b61067e565b604051610242919061180c565b60405180910390f35b34801561025757600080fd5b506102606106bd565b005b34801561026e57600080fd5b50610277610853565b604051610284919061160a565b60405180910390f35b34801561029957600080fd5b506102a2610859565b005b3480156102b057600080fd5b506102cb60048036038101906102c69190611853565b6109fe565b6040516102da9392919061188f565b60405180910390f35b3480156102ef57600080fd5b506102f8610add565b60405161030591906116b5565b60405180910390f35b34801561031a57600080fd5b50610323610b6b565b60405161033091906118cd565b60405180910390f35b34801561034557600080fd5b50610360600480360381019061035b9190611717565b610b7e565b005b34801561036e57600080fd5b50610377610bcb565b005b34801561038557600080fd5b5061038e610d81565b60405161039b91906118cd565b60405180910390f35b6103ac610d94565b005b3480156103ba57600080fd5b506103c361102b565b6040516103d09190611909565b60405180910390f35b3480156103e557600080fd5b506103ee611051565b6040516103fb91906116b5565b60405180910390f35b34801561041057600080fd5b506104196110df565b005b34801561042757600080fd5b506104306111f3565b60405161043d919061160a565b60405180910390f35b34801561045257600080fd5b5061045b611296565b6040516104689190611966565b60405180910390f35b34801561047d57600080fd5b5061048661133f565b604051610493919061160a565b60405180910390f35b3480156104a857600080fd5b506104b1611345565b6040516104be919061160a565b60405180910390f35b3480156104d357600080fd5b506104dc61134b565b6040516104e991906119e0565b60405180910390f35b3480156104fe57600080fd5b5061051960048036038101906105149190611b30565b611371565b005b60045481565b6000805461052e90611ba8565b80601f016020809104026020016040519081016040528092919081815260200182805461055a90611ba8565b80156105a75780601f1061057c576101008083540402835291602001916105a7565b820191906000526020600020905b81548152906001019060200180831161058a57829003601f168201915b505050505081565b6105b76115ab565b6004546005546105c79190611c37565b821115610609576040517f08c379a000000000000000000000000000000000000000000000000000000000815260040161060090611cb4565b60405180910390fd5b600e6001836106189190611cd4565b8154811061062957610628611d08565b5b906000526020600020906003020160405180606001604052908160008201548152602001600182015481526020016002820160009054906101000a900460ff1615151515815250509050919050565b60065481565b600c818154811061068e57600080fd5b906000526020600020016000915054906101000a900473ffffffffffffffffffffffffffffffffffffffff1681565b600b60003373ffffffffffffffffffffffffffffffffffffffff1673ffffffffffffffffffffffffffffffffffffffff16815260200190815260200160002060010160149054906101000a900460ff1661074c576040517f08c379a000000000000000000000000000000000000000000000000000000000815260040161074390611da9565b60405180910390fd5b600360009054906101000a900473ffffffffffffffffffffffffffffffffffffffff1673ffffffffffffffffffffffffffffffffffffffff16634d83ec8e600c336040518363ffffffff1660e01b81526004016107aa929190611eed565b600060405180830381600087803b1580156107c457600080fd5b505af11580156107d8573d6000803e3d6000fd5b505050507f1b7ba75643ab42927a47f2481d63cb47a9cd2dca64188a70849cf8e6ccd9db0f600b60003373ffffffffffffffffffffffffffffffffffffffff1673ffffffffffffffffffffffffffffffffffffffff168152602001908152602001600020604051610849919061205b565b60405180910390a1565b600f5481565b6004546005546108699190611c37565b600f5411156108ad576040517f08c379a00000000000000000000000000000000000000000000000000000000081526004016108a490611cb4565b60405180910390fd5b6000600e6001600f546108c09190611cd4565b815481106108d1576108d0611d08565b5b906000526020600020906003020160405180606001604052908160008201548152602001600182015481526020016002820160009054906101000a900460ff1615151515815250509050600360009054906101000a900473ffffffffffffffffffffffffffffffffffffffff1673ffffffffffffffffffffffffffffffffffffffff1663947aa72b82600001516040518263ffffffff1660e01b815260040161097a919061160a565b600060405180830381600087803b15801561099457600080fd5b505af11580156109a8573d6000803e3d6000fd5b50505050600f60008154809291906109bf9061207d565b91905055507fab0bbc5225ed82879961bbdb8f081389f2fb2fff5f855db942d1565241974208816040516109f391906117b0565b60405180910390a150565b600b602052806000526040600020600091509050806000018054610a2190611ba8565b80601f0160208091040260200160405190810160405280929190818152602001828054610a4d90611ba8565b8015610a9a5780601f10610a6f57610100808354040283529160200191610a9a565b820191906000526020600020905b815481529060010190602001808311610a7d57829003601f168201915b5050505050908060010160009054906101000a900473ffffffffffffffffffffffffffffffffffffffff16908060010160149054906101000a900460ff16905083565b60018054610aea90611ba8565b80601f0160208091040260200160405190810160405280929190818152602001828054610b1690611ba8565b8015610b635780601f10610b3857610100808354040283529160200191610b63565b820191906000526020600020905b815481529060010190602001808311610b4657829003601f168201915b505050505081565b600760019054906101000a900460ff1681565b6001600e600183610b8f9190611cd4565b81548110610ba057610b9f611d08565b5b906000526020600020906003020160020160006101000a81548160ff02191690831515021790555050565b600260009054906101000a900473ffffffffffffffffffffffffffffffffffffffff1673ffffffffffffffffffffffffffffffffffffffff163373ffffffffffffffffffffffffffffffffffffffff1614610c5b576040517f08c379a0000000000000000000000000000000000000000000000000000000008152600401610c5290612137565b60405180910390fd5b60005b600d54811015610d4857600360009054906101000a900473ffffffffffffffffffffffffffffffffffffffff1673ffffffffffffffffffffffffffffffffffffffff16634d83ec8e600c808481548110610cbb57610cba611d08565b5b9060005260206000200160009054906101000a900473ffffffffffffffffffffffffffffffffffffffff166040518363ffffffff1660e01b8152600401610d03929190611eed565b600060405180830381600087803b158015610d1d57600080fd5b505af1158015610d31573d6000803e3d6000fd5b505050508080610d409061207d565b915050610c5e565b506000600760006101000a81548160ff0219169083151502179055506001600760026101000a81548160ff021916908315150217905550565b600760029054906101000a900460ff1681565b600b60003373ffffffffffffffffffffffffffffffffffffffff1673ffffffffffffffffffffffffffffffffffffffff16815260200190815260200160002060010160149054906101000a900460ff16610e23576040517f08c379a0000000000000000000000000000000000000000000000000000000008152600401610e1a906121c9565b60405180910390fd5b600360009054906101000a900473ffffffffffffffffffffffffffffffffffffffff1673ffffffffffffffffffffffffffffffffffffffff1663cd5aebc834600c336040518463ffffffff1660e01b8152600401610e82929190611eed565b6000604051808303818588803b158015610e9b57600080fd5b505af1158015610eaf573d6000803e3d6000fd5b505050505060646006546064600360009054906101000a900473ffffffffffffffffffffffffffffffffffffffff1673ffffffffffffffffffffffffffffffffffffffff1631610eff91906121e9565b610f099190611c37565b10610fb2576001600760016101000a81548160ff0219169083151502179055504260088190555060004290506000600454600554610f479190611c37565b905060005b81811015610fae5760045483610f62919061222b565b600e8281548110610f7657610f75611d08565b5b90600052602060002090600302016001018190555060045483610f99919061222b565b92508080610fa69061207d565b915050610f4c565b5050505b7fadaf7b0a13ca988bb7ec352abeea5619f1865a53553dbd99c06a1089cbdf8a4d600b60003373ffffffffffffffffffffffffffffffffffffffff1673ffffffffffffffffffffffffffffffffffffffff1681526020019081526020016000203460405161102192919061225f565b60405180910390a1565b600260009054906101000a900473ffffffffffffffffffffffffffffffffffffffff1681565b6009805461105e90611ba8565b80601f016020809104026020016040519081016040528092919081815260200182805461108a90611ba8565b80156110d75780601f106110ac576101008083540402835291602001916110d7565b820191906000526020600020905b8154815290600101906020018083116110ba57829003601f168201915b505050505081565b600260009054906101000a900473ffffffffffffffffffffffffffffffffffffffff1673ffffffffffffffffffffffffffffffffffffffff163373ffffffffffffffffffffffffffffffffffffffff161461116f576040517f08c379a000000000000000000000000000000000000000000000000000000000815260040161116690612301565b60405180910390fd5b600360009054906101000a900473ffffffffffffffffffffffffffffffffffffffff1673ffffffffffffffffffffffffffffffffffffffff1663a369db8d6040518163ffffffff1660e01b8152600401600060405180830381600087803b1580156111d957600080fd5b505af11580156111ed573d6000803e3d6000fd5b50505050565b6000600360009054906101000a900473ffffffffffffffffffffffffffffffffffffffff1673ffffffffffffffffffffffffffffffffffffffff16639e0b51fb336040518263ffffffff1660e01b8152600401611250919061180c565b602060405180830381865afa15801561126d573d6000803e3d6000fd5b505050506040513d601f19601f820116820180604052508101906112919190612336565b905090565b61129e6115ce565b600360009054906101000a900473ffffffffffffffffffffffffffffffffffffffff1673ffffffffffffffffffffffffffffffffffffffff1663bcad0083336040518263ffffffff1660e01b81526004016112f9919061180c565b606060405180830381865afa158015611316573d6000803e3d6000fd5b505050506040513d601f19601f8201168201806040525081019061133a91906123f8565b905090565b60085481565b60055481565b600360009054906101000a900473ffffffffffffffffffffffffffffffffffffffff1681565b600b60003373ffffffffffffffffffffffffffffffffffffffff1673ffffffffffffffffffffffffffffffffffffffff16815260200190815260200160002060010160149054906101000a900460ff1615611401576040517f08c379a00000000000000000000000000000000000000000000000000000000081526004016113f890612471565b60405180910390fd5b33600b60003373ffffffffffffffffffffffffffffffffffffffff1673ffffffffffffffffffffffffffffffffffffffff16815260200190815260200160002060010160006101000a81548173ffffffffffffffffffffffffffffffffffffffff021916908373ffffffffffffffffffffffffffffffffffffffff16021790555080600b60003373ffffffffffffffffffffffffffffffffffffffff1673ffffffffffffffffffffffffffffffffffffffff16815260200190815260200160002060000190816114d1919061261e565b506001600b60003373ffffffffffffffffffffffffffffffffffffffff1673ffffffffffffffffffffffffffffffffffffffff16815260200190815260200160002060010160146101000a81548160ff021916908315150217905550600c339080600181540180825580915050600190039060005260206000200160009091909190916101000a81548173ffffffffffffffffffffffffffffffffffffffff021916908373ffffffffffffffffffffffffffffffffffffffff160217905550600d60008154809291906115a39061207d565b919050555050565b604051806060016040528060008152602001600081526020016000151581525090565b604051806060016040528060008152602001600081526020016000151581525090565b6000819050919050565b611604816115f1565b82525050565b600060208201905061161f60008301846115fb565b92915050565b600081519050919050565b600082825260208201905092915050565b60005b8381101561165f578082015181840152602081019050611644565b60008484015250505050565b6000601f19601f8301169050919050565b600061168782611625565b6116918185611630565b93506116a1818560208601611641565b6116aa8161166b565b840191505092915050565b600060208201905081810360008301526116cf818461167c565b905092915050565b6000604051905090565b600080fd5b600080fd5b6116f4816115f1565b81146116ff57600080fd5b50565b600081359050611711816116eb565b92915050565b60006020828403121561172d5761172c6116e1565b5b600061173b84828501611702565b91505092915050565b61174d816115f1565b82525050565b60008115159050919050565b61176881611753565b82525050565b6060820160008201516117846000850182611744565b5060208201516117976020850182611744565b5060408201516117aa604085018261175f565b50505050565b60006060820190506117c5600083018461176e565b92915050565b600073ffffffffffffffffffffffffffffffffffffffff82169050919050565b60006117f6826117cb565b9050919050565b611806816117eb565b82525050565b600060208201905061182160008301846117fd565b92915050565b611830816117eb565b811461183b57600080fd5b50565b60008135905061184d81611827565b92915050565b600060208284031215611869576118686116e1565b5b60006118778482850161183e565b91505092915050565b61188981611753565b82525050565b600060608201905081810360008301526118a9818661167c565b90506118b860208301856117fd565b6118c56040830184611880565b949350505050565b60006020820190506118e26000830184611880565b92915050565b60006118f3826117cb565b9050919050565b611903816118e8565b82525050565b600060208201905061191e60008301846118fa565b92915050565b60608201600082015161193a6000850182611744565b50602082015161194d6020850182611744565b506040820151611960604085018261175f565b50505050565b600060608201905061197b6000830184611924565b92915050565b6000819050919050565b60006119a66119a161199c846117cb565b611981565b6117cb565b9050919050565b60006119b88261198b565b9050919050565b60006119ca826119ad565b9050919050565b6119da816119bf565b82525050565b60006020820190506119f560008301846119d1565b92915050565b600080fd5b600080fd5b7f4e487b7100000000000000000000000000000000000000000000000000000000600052604160045260246000fd5b611a3d8261166b565b810181811067ffffffffffffffff82111715611a5c57611a5b611a05565b5b80604052505050565b6000611a6f6116d7565b9050611a7b8282611a34565b919050565b600067ffffffffffffffff821115611a9b57611a9a611a05565b5b611aa48261166b565b9050602081019050919050565b82818337600083830152505050565b6000611ad3611ace84611a80565b611a65565b905082815260208101848484011115611aef57611aee611a00565b5b611afa848285611ab1565b509392505050565b600082601f830112611b1757611b166119fb565b5b8135611b27848260208601611ac0565b91505092915050565b600060208284031215611b4657611b456116e1565b5b600082013567ffffffffffffffff811115611b6457611b636116e6565b5b611b7084828501611b02565b91505092915050565b7f4e487b7100000000000000000000000000000000000000000000000000000000600052602260045260246000fd5b60006002820490506001821680611bc057607f821691505b602082108103611bd357611bd2611b79565b5b50919050565b7f4e487b7100000000000000000000000000000000000000000000000000000000600052601260045260246000fd5b7f4e487b7100000000000000000000000000000000000000000000000000000000600052601160045260246000fd5b6000611c42826115f1565b9150611c4d836115f1565b925082611c5d57611c5c611bd9565b5b828204905092915050565b7f496e76616c6964205374616765204e6f2e000000000000000000000000000000600082015250565b6000611c9e601183611630565b9150611ca982611c68565b602082019050919050565b60006020820190508181036000830152611ccd81611c91565b9050919050565b6000611cdf826115f1565b9150611cea836115f1565b9250828203905081811115611d0257611d01611c08565b5b92915050565b7f4e487b7100000000000000000000000000000000000000000000000000000000600052603260045260246000fd5b7f4f6e6c7920696e766573746f72732063616e2063616c6c20746869732066756e60008201527f6374696f6e000000000000000000000000000000000000000000000000000000602082015250565b6000611d93602583611630565b9150611d9e82611d37565b604082019050919050565b60006020820190508181036000830152611dc281611d86565b9050919050565b600081549050919050565b600082825260208201905092915050565b60008190508160005260206000209050919050565b611e03816117eb565b82525050565b6000611e158383611dfa565b60208301905092915050565b60008160001c9050919050565b600073ffffffffffffffffffffffffffffffffffffffff82169050919050565b6000611e61611e5c83611e21565b611e2e565b9050919050565b6000611e748254611e4e565b9050919050565b6000600182019050919050565b6000611e9382611dc9565b611e9d8185611dd4565b9350611ea883611de5565b8060005b83811015611ee057611ebd82611e68565b611ec78882611e09565b9750611ed283611e7b565b925050600181019050611eac565b5085935050505092915050565b60006040820190508181036000830152611f078185611e88565b9050611f1660208301846117fd565b9392505050565b600082825260208201905092915050565b60008190508160005260206000209050919050565b60008154611f5081611ba8565b611f5a8186611f1d565b94506001821660008114611f755760018114611f8b57611fbe565b60ff198316865281151560200286019350611fbe565b611f9485611f2e565b60005b83811015611fb657815481890152600182019150602081019050611f97565b808801955050505b50505092915050565b60008160a01c9050919050565b600060ff82169050919050565b6000611ff4611fef83611fc7565b611fd4565b9050919050565b600060608301600080840185830360008701526120188382611f43565b9250506001840154905061202b81611e4e565b6120386020870182611dfa565b5061204281611fe1565b61204f604087018261175f565b50819250505092915050565b600060208201905081810360008301526120758184611ffb565b905092915050565b6000612088826115f1565b91507fffffffffffffffffffffffffffffffffffffffffffffffffffffffffffffffff82036120ba576120b9611c08565b5b600182019050919050565b7f4f6e6c792043616d706169676e20617574686f722063616e2063616e63656c2060008201527f612063616d706169676e2e000000000000000000000000000000000000000000602082015250565b6000612121602b83611630565b915061212c826120c5565b604082019050919050565b6000602082019050818103600083015261215081612114565b9050919050565b7f506c6561736520526567697374657220617320696e766573746f72206265666f60008201527f726520706c656467696e672066756e6473000000000000000000000000000000602082015250565b60006121b3603183611630565b91506121be82612157565b604082019050919050565b600060208201905081810360008301526121e2816121a6565b9050919050565b60006121f4826115f1565b91506121ff836115f1565b925082820261220d816115f1565b9150828204841483151761222457612223611c08565b5b5092915050565b6000612236826115f1565b9150612241836115f1565b925082820190508082111561225957612258611c08565b5b92915050565b600060408201905081810360008301526122798185611ffb565b905061228860208301846115fb565b9392505050565b7f4f6e6c792043616d706169676e20617574686f722063616e20636f6d706c657460008201527f6520612063616d706169676e2e00000000000000000000000000000000000000602082015250565b60006122eb602d83611630565b91506122f68261228f565b604082019050919050565b6000602082019050818103600083015261231a816122de565b9050919050565b600081519050612330816116eb565b92915050565b60006020828403121561234c5761234b6116e1565b5b600061235a84828501612321565b91505092915050565b600080fd5b61237181611753565b811461237c57600080fd5b50565b60008151905061238e81612368565b92915050565b6000606082840312156123aa576123a9612363565b5b6123b46060611a65565b905060006123c484828501612321565b60008301525060206123d884828501612321565b60208301525060406123ec8482850161237f565b60408301525092915050565b60006060828403121561240e5761240d6116e1565b5b600061241c84828501612394565b91505092915050565b7f416c726561647920526567697374657265640000000000000000000000000000600082015250565b600061245b601283611630565b915061246682612425565b602082019050919050565b6000602082019050818103600083015261248a8161244e565b9050919050565b60006020601f8301049050919050565b600082821b905092915050565b6000600883026124de7fffffffffffffffffffffffffffffffffffffffffffffffffffffffffffffffff826124a1565b6124e886836124a1565b95508019841693508086168417925050509392505050565b600061251b612516612511846115f1565b611981565b6115f1565b9050919050565b6000819050919050565b61253583612500565b61254961254182612522565b8484546124ae565b825550505050565b600090565b61255e612551565b61256981848461252c565b505050565b5b8181101561258d57612582600082612556565b60018101905061256f565b5050565b601f8211156125d2576125a381611f2e565b6125ac84612491565b810160208510156125bb578190505b6125cf6125c785612491565b83018261256e565b50505b505050565b600082821c905092915050565b60006125f5600019846008026125d7565b1980831691505092915050565b600061260e83836125e4565b9150826002028217905092915050565b61262782611625565b67ffffffffffffffff8111156126405761263f611a05565b5b61264a8254611ba8565b612655828285612591565b600060209050601f8311600181146126885760008415612676578287015190505b6126808582612602565b8655506126e8565b601f19841661269686611f2e565b60005b828110156126be57848901518255600182019150602085019450602081019050612699565b868310156126db57848901516126d7601f8916826125e4565b8355505b6001600288020188555050505b50505050505056fea2646970667358221220bbab5c5db4b8dfc47b8a87ca711086811d86c5e457682d8e25e5318622e8aefc64736f6c6343000811003360806040523480156200001157600080fd5b50604051620017c6380380620017c6833981810160405281019062000037919062000157565b60008060006101000a81548160ff021916908360018111156200005f576200005e62000189565b5b021790555080600260006101000a81548173ffffffffffffffffffffffffffffffffffffffff021916908373ffffffffffffffffffffffffffffffffffffffff16021790555033600360006101000a81548173ffffffffffffffffffffffffffffffffffffffff021916908373ffffffffffffffffffffffffffffffffffffffff16021790555050620001b8565b600080fd5b600073ffffffffffffffffffffffffffffffffffffffff82169050919050565b60006200011f82620000f2565b9050919050565b620001318162000112565b81146200013d57600080fd5b50565b600081519050620001518162000126565b92915050565b60006020828403121562000170576200016f620000ed565b5b6000620001808482850162000140565b91505092915050565b7f4e487b7100000000000000000000000000000000000000000000000000000000600052602160045260246000fd5b6115fe80620001c86000396000f3fe6080604052600436106100705760003560e01c80639e0b51fb1161004e5780639e0b51fb146100f2578063a369db8d1461012f578063bcad008314610146578063cd5aebc81461018357610070565b806308551a53146100755780634d83ec8e146100a0578063947aa72b146100c9575b600080fd5b34801561008157600080fd5b5061008a61019f565b6040516100979190610e1b565b60405180910390f35b3480156100ac57600080fd5b506100c760048036038101906100c29190610fe1565b6101c5565b005b3480156100d557600080fd5b506100f060048036038101906100eb9190611073565b6105bb565b005b3480156100fe57600080fd5b50610119600480360381019061011491906110a0565b6106fa565b60405161012691906110dc565b60405180910390f35b34801561013b57600080fd5b506101446107d7565b005b34801561015257600080fd5b5061016d600480360381019061016891906110a0565b610949565b60405161017a9190611163565b60405180910390f35b61019d60048036038101906101989190610fe1565b610a62565b005b600260009054906101000a900473ffffffffffffffffffffffffffffffffffffffff1681565b80600160008273ffffffffffffffffffffffffffffffffffffffff1673ffffffffffffffffffffffffffffffffffffffff16815260200190815260200160002060020160009054906101000a900460ff16610255576040517f08c379a000000000000000000000000000000000000000000000000000000000815260040161024c90611201565b60405180910390fd5b6000600160008473ffffffffffffffffffffffffffffffffffffffff1673ffffffffffffffffffffffffffffffffffffffff1681526020019081526020016000206001015490508273ffffffffffffffffffffffffffffffffffffffff166108fc606483476102c49190611250565b6102ce91906112c1565b9081150290604051600060405180830381858888f193505050501580156102f9573d6000803e3d6000fd5b506000600160008573ffffffffffffffffffffffffffffffffffffffff1673ffffffffffffffffffffffffffffffffffffffff168152602001908152602001600020600001819055506000600160008573ffffffffffffffffffffffffffffffffffffffff1673ffffffffffffffffffffffffffffffffffffffff1681526020019081526020016000206001018190555060005b84518110156105b45760004711610405576000600160008784815181106103b7576103b66112f2565b5b602002602001015173ffffffffffffffffffffffffffffffffffffffff1673ffffffffffffffffffffffffffffffffffffffff168152602001908152602001600020600101819055506105a1565b4760646001600088858151811061041f5761041e6112f2565b5b602002602001015173ffffffffffffffffffffffffffffffffffffffff1673ffffffffffffffffffffffffffffffffffffffff1681526020019081526020016000206000015461046f9190611250565b61047991906112c1565b600160008784815181106104905761048f6112f2565b5b602002602001015173ffffffffffffffffffffffffffffffffffffffff1673ffffffffffffffffffffffffffffffffffffffff168152602001908152602001600020600101819055506064600160008784815181106104f2576104f16112f2565b5b602002602001015173ffffffffffffffffffffffffffffffffffffffff1673ffffffffffffffffffffffffffffffffffffffff16815260200190815260200160002060010154106105a057606460016000878481518110610556576105556112f2565b5b602002602001015173ffffffffffffffffffffffffffffffffffffffff1673ffffffffffffffffffffffffffffffffffffffff168152602001908152602001600020600101819055505b5b80806105ac90611321565b91505061038d565b5050505050565b600360009054906101000a900473ffffffffffffffffffffffffffffffffffffffff1673ffffffffffffffffffffffffffffffffffffffff163373ffffffffffffffffffffffffffffffffffffffff161461064b576040517f08c379a0000000000000000000000000000000000000000000000000000000008152600401610642906113db565b60405180910390fd5b4781111561068e576040517f08c379a000000000000000000000000000000000000000000000000000000000815260040161068590611447565b60405180910390fd5b600260009054906101000a900473ffffffffffffffffffffffffffffffffffffffff1673ffffffffffffffffffffffffffffffffffffffff166108fc829081150290604051600060405180830381858888f193505050501580156106f6573d6000803e3d6000fd5b5050565b600081600160008273ffffffffffffffffffffffffffffffffffffffff1673ffffffffffffffffffffffffffffffffffffffff16815260200190815260200160002060020160009054906101000a900460ff1661078c576040517f08c379a000000000000000000000000000000000000000000000000000000000815260040161078390611201565b60405180910390fd5b600160008473ffffffffffffffffffffffffffffffffffffffff1673ffffffffffffffffffffffffffffffffffffffff16815260200190815260200160002060010154915050919050565b600360009054906101000a900473ffffffffffffffffffffffffffffffffffffffff1673ffffffffffffffffffffffffffffffffffffffff163373ffffffffffffffffffffffffffffffffffffffff1614610867576040517f08c379a000000000000000000000000000000000000000000000000000000000815260040161085e906113db565b60405180910390fd5b60004711156108da57600260009054906101000a900473ffffffffffffffffffffffffffffffffffffffff1673ffffffffffffffffffffffffffffffffffffffff166108fc479081150290604051600060405180830381858888f193505050501580156108d8573d6000803e3d6000fd5b505b60016000806101000a81548160ff021916908360018111156108ff576108fe611467565b5b021790555060004714610947576040517f08c379a000000000000000000000000000000000000000000000000000000000815260040161093e90611508565b60405180910390fd5b565b610951610db7565b81600160008273ffffffffffffffffffffffffffffffffffffffff1673ffffffffffffffffffffffffffffffffffffffff16815260200190815260200160002060020160009054906101000a900460ff166109e1576040517f08c379a00000000000000000000000000000000000000000000000000000000081526004016109d890611201565b60405180910390fd5b600160008473ffffffffffffffffffffffffffffffffffffffff1673ffffffffffffffffffffffffffffffffffffffff16815260200190815260200160002060405180606001604052908160008201548152602001600182015481526020016002820160009054906101000a900460ff161515151581525050915050919050565b600180811115610a7557610a74611467565b5b60008054906101000a900460ff166001811115610a9557610a94611467565b5b03610ad5576040517f08c379a0000000000000000000000000000000000000000000000000000000008152600401610acc90611574565b60405180910390fd5b34600160008373ffffffffffffffffffffffffffffffffffffffff1673ffffffffffffffffffffffffffffffffffffffff1681526020019081526020016000206000016000828254610b279190611594565b9250508190555060005b8251811015610d585760004711610ba957600060016000858481518110610b5b57610b5a6112f2565b5b602002602001015173ffffffffffffffffffffffffffffffffffffffff1673ffffffffffffffffffffffffffffffffffffffff16815260200190815260200160002060010181905550610d45565b47606460016000868581518110610bc357610bc26112f2565b5b602002602001015173ffffffffffffffffffffffffffffffffffffffff1673ffffffffffffffffffffffffffffffffffffffff16815260200190815260200160002060000154610c139190611250565b610c1d91906112c1565b60016000858481518110610c3457610c336112f2565b5b602002602001015173ffffffffffffffffffffffffffffffffffffffff1673ffffffffffffffffffffffffffffffffffffffff16815260200190815260200160002060010181905550606460016000858481518110610c9657610c956112f2565b5b602002602001015173ffffffffffffffffffffffffffffffffffffffff1673ffffffffffffffffffffffffffffffffffffffff1681526020019081526020016000206001015410610d4457606460016000858481518110610cfa57610cf96112f2565b5b602002602001015173ffffffffffffffffffffffffffffffffffffffff1673ffffffffffffffffffffffffffffffffffffffff168152602001908152602001600020600101819055505b5b8080610d5090611321565b915050610b31565b5060018060008373ffffffffffffffffffffffffffffffffffffffff1673ffffffffffffffffffffffffffffffffffffffff16815260200190815260200160002060020160006101000a81548160ff0219169083151502179055505050565b604051806060016040528060008152602001600081526020016000151581525090565b600073ffffffffffffffffffffffffffffffffffffffff82169050919050565b6000610e0582610dda565b9050919050565b610e1581610dfa565b82525050565b6000602082019050610e306000830184610e0c565b92915050565b6000604051905090565b600080fd5b600080fd5b600080fd5b6000601f19601f8301169050919050565b7f4e487b7100000000000000000000000000000000000000000000000000000000600052604160045260246000fd5b610e9882610e4f565b810181811067ffffffffffffffff82111715610eb757610eb6610e60565b5b80604052505050565b6000610eca610e36565b9050610ed68282610e8f565b919050565b600067ffffffffffffffff821115610ef657610ef5610e60565b5b602082029050602081019050919050565b600080fd5b6000610f1782610dda565b9050919050565b610f2781610f0c565b8114610f3257600080fd5b50565b600081359050610f4481610f1e565b92915050565b6000610f5d610f5884610edb565b610ec0565b90508083825260208201905060208402830185811115610f8057610f7f610f07565b5b835b81811015610fa95780610f958882610f35565b845260208401935050602081019050610f82565b5050509392505050565b600082601f830112610fc857610fc7610e4a565b5b8135610fd8848260208601610f4a565b91505092915050565b60008060408385031215610ff857610ff7610e40565b5b600083013567ffffffffffffffff81111561101657611015610e45565b5b61102285828601610fb3565b925050602061103385828601610f35565b9150509250929050565b6000819050919050565b6110508161103d565b811461105b57600080fd5b50565b60008135905061106d81611047565b92915050565b60006020828403121561108957611088610e40565b5b60006110978482850161105e565b91505092915050565b6000602082840312156110b6576110b5610e40565b5b60006110c484828501610f35565b91505092915050565b6110d68161103d565b82525050565b60006020820190506110f160008301846110cd565b92915050565b6111008161103d565b82525050565b60008115159050919050565b61111b81611106565b82525050565b60608201600082015161113760008501826110f7565b50602082015161114a60208501826110f7565b50604082015161115d6040850182611112565b50505050565b60006060820190506111786000830184611121565b92915050565b600082825260208201905092915050565b7f4f6e6c7920496e766573746f72732063616e2063616c6c207468652066756e6360008201527f74696f6e00000000000000000000000000000000000000000000000000000000602082015250565b60006111eb60248361117e565b91506111f68261118f565b604082019050919050565b6000602082019050818103600083015261121a816111de565b9050919050565b7f4e487b7100000000000000000000000000000000000000000000000000000000600052601160045260246000fd5b600061125b8261103d565b91506112668361103d565b92508282026112748161103d565b9150828204841483151761128b5761128a611221565b5b5092915050565b7f4e487b7100000000000000000000000000000000000000000000000000000000600052601260045260246000fd5b60006112cc8261103d565b91506112d78361103d565b9250826112e7576112e6611292565b5b828204905092915050565b7f4e487b7100000000000000000000000000000000000000000000000000000000600052603260045260246000fd5b600061132c8261103d565b91507fffffffffffffffffffffffffffffffffffffffffffffffffffffffffffffffff820361135e5761135d611221565b5b600182019050919050565b7f4f6e6c79206f776e6572732063616e2063616c6c207468652066756e6374696f60008201527f6e00000000000000000000000000000000000000000000000000000000000000602082015250565b60006113c560218361117e565b91506113d082611369565b604082019050919050565b600060208201905081810360008301526113f4816113b8565b9050919050565b7f416d6f756e7420657863656564732062616c616e636500000000000000000000600082015250565b600061143160168361117e565b915061143c826113fb565b602082019050919050565b6000602082019050818103600083015261146081611424565b9050919050565b7f4e487b7100000000000000000000000000000000000000000000000000000000600052602160045260246000fd5b7f42616c616e6365206973207374696c6c206c65667420696e2074686520636f6e60008201527f7472616374000000000000000000000000000000000000000000000000000000602082015250565b60006114f260258361117e565b91506114fd82611496565b604082019050919050565b60006020820190508181036000830152611521816114e5565b9050919050565b7f416c726561647920506169640000000000000000000000000000000000000000600082015250565b600061155e600c8361117e565b915061156982611528565b602082019050919050565b6000602082019050818103600083015261158d81611551565b9050919050565b600061159f8261103d565b91506115aa8361103d565b92508282019050808211156115c2576115c1611221565b5b9291505056fea2646970667358221220ab6523119bc6e6bd43a128895ecfd9f44fee81699215efd9e2366f361256836f64736f6c63430008110033",
  "linkReferences": {},
  "deployedLinkReferences": {}
}