{
  "_format": "hh-sol-artifact-1",
  "contractName": "CFunding",
  "sourceName": "contracts/CFunding.sol",
  "abi": [
    {
      "inputs": [
        {
          "internalType": "string",
          "name": "_name",
          "type": "string"
        }
      ],
      "stateMutability": "nonpayable",
      "type": "constructor"
    },
    {
      "inputs": [],
      "name": "campaignCount",
      "outputs": [
        {
          "internalType": "uint256",
          "name": "",
          "type": "uint256"
        }
      ],
      "stateMutability": "view",
      "type": "function"
    },
    {
      "inputs": [
        {
          "internalType": "uint256",
          "name": "",
          "type": "uint256"
        }
      ],
      "name": "campaignLUT",
      "outputs": [
        {
          "internalType": "address",
          "name": "",
          "type": "address"
        }
      ],
      "stateMutability": "view",
      "type": "function"
    },
    {
      "inputs": [
        {
          "internalType": "string",
          "name": "_name",
          "type": "string"
        },
        {
          "internalType": "string",
          "name": "_description",
          "type": "string"
        },
        {
          "internalType": "uint256",
          "name": "_sPeriod",
          "type": "uint256"
        },
        {
          "internalType": "uint256",
          "name": "_totalProjectTime",
          "type": "uint256"
        },
        {
          "internalType": "uint256",
          "name": "_totalAmountNeeded",
          "type": "uint256"
        },
        {
          "internalType": "uint256[]",
          "name": "_stages",
          "type": "uint256[]"
        },
        {
          "internalType": "string",
          "name": "_coverImg",
          "type": "string"
        },
        {
          "internalType": "string",
          "name": "_iOffering",
          "type": "string"
        },
        {
          "internalType": "string",
          "name": "_pptUrl",
          "type": "string"
        }
      ],
      "name": "createCampaign",
      "outputs": [],
      "stateMutability": "nonpayable",
      "type": "function"
    },
    {
      "inputs": [
        {
          "internalType": "address",
          "name": "_user",
          "type": "address"
        }
      ],
      "name": "getAllCampaignsOfUser",
      "outputs": [
        {
          "internalType": "contract Campaign[]",
          "name": "",
          "type": "address[]"
        }
      ],
      "stateMutability": "view",
      "type": "function"
    },
    {
      "inputs": [
        {
          "internalType": "address",
          "name": "_user",
          "type": "address"
        }
      ],
      "name": "getUserProfile",
      "outputs": [
        {
          "components": [
            {
              "internalType": "contract Campaign[]",
              "name": "campaigns",
              "type": "address[]"
            },
            {
              "internalType": "bool",
              "name": "isValid",
              "type": "bool"
            },
            {
              "internalType": "uint256",
              "name": "timestamp",
              "type": "uint256"
            },
            {
              "internalType": "uint256",
              "name": "userCampaignCount",
              "type": "uint256"
            }
          ],
          "internalType": "struct CFunding.CampaignData",
          "name": "",
          "type": "tuple"
        }
      ],
      "stateMutability": "view",
      "type": "function"
    },
    {
      "inputs": [],
      "name": "userCount",
      "outputs": [
        {
          "internalType": "uint256",
          "name": "",
          "type": "uint256"
        }
      ],
      "stateMutability": "view",
      "type": "function"
    }
  ],
  "bytecode": "0x60806040523480156200001157600080fd5b506040516200651638038062006516833981810160405281019062000037919062000234565b8060009081620000489190620004d0565b506000600481905550600060038190555033600560006101000a81548173ffffffffffffffffffffffffffffffffffffffff021916908373ffffffffffffffffffffffffffffffffffffffff16021790555050620005b7565b6000604051905090565b600080fd5b600080fd5b600080fd5b600080fd5b6000601f19601f8301169050919050565b7f4e487b7100000000000000000000000000000000000000000000000000000000600052604160045260246000fd5b6200010a82620000bf565b810181811067ffffffffffffffff821117156200012c576200012b620000d0565b5b80604052505050565b600062000141620000a1565b90506200014f8282620000ff565b919050565b600067ffffffffffffffff821115620001725762000171620000d0565b5b6200017d82620000bf565b9050602081019050919050565b60005b83811015620001aa5780820151818401526020810190506200018d565b60008484015250505050565b6000620001cd620001c78462000154565b62000135565b905082815260208101848484011115620001ec57620001eb620000ba565b5b620001f98482856200018a565b509392505050565b600082601f830112620002195762000218620000b5565b5b81516200022b848260208601620001b6565b91505092915050565b6000602082840312156200024d576200024c620000ab565b5b600082015167ffffffffffffffff8111156200026e576200026d620000b0565b5b6200027c8482850162000201565b91505092915050565b600081519050919050565b7f4e487b7100000000000000000000000000000000000000000000000000000000600052602260045260246000fd5b60006002820490506001821680620002d857607f821691505b602082108103620002ee57620002ed62000290565b5b50919050565b60008190508160005260206000209050919050565b60006020601f8301049050919050565b600082821b905092915050565b600060088302620003587fffffffffffffffffffffffffffffffffffffffffffffffffffffffffffffffff8262000319565b62000364868362000319565b95508019841693508086168417925050509392505050565b6000819050919050565b6000819050919050565b6000620003b1620003ab620003a5846200037c565b62000386565b6200037c565b9050919050565b6000819050919050565b620003cd8362000390565b620003e5620003dc82620003b8565b84845462000326565b825550505050565b600090565b620003fc620003ed565b62000409818484620003c2565b505050565b5b81811015620004315762000425600082620003f2565b6001810190506200040f565b5050565b601f82111562000480576200044a81620002f4565b620004558462000309565b8101602085101562000465578190505b6200047d620004748562000309565b8301826200040e565b50505b505050565b600082821c905092915050565b6000620004a56000198460080262000485565b1980831691505092915050565b6000620004c0838362000492565b9150826002028217905092915050565b620004db8262000285565b67ffffffffffffffff811115620004f757620004f6620000d0565b5b620005038254620002bf565b6200051082828562000435565b600060209050601f83116001811462000548576000841562000533578287015190505b6200053f8582620004b2565b865550620005af565b601f1984166200055886620002f4565b60005b8281101562000582578489015182556001820191506020850194506020810190506200055b565b86831015620005a257848901516200059e601f89168262000492565b8355505b6001600288020188555050505b505050505050565b615f4f80620005c76000396000f3fe60806040523480156200001157600080fd5b50600436106200006a5760003560e01c806307973ccf146200006f5780630973d84914620000915780631d986f6e14620000c75780637274e30d14620000fd578063950d2846146200011f578063987ee156146200013f575b600080fd5b6200007962000175565b60405162000088919062000728565b60405180910390f35b620000af6004803603810190620000a991906200078a565b6200017b565b604051620000be919062000801565b60405180910390f35b620000e56004803603810190620000df91906200084f565b620001bb565b604051620000f49190620009a9565b60405180910390f35b620001076200028d565b60405162000116919062000728565b60405180910390f35b6200013d600480360381019062000137919062000c0a565b62000293565b005b6200015d60048036038101906200015791906200084f565b620005bb565b6040516200016c919062000eb7565b60405180910390f35b60035481565b600281815481106200018c57600080fd5b906000526020600020016000915054906101000a900473ffffffffffffffffffffffffffffffffffffffff1681565b6060600160008373ffffffffffffffffffffffffffffffffffffffff1673ffffffffffffffffffffffffffffffffffffffff1681526020019081526020016000206000018054806020026020016040519081016040528092919081815260200182805480156200028157602002820191906000526020600020905b8160009054906101000a900473ffffffffffffffffffffffffffffffffffffffff1673ffffffffffffffffffffffffffffffffffffffff168152602001906001019080831162000236575b50505050509050919050565b60045481565b600160003373ffffffffffffffffffffffffffffffffffffffff1673ffffffffffffffffffffffffffffffffffffffff16815260200190815260200160002060010160009054906101000a900460ff166200044f5760018060003373ffffffffffffffffffffffffffffffffffffffff1673ffffffffffffffffffffffffffffffffffffffff16815260200190815260200160002060010160006101000a81548160ff02191690831515021790555042600160003373ffffffffffffffffffffffffffffffffffffffff1673ffffffffffffffffffffffffffffffffffffffff168152602001908152602001600020600201819055506000600160003373ffffffffffffffffffffffffffffffffffffffff1673ffffffffffffffffffffffffffffffffffffffff168152602001908152602001600020600301819055506002339080600181540180825580915050600190039060005260206000200160009091909190916101000a81548173ffffffffffffffffffffffffffffffffffffffff021916908373ffffffffffffffffffffffffffffffffffffffff16021790555060036000815480929190620004499062000f0a565b91905055505b600160003373ffffffffffffffffffffffffffffffffffffffff1673ffffffffffffffffffffffffffffffffffffffff1681526020019081526020016000206000018989338a8a8a8a8a8a8a604051620004a990620006d5565b620004be9a999897969594939291906200109d565b604051809103906000f080158015620004db573d6000803e3d6000fd5b509080600181540180825580915050600190039060005260206000200160009091909190916101000a81548173ffffffffffffffffffffffffffffffffffffffff021916908373ffffffffffffffffffffffffffffffffffffffff160217905550600160003373ffffffffffffffffffffffffffffffffffffffff1673ffffffffffffffffffffffffffffffffffffffff1681526020019081526020016000206003016000815480929190620005919062000f0a565b919050555060046000815480929190620005ab9062000f0a565b9190505550505050505050505050565b620005c5620006e3565b600160008373ffffffffffffffffffffffffffffffffffffffff1673ffffffffffffffffffffffffffffffffffffffff168152602001908152602001600020604051806080016040529081600082018054806020026020016040519081016040528092919081815260200182805480156200069657602002820191906000526020600020905b8160009054906101000a900473ffffffffffffffffffffffffffffffffffffffff1673ffffffffffffffffffffffffffffffffffffffff16815260200190600101908083116200064b575b505050505081526020016001820160009054906101000a900460ff16151515158152602001600282015481526020016003820154815250509050919050565b614da2806200117883390190565b60405180608001604052806060815260200160001515815260200160008152602001600081525090565b6000819050919050565b62000722816200070d565b82525050565b60006020820190506200073f600083018462000717565b92915050565b6000604051905090565b600080fd5b600080fd5b62000764816200070d565b81146200077057600080fd5b50565b600081359050620007848162000759565b92915050565b600060208284031215620007a357620007a26200074f565b5b6000620007b38482850162000773565b91505092915050565b600073ffffffffffffffffffffffffffffffffffffffff82169050919050565b6000620007e982620007bc565b9050919050565b620007fb81620007dc565b82525050565b6000602082019050620008186000830184620007f0565b92915050565b6200082981620007dc565b81146200083557600080fd5b50565b60008135905062000849816200081e565b92915050565b6000602082840312156200086857620008676200074f565b5b6000620008788482850162000838565b91505092915050565b600081519050919050565b600082825260208201905092915050565b6000819050602082019050919050565b6000819050919050565b6000620008d8620008d2620008cc84620007bc565b620008ad565b620007bc565b9050919050565b6000620008ec82620008b7565b9050919050565b60006200090082620008df565b9050919050565b6200091281620008f3565b82525050565b600062000926838362000907565b60208301905092915050565b6000602082019050919050565b60006200094c8262000881565b6200095881856200088c565b935062000965836200089d565b8060005b838110156200099c57815162000980888262000918565b97506200098d8362000932565b92505060018101905062000969565b5085935050505092915050565b60006020820190508181036000830152620009c581846200093f565b905092915050565b600080fd5b600080fd5b6000601f19601f8301169050919050565b7f4e487b7100000000000000000000000000000000000000000000000000000000600052604160045260246000fd5b62000a2282620009d7565b810181811067ffffffffffffffff8211171562000a445762000a43620009e8565b5b80604052505050565b600062000a5962000745565b905062000a67828262000a17565b919050565b600067ffffffffffffffff82111562000a8a5762000a89620009e8565b5b62000a9582620009d7565b9050602081019050919050565b82818337600083830152505050565b600062000ac862000ac28462000a6c565b62000a4d565b90508281526020810184848401111562000ae75762000ae6620009d2565b5b62000af484828562000aa2565b509392505050565b600082601f83011262000b145762000b13620009cd565b5b813562000b2684826020860162000ab1565b91505092915050565b600067ffffffffffffffff82111562000b4d5762000b4c620009e8565b5b602082029050602081019050919050565b600080fd5b600062000b7a62000b748462000b2f565b62000a4d565b9050808382526020820190506020840283018581111562000ba05762000b9f62000b5e565b5b835b8181101562000bcd578062000bb8888262000773565b84526020840193505060208101905062000ba2565b5050509392505050565b600082601f83011262000bef5762000bee620009cd565b5b813562000c0184826020860162000b63565b91505092915050565b60008060008060008060008060006101208a8c03121562000c305762000c2f6200074f565b5b60008a013567ffffffffffffffff81111562000c515762000c5062000754565b5b62000c5f8c828d0162000afc565b99505060208a013567ffffffffffffffff81111562000c835762000c8262000754565b5b62000c918c828d0162000afc565b985050604062000ca48c828d0162000773565b975050606062000cb78c828d0162000773565b965050608062000cca8c828d0162000773565b95505060a08a013567ffffffffffffffff81111562000cee5762000ced62000754565b5b62000cfc8c828d0162000bd7565b94505060c08a013567ffffffffffffffff81111562000d205762000d1f62000754565b5b62000d2e8c828d0162000afc565b93505060e08a013567ffffffffffffffff81111562000d525762000d5162000754565b5b62000d608c828d0162000afc565b9250506101008a013567ffffffffffffffff81111562000d855762000d8462000754565b5b62000d938c828d0162000afc565b9150509295985092959850929598565b600082825260208201905092915050565b600062000dc18262000881565b62000dcd818562000da3565b935062000dda836200089d565b8060005b8381101562000e1157815162000df5888262000918565b975062000e028362000932565b92505060018101905062000dde565b5085935050505092915050565b60008115159050919050565b62000e358162000e1e565b82525050565b62000e46816200070d565b82525050565b6000608083016000830151848203600086015262000e6b828262000db4565b915050602083015162000e82602086018262000e2a565b50604083015162000e97604086018262000e3b565b50606083015162000eac606086018262000e3b565b508091505092915050565b6000602082019050818103600083015262000ed3818462000e4c565b905092915050565b7f4e487b7100000000000000000000000000000000000000000000000000000000600052601160045260246000fd5b600062000f17826200070d565b91507fffffffffffffffffffffffffffffffffffffffffffffffffffffffffffffffff820362000f4c5762000f4b62000edb565b5b600182019050919050565b600081519050919050565b600082825260208201905092915050565b60005b8381101562000f9357808201518184015260208101905062000f76565b60008484015250505050565b600062000fac8262000f57565b62000fb8818562000f62565b935062000fca81856020860162000f73565b62000fd581620009d7565b840191505092915050565b600081519050919050565b600082825260208201905092915050565b6000819050602082019050919050565b60006200101a838362000e3b565b60208301905092915050565b6000602082019050919050565b6000620010408262000fe0565b6200104c818562000feb565b9350620010598362000ffc565b8060005b83811015620010905781516200107488826200100c565b9750620010818362001026565b9250506001810190506200105d565b5085935050505092915050565b6000610140820190508181036000830152620010ba818d62000f9f565b90508181036020830152620010d0818c62000f9f565b9050620010e1604083018b620007f0565b620010f0606083018a62000717565b620010ff608083018962000717565b6200110e60a083018862000717565b81810360c083015262001122818762001033565b905081810360e083015262001138818662000f9f565b90508181036101008301526200114f818562000f9f565b905081810361012083015262001166818462000f9f565b90509b9a505050505050505050505056fe608060405260016011553480156200001657600080fd5b5060405162004da238038062004da283398181016040528101906200003c919062000630565b89600090816200004d919062000a21565b5088600190816200005f919062000a21565b5087600260006101000a81548173ffffffffffffffffffffffffffffffffffffffff021916908373ffffffffffffffffffffffffffffffffffffffff1602179055506201518087620000b2919062000b37565b6004819055506201518086620000c9919062000b37565b6005819055508460068190555087604051620000e59062000314565b620000f1919062000ba7565b604051809103906000f0801580156200010e573d6000803e3d6000fd5b50600360006101000a81548173ffffffffffffffffffffffffffffffffffffffff021916908373ffffffffffffffffffffffffffffffffffffffff160217905550600060045460055462000163919062000bf3565b905060008111620001ab576040517f08c379a0000000000000000000000000000000000000000000000000000000008152600401620001a29062000c8c565b60405180910390fd5b60005b818110156200026b5760106040518060600160405280888481518110620001da57620001d962000cae565b5b602002602001015181526020016004548152602001600015158152509080600181540180825580915050600190039060005260206000209060030201600090919091909150600082015181600001556020820151816001015560408201518160020160006101000a81548160ff02191690831515021790555050508080620002629062000cdd565b915050620001ae565b5083600990816200027d919062000a21565b5082600a90816200028f919062000a21565b5081600b9081620002a1919062000a21565b506001600760006101000a81548160ff0219169083151502179055506000600760016101000a81548160ff0219169083151502179055506000600f8190555060006008819055506000600760026101000a81548160ff021916908315150217905550505050505050505050505062000d2a565b6117c680620035dc83390190565b6000604051905090565b600080fd5b600080fd5b600080fd5b600080fd5b6000601f19601f8301169050919050565b7f4e487b7100000000000000000000000000000000000000000000000000000000600052604160045260246000fd5b6200038b8262000340565b810181811067ffffffffffffffff82111715620003ad57620003ac62000351565b5b80604052505050565b6000620003c262000322565b9050620003d0828262000380565b919050565b600067ffffffffffffffff821115620003f357620003f262000351565b5b620003fe8262000340565b9050602081019050919050565b60005b838110156200042b5780820151818401526020810190506200040e565b60008484015250505050565b60006200044e6200044884620003d5565b620003b6565b9050828152602081018484840111156200046d576200046c6200033b565b5b6200047a8482856200040b565b509392505050565b600082601f8301126200049a576200049962000336565b5b8151620004ac84826020860162000437565b91505092915050565b600073ffffffffffffffffffffffffffffffffffffffff82169050919050565b6000620004e282620004b5565b9050919050565b620004f481620004d5565b81146200050057600080fd5b50565b6000815190506200051481620004e9565b92915050565b6000819050919050565b6200052f816200051a565b81146200053b57600080fd5b50565b6000815190506200054f8162000524565b92915050565b600067ffffffffffffffff82111562000573576200057262000351565b5b602082029050602081019050919050565b600080fd5b6000620005a06200059a8462000555565b620003b6565b90508083825260208201905060208402830185811115620005c657620005c562000584565b5b835b81811015620005f35780620005de88826200053e565b845260208401935050602081019050620005c8565b5050509392505050565b600082601f83011262000615576200061462000336565b5b81516200062784826020860162000589565b91505092915050565b6000806000806000806000806000806101408b8d0312156200065757620006566200032c565b5b60008b015167ffffffffffffffff81111562000678576200067762000331565b5b620006868d828e0162000482565b9a505060208b015167ffffffffffffffff811115620006aa57620006a962000331565b5b620006b88d828e0162000482565b9950506040620006cb8d828e0162000503565b9850506060620006de8d828e016200053e565b9750506080620006f18d828e016200053e565b96505060a0620007048d828e016200053e565b95505060c08b015167ffffffffffffffff81111562000728576200072762000331565b5b620007368d828e01620005fd565b94505060e08b015167ffffffffffffffff8111156200075a576200075962000331565b5b620007688d828e0162000482565b9350506101008b015167ffffffffffffffff8111156200078d576200078c62000331565b5b6200079b8d828e0162000482565b9250506101208b015167ffffffffffffffff811115620007c057620007bf62000331565b5b620007ce8d828e0162000482565b9150509295989b9194979a5092959850565b600081519050919050565b7f4e487b7100000000000000000000000000000000000000000000000000000000600052602260045260246000fd5b600060028204905060018216806200083357607f821691505b602082108103620008495762000848620007eb565b5b50919050565b60008190508160005260206000209050919050565b60006020601f8301049050919050565b600082821b905092915050565b600060088302620008b37fffffffffffffffffffffffffffffffffffffffffffffffffffffffffffffffff8262000874565b620008bf868362000874565b95508019841693508086168417925050509392505050565b6000819050919050565b600062000902620008fc620008f6846200051a565b620008d7565b6200051a565b9050919050565b6000819050919050565b6200091e83620008e1565b620009366200092d8262000909565b84845462000881565b825550505050565b600090565b6200094d6200093e565b6200095a81848462000913565b505050565b5b8181101562000982576200097660008262000943565b60018101905062000960565b5050565b601f821115620009d1576200099b816200084f565b620009a68462000864565b81016020851015620009b6578190505b620009ce620009c58562000864565b8301826200095f565b50505b505050565b600082821c905092915050565b6000620009f660001984600802620009d6565b1980831691505092915050565b600062000a118383620009e3565b9150826002028217905092915050565b62000a2c82620007e0565b67ffffffffffffffff81111562000a485762000a4762000351565b5b62000a5482546200081a565b62000a6182828562000986565b600060209050601f83116001811462000a99576000841562000a84578287015190505b62000a90858262000a03565b86555062000b00565b601f19841662000aa9866200084f565b60005b8281101562000ad35784890151825560018201915060208501945060208101905062000aac565b8683101562000af3578489015162000aef601f891682620009e3565b8355505b6001600288020188555050505b505050505050565b7f4e487b7100000000000000000000000000000000000000000000000000000000600052601160045260246000fd5b600062000b44826200051a565b915062000b51836200051a565b925082820262000b61816200051a565b9150828204841483151762000b7b5762000b7a62000b08565b5b5092915050565b600062000b8f82620004b5565b9050919050565b62000ba18162000b82565b82525050565b600060208201905062000bbe600083018462000b96565b92915050565b7f4e487b7100000000000000000000000000000000000000000000000000000000600052601260045260246000fd5b600062000c00826200051a565b915062000c0d836200051a565b92508262000c205762000c1f62000bc4565b5b828204905092915050565b600082825260208201905092915050565b7f4950000000000000000000000000000000000000000000000000000000000000600082015250565b600062000c7460028362000c2b565b915062000c818262000c3c565b602082019050919050565b6000602082019050818103600083015262000ca78162000c65565b9050919050565b7f4e487b7100000000000000000000000000000000000000000000000000000000600052603260045260246000fd5b600062000cea826200051a565b91507fffffffffffffffffffffffffffffffffffffffffffffffffffffffffffffffff820362000d1f5762000d1e62000b08565b5b600182019050919050565b6128a28062000d3a6000396000f3fe60806040526004361061019c5760003560e01c8063980e7844116100ec578063bb5d40eb1161008a578063d51087f411610064578063d51087f414610543578063dffde3ce1461056e578063e2fdcc1714610599578063ec3246a2146105c45761019c565b8063bb5d40eb146104c2578063c435cf2d146104ed578063d06ef164146105185761019c565b8063a6c3e6b9116100c6578063a6c3e6b91461042a578063ac87b01b14610455578063b7acb19c14610480578063b8484231146104975761019c565b8063980e7844146103de5780639a82a09a146103f55780639c105582146104205761019c565b8063590e1ae3116101595780636f7bc9be116101335780636f7bc9be146103205780637284e4161461035f5780637d3d65221461038a5780638fbb38ff146103b55761019c565b8063590e1ae3146102c75780635bf5d54c146102de57806369d89575146103095761019c565b806305760a5a146101a157806305a921ff146101cc57806306fdde03146101f75780630bfd1a1114610222578063344612c71461025f5780633ba8e5651461028a575b600080fd5b3480156101ad57600080fd5b506101b66105ed565b6040516101c39190611818565b60405180910390f35b3480156101d857600080fd5b506101e16105f3565b6040516101ee91906118c3565b60405180910390f35b34801561020357600080fd5b5061020c610681565b60405161021991906118c3565b60405180910390f35b34801561022e57600080fd5b5061024960048036038101906102449190611925565b61070f565b60405161025691906119be565b60405180910390f35b34801561026b57600080fd5b506102746107d8565b6040516102819190611818565b60405180910390f35b34801561029657600080fd5b506102b160048036038101906102ac9190611925565b6107de565b6040516102be9190611a1a565b60405180910390f35b3480156102d357600080fd5b506102dc61081d565b005b3480156102ea57600080fd5b506102f36109b3565b6040516103009190611818565b60405180910390f35b34801561031557600080fd5b5061031e6109b9565b005b34801561032c57600080fd5b5061034760048036038101906103429190611a61565b610b5e565b60405161035693929190611a9d565b60405180910390f35b34801561036b57600080fd5b50610374610c3d565b60405161038191906118c3565b60405180910390f35b34801561039657600080fd5b5061039f610ccb565b6040516103ac9190611adb565b60405180910390f35b3480156103c157600080fd5b506103dc60048036038101906103d79190611925565b610cde565b005b3480156103ea57600080fd5b506103f3610d2b565b005b34801561040157600080fd5b5061040a610f24565b6040516104179190611adb565b60405180910390f35b610428610f37565b005b34801561043657600080fd5b5061043f611198565b60405161044c9190611b17565b60405180910390f35b34801561046157600080fd5b5061046a6111be565b60405161047791906118c3565b60405180910390f35b34801561048c57600080fd5b5061049561124c565b005b3480156104a357600080fd5b506104ac611360565b6040516104b99190611818565b60405180910390f35b3480156104ce57600080fd5b506104d7611403565b6040516104e49190611adb565b60405180910390f35b3480156104f957600080fd5b50610502611416565b60405161050f9190611b74565b60405180910390f35b34801561052457600080fd5b5061052d6114bf565b60405161053a9190611818565b60405180910390f35b34801561054f57600080fd5b506105586114c5565b60405161056591906118c3565b60405180910390f35b34801561057a57600080fd5b50610583611553565b6040516105909190611818565b60405180910390f35b3480156105a557600080fd5b506105ae611559565b6040516105bb9190611bee565b60405180910390f35b3480156105d057600080fd5b506105eb60048036038101906105e69190611d3e565b61157f565b005b60045481565b600b805461060090611db6565b80601f016020809104026020016040519081016040528092919081815260200182805461062c90611db6565b80156106795780601f1061064e57610100808354040283529160200191610679565b820191906000526020600020905b81548152906001019060200180831161065c57829003601f168201915b505050505081565b6000805461068e90611db6565b80601f01602080910402602001604051908101604052809291908181526020018280546106ba90611db6565b80156107075780601f106106dc57610100808354040283529160200191610707565b820191906000526020600020905b8154815290600101906020018083116106ea57829003601f168201915b505050505081565b6107176117b9565b6004546005546107279190611e45565b821115610769576040517f08c379a000000000000000000000000000000000000000000000000000000000815260040161076090611ec2565b60405180910390fd5b60106001836107789190611ee2565b8154811061078957610788611f16565b5b906000526020600020906003020160405180606001604052908160008201548152602001600182015481526020016002820160009054906101000a900460ff1615151515815250509050919050565b60065481565b600e81815481106107ee57600080fd5b906000526020600020016000915054906101000a900473ffffffffffffffffffffffffffffffffffffffff1681565b600d60003373ffffffffffffffffffffffffffffffffffffffff1673ffffffffffffffffffffffffffffffffffffffff16815260200190815260200160002060010160149054906101000a900460ff166108ac576040517f08c379a00000000000000000000000000000000000000000000000000000000081526004016108a390611fb7565b60405180910390fd5b600360009054906101000a900473ffffffffffffffffffffffffffffffffffffffff1673ffffffffffffffffffffffffffffffffffffffff16634d83ec8e600e336040518363ffffffff1660e01b815260040161090a9291906120fb565b600060405180830381600087803b15801561092457600080fd5b505af1158015610938573d6000803e3d6000fd5b505050507f1b7ba75643ab42927a47f2481d63cb47a9cd2dca64188a70849cf8e6ccd9db0f600d60003373ffffffffffffffffffffffffffffffffffffffff1673ffffffffffffffffffffffffffffffffffffffff1681526020019081526020016000206040516109a99190612269565b60405180910390a1565b60115481565b6004546005546109c99190611e45565b6011541115610a0d576040517f08c379a0000000000000000000000000000000000000000000000000000000008152600401610a0490611ec2565b60405180910390fd5b600060106001601154610a209190611ee2565b81548110610a3157610a30611f16565b5b906000526020600020906003020160405180606001604052908160008201548152602001600182015481526020016002820160009054906101000a900460ff1615151515815250509050600360009054906101000a900473ffffffffffffffffffffffffffffffffffffffff1673ffffffffffffffffffffffffffffffffffffffff1663947aa72b82600001516040518263ffffffff1660e01b8152600401610ada9190611818565b600060405180830381600087803b158015610af457600080fd5b505af1158015610b08573d6000803e3d6000fd5b5050505060116000815480929190610b1f9061228b565b91905055507fab0bbc5225ed82879961bbdb8f081389f2fb2fff5f855db942d156524197420881604051610b5391906119be565b60405180910390a150565b600d602052806000526040600020600091509050806000018054610b8190611db6565b80601f0160208091040260200160405190810160405280929190818152602001828054610bad90611db6565b8015610bfa5780601f10610bcf57610100808354040283529160200191610bfa565b820191906000526020600020905b815481529060010190602001808311610bdd57829003601f168201915b5050505050908060010160009054906101000a900473ffffffffffffffffffffffffffffffffffffffff16908060010160149054906101000a900460ff16905083565b60018054610c4a90611db6565b80601f0160208091040260200160405190810160405280929190818152602001828054610c7690611db6565b8015610cc35780601f10610c9857610100808354040283529160200191610cc3565b820191906000526020600020905b815481529060010190602001808311610ca657829003601f168201915b505050505081565b600760019054906101000a900460ff1681565b60016010600183610cef9190611ee2565b81548110610d0057610cff611f16565b5b906000526020600020906003020160020160006101000a81548160ff02191690831515021790555050565b600260009054906101000a900473ffffffffffffffffffffffffffffffffffffffff1673ffffffffffffffffffffffffffffffffffffffff163373ffffffffffffffffffffffffffffffffffffffff1614610dbb576040517f08c379a0000000000000000000000000000000000000000000000000000000008152600401610db290612345565b60405180910390fd5b6000600360009054906101000a900473ffffffffffffffffffffffffffffffffffffffff1673ffffffffffffffffffffffffffffffffffffffff16311115610eec5760005b600f54811015610eea57600360009054906101000a900473ffffffffffffffffffffffffffffffffffffffff1673ffffffffffffffffffffffffffffffffffffffff16634d83ec8e600e808481548110610e5d57610e5c611f16565b5b9060005260206000200160009054906101000a900473ffffffffffffffffffffffffffffffffffffffff166040518363ffffffff1660e01b8152600401610ea59291906120fb565b600060405180830381600087803b158015610ebf57600080fd5b505af1158015610ed3573d6000803e3d6000fd5b505050508080610ee29061228b565b915050610e00565b505b6000600760006101000a81548160ff0219169083151502179055506001600760026101000a81548160ff021916908315150217905550565b600760029054906101000a900460ff1681565b600d60003373ffffffffffffffffffffffffffffffffffffffff1673ffffffffffffffffffffffffffffffffffffffff16815260200190815260200160002060010160149054906101000a900460ff16610f9057600080fd5b600360009054906101000a900473ffffffffffffffffffffffffffffffffffffffff1673ffffffffffffffffffffffffffffffffffffffff1663cd5aebc834600e336040518463ffffffff1660e01b8152600401610fef9291906120fb565b6000604051808303818588803b15801561100857600080fd5b505af115801561101c573d6000803e3d6000fd5b505050505060646006546064600360009054906101000a900473ffffffffffffffffffffffffffffffffffffffff1673ffffffffffffffffffffffffffffffffffffffff163161106c9190612365565b6110769190611e45565b1061111f576001600760016101000a81548160ff02191690831515021790555042600881905550600042905060006004546005546110b49190611e45565b905060005b8181101561111b57600454836110cf91906123a7565b601082815481106110e3576110e2611f16565b5b9060005260206000209060030201600101819055506004548361110691906123a7565b925080806111139061228b565b9150506110b9565b5050505b7fadaf7b0a13ca988bb7ec352abeea5619f1865a53553dbd99c06a1089cbdf8a4d600d60003373ffffffffffffffffffffffffffffffffffffffff1673ffffffffffffffffffffffffffffffffffffffff1681526020019081526020016000203460405161118e9291906123db565b60405180910390a1565b600260009054906101000a900473ffffffffffffffffffffffffffffffffffffffff1681565b600980546111cb90611db6565b80601f01602080910402602001604051908101604052809291908181526020018280546111f790611db6565b80156112445780601f1061121957610100808354040283529160200191611244565b820191906000526020600020905b81548152906001019060200180831161122757829003601f168201915b505050505081565b600260009054906101000a900473ffffffffffffffffffffffffffffffffffffffff1673ffffffffffffffffffffffffffffffffffffffff163373ffffffffffffffffffffffffffffffffffffffff16146112dc576040517f08c379a00000000000000000000000000000000000000000000000000000000081526004016112d39061247d565b60405180910390fd5b600360009054906101000a900473ffffffffffffffffffffffffffffffffffffffff1673ffffffffffffffffffffffffffffffffffffffff1663a369db8d6040518163ffffffff1660e01b8152600401600060405180830381600087803b15801561134657600080fd5b505af115801561135a573d6000803e3d6000fd5b50505050565b6000600360009054906101000a900473ffffffffffffffffffffffffffffffffffffffff1673ffffffffffffffffffffffffffffffffffffffff16639e0b51fb336040518263ffffffff1660e01b81526004016113bd9190611a1a565b602060405180830381865afa1580156113da573d6000803e3d6000fd5b505050506040513d601f19601f820116820180604052508101906113fe91906124b2565b905090565b600760009054906101000a900460ff1681565b61141e6117dc565b600360009054906101000a900473ffffffffffffffffffffffffffffffffffffffff1673ffffffffffffffffffffffffffffffffffffffff1663bcad0083336040518263ffffffff1660e01b81526004016114799190611a1a565b606060405180830381865afa158015611496573d6000803e3d6000fd5b505050506040513d601f19601f820116820180604052508101906114ba9190612574565b905090565b60085481565b600a80546114d290611db6565b80601f01602080910402602001604051908101604052809291908181526020018280546114fe90611db6565b801561154b5780601f106115205761010080835404028352916020019161154b565b820191906000526020600020905b81548152906001019060200180831161152e57829003601f168201915b505050505081565b60055481565b600360009054906101000a900473ffffffffffffffffffffffffffffffffffffffff1681565b600d60003373ffffffffffffffffffffffffffffffffffffffff1673ffffffffffffffffffffffffffffffffffffffff16815260200190815260200160002060010160149054906101000a900460ff161561160f576040517f08c379a0000000000000000000000000000000000000000000000000000000008152600401611606906125ed565b60405180910390fd5b33600d60003373ffffffffffffffffffffffffffffffffffffffff1673ffffffffffffffffffffffffffffffffffffffff16815260200190815260200160002060010160006101000a81548173ffffffffffffffffffffffffffffffffffffffff021916908373ffffffffffffffffffffffffffffffffffffffff16021790555080600d60003373ffffffffffffffffffffffffffffffffffffffff1673ffffffffffffffffffffffffffffffffffffffff16815260200190815260200160002060000190816116df919061279a565b506001600d60003373ffffffffffffffffffffffffffffffffffffffff1673ffffffffffffffffffffffffffffffffffffffff16815260200190815260200160002060010160146101000a81548160ff021916908315150217905550600e339080600181540180825580915050600190039060005260206000200160009091909190916101000a81548173ffffffffffffffffffffffffffffffffffffffff021916908373ffffffffffffffffffffffffffffffffffffffff160217905550600f60008154809291906117b19061228b565b919050555050565b604051806060016040528060008152602001600081526020016000151581525090565b604051806060016040528060008152602001600081526020016000151581525090565b6000819050919050565b611812816117ff565b82525050565b600060208201905061182d6000830184611809565b92915050565b600081519050919050565b600082825260208201905092915050565b60005b8381101561186d578082015181840152602081019050611852565b60008484015250505050565b6000601f19601f8301169050919050565b600061189582611833565b61189f818561183e565b93506118af81856020860161184f565b6118b881611879565b840191505092915050565b600060208201905081810360008301526118dd818461188a565b905092915050565b6000604051905090565b600080fd5b600080fd5b611902816117ff565b811461190d57600080fd5b50565b60008135905061191f816118f9565b92915050565b60006020828403121561193b5761193a6118ef565b5b600061194984828501611910565b91505092915050565b61195b816117ff565b82525050565b60008115159050919050565b61197681611961565b82525050565b6060820160008201516119926000850182611952565b5060208201516119a56020850182611952565b5060408201516119b8604085018261196d565b50505050565b60006060820190506119d3600083018461197c565b92915050565b600073ffffffffffffffffffffffffffffffffffffffff82169050919050565b6000611a04826119d9565b9050919050565b611a14816119f9565b82525050565b6000602082019050611a2f6000830184611a0b565b92915050565b611a3e816119f9565b8114611a4957600080fd5b50565b600081359050611a5b81611a35565b92915050565b600060208284031215611a7757611a766118ef565b5b6000611a8584828501611a4c565b91505092915050565b611a9781611961565b82525050565b60006060820190508181036000830152611ab7818661188a565b9050611ac66020830185611a0b565b611ad36040830184611a8e565b949350505050565b6000602082019050611af06000830184611a8e565b92915050565b6000611b01826119d9565b9050919050565b611b1181611af6565b82525050565b6000602082019050611b2c6000830184611b08565b92915050565b606082016000820151611b486000850182611952565b506020820151611b5b6020850182611952565b506040820151611b6e604085018261196d565b50505050565b6000606082019050611b896000830184611b32565b92915050565b6000819050919050565b6000611bb4611baf611baa846119d9565b611b8f565b6119d9565b9050919050565b6000611bc682611b99565b9050919050565b6000611bd882611bbb565b9050919050565b611be881611bcd565b82525050565b6000602082019050611c036000830184611bdf565b92915050565b600080fd5b600080fd5b7f4e487b7100000000000000000000000000000000000000000000000000000000600052604160045260246000fd5b611c4b82611879565b810181811067ffffffffffffffff82111715611c6a57611c69611c13565b5b80604052505050565b6000611c7d6118e5565b9050611c898282611c42565b919050565b600067ffffffffffffffff821115611ca957611ca8611c13565b5b611cb282611879565b9050602081019050919050565b82818337600083830152505050565b6000611ce1611cdc84611c8e565b611c73565b905082815260208101848484011115611cfd57611cfc611c0e565b5b611d08848285611cbf565b509392505050565b600082601f830112611d2557611d24611c09565b5b8135611d35848260208601611cce565b91505092915050565b600060208284031215611d5457611d536118ef565b5b600082013567ffffffffffffffff811115611d7257611d716118f4565b5b611d7e84828501611d10565b91505092915050565b7f4e487b7100000000000000000000000000000000000000000000000000000000600052602260045260246000fd5b60006002820490506001821680611dce57607f821691505b602082108103611de157611de0611d87565b5b50919050565b7f4e487b7100000000000000000000000000000000000000000000000000000000600052601260045260246000fd5b7f4e487b7100000000000000000000000000000000000000000000000000000000600052601160045260246000fd5b6000611e50826117ff565b9150611e5b836117ff565b925082611e6b57611e6a611de7565b5b828204905092915050565b7f496e76616c6964205374616765204e6f2e000000000000000000000000000000600082015250565b6000611eac60118361183e565b9150611eb782611e76565b602082019050919050565b60006020820190508181036000830152611edb81611e9f565b9050919050565b6000611eed826117ff565b9150611ef8836117ff565b9250828203905081811115611f1057611f0f611e16565b5b92915050565b7f4e487b7100000000000000000000000000000000000000000000000000000000600052603260045260246000fd5b7f4f6e6c7920696e766573746f72732063616e2063616c6c20746869732066756e60008201527f6374696f6e000000000000000000000000000000000000000000000000000000602082015250565b6000611fa160258361183e565b9150611fac82611f45565b604082019050919050565b60006020820190508181036000830152611fd081611f94565b9050919050565b600081549050919050565b600082825260208201905092915050565b60008190508160005260206000209050919050565b612011816119f9565b82525050565b60006120238383612008565b60208301905092915050565b60008160001c9050919050565b600073ffffffffffffffffffffffffffffffffffffffff82169050919050565b600061206f61206a8361202f565b61203c565b9050919050565b6000612082825461205c565b9050919050565b6000600182019050919050565b60006120a182611fd7565b6120ab8185611fe2565b93506120b683611ff3565b8060005b838110156120ee576120cb82612076565b6120d58882612017565b97506120e083612089565b9250506001810190506120ba565b5085935050505092915050565b600060408201905081810360008301526121158185612096565b90506121246020830184611a0b565b9392505050565b600082825260208201905092915050565b60008190508160005260206000209050919050565b6000815461215e81611db6565b612168818661212b565b945060018216600081146121835760018114612199576121cc565b60ff1983168652811515602002860193506121cc565b6121a28561213c565b60005b838110156121c4578154818901526001820191506020810190506121a5565b808801955050505b50505092915050565b60008160a01c9050919050565b600060ff82169050919050565b60006122026121fd836121d5565b6121e2565b9050919050565b600060608301600080840185830360008701526122268382612151565b925050600184015490506122398161205c565b6122466020870182612008565b50612250816121ef565b61225d604087018261196d565b50819250505092915050565b600060208201905081810360008301526122838184612209565b905092915050565b6000612296826117ff565b91507fffffffffffffffffffffffffffffffffffffffffffffffffffffffffffffffff82036122c8576122c7611e16565b5b600182019050919050565b7f4f6e6c792043616d706169676e20617574686f722063616e2063616e63656c2060008201527f612063616d706169676e2e000000000000000000000000000000000000000000602082015250565b600061232f602b8361183e565b915061233a826122d3565b604082019050919050565b6000602082019050818103600083015261235e81612322565b9050919050565b6000612370826117ff565b915061237b836117ff565b9250828202612389816117ff565b915082820484148315176123a05761239f611e16565b5b5092915050565b60006123b2826117ff565b91506123bd836117ff565b92508282019050808211156123d5576123d4611e16565b5b92915050565b600060408201905081810360008301526123f58185612209565b90506124046020830184611809565b9392505050565b7f4f6e6c792043616d706169676e20617574686f722063616e20636f6d706c657460008201527f6520612063616d706169676e2e00000000000000000000000000000000000000602082015250565b6000612467602d8361183e565b91506124728261240b565b604082019050919050565b600060208201905081810360008301526124968161245a565b9050919050565b6000815190506124ac816118f9565b92915050565b6000602082840312156124c8576124c76118ef565b5b60006124d68482850161249d565b91505092915050565b600080fd5b6124ed81611961565b81146124f857600080fd5b50565b60008151905061250a816124e4565b92915050565b600060608284031215612526576125256124df565b5b6125306060611c73565b905060006125408482850161249d565b60008301525060206125548482850161249d565b6020830152506040612568848285016124fb565b60408301525092915050565b60006060828403121561258a576125896118ef565b5b600061259884828501612510565b91505092915050565b7f4152000000000000000000000000000000000000000000000000000000000000600082015250565b60006125d760028361183e565b91506125e2826125a1565b602082019050919050565b60006020820190508181036000830152612606816125ca565b9050919050565b60006020601f8301049050919050565b600082821b905092915050565b60006008830261265a7fffffffffffffffffffffffffffffffffffffffffffffffffffffffffffffffff8261261d565b612664868361261d565b95508019841693508086168417925050509392505050565b600061269761269261268d846117ff565b611b8f565b6117ff565b9050919050565b6000819050919050565b6126b18361267c565b6126c56126bd8261269e565b84845461262a565b825550505050565b600090565b6126da6126cd565b6126e58184846126a8565b505050565b5b81811015612709576126fe6000826126d2565b6001810190506126eb565b5050565b601f82111561274e5761271f8161213c565b6127288461260d565b81016020851015612737578190505b61274b6127438561260d565b8301826126ea565b50505b505050565b600082821c905092915050565b600061277160001984600802612753565b1980831691505092915050565b600061278a8383612760565b9150826002028217905092915050565b6127a382611833565b67ffffffffffffffff8111156127bc576127bb611c13565b5b6127c68254611db6565b6127d182828561270d565b600060209050601f83116001811461280457600084156127f2578287015190505b6127fc858261277e565b865550612864565b601f1984166128128661213c565b60005b8281101561283a57848901518255600182019150602085019450602081019050612815565b868310156128575784890151612853601f891682612760565b8355505b6001600288020188555050505b50505050505056fea2646970667358221220a74824629167d52663c30d1ac0a147d4b7b845e03ff24125563893d82ad0e0be64736f6c6343000811003360806040523480156200001157600080fd5b50604051620017c6380380620017c6833981810160405281019062000037919062000157565b60008060006101000a81548160ff021916908360018111156200005f576200005e62000189565b5b021790555080600260006101000a81548173ffffffffffffffffffffffffffffffffffffffff021916908373ffffffffffffffffffffffffffffffffffffffff16021790555033600360006101000a81548173ffffffffffffffffffffffffffffffffffffffff021916908373ffffffffffffffffffffffffffffffffffffffff16021790555050620001b8565b600080fd5b600073ffffffffffffffffffffffffffffffffffffffff82169050919050565b60006200011f82620000f2565b9050919050565b620001318162000112565b81146200013d57600080fd5b50565b600081519050620001518162000126565b92915050565b60006020828403121562000170576200016f620000ed565b5b6000620001808482850162000140565b91505092915050565b7f4e487b7100000000000000000000000000000000000000000000000000000000600052602160045260246000fd5b6115fe80620001c86000396000f3fe6080604052600436106100705760003560e01c80639e0b51fb1161004e5780639e0b51fb146100f2578063a369db8d1461012f578063bcad008314610146578063cd5aebc81461018357610070565b806308551a53146100755780634d83ec8e146100a0578063947aa72b146100c9575b600080fd5b34801561008157600080fd5b5061008a61019f565b6040516100979190610e1b565b60405180910390f35b3480156100ac57600080fd5b506100c760048036038101906100c29190610fe1565b6101c5565b005b3480156100d557600080fd5b506100f060048036038101906100eb9190611073565b6105bb565b005b3480156100fe57600080fd5b50610119600480360381019061011491906110a0565b6106fa565b60405161012691906110dc565b60405180910390f35b34801561013b57600080fd5b506101446107d7565b005b34801561015257600080fd5b5061016d600480360381019061016891906110a0565b610949565b60405161017a9190611163565b60405180910390f35b61019d60048036038101906101989190610fe1565b610a62565b005b600260009054906101000a900473ffffffffffffffffffffffffffffffffffffffff1681565b80600160008273ffffffffffffffffffffffffffffffffffffffff1673ffffffffffffffffffffffffffffffffffffffff16815260200190815260200160002060020160009054906101000a900460ff16610255576040517f08c379a000000000000000000000000000000000000000000000000000000000815260040161024c90611201565b60405180910390fd5b6000600160008473ffffffffffffffffffffffffffffffffffffffff1673ffffffffffffffffffffffffffffffffffffffff1681526020019081526020016000206001015490508273ffffffffffffffffffffffffffffffffffffffff166108fc606483476102c49190611250565b6102ce91906112c1565b9081150290604051600060405180830381858888f193505050501580156102f9573d6000803e3d6000fd5b506000600160008573ffffffffffffffffffffffffffffffffffffffff1673ffffffffffffffffffffffffffffffffffffffff168152602001908152602001600020600001819055506000600160008573ffffffffffffffffffffffffffffffffffffffff1673ffffffffffffffffffffffffffffffffffffffff1681526020019081526020016000206001018190555060005b84518110156105b45760004711610405576000600160008784815181106103b7576103b66112f2565b5b602002602001015173ffffffffffffffffffffffffffffffffffffffff1673ffffffffffffffffffffffffffffffffffffffff168152602001908152602001600020600101819055506105a1565b4760646001600088858151811061041f5761041e6112f2565b5b602002602001015173ffffffffffffffffffffffffffffffffffffffff1673ffffffffffffffffffffffffffffffffffffffff1681526020019081526020016000206000015461046f9190611250565b61047991906112c1565b600160008784815181106104905761048f6112f2565b5b602002602001015173ffffffffffffffffffffffffffffffffffffffff1673ffffffffffffffffffffffffffffffffffffffff168152602001908152602001600020600101819055506064600160008784815181106104f2576104f16112f2565b5b602002602001015173ffffffffffffffffffffffffffffffffffffffff1673ffffffffffffffffffffffffffffffffffffffff16815260200190815260200160002060010154106105a057606460016000878481518110610556576105556112f2565b5b602002602001015173ffffffffffffffffffffffffffffffffffffffff1673ffffffffffffffffffffffffffffffffffffffff168152602001908152602001600020600101819055505b5b80806105ac90611321565b91505061038d565b5050505050565b600360009054906101000a900473ffffffffffffffffffffffffffffffffffffffff1673ffffffffffffffffffffffffffffffffffffffff163373ffffffffffffffffffffffffffffffffffffffff161461064b576040517f08c379a0000000000000000000000000000000000000000000000000000000008152600401610642906113db565b60405180910390fd5b4781111561068e576040517f08c379a000000000000000000000000000000000000000000000000000000000815260040161068590611447565b60405180910390fd5b600260009054906101000a900473ffffffffffffffffffffffffffffffffffffffff1673ffffffffffffffffffffffffffffffffffffffff166108fc829081150290604051600060405180830381858888f193505050501580156106f6573d6000803e3d6000fd5b5050565b600081600160008273ffffffffffffffffffffffffffffffffffffffff1673ffffffffffffffffffffffffffffffffffffffff16815260200190815260200160002060020160009054906101000a900460ff1661078c576040517f08c379a000000000000000000000000000000000000000000000000000000000815260040161078390611201565b60405180910390fd5b600160008473ffffffffffffffffffffffffffffffffffffffff1673ffffffffffffffffffffffffffffffffffffffff16815260200190815260200160002060010154915050919050565b600360009054906101000a900473ffffffffffffffffffffffffffffffffffffffff1673ffffffffffffffffffffffffffffffffffffffff163373ffffffffffffffffffffffffffffffffffffffff1614610867576040517f08c379a000000000000000000000000000000000000000000000000000000000815260040161085e906113db565b60405180910390fd5b60004711156108da57600260009054906101000a900473ffffffffffffffffffffffffffffffffffffffff1673ffffffffffffffffffffffffffffffffffffffff166108fc479081150290604051600060405180830381858888f193505050501580156108d8573d6000803e3d6000fd5b505b60016000806101000a81548160ff021916908360018111156108ff576108fe611467565b5b021790555060004714610947576040517f08c379a000000000000000000000000000000000000000000000000000000000815260040161093e90611508565b60405180910390fd5b565b610951610db7565b81600160008273ffffffffffffffffffffffffffffffffffffffff1673ffffffffffffffffffffffffffffffffffffffff16815260200190815260200160002060020160009054906101000a900460ff166109e1576040517f08c379a00000000000000000000000000000000000000000000000000000000081526004016109d890611201565b60405180910390fd5b600160008473ffffffffffffffffffffffffffffffffffffffff1673ffffffffffffffffffffffffffffffffffffffff16815260200190815260200160002060405180606001604052908160008201548152602001600182015481526020016002820160009054906101000a900460ff161515151581525050915050919050565b600180811115610a7557610a74611467565b5b60008054906101000a900460ff166001811115610a9557610a94611467565b5b03610ad5576040517f08c379a0000000000000000000000000000000000000000000000000000000008152600401610acc90611574565b60405180910390fd5b34600160008373ffffffffffffffffffffffffffffffffffffffff1673ffffffffffffffffffffffffffffffffffffffff1681526020019081526020016000206000016000828254610b279190611594565b9250508190555060005b8251811015610d585760004711610ba957600060016000858481518110610b5b57610b5a6112f2565b5b602002602001015173ffffffffffffffffffffffffffffffffffffffff1673ffffffffffffffffffffffffffffffffffffffff16815260200190815260200160002060010181905550610d45565b47606460016000868581518110610bc357610bc26112f2565b5b602002602001015173ffffffffffffffffffffffffffffffffffffffff1673ffffffffffffffffffffffffffffffffffffffff16815260200190815260200160002060000154610c139190611250565b610c1d91906112c1565b60016000858481518110610c3457610c336112f2565b5b602002602001015173ffffffffffffffffffffffffffffffffffffffff1673ffffffffffffffffffffffffffffffffffffffff16815260200190815260200160002060010181905550606460016000858481518110610c9657610c956112f2565b5b602002602001015173ffffffffffffffffffffffffffffffffffffffff1673ffffffffffffffffffffffffffffffffffffffff1681526020019081526020016000206001015410610d4457606460016000858481518110610cfa57610cf96112f2565b5b602002602001015173ffffffffffffffffffffffffffffffffffffffff1673ffffffffffffffffffffffffffffffffffffffff168152602001908152602001600020600101819055505b5b8080610d5090611321565b915050610b31565b5060018060008373ffffffffffffffffffffffffffffffffffffffff1673ffffffffffffffffffffffffffffffffffffffff16815260200190815260200160002060020160006101000a81548160ff0219169083151502179055505050565b604051806060016040528060008152602001600081526020016000151581525090565b600073ffffffffffffffffffffffffffffffffffffffff82169050919050565b6000610e0582610dda565b9050919050565b610e1581610dfa565b82525050565b6000602082019050610e306000830184610e0c565b92915050565b6000604051905090565b600080fd5b600080fd5b600080fd5b6000601f19601f8301169050919050565b7f4e487b7100000000000000000000000000000000000000000000000000000000600052604160045260246000fd5b610e9882610e4f565b810181811067ffffffffffffffff82111715610eb757610eb6610e60565b5b80604052505050565b6000610eca610e36565b9050610ed68282610e8f565b919050565b600067ffffffffffffffff821115610ef657610ef5610e60565b5b602082029050602081019050919050565b600080fd5b6000610f1782610dda565b9050919050565b610f2781610f0c565b8114610f3257600080fd5b50565b600081359050610f4481610f1e565b92915050565b6000610f5d610f5884610edb565b610ec0565b90508083825260208201905060208402830185811115610f8057610f7f610f07565b5b835b81811015610fa95780610f958882610f35565b845260208401935050602081019050610f82565b5050509392505050565b600082601f830112610fc857610fc7610e4a565b5b8135610fd8848260208601610f4a565b91505092915050565b60008060408385031215610ff857610ff7610e40565b5b600083013567ffffffffffffffff81111561101657611015610e45565b5b61102285828601610fb3565b925050602061103385828601610f35565b9150509250929050565b6000819050919050565b6110508161103d565b811461105b57600080fd5b50565b60008135905061106d81611047565b92915050565b60006020828403121561108957611088610e40565b5b60006110978482850161105e565b91505092915050565b6000602082840312156110b6576110b5610e40565b5b60006110c484828501610f35565b91505092915050565b6110d68161103d565b82525050565b60006020820190506110f160008301846110cd565b92915050565b6111008161103d565b82525050565b60008115159050919050565b61111b81611106565b82525050565b60608201600082015161113760008501826110f7565b50602082015161114a60208501826110f7565b50604082015161115d6040850182611112565b50505050565b60006060820190506111786000830184611121565b92915050565b600082825260208201905092915050565b7f4f6e6c7920496e766573746f72732063616e2063616c6c207468652066756e6360008201527f74696f6e00000000000000000000000000000000000000000000000000000000602082015250565b60006111eb60248361117e565b91506111f68261118f565b604082019050919050565b6000602082019050818103600083015261121a816111de565b9050919050565b7f4e487b7100000000000000000000000000000000000000000000000000000000600052601160045260246000fd5b600061125b8261103d565b91506112668361103d565b92508282026112748161103d565b9150828204841483151761128b5761128a611221565b5b5092915050565b7f4e487b7100000000000000000000000000000000000000000000000000000000600052601260045260246000fd5b60006112cc8261103d565b91506112d78361103d565b9250826112e7576112e6611292565b5b828204905092915050565b7f4e487b7100000000000000000000000000000000000000000000000000000000600052603260045260246000fd5b600061132c8261103d565b91507fffffffffffffffffffffffffffffffffffffffffffffffffffffffffffffffff820361135e5761135d611221565b5b600182019050919050565b7f4f6e6c79206f776e6572732063616e2063616c6c207468652066756e6374696f60008201527f6e00000000000000000000000000000000000000000000000000000000000000602082015250565b60006113c560218361117e565b91506113d082611369565b604082019050919050565b600060208201905081810360008301526113f4816113b8565b9050919050565b7f416d6f756e7420657863656564732062616c616e636500000000000000000000600082015250565b600061143160168361117e565b915061143c826113fb565b602082019050919050565b6000602082019050818103600083015261146081611424565b9050919050565b7f4e487b7100000000000000000000000000000000000000000000000000000000600052602160045260246000fd5b7f42616c616e6365206973207374696c6c206c65667420696e2074686520636f6e60008201527f7472616374000000000000000000000000000000000000000000000000000000602082015250565b60006114f260258361117e565b91506114fd82611496565b604082019050919050565b60006020820190508181036000830152611521816114e5565b9050919050565b7f416c726561647920506169640000000000000000000000000000000000000000600082015250565b600061155e600c8361117e565b915061156982611528565b602082019050919050565b6000602082019050818103600083015261158d81611551565b9050919050565b600061159f8261103d565b91506115aa8361103d565b92508282019050808211156115c2576115c1611221565b5b9291505056fea2646970667358221220ab6523119bc6e6bd43a128895ecfd9f44fee81699215efd9e2366f361256836f64736f6c63430008110033a2646970667358221220002c9eab53975652274060ed4cd5f9de2f0f6c4f901165ef2d27df0461a218db64736f6c63430008110033",
  "linkReferences": {},
  "deployedLinkReferences": {}
}