{
  "_format": "hh-sol-artifact-1",
  "contractName": "CFunding",
  "sourceName": "contracts/CFunding.sol",
  "abi": [
    {
      "inputs": [
        {
          "internalType": "string",
          "name": "_name",
          "type": "string"
        }
      ],
      "stateMutability": "nonpayable",
      "type": "constructor"
    },
    {
      "inputs": [],
      "name": "campaignCount",
      "outputs": [
        {
          "internalType": "uint256",
          "name": "",
          "type": "uint256"
        }
      ],
      "stateMutability": "view",
      "type": "function"
    },
    {
      "inputs": [
        {
          "internalType": "uint256",
          "name": "",
          "type": "uint256"
        }
      ],
      "name": "campaignLUT",
      "outputs": [
        {
          "internalType": "address",
          "name": "",
          "type": "address"
        }
      ],
      "stateMutability": "view",
      "type": "function"
    },
    {
      "inputs": [
        {
          "internalType": "string",
          "name": "_name",
          "type": "string"
        },
        {
          "internalType": "string",
          "name": "_description",
          "type": "string"
        },
        {
          "internalType": "uint256",
          "name": "_sPeriod",
          "type": "uint256"
        },
        {
          "internalType": "uint256",
          "name": "_totalProjectTime",
          "type": "uint256"
        },
        {
          "internalType": "uint256",
          "name": "_totalAmountNeeded",
          "type": "uint256"
        },
        {
          "internalType": "uint256[]",
          "name": "_stages",
          "type": "uint256[]"
        }
      ],
      "name": "createCampaign",
      "outputs": [],
      "stateMutability": "nonpayable",
      "type": "function"
    },
    {
      "inputs": [
        {
          "internalType": "address",
          "name": "_user",
          "type": "address"
        }
      ],
      "name": "getAllCampaignsOfUser",
      "outputs": [
        {
          "internalType": "contract Campaign[]",
          "name": "",
          "type": "address[]"
        }
      ],
      "stateMutability": "view",
      "type": "function"
    },
    {
      "inputs": [
        {
          "internalType": "address",
          "name": "_user",
          "type": "address"
        }
      ],
      "name": "getUserProfile",
      "outputs": [
        {
          "components": [
            {
              "internalType": "contract Campaign[]",
              "name": "campaigns",
              "type": "address[]"
            },
            {
              "internalType": "bool",
              "name": "isValid",
              "type": "bool"
            },
            {
              "internalType": "uint256",
              "name": "timestamp",
              "type": "uint256"
            },
            {
              "internalType": "uint256",
              "name": "userCampaignCount",
              "type": "uint256"
            }
          ],
          "internalType": "struct CFunding.CampaignData",
          "name": "",
          "type": "tuple"
        }
      ],
      "stateMutability": "view",
      "type": "function"
    },
    {
      "inputs": [],
      "name": "userCount",
      "outputs": [
        {
          "internalType": "uint256",
          "name": "",
          "type": "uint256"
        }
      ],
      "stateMutability": "view",
      "type": "function"
    }
  ],
  "bytecode": "0x60806040523480156200001157600080fd5b506040516200610c3803806200610c833981810160405281019062000037919062000234565b8060009081620000489190620004d0565b506000600481905550600060038190555033600560006101000a81548173ffffffffffffffffffffffffffffffffffffffff021916908373ffffffffffffffffffffffffffffffffffffffff16021790555050620005b7565b6000604051905090565b600080fd5b600080fd5b600080fd5b600080fd5b6000601f19601f8301169050919050565b7f4e487b7100000000000000000000000000000000000000000000000000000000600052604160045260246000fd5b6200010a82620000bf565b810181811067ffffffffffffffff821117156200012c576200012b620000d0565b5b80604052505050565b600062000141620000a1565b90506200014f8282620000ff565b919050565b600067ffffffffffffffff821115620001725762000171620000d0565b5b6200017d82620000bf565b9050602081019050919050565b60005b83811015620001aa5780820151818401526020810190506200018d565b60008484015250505050565b6000620001cd620001c78462000154565b62000135565b905082815260208101848484011115620001ec57620001eb620000ba565b5b620001f98482856200018a565b509392505050565b600082601f830112620002195762000218620000b5565b5b81516200022b848260208601620001b6565b91505092915050565b6000602082840312156200024d576200024c620000ab565b5b600082015167ffffffffffffffff8111156200026e576200026d620000b0565b5b6200027c8482850162000201565b91505092915050565b600081519050919050565b7f4e487b7100000000000000000000000000000000000000000000000000000000600052602260045260246000fd5b60006002820490506001821680620002d857607f821691505b602082108103620002ee57620002ed62000290565b5b50919050565b60008190508160005260206000209050919050565b60006020601f8301049050919050565b600082821b905092915050565b600060088302620003587fffffffffffffffffffffffffffffffffffffffffffffffffffffffffffffffff8262000319565b62000364868362000319565b95508019841693508086168417925050509392505050565b6000819050919050565b6000819050919050565b6000620003b1620003ab620003a5846200037c565b62000386565b6200037c565b9050919050565b6000819050919050565b620003cd8362000390565b620003e5620003dc82620003b8565b84845462000326565b825550505050565b600090565b620003fc620003ed565b62000409818484620003c2565b505050565b5b81811015620004315762000425600082620003f2565b6001810190506200040f565b5050565b601f82111562000480576200044a81620002f4565b620004558462000309565b8101602085101562000465578190505b6200047d620004748562000309565b8301826200040e565b50505b505050565b600082821c905092915050565b6000620004a56000198460080262000485565b1980831691505092915050565b6000620004c0838362000492565b9150826002028217905092915050565b620004db8262000285565b67ffffffffffffffff811115620004f757620004f6620000d0565b5b620005038254620002bf565b6200051082828562000435565b600060209050601f83116001811462000548576000841562000533578287015190505b6200053f8582620004b2565b865550620005af565b601f1984166200055886620002f4565b60005b8281101562000582578489015182556001820191506020850194506020810190506200055b565b86831015620005a257848901516200059e601f89168262000492565b8355505b6001600288020188555050505b505050505050565b615b4580620005c76000396000f3fe60806040523480156200001157600080fd5b50600436106200006a5760003560e01c806307973ccf146200006f5780630973d84914620000915780631d986f6e14620000c75780637274e30d14620000fd5780638ceb537d146200011f578063987ee156146200013f575b600080fd5b6200007962000175565b6040516200008891906200071f565b60405180910390f35b620000af6004803603810190620000a9919062000781565b6200017b565b604051620000be9190620007f8565b60405180910390f35b620000e56004803603810190620000df919062000846565b620001bb565b604051620000f49190620009a0565b60405180910390f35b620001076200028d565b6040516200011691906200071f565b60405180910390f35b6200013d600480360381019062000137919062000c01565b62000293565b005b6200015d600480360381019062000157919062000846565b620005b2565b6040516200016c919062000e0e565b60405180910390f35b60035481565b600281815481106200018c57600080fd5b906000526020600020016000915054906101000a900473ffffffffffffffffffffffffffffffffffffffff1681565b6060600160008373ffffffffffffffffffffffffffffffffffffffff1673ffffffffffffffffffffffffffffffffffffffff1681526020019081526020016000206000018054806020026020016040519081016040528092919081815260200182805480156200028157602002820191906000526020600020905b8160009054906101000a900473ffffffffffffffffffffffffffffffffffffffff1673ffffffffffffffffffffffffffffffffffffffff168152602001906001019080831162000236575b50505050509050919050565b60045481565b600160003373ffffffffffffffffffffffffffffffffffffffff1673ffffffffffffffffffffffffffffffffffffffff16815260200190815260200160002060010160009054906101000a900460ff166200044f5760018060003373ffffffffffffffffffffffffffffffffffffffff1673ffffffffffffffffffffffffffffffffffffffff16815260200190815260200160002060010160006101000a81548160ff02191690831515021790555042600160003373ffffffffffffffffffffffffffffffffffffffff1673ffffffffffffffffffffffffffffffffffffffff168152602001908152602001600020600201819055506000600160003373ffffffffffffffffffffffffffffffffffffffff1673ffffffffffffffffffffffffffffffffffffffff168152602001908152602001600020600301819055506002339080600181540180825580915050600190039060005260206000200160009091909190916101000a81548173ffffffffffffffffffffffffffffffffffffffff021916908373ffffffffffffffffffffffffffffffffffffffff16021790555060036000815480929190620004499062000e61565b91905055505b600160003373ffffffffffffffffffffffffffffffffffffffff1673ffffffffffffffffffffffffffffffffffffffff16815260200190815260200160002060000186863387878787604051620004a690620006cc565b620004b8979695949392919062000ff4565b604051809103906000f080158015620004d5573d6000803e3d6000fd5b509080600181540180825580915050600190039060005260206000200160009091909190916101000a81548173ffffffffffffffffffffffffffffffffffffffff021916908373ffffffffffffffffffffffffffffffffffffffff160217905550600160003373ffffffffffffffffffffffffffffffffffffffff1673ffffffffffffffffffffffffffffffffffffffff16815260200190815260200160002060030160008154809291906200058b9062000e61565b919050555060046000815480929190620005a59062000e61565b9190505550505050505050565b620005bc620006da565b600160008373ffffffffffffffffffffffffffffffffffffffff1673ffffffffffffffffffffffffffffffffffffffff168152602001908152602001600020604051806080016040529081600082018054806020026020016040519081016040528092919081815260200182805480156200068d57602002820191906000526020600020905b8160009054906101000a900473ffffffffffffffffffffffffffffffffffffffff1673ffffffffffffffffffffffffffffffffffffffff168152602001906001019080831162000642575b505050505081526020016001820160009054906101000a900460ff16151515158152602001600282015481526020016003820154815250509050919050565b614a89806200108783390190565b60405180608001604052806060815260200160001515815260200160008152602001600081525090565b6000819050919050565b620007198162000704565b82525050565b60006020820190506200073660008301846200070e565b92915050565b6000604051905090565b600080fd5b600080fd5b6200075b8162000704565b81146200076757600080fd5b50565b6000813590506200077b8162000750565b92915050565b6000602082840312156200079a576200079962000746565b5b6000620007aa848285016200076a565b91505092915050565b600073ffffffffffffffffffffffffffffffffffffffff82169050919050565b6000620007e082620007b3565b9050919050565b620007f281620007d3565b82525050565b60006020820190506200080f6000830184620007e7565b92915050565b6200082081620007d3565b81146200082c57600080fd5b50565b600081359050620008408162000815565b92915050565b6000602082840312156200085f576200085e62000746565b5b60006200086f848285016200082f565b91505092915050565b600081519050919050565b600082825260208201905092915050565b6000819050602082019050919050565b6000819050919050565b6000620008cf620008c9620008c384620007b3565b620008a4565b620007b3565b9050919050565b6000620008e382620008ae565b9050919050565b6000620008f782620008d6565b9050919050565b6200090981620008ea565b82525050565b60006200091d8383620008fe565b60208301905092915050565b6000602082019050919050565b6000620009438262000878565b6200094f818562000883565b93506200095c8362000894565b8060005b83811015620009935781516200097788826200090f565b9750620009848362000929565b92505060018101905062000960565b5085935050505092915050565b60006020820190508181036000830152620009bc818462000936565b905092915050565b600080fd5b600080fd5b6000601f19601f8301169050919050565b7f4e487b7100000000000000000000000000000000000000000000000000000000600052604160045260246000fd5b62000a1982620009ce565b810181811067ffffffffffffffff8211171562000a3b5762000a3a620009df565b5b80604052505050565b600062000a506200073c565b905062000a5e828262000a0e565b919050565b600067ffffffffffffffff82111562000a815762000a80620009df565b5b62000a8c82620009ce565b9050602081019050919050565b82818337600083830152505050565b600062000abf62000ab98462000a63565b62000a44565b90508281526020810184848401111562000ade5762000add620009c9565b5b62000aeb84828562000a99565b509392505050565b600082601f83011262000b0b5762000b0a620009c4565b5b813562000b1d84826020860162000aa8565b91505092915050565b600067ffffffffffffffff82111562000b445762000b43620009df565b5b602082029050602081019050919050565b600080fd5b600062000b7162000b6b8462000b26565b62000a44565b9050808382526020820190506020840283018581111562000b975762000b9662000b55565b5b835b8181101562000bc4578062000baf88826200076a565b84526020840193505060208101905062000b99565b5050509392505050565b600082601f83011262000be65762000be5620009c4565b5b813562000bf884826020860162000b5a565b91505092915050565b60008060008060008060c0878903121562000c215762000c2062000746565b5b600087013567ffffffffffffffff81111562000c425762000c416200074b565b5b62000c5089828a0162000af3565b965050602087013567ffffffffffffffff81111562000c745762000c736200074b565b5b62000c8289828a0162000af3565b955050604062000c9589828a016200076a565b945050606062000ca889828a016200076a565b935050608062000cbb89828a016200076a565b92505060a087013567ffffffffffffffff81111562000cdf5762000cde6200074b565b5b62000ced89828a0162000bce565b9150509295509295509295565b600082825260208201905092915050565b600062000d188262000878565b62000d24818562000cfa565b935062000d318362000894565b8060005b8381101562000d6857815162000d4c88826200090f565b975062000d598362000929565b92505060018101905062000d35565b5085935050505092915050565b60008115159050919050565b62000d8c8162000d75565b82525050565b62000d9d8162000704565b82525050565b6000608083016000830151848203600086015262000dc2828262000d0b565b915050602083015162000dd9602086018262000d81565b50604083015162000dee604086018262000d92565b50606083015162000e03606086018262000d92565b508091505092915050565b6000602082019050818103600083015262000e2a818462000da3565b905092915050565b7f4e487b7100000000000000000000000000000000000000000000000000000000600052601160045260246000fd5b600062000e6e8262000704565b91507fffffffffffffffffffffffffffffffffffffffffffffffffffffffffffffffff820362000ea35762000ea262000e32565b5b600182019050919050565b600081519050919050565b600082825260208201905092915050565b60005b8381101562000eea57808201518184015260208101905062000ecd565b60008484015250505050565b600062000f038262000eae565b62000f0f818562000eb9565b935062000f2181856020860162000eca565b62000f2c81620009ce565b840191505092915050565b600081519050919050565b600082825260208201905092915050565b6000819050602082019050919050565b600062000f71838362000d92565b60208301905092915050565b6000602082019050919050565b600062000f978262000f37565b62000fa3818562000f42565b935062000fb08362000f53565b8060005b8381101562000fe757815162000fcb888262000f63565b975062000fd88362000f7d565b92505060018101905062000fb4565b5085935050505092915050565b600060e082019050818103600083015262001010818a62000ef6565b9050818103602083015262001026818962000ef6565b9050620010376040830188620007e7565b6200104660608301876200070e565b6200105560808301866200070e565b6200106460a08301856200070e565b81810360c083015262001078818462000f8a565b90509897505050505050505056fe60806040526001600e553480156200001657600080fd5b5060405162004a8938038062004a8983398181016040528101906200003c9190620005f7565b86600090816200004d919062000948565b5085600190816200005f919062000948565b5084600260006101000a81548173ffffffffffffffffffffffffffffffffffffffff021916908373ffffffffffffffffffffffffffffffffffffffff1602179055506201518084620000b2919062000a5e565b6004819055506201518083620000c9919062000a5e565b6005819055508160068190555084604051620000e590620002db565b620000f1919062000ace565b604051809103906000f0801580156200010e573d6000803e3d6000fd5b50600360006101000a81548173ffffffffffffffffffffffffffffffffffffffff021916908373ffffffffffffffffffffffffffffffffffffffff160217905550600060045460055462000163919062000b1a565b905060008111620001ab576040517f08c379a0000000000000000000000000000000000000000000000000000000008152600401620001a29062000bb3565b60405180910390fd5b60005b818110156200026b57600d6040518060600160405280858481518110620001da57620001d962000bd5565b5b602002602001015181526020016004548152602001600015158152509080600181540180825580915050600190039060005260206000209060030201600090919091909150600082015181600001556020820151816001015560408201518160020160006101000a81548160ff02191690831515021790555050508080620002629062000c04565b915050620001ae565b506001600760006101000a81548160ff0219169083151502179055506000600760016101000a81548160ff0219169083151502179055506000600c8190555060006008819055506000600760026101000a81548160ff021916908315150217905550505050505050505062000c51565b6117c680620032c383390190565b6000604051905090565b600080fd5b600080fd5b600080fd5b600080fd5b6000601f19601f8301169050919050565b7f4e487b7100000000000000000000000000000000000000000000000000000000600052604160045260246000fd5b620003528262000307565b810181811067ffffffffffffffff8211171562000374576200037362000318565b5b80604052505050565b600062000389620002e9565b905062000397828262000347565b919050565b600067ffffffffffffffff821115620003ba57620003b962000318565b5b620003c58262000307565b9050602081019050919050565b60005b83811015620003f2578082015181840152602081019050620003d5565b60008484015250505050565b6000620004156200040f846200039c565b6200037d565b90508281526020810184848401111562000434576200043362000302565b5b62000441848285620003d2565b509392505050565b600082601f830112620004615762000460620002fd565b5b815162000473848260208601620003fe565b91505092915050565b600073ffffffffffffffffffffffffffffffffffffffff82169050919050565b6000620004a9826200047c565b9050919050565b620004bb816200049c565b8114620004c757600080fd5b50565b600081519050620004db81620004b0565b92915050565b6000819050919050565b620004f681620004e1565b81146200050257600080fd5b50565b6000815190506200051681620004eb565b92915050565b600067ffffffffffffffff8211156200053a576200053962000318565b5b602082029050602081019050919050565b600080fd5b60006200056762000561846200051c565b6200037d565b905080838252602082019050602084028301858111156200058d576200058c6200054b565b5b835b81811015620005ba5780620005a5888262000505565b8452602084019350506020810190506200058f565b5050509392505050565b600082601f830112620005dc57620005db620002fd565b5b8151620005ee84826020860162000550565b91505092915050565b600080600080600080600060e0888a031215620006195762000618620002f3565b5b600088015167ffffffffffffffff8111156200063a5762000639620002f8565b5b620006488a828b0162000449565b975050602088015167ffffffffffffffff8111156200066c576200066b620002f8565b5b6200067a8a828b0162000449565b96505060406200068d8a828b01620004ca565b9550506060620006a08a828b0162000505565b9450506080620006b38a828b0162000505565b93505060a0620006c68a828b0162000505565b92505060c088015167ffffffffffffffff811115620006ea57620006e9620002f8565b5b620006f88a828b01620005c4565b91505092959891949750929550565b600081519050919050565b7f4e487b7100000000000000000000000000000000000000000000000000000000600052602260045260246000fd5b600060028204905060018216806200075a57607f821691505b60208210810362000770576200076f62000712565b5b50919050565b60008190508160005260206000209050919050565b60006020601f8301049050919050565b600082821b905092915050565b600060088302620007da7fffffffffffffffffffffffffffffffffffffffffffffffffffffffffffffffff826200079b565b620007e686836200079b565b95508019841693508086168417925050509392505050565b6000819050919050565b600062000829620008236200081d84620004e1565b620007fe565b620004e1565b9050919050565b6000819050919050565b620008458362000808565b6200085d620008548262000830565b848454620007a8565b825550505050565b600090565b6200087462000865565b620008818184846200083a565b505050565b5b81811015620008a9576200089d6000826200086a565b60018101905062000887565b5050565b601f821115620008f857620008c28162000776565b620008cd846200078b565b81016020851015620008dd578190505b620008f5620008ec856200078b565b83018262000886565b50505b505050565b600082821c905092915050565b60006200091d60001984600802620008fd565b1980831691505092915050565b60006200093883836200090a565b9150826002028217905092915050565b620009538262000707565b67ffffffffffffffff8111156200096f576200096e62000318565b5b6200097b825462000741565b62000988828285620008ad565b600060209050601f831160018114620009c05760008415620009ab578287015190505b620009b785826200092a565b86555062000a27565b601f198416620009d08662000776565b60005b82811015620009fa57848901518255600182019150602085019450602081019050620009d3565b8683101562000a1a578489015162000a16601f8916826200090a565b8355505b6001600288020188555050505b505050505050565b7f4e487b7100000000000000000000000000000000000000000000000000000000600052601160045260246000fd5b600062000a6b82620004e1565b915062000a7883620004e1565b925082820262000a8881620004e1565b9150828204841483151762000aa25762000aa162000a2f565b5b5092915050565b600062000ab6826200047c565b9050919050565b62000ac88162000aa9565b82525050565b600060208201905062000ae5600083018462000abd565b92915050565b7f4e487b7100000000000000000000000000000000000000000000000000000000600052601260045260246000fd5b600062000b2782620004e1565b915062000b3483620004e1565b92508262000b475762000b4662000aeb565b5b828204905092915050565b600082825260208201905092915050565b7f496e76616c696420506572696f64000000000000000000000000000000000000600082015250565b600062000b9b600e8362000b52565b915062000ba88262000b63565b602082019050919050565b6000602082019050818103600083015262000bce8162000b8c565b9050919050565b7f4e487b7100000000000000000000000000000000000000000000000000000000600052603260045260246000fd5b600062000c1182620004e1565b91507fffffffffffffffffffffffffffffffffffffffffffffffffffffffffffffffff820362000c465762000c4562000a2f565b5b600182019050919050565b6126628062000c616000396000f3fe6080604052600436106101405760003560e01c80638fbb38ff116100b6578063b84842311161006f578063b8484231146103e5578063c435cf2d14610410578063d06ef1641461043b578063dffde3ce14610466578063e2fdcc1714610491578063ec3246a2146104bc57610140565b80638fbb38ff1461032e578063980e7844146103575780639a82a09a1461036e5780639c10558214610399578063a6c3e6b9146103a3578063b7acb19c146103ce57610140565b8063590e1ae311610108578063590e1ae3146102405780635bf5d54c1461025757806369d89575146102825780636f7bc9be146102995780637284e416146102d85780637d3d65221461030357610140565b806305760a5a1461014557806306fdde03146101705780630bfd1a111461019b578063344612c7146101d85780633ba8e56514610203575b600080fd5b34801561015157600080fd5b5061015a6104e5565b6040516101679190611546565b60405180910390f35b34801561017c57600080fd5b506101856104eb565b60405161019291906115f1565b60405180910390f35b3480156101a757600080fd5b506101c260048036038101906101bd9190611653565b610579565b6040516101cf91906116ec565b60405180910390f35b3480156101e457600080fd5b506101ed610642565b6040516101fa9190611546565b60405180910390f35b34801561020f57600080fd5b5061022a60048036038101906102259190611653565b610648565b6040516102379190611748565b60405180910390f35b34801561024c57600080fd5b50610255610687565b005b34801561026357600080fd5b5061026c61081d565b6040516102799190611546565b60405180910390f35b34801561028e57600080fd5b50610297610823565b005b3480156102a557600080fd5b506102c060048036038101906102bb919061178f565b6109c8565b6040516102cf939291906117cb565b60405180910390f35b3480156102e457600080fd5b506102ed610aa7565b6040516102fa91906115f1565b60405180910390f35b34801561030f57600080fd5b50610318610b35565b6040516103259190611809565b60405180910390f35b34801561033a57600080fd5b5061035560048036038101906103509190611653565b610b48565b005b34801561036357600080fd5b5061036c610b95565b005b34801561037a57600080fd5b50610383610d4b565b6040516103909190611809565b60405180910390f35b6103a1610d5e565b005b3480156103af57600080fd5b506103b8610ff5565b6040516103c59190611845565b60405180910390f35b3480156103da57600080fd5b506103e361101b565b005b3480156103f157600080fd5b506103fa61112f565b6040516104079190611546565b60405180910390f35b34801561041c57600080fd5b506104256111d2565b60405161043291906118a2565b60405180910390f35b34801561044757600080fd5b5061045061127b565b60405161045d9190611546565b60405180910390f35b34801561047257600080fd5b5061047b611281565b6040516104889190611546565b60405180910390f35b34801561049d57600080fd5b506104a6611287565b6040516104b3919061191c565b60405180910390f35b3480156104c857600080fd5b506104e360048036038101906104de9190611a6c565b6112ad565b005b60045481565b600080546104f890611ae4565b80601f016020809104026020016040519081016040528092919081815260200182805461052490611ae4565b80156105715780601f1061054657610100808354040283529160200191610571565b820191906000526020600020905b81548152906001019060200180831161055457829003601f168201915b505050505081565b6105816114e7565b6004546005546105919190611b73565b8211156105d3576040517f08c379a00000000000000000000000000000000000000000000000000000000081526004016105ca90611bf0565b60405180910390fd5b600d6001836105e29190611c10565b815481106105f3576105f2611c44565b5b906000526020600020906003020160405180606001604052908160008201548152602001600182015481526020016002820160009054906101000a900460ff1615151515815250509050919050565b60065481565b600b818154811061065857600080fd5b906000526020600020016000915054906101000a900473ffffffffffffffffffffffffffffffffffffffff1681565b600a60003373ffffffffffffffffffffffffffffffffffffffff1673ffffffffffffffffffffffffffffffffffffffff16815260200190815260200160002060010160149054906101000a900460ff16610716576040517f08c379a000000000000000000000000000000000000000000000000000000000815260040161070d90611ce5565b60405180910390fd5b600360009054906101000a900473ffffffffffffffffffffffffffffffffffffffff1673ffffffffffffffffffffffffffffffffffffffff16634d83ec8e600b336040518363ffffffff1660e01b8152600401610774929190611e29565b600060405180830381600087803b15801561078e57600080fd5b505af11580156107a2573d6000803e3d6000fd5b505050507f1b7ba75643ab42927a47f2481d63cb47a9cd2dca64188a70849cf8e6ccd9db0f600a60003373ffffffffffffffffffffffffffffffffffffffff1673ffffffffffffffffffffffffffffffffffffffff1681526020019081526020016000206040516108139190611f97565b60405180910390a1565b600e5481565b6004546005546108339190611b73565b600e541115610877576040517f08c379a000000000000000000000000000000000000000000000000000000000815260040161086e90611bf0565b60405180910390fd5b6000600d6001600e5461088a9190611c10565b8154811061089b5761089a611c44565b5b906000526020600020906003020160405180606001604052908160008201548152602001600182015481526020016002820160009054906101000a900460ff1615151515815250509050600360009054906101000a900473ffffffffffffffffffffffffffffffffffffffff1673ffffffffffffffffffffffffffffffffffffffff1663947aa72b82600001516040518263ffffffff1660e01b81526004016109449190611546565b600060405180830381600087803b15801561095e57600080fd5b505af1158015610972573d6000803e3d6000fd5b50505050600e600081548092919061098990611fb9565b91905055507fab0bbc5225ed82879961bbdb8f081389f2fb2fff5f855db942d1565241974208816040516109bd91906116ec565b60405180910390a150565b600a6020528060005260406000206000915090508060000180546109eb90611ae4565b80601f0160208091040260200160405190810160405280929190818152602001828054610a1790611ae4565b8015610a645780601f10610a3957610100808354040283529160200191610a64565b820191906000526020600020905b815481529060010190602001808311610a4757829003601f168201915b5050505050908060010160009054906101000a900473ffffffffffffffffffffffffffffffffffffffff16908060010160149054906101000a900460ff16905083565b60018054610ab490611ae4565b80601f0160208091040260200160405190810160405280929190818152602001828054610ae090611ae4565b8015610b2d5780601f10610b0257610100808354040283529160200191610b2d565b820191906000526020600020905b815481529060010190602001808311610b1057829003601f168201915b505050505081565b600760019054906101000a900460ff1681565b6001600d600183610b599190611c10565b81548110610b6a57610b69611c44565b5b906000526020600020906003020160020160006101000a81548160ff02191690831515021790555050565b600260009054906101000a900473ffffffffffffffffffffffffffffffffffffffff1673ffffffffffffffffffffffffffffffffffffffff163373ffffffffffffffffffffffffffffffffffffffff1614610c25576040517f08c379a0000000000000000000000000000000000000000000000000000000008152600401610c1c90612073565b60405180910390fd5b60005b600c54811015610d1257600360009054906101000a900473ffffffffffffffffffffffffffffffffffffffff1673ffffffffffffffffffffffffffffffffffffffff16634d83ec8e600b808481548110610c8557610c84611c44565b5b9060005260206000200160009054906101000a900473ffffffffffffffffffffffffffffffffffffffff166040518363ffffffff1660e01b8152600401610ccd929190611e29565b600060405180830381600087803b158015610ce757600080fd5b505af1158015610cfb573d6000803e3d6000fd5b505050508080610d0a90611fb9565b915050610c28565b506000600760006101000a81548160ff0219169083151502179055506001600760026101000a81548160ff021916908315150217905550565b600760029054906101000a900460ff1681565b600a60003373ffffffffffffffffffffffffffffffffffffffff1673ffffffffffffffffffffffffffffffffffffffff16815260200190815260200160002060010160149054906101000a900460ff16610ded576040517f08c379a0000000000000000000000000000000000000000000000000000000008152600401610de490612105565b60405180910390fd5b600360009054906101000a900473ffffffffffffffffffffffffffffffffffffffff1673ffffffffffffffffffffffffffffffffffffffff1663cd5aebc834600b336040518463ffffffff1660e01b8152600401610e4c929190611e29565b6000604051808303818588803b158015610e6557600080fd5b505af1158015610e79573d6000803e3d6000fd5b505050505060646006546064600360009054906101000a900473ffffffffffffffffffffffffffffffffffffffff1673ffffffffffffffffffffffffffffffffffffffff1631610ec99190612125565b610ed39190611b73565b10610f7c576001600760016101000a81548160ff0219169083151502179055504260088190555060004290506000600454600554610f119190611b73565b905060005b81811015610f785760045483610f2c9190612167565b600d8281548110610f4057610f3f611c44565b5b90600052602060002090600302016001018190555060045483610f639190612167565b92508080610f7090611fb9565b915050610f16565b5050505b7fadaf7b0a13ca988bb7ec352abeea5619f1865a53553dbd99c06a1089cbdf8a4d600a60003373ffffffffffffffffffffffffffffffffffffffff1673ffffffffffffffffffffffffffffffffffffffff16815260200190815260200160002034604051610feb92919061219b565b60405180910390a1565b600260009054906101000a900473ffffffffffffffffffffffffffffffffffffffff1681565b600260009054906101000a900473ffffffffffffffffffffffffffffffffffffffff1673ffffffffffffffffffffffffffffffffffffffff163373ffffffffffffffffffffffffffffffffffffffff16146110ab576040517f08c379a00000000000000000000000000000000000000000000000000000000081526004016110a29061223d565b60405180910390fd5b600360009054906101000a900473ffffffffffffffffffffffffffffffffffffffff1673ffffffffffffffffffffffffffffffffffffffff1663a369db8d6040518163ffffffff1660e01b8152600401600060405180830381600087803b15801561111557600080fd5b505af1158015611129573d6000803e3d6000fd5b50505050565b6000600360009054906101000a900473ffffffffffffffffffffffffffffffffffffffff1673ffffffffffffffffffffffffffffffffffffffff16639e0b51fb336040518263ffffffff1660e01b815260040161118c9190611748565b602060405180830381865afa1580156111a9573d6000803e3d6000fd5b505050506040513d601f19601f820116820180604052508101906111cd9190612272565b905090565b6111da61150a565b600360009054906101000a900473ffffffffffffffffffffffffffffffffffffffff1673ffffffffffffffffffffffffffffffffffffffff1663bcad0083336040518263ffffffff1660e01b81526004016112359190611748565b606060405180830381865afa158015611252573d6000803e3d6000fd5b505050506040513d601f19601f820116820180604052508101906112769190612334565b905090565b60085481565b60055481565b600360009054906101000a900473ffffffffffffffffffffffffffffffffffffffff1681565b600a60003373ffffffffffffffffffffffffffffffffffffffff1673ffffffffffffffffffffffffffffffffffffffff16815260200190815260200160002060010160149054906101000a900460ff161561133d576040517f08c379a0000000000000000000000000000000000000000000000000000000008152600401611334906123ad565b60405180910390fd5b33600a60003373ffffffffffffffffffffffffffffffffffffffff1673ffffffffffffffffffffffffffffffffffffffff16815260200190815260200160002060010160006101000a81548173ffffffffffffffffffffffffffffffffffffffff021916908373ffffffffffffffffffffffffffffffffffffffff16021790555080600a60003373ffffffffffffffffffffffffffffffffffffffff1673ffffffffffffffffffffffffffffffffffffffff168152602001908152602001600020600001908161140d919061255a565b506001600a60003373ffffffffffffffffffffffffffffffffffffffff1673ffffffffffffffffffffffffffffffffffffffff16815260200190815260200160002060010160146101000a81548160ff021916908315150217905550600b339080600181540180825580915050600190039060005260206000200160009091909190916101000a81548173ffffffffffffffffffffffffffffffffffffffff021916908373ffffffffffffffffffffffffffffffffffffffff160217905550600c60008154809291906114df90611fb9565b919050555050565b604051806060016040528060008152602001600081526020016000151581525090565b604051806060016040528060008152602001600081526020016000151581525090565b6000819050919050565b6115408161152d565b82525050565b600060208201905061155b6000830184611537565b92915050565b600081519050919050565b600082825260208201905092915050565b60005b8381101561159b578082015181840152602081019050611580565b60008484015250505050565b6000601f19601f8301169050919050565b60006115c382611561565b6115cd818561156c565b93506115dd81856020860161157d565b6115e6816115a7565b840191505092915050565b6000602082019050818103600083015261160b81846115b8565b905092915050565b6000604051905090565b600080fd5b600080fd5b6116308161152d565b811461163b57600080fd5b50565b60008135905061164d81611627565b92915050565b6000602082840312156116695761166861161d565b5b60006116778482850161163e565b91505092915050565b6116898161152d565b82525050565b60008115159050919050565b6116a48161168f565b82525050565b6060820160008201516116c06000850182611680565b5060208201516116d36020850182611680565b5060408201516116e6604085018261169b565b50505050565b600060608201905061170160008301846116aa565b92915050565b600073ffffffffffffffffffffffffffffffffffffffff82169050919050565b600061173282611707565b9050919050565b61174281611727565b82525050565b600060208201905061175d6000830184611739565b92915050565b61176c81611727565b811461177757600080fd5b50565b60008135905061178981611763565b92915050565b6000602082840312156117a5576117a461161d565b5b60006117b38482850161177a565b91505092915050565b6117c58161168f565b82525050565b600060608201905081810360008301526117e581866115b8565b90506117f46020830185611739565b61180160408301846117bc565b949350505050565b600060208201905061181e60008301846117bc565b92915050565b600061182f82611707565b9050919050565b61183f81611824565b82525050565b600060208201905061185a6000830184611836565b92915050565b6060820160008201516118766000850182611680565b5060208201516118896020850182611680565b50604082015161189c604085018261169b565b50505050565b60006060820190506118b76000830184611860565b92915050565b6000819050919050565b60006118e26118dd6118d884611707565b6118bd565b611707565b9050919050565b60006118f4826118c7565b9050919050565b6000611906826118e9565b9050919050565b611916816118fb565b82525050565b6000602082019050611931600083018461190d565b92915050565b600080fd5b600080fd5b7f4e487b7100000000000000000000000000000000000000000000000000000000600052604160045260246000fd5b611979826115a7565b810181811067ffffffffffffffff8211171561199857611997611941565b5b80604052505050565b60006119ab611613565b90506119b78282611970565b919050565b600067ffffffffffffffff8211156119d7576119d6611941565b5b6119e0826115a7565b9050602081019050919050565b82818337600083830152505050565b6000611a0f611a0a846119bc565b6119a1565b905082815260208101848484011115611a2b57611a2a61193c565b5b611a368482856119ed565b509392505050565b600082601f830112611a5357611a52611937565b5b8135611a638482602086016119fc565b91505092915050565b600060208284031215611a8257611a8161161d565b5b600082013567ffffffffffffffff811115611aa057611a9f611622565b5b611aac84828501611a3e565b91505092915050565b7f4e487b7100000000000000000000000000000000000000000000000000000000600052602260045260246000fd5b60006002820490506001821680611afc57607f821691505b602082108103611b0f57611b0e611ab5565b5b50919050565b7f4e487b7100000000000000000000000000000000000000000000000000000000600052601260045260246000fd5b7f4e487b7100000000000000000000000000000000000000000000000000000000600052601160045260246000fd5b6000611b7e8261152d565b9150611b898361152d565b925082611b9957611b98611b15565b5b828204905092915050565b7f496e76616c6964205374616765204e6f2e000000000000000000000000000000600082015250565b6000611bda60118361156c565b9150611be582611ba4565b602082019050919050565b60006020820190508181036000830152611c0981611bcd565b9050919050565b6000611c1b8261152d565b9150611c268361152d565b9250828203905081811115611c3e57611c3d611b44565b5b92915050565b7f4e487b7100000000000000000000000000000000000000000000000000000000600052603260045260246000fd5b7f4f6e6c7920696e766573746f72732063616e2063616c6c20746869732066756e60008201527f6374696f6e000000000000000000000000000000000000000000000000000000602082015250565b6000611ccf60258361156c565b9150611cda82611c73565b604082019050919050565b60006020820190508181036000830152611cfe81611cc2565b9050919050565b600081549050919050565b600082825260208201905092915050565b60008190508160005260206000209050919050565b611d3f81611727565b82525050565b6000611d518383611d36565b60208301905092915050565b60008160001c9050919050565b600073ffffffffffffffffffffffffffffffffffffffff82169050919050565b6000611d9d611d9883611d5d565b611d6a565b9050919050565b6000611db08254611d8a565b9050919050565b6000600182019050919050565b6000611dcf82611d05565b611dd98185611d10565b9350611de483611d21565b8060005b83811015611e1c57611df982611da4565b611e038882611d45565b9750611e0e83611db7565b925050600181019050611de8565b5085935050505092915050565b60006040820190508181036000830152611e438185611dc4565b9050611e526020830184611739565b9392505050565b600082825260208201905092915050565b60008190508160005260206000209050919050565b60008154611e8c81611ae4565b611e968186611e59565b94506001821660008114611eb15760018114611ec757611efa565b60ff198316865281151560200286019350611efa565b611ed085611e6a565b60005b83811015611ef257815481890152600182019150602081019050611ed3565b808801955050505b50505092915050565b60008160a01c9050919050565b600060ff82169050919050565b6000611f30611f2b83611f03565b611f10565b9050919050565b60006060830160008084018583036000870152611f548382611e7f565b92505060018401549050611f6781611d8a565b611f746020870182611d36565b50611f7e81611f1d565b611f8b604087018261169b565b50819250505092915050565b60006020820190508181036000830152611fb18184611f37565b905092915050565b6000611fc48261152d565b91507fffffffffffffffffffffffffffffffffffffffffffffffffffffffffffffffff8203611ff657611ff5611b44565b5b600182019050919050565b7f4f6e6c792043616d706169676e20617574686f722063616e2063616e63656c2060008201527f612063616d706169676e2e000000000000000000000000000000000000000000602082015250565b600061205d602b8361156c565b915061206882612001565b604082019050919050565b6000602082019050818103600083015261208c81612050565b9050919050565b7f506c6561736520526567697374657220617320696e766573746f72206265666f60008201527f726520706c656467696e672066756e6473000000000000000000000000000000602082015250565b60006120ef60318361156c565b91506120fa82612093565b604082019050919050565b6000602082019050818103600083015261211e816120e2565b9050919050565b60006121308261152d565b915061213b8361152d565b92508282026121498161152d565b915082820484148315176121605761215f611b44565b5b5092915050565b60006121728261152d565b915061217d8361152d565b925082820190508082111561219557612194611b44565b5b92915050565b600060408201905081810360008301526121b58185611f37565b90506121c46020830184611537565b9392505050565b7f4f6e6c792043616d706169676e20617574686f722063616e20636f6d706c657460008201527f6520612063616d706169676e2e00000000000000000000000000000000000000602082015250565b6000612227602d8361156c565b9150612232826121cb565b604082019050919050565b600060208201905081810360008301526122568161221a565b9050919050565b60008151905061226c81611627565b92915050565b6000602082840312156122885761228761161d565b5b60006122968482850161225d565b91505092915050565b600080fd5b6122ad8161168f565b81146122b857600080fd5b50565b6000815190506122ca816122a4565b92915050565b6000606082840312156122e6576122e561229f565b5b6122f060606119a1565b905060006123008482850161225d565b60008301525060206123148482850161225d565b6020830152506040612328848285016122bb565b60408301525092915050565b60006060828403121561234a5761234961161d565b5b6000612358848285016122d0565b91505092915050565b7f416c726561647920526567697374657265640000000000000000000000000000600082015250565b600061239760128361156c565b91506123a282612361565b602082019050919050565b600060208201905081810360008301526123c68161238a565b9050919050565b60006020601f8301049050919050565b600082821b905092915050565b60006008830261241a7fffffffffffffffffffffffffffffffffffffffffffffffffffffffffffffffff826123dd565b61242486836123dd565b95508019841693508086168417925050509392505050565b600061245761245261244d8461152d565b6118bd565b61152d565b9050919050565b6000819050919050565b6124718361243c565b61248561247d8261245e565b8484546123ea565b825550505050565b600090565b61249a61248d565b6124a5818484612468565b505050565b5b818110156124c9576124be600082612492565b6001810190506124ab565b5050565b601f82111561250e576124df81611e6a565b6124e8846123cd565b810160208510156124f7578190505b61250b612503856123cd565b8301826124aa565b50505b505050565b600082821c905092915050565b600061253160001984600802612513565b1980831691505092915050565b600061254a8383612520565b9150826002028217905092915050565b61256382611561565b67ffffffffffffffff81111561257c5761257b611941565b5b6125868254611ae4565b6125918282856124cd565b600060209050601f8311600181146125c457600084156125b2578287015190505b6125bc858261253e565b865550612624565b601f1984166125d286611e6a565b60005b828110156125fa578489015182556001820191506020850194506020810190506125d5565b868310156126175784890151612613601f891682612520565b8355505b6001600288020188555050505b50505050505056fea26469706673582212202553c7ce094dd78a743aad830784c1b59d727edbfe444a755bf1fc09889c40fc64736f6c6343000811003360806040523480156200001157600080fd5b50604051620017c6380380620017c6833981810160405281019062000037919062000157565b60008060006101000a81548160ff021916908360018111156200005f576200005e62000189565b5b021790555080600260006101000a81548173ffffffffffffffffffffffffffffffffffffffff021916908373ffffffffffffffffffffffffffffffffffffffff16021790555033600360006101000a81548173ffffffffffffffffffffffffffffffffffffffff021916908373ffffffffffffffffffffffffffffffffffffffff16021790555050620001b8565b600080fd5b600073ffffffffffffffffffffffffffffffffffffffff82169050919050565b60006200011f82620000f2565b9050919050565b620001318162000112565b81146200013d57600080fd5b50565b600081519050620001518162000126565b92915050565b60006020828403121562000170576200016f620000ed565b5b6000620001808482850162000140565b91505092915050565b7f4e487b7100000000000000000000000000000000000000000000000000000000600052602160045260246000fd5b6115fe80620001c86000396000f3fe6080604052600436106100705760003560e01c80639e0b51fb1161004e5780639e0b51fb146100f2578063a369db8d1461012f578063bcad008314610146578063cd5aebc81461018357610070565b806308551a53146100755780634d83ec8e146100a0578063947aa72b146100c9575b600080fd5b34801561008157600080fd5b5061008a61019f565b6040516100979190610e1b565b60405180910390f35b3480156100ac57600080fd5b506100c760048036038101906100c29190610fe1565b6101c5565b005b3480156100d557600080fd5b506100f060048036038101906100eb9190611073565b6105bb565b005b3480156100fe57600080fd5b50610119600480360381019061011491906110a0565b6106fa565b60405161012691906110dc565b60405180910390f35b34801561013b57600080fd5b506101446107d7565b005b34801561015257600080fd5b5061016d600480360381019061016891906110a0565b610949565b60405161017a9190611163565b60405180910390f35b61019d60048036038101906101989190610fe1565b610a62565b005b600260009054906101000a900473ffffffffffffffffffffffffffffffffffffffff1681565b80600160008273ffffffffffffffffffffffffffffffffffffffff1673ffffffffffffffffffffffffffffffffffffffff16815260200190815260200160002060020160009054906101000a900460ff16610255576040517f08c379a000000000000000000000000000000000000000000000000000000000815260040161024c90611201565b60405180910390fd5b6000600160008473ffffffffffffffffffffffffffffffffffffffff1673ffffffffffffffffffffffffffffffffffffffff1681526020019081526020016000206001015490508273ffffffffffffffffffffffffffffffffffffffff166108fc606483476102c49190611250565b6102ce91906112c1565b9081150290604051600060405180830381858888f193505050501580156102f9573d6000803e3d6000fd5b506000600160008573ffffffffffffffffffffffffffffffffffffffff1673ffffffffffffffffffffffffffffffffffffffff168152602001908152602001600020600001819055506000600160008573ffffffffffffffffffffffffffffffffffffffff1673ffffffffffffffffffffffffffffffffffffffff1681526020019081526020016000206001018190555060005b84518110156105b45760004711610405576000600160008784815181106103b7576103b66112f2565b5b602002602001015173ffffffffffffffffffffffffffffffffffffffff1673ffffffffffffffffffffffffffffffffffffffff168152602001908152602001600020600101819055506105a1565b4760646001600088858151811061041f5761041e6112f2565b5b602002602001015173ffffffffffffffffffffffffffffffffffffffff1673ffffffffffffffffffffffffffffffffffffffff1681526020019081526020016000206000015461046f9190611250565b61047991906112c1565b600160008784815181106104905761048f6112f2565b5b602002602001015173ffffffffffffffffffffffffffffffffffffffff1673ffffffffffffffffffffffffffffffffffffffff168152602001908152602001600020600101819055506064600160008784815181106104f2576104f16112f2565b5b602002602001015173ffffffffffffffffffffffffffffffffffffffff1673ffffffffffffffffffffffffffffffffffffffff16815260200190815260200160002060010154106105a057606460016000878481518110610556576105556112f2565b5b602002602001015173ffffffffffffffffffffffffffffffffffffffff1673ffffffffffffffffffffffffffffffffffffffff168152602001908152602001600020600101819055505b5b80806105ac90611321565b91505061038d565b5050505050565b600360009054906101000a900473ffffffffffffffffffffffffffffffffffffffff1673ffffffffffffffffffffffffffffffffffffffff163373ffffffffffffffffffffffffffffffffffffffff161461064b576040517f08c379a0000000000000000000000000000000000000000000000000000000008152600401610642906113db565b60405180910390fd5b4781111561068e576040517f08c379a000000000000000000000000000000000000000000000000000000000815260040161068590611447565b60405180910390fd5b600260009054906101000a900473ffffffffffffffffffffffffffffffffffffffff1673ffffffffffffffffffffffffffffffffffffffff166108fc829081150290604051600060405180830381858888f193505050501580156106f6573d6000803e3d6000fd5b5050565b600081600160008273ffffffffffffffffffffffffffffffffffffffff1673ffffffffffffffffffffffffffffffffffffffff16815260200190815260200160002060020160009054906101000a900460ff1661078c576040517f08c379a000000000000000000000000000000000000000000000000000000000815260040161078390611201565b60405180910390fd5b600160008473ffffffffffffffffffffffffffffffffffffffff1673ffffffffffffffffffffffffffffffffffffffff16815260200190815260200160002060010154915050919050565b600360009054906101000a900473ffffffffffffffffffffffffffffffffffffffff1673ffffffffffffffffffffffffffffffffffffffff163373ffffffffffffffffffffffffffffffffffffffff1614610867576040517f08c379a000000000000000000000000000000000000000000000000000000000815260040161085e906113db565b60405180910390fd5b60004711156108da57600260009054906101000a900473ffffffffffffffffffffffffffffffffffffffff1673ffffffffffffffffffffffffffffffffffffffff166108fc479081150290604051600060405180830381858888f193505050501580156108d8573d6000803e3d6000fd5b505b60016000806101000a81548160ff021916908360018111156108ff576108fe611467565b5b021790555060004714610947576040517f08c379a000000000000000000000000000000000000000000000000000000000815260040161093e90611508565b60405180910390fd5b565b610951610db7565b81600160008273ffffffffffffffffffffffffffffffffffffffff1673ffffffffffffffffffffffffffffffffffffffff16815260200190815260200160002060020160009054906101000a900460ff166109e1576040517f08c379a00000000000000000000000000000000000000000000000000000000081526004016109d890611201565b60405180910390fd5b600160008473ffffffffffffffffffffffffffffffffffffffff1673ffffffffffffffffffffffffffffffffffffffff16815260200190815260200160002060405180606001604052908160008201548152602001600182015481526020016002820160009054906101000a900460ff161515151581525050915050919050565b600180811115610a7557610a74611467565b5b60008054906101000a900460ff166001811115610a9557610a94611467565b5b03610ad5576040517f08c379a0000000000000000000000000000000000000000000000000000000008152600401610acc90611574565b60405180910390fd5b34600160008373ffffffffffffffffffffffffffffffffffffffff1673ffffffffffffffffffffffffffffffffffffffff1681526020019081526020016000206000016000828254610b279190611594565b9250508190555060005b8251811015610d585760004711610ba957600060016000858481518110610b5b57610b5a6112f2565b5b602002602001015173ffffffffffffffffffffffffffffffffffffffff1673ffffffffffffffffffffffffffffffffffffffff16815260200190815260200160002060010181905550610d45565b47606460016000868581518110610bc357610bc26112f2565b5b602002602001015173ffffffffffffffffffffffffffffffffffffffff1673ffffffffffffffffffffffffffffffffffffffff16815260200190815260200160002060000154610c139190611250565b610c1d91906112c1565b60016000858481518110610c3457610c336112f2565b5b602002602001015173ffffffffffffffffffffffffffffffffffffffff1673ffffffffffffffffffffffffffffffffffffffff16815260200190815260200160002060010181905550606460016000858481518110610c9657610c956112f2565b5b602002602001015173ffffffffffffffffffffffffffffffffffffffff1673ffffffffffffffffffffffffffffffffffffffff1681526020019081526020016000206001015410610d4457606460016000858481518110610cfa57610cf96112f2565b5b602002602001015173ffffffffffffffffffffffffffffffffffffffff1673ffffffffffffffffffffffffffffffffffffffff168152602001908152602001600020600101819055505b5b8080610d5090611321565b915050610b31565b5060018060008373ffffffffffffffffffffffffffffffffffffffff1673ffffffffffffffffffffffffffffffffffffffff16815260200190815260200160002060020160006101000a81548160ff0219169083151502179055505050565b604051806060016040528060008152602001600081526020016000151581525090565b600073ffffffffffffffffffffffffffffffffffffffff82169050919050565b6000610e0582610dda565b9050919050565b610e1581610dfa565b82525050565b6000602082019050610e306000830184610e0c565b92915050565b6000604051905090565b600080fd5b600080fd5b600080fd5b6000601f19601f8301169050919050565b7f4e487b7100000000000000000000000000000000000000000000000000000000600052604160045260246000fd5b610e9882610e4f565b810181811067ffffffffffffffff82111715610eb757610eb6610e60565b5b80604052505050565b6000610eca610e36565b9050610ed68282610e8f565b919050565b600067ffffffffffffffff821115610ef657610ef5610e60565b5b602082029050602081019050919050565b600080fd5b6000610f1782610dda565b9050919050565b610f2781610f0c565b8114610f3257600080fd5b50565b600081359050610f4481610f1e565b92915050565b6000610f5d610f5884610edb565b610ec0565b90508083825260208201905060208402830185811115610f8057610f7f610f07565b5b835b81811015610fa95780610f958882610f35565b845260208401935050602081019050610f82565b5050509392505050565b600082601f830112610fc857610fc7610e4a565b5b8135610fd8848260208601610f4a565b91505092915050565b60008060408385031215610ff857610ff7610e40565b5b600083013567ffffffffffffffff81111561101657611015610e45565b5b61102285828601610fb3565b925050602061103385828601610f35565b9150509250929050565b6000819050919050565b6110508161103d565b811461105b57600080fd5b50565b60008135905061106d81611047565b92915050565b60006020828403121561108957611088610e40565b5b60006110978482850161105e565b91505092915050565b6000602082840312156110b6576110b5610e40565b5b60006110c484828501610f35565b91505092915050565b6110d68161103d565b82525050565b60006020820190506110f160008301846110cd565b92915050565b6111008161103d565b82525050565b60008115159050919050565b61111b81611106565b82525050565b60608201600082015161113760008501826110f7565b50602082015161114a60208501826110f7565b50604082015161115d6040850182611112565b50505050565b60006060820190506111786000830184611121565b92915050565b600082825260208201905092915050565b7f4f6e6c7920496e766573746f72732063616e2063616c6c207468652066756e6360008201527f74696f6e00000000000000000000000000000000000000000000000000000000602082015250565b60006111eb60248361117e565b91506111f68261118f565b604082019050919050565b6000602082019050818103600083015261121a816111de565b9050919050565b7f4e487b7100000000000000000000000000000000000000000000000000000000600052601160045260246000fd5b600061125b8261103d565b91506112668361103d565b92508282026112748161103d565b9150828204841483151761128b5761128a611221565b5b5092915050565b7f4e487b7100000000000000000000000000000000000000000000000000000000600052601260045260246000fd5b60006112cc8261103d565b91506112d78361103d565b9250826112e7576112e6611292565b5b828204905092915050565b7f4e487b7100000000000000000000000000000000000000000000000000000000600052603260045260246000fd5b600061132c8261103d565b91507fffffffffffffffffffffffffffffffffffffffffffffffffffffffffffffffff820361135e5761135d611221565b5b600182019050919050565b7f4f6e6c79206f776e6572732063616e2063616c6c207468652066756e6374696f60008201527f6e00000000000000000000000000000000000000000000000000000000000000602082015250565b60006113c560218361117e565b91506113d082611369565b604082019050919050565b600060208201905081810360008301526113f4816113b8565b9050919050565b7f416d6f756e7420657863656564732062616c616e636500000000000000000000600082015250565b600061143160168361117e565b915061143c826113fb565b602082019050919050565b6000602082019050818103600083015261146081611424565b9050919050565b7f4e487b7100000000000000000000000000000000000000000000000000000000600052602160045260246000fd5b7f42616c616e6365206973207374696c6c206c65667420696e2074686520636f6e60008201527f7472616374000000000000000000000000000000000000000000000000000000602082015250565b60006114f260258361117e565b91506114fd82611496565b604082019050919050565b60006020820190508181036000830152611521816114e5565b9050919050565b7f416c726561647920506169640000000000000000000000000000000000000000600082015250565b600061155e600c8361117e565b915061156982611528565b602082019050919050565b6000602082019050818103600083015261158d81611551565b9050919050565b600061159f8261103d565b91506115aa8361103d565b92508282019050808211156115c2576115c1611221565b5b9291505056fea2646970667358221220ab6523119bc6e6bd43a128895ecfd9f44fee81699215efd9e2366f361256836f64736f6c63430008110033a2646970667358221220b6e96b96d79d1de505427e5d0b4689f5b6077a07b5a60f9f1c84f5c4a5526b5464736f6c63430008110033",
  "linkReferences": {},
  "deployedLinkReferences": {}
}