{
  "_format": "hh-sol-artifact-1",
  "contractName": "CFunding",
  "sourceName": "contracts/CFunding.sol",
  "abi": [
    {
      "inputs": [
        {
          "internalType": "string",
          "name": "_name",
          "type": "string"
        }
      ],
      "stateMutability": "nonpayable",
      "type": "constructor"
    },
    {
      "inputs": [],
      "name": "campaignCount",
      "outputs": [
        {
          "internalType": "uint256",
          "name": "",
          "type": "uint256"
        }
      ],
      "stateMutability": "view",
      "type": "function"
    },
    {
      "inputs": [
        {
          "internalType": "uint256",
          "name": "",
          "type": "uint256"
        }
      ],
      "name": "campaignLUT",
      "outputs": [
        {
          "internalType": "address",
          "name": "",
          "type": "address"
        }
      ],
      "stateMutability": "view",
      "type": "function"
    },
    {
      "inputs": [
        {
          "internalType": "string",
          "name": "_name",
          "type": "string"
        },
        {
          "internalType": "string",
          "name": "_description",
          "type": "string"
        },
        {
          "internalType": "uint256",
          "name": "_sPeriod",
          "type": "uint256"
        },
        {
          "internalType": "uint256",
          "name": "_totalProjectTime",
          "type": "uint256"
        },
        {
          "internalType": "uint256",
          "name": "_totalAmountNeeded",
          "type": "uint256"
        },
        {
          "internalType": "uint256[]",
          "name": "_stages",
          "type": "uint256[]"
        }
      ],
      "name": "createCampaign",
      "outputs": [],
      "stateMutability": "nonpayable",
      "type": "function"
    },
    {
      "inputs": [
        {
          "internalType": "address",
          "name": "_user",
          "type": "address"
        }
      ],
      "name": "getAllCampaignsOfUser",
      "outputs": [
        {
          "internalType": "contract Campaign[]",
          "name": "",
          "type": "address[]"
        }
      ],
      "stateMutability": "view",
      "type": "function"
    },
    {
      "inputs": [
        {
          "internalType": "address",
          "name": "_user",
          "type": "address"
        }
      ],
      "name": "getUserProfile",
      "outputs": [
        {
          "components": [
            {
              "internalType": "contract Campaign[]",
              "name": "campaigns",
              "type": "address[]"
            },
            {
              "internalType": "bool",
              "name": "isValid",
              "type": "bool"
            },
            {
              "internalType": "uint256",
              "name": "timestamp",
              "type": "uint256"
            },
            {
              "internalType": "uint256",
              "name": "userCampaignCount",
              "type": "uint256"
            }
          ],
          "internalType": "struct CFunding.CampaignData",
          "name": "",
          "type": "tuple"
        }
      ],
      "stateMutability": "view",
      "type": "function"
    },
    {
      "inputs": [],
      "name": "userCount",
      "outputs": [
        {
          "internalType": "uint256",
          "name": "",
          "type": "uint256"
        }
      ],
      "stateMutability": "view",
      "type": "function"
    }
  ],
  "bytecode": "0x60806040523480156200001157600080fd5b506040516200589f3803806200589f833981810160405281019062000037919062000234565b8060009081620000489190620004d0565b506000600481905550600060038190555033600560006101000a81548173ffffffffffffffffffffffffffffffffffffffff021916908373ffffffffffffffffffffffffffffffffffffffff16021790555050620005b7565b6000604051905090565b600080fd5b600080fd5b600080fd5b600080fd5b6000601f19601f8301169050919050565b7f4e487b7100000000000000000000000000000000000000000000000000000000600052604160045260246000fd5b6200010a82620000bf565b810181811067ffffffffffffffff821117156200012c576200012b620000d0565b5b80604052505050565b600062000141620000a1565b90506200014f8282620000ff565b919050565b600067ffffffffffffffff821115620001725762000171620000d0565b5b6200017d82620000bf565b9050602081019050919050565b60005b83811015620001aa5780820151818401526020810190506200018d565b60008484015250505050565b6000620001cd620001c78462000154565b62000135565b905082815260208101848484011115620001ec57620001eb620000ba565b5b620001f98482856200018a565b509392505050565b600082601f830112620002195762000218620000b5565b5b81516200022b848260208601620001b6565b91505092915050565b6000602082840312156200024d576200024c620000ab565b5b600082015167ffffffffffffffff8111156200026e576200026d620000b0565b5b6200027c8482850162000201565b91505092915050565b600081519050919050565b7f4e487b7100000000000000000000000000000000000000000000000000000000600052602260045260246000fd5b60006002820490506001821680620002d857607f821691505b602082108103620002ee57620002ed62000290565b5b50919050565b60008190508160005260206000209050919050565b60006020601f8301049050919050565b600082821b905092915050565b600060088302620003587fffffffffffffffffffffffffffffffffffffffffffffffffffffffffffffffff8262000319565b62000364868362000319565b95508019841693508086168417925050509392505050565b6000819050919050565b6000819050919050565b6000620003b1620003ab620003a5846200037c565b62000386565b6200037c565b9050919050565b6000819050919050565b620003cd8362000390565b620003e5620003dc82620003b8565b84845462000326565b825550505050565b600090565b620003fc620003ed565b62000409818484620003c2565b505050565b5b81811015620004315762000425600082620003f2565b6001810190506200040f565b5050565b601f82111562000480576200044a81620002f4565b620004558462000309565b8101602085101562000465578190505b6200047d620004748562000309565b8301826200040e565b50505b505050565b600082821c905092915050565b6000620004a56000198460080262000485565b1980831691505092915050565b6000620004c0838362000492565b9150826002028217905092915050565b620004db8262000285565b67ffffffffffffffff811115620004f757620004f6620000d0565b5b620005038254620002bf565b6200051082828562000435565b600060209050601f83116001811462000548576000841562000533578287015190505b6200053f8582620004b2565b865550620005af565b601f1984166200055886620002f4565b60005b8281101562000582578489015182556001820191506020850194506020810190506200055b565b86831015620005a257848901516200059e601f89168262000492565b8355505b6001600288020188555050505b505050505050565b6152d880620005c76000396000f3fe60806040523480156200001157600080fd5b50600436106200006a5760003560e01c806307973ccf146200006f5780630973d84914620000915780631d986f6e14620000c75780637274e30d14620000fd5780638ceb537d146200011f578063987ee156146200013f575b600080fd5b6200007962000175565b6040516200008891906200071f565b60405180910390f35b620000af6004803603810190620000a9919062000781565b6200017b565b604051620000be9190620007f8565b60405180910390f35b620000e56004803603810190620000df919062000846565b620001bb565b604051620000f49190620009a0565b60405180910390f35b620001076200028d565b6040516200011691906200071f565b60405180910390f35b6200013d600480360381019062000137919062000c01565b62000293565b005b6200015d600480360381019062000157919062000846565b620005b2565b6040516200016c919062000e0e565b60405180910390f35b60035481565b600281815481106200018c57600080fd5b906000526020600020016000915054906101000a900473ffffffffffffffffffffffffffffffffffffffff1681565b6060600160008373ffffffffffffffffffffffffffffffffffffffff1673ffffffffffffffffffffffffffffffffffffffff1681526020019081526020016000206000018054806020026020016040519081016040528092919081815260200182805480156200028157602002820191906000526020600020905b8160009054906101000a900473ffffffffffffffffffffffffffffffffffffffff1673ffffffffffffffffffffffffffffffffffffffff168152602001906001019080831162000236575b50505050509050919050565b60045481565b600160003373ffffffffffffffffffffffffffffffffffffffff1673ffffffffffffffffffffffffffffffffffffffff16815260200190815260200160002060010160009054906101000a900460ff166200044f5760018060003373ffffffffffffffffffffffffffffffffffffffff1673ffffffffffffffffffffffffffffffffffffffff16815260200190815260200160002060010160006101000a81548160ff02191690831515021790555042600160003373ffffffffffffffffffffffffffffffffffffffff1673ffffffffffffffffffffffffffffffffffffffff168152602001908152602001600020600201819055506000600160003373ffffffffffffffffffffffffffffffffffffffff1673ffffffffffffffffffffffffffffffffffffffff168152602001908152602001600020600301819055506002339080600181540180825580915050600190039060005260206000200160009091909190916101000a81548173ffffffffffffffffffffffffffffffffffffffff021916908373ffffffffffffffffffffffffffffffffffffffff16021790555060036000815480929190620004499062000e61565b91905055505b600160003373ffffffffffffffffffffffffffffffffffffffff1673ffffffffffffffffffffffffffffffffffffffff16815260200190815260200160002060000186863387878787604051620004a690620006cc565b620004b8979695949392919062000ff4565b604051809103906000f080158015620004d5573d6000803e3d6000fd5b509080600181540180825580915050600190039060005260206000200160009091909190916101000a81548173ffffffffffffffffffffffffffffffffffffffff021916908373ffffffffffffffffffffffffffffffffffffffff160217905550600160003373ffffffffffffffffffffffffffffffffffffffff1673ffffffffffffffffffffffffffffffffffffffff16815260200190815260200160002060030160008154809291906200058b9062000e61565b919050555060046000815480929190620005a59062000e61565b9190505550505050505050565b620005bc620006da565b600160008373ffffffffffffffffffffffffffffffffffffffff1673ffffffffffffffffffffffffffffffffffffffff168152602001908152602001600020604051806080016040529081600082018054806020026020016040519081016040528092919081815260200182805480156200068d57602002820191906000526020600020905b8160009054906101000a900473ffffffffffffffffffffffffffffffffffffffff1673ffffffffffffffffffffffffffffffffffffffff168152602001906001019080831162000642575b505050505081526020016001820160009054906101000a900460ff16151515158152602001600282015481526020016003820154815250509050919050565b61421c806200108783390190565b60405180608001604052806060815260200160001515815260200160008152602001600081525090565b6000819050919050565b620007198162000704565b82525050565b60006020820190506200073660008301846200070e565b92915050565b6000604051905090565b600080fd5b600080fd5b6200075b8162000704565b81146200076757600080fd5b50565b6000813590506200077b8162000750565b92915050565b6000602082840312156200079a576200079962000746565b5b6000620007aa848285016200076a565b91505092915050565b600073ffffffffffffffffffffffffffffffffffffffff82169050919050565b6000620007e082620007b3565b9050919050565b620007f281620007d3565b82525050565b60006020820190506200080f6000830184620007e7565b92915050565b6200082081620007d3565b81146200082c57600080fd5b50565b600081359050620008408162000815565b92915050565b6000602082840312156200085f576200085e62000746565b5b60006200086f848285016200082f565b91505092915050565b600081519050919050565b600082825260208201905092915050565b6000819050602082019050919050565b6000819050919050565b6000620008cf620008c9620008c384620007b3565b620008a4565b620007b3565b9050919050565b6000620008e382620008ae565b9050919050565b6000620008f782620008d6565b9050919050565b6200090981620008ea565b82525050565b60006200091d8383620008fe565b60208301905092915050565b6000602082019050919050565b6000620009438262000878565b6200094f818562000883565b93506200095c8362000894565b8060005b83811015620009935781516200097788826200090f565b9750620009848362000929565b92505060018101905062000960565b5085935050505092915050565b60006020820190508181036000830152620009bc818462000936565b905092915050565b600080fd5b600080fd5b6000601f19601f8301169050919050565b7f4e487b7100000000000000000000000000000000000000000000000000000000600052604160045260246000fd5b62000a1982620009ce565b810181811067ffffffffffffffff8211171562000a3b5762000a3a620009df565b5b80604052505050565b600062000a506200073c565b905062000a5e828262000a0e565b919050565b600067ffffffffffffffff82111562000a815762000a80620009df565b5b62000a8c82620009ce565b9050602081019050919050565b82818337600083830152505050565b600062000abf62000ab98462000a63565b62000a44565b90508281526020810184848401111562000ade5762000add620009c9565b5b62000aeb84828562000a99565b509392505050565b600082601f83011262000b0b5762000b0a620009c4565b5b813562000b1d84826020860162000aa8565b91505092915050565b600067ffffffffffffffff82111562000b445762000b43620009df565b5b602082029050602081019050919050565b600080fd5b600062000b7162000b6b8462000b26565b62000a44565b9050808382526020820190506020840283018581111562000b975762000b9662000b55565b5b835b8181101562000bc4578062000baf88826200076a565b84526020840193505060208101905062000b99565b5050509392505050565b600082601f83011262000be65762000be5620009c4565b5b813562000bf884826020860162000b5a565b91505092915050565b60008060008060008060c0878903121562000c215762000c2062000746565b5b600087013567ffffffffffffffff81111562000c425762000c416200074b565b5b62000c5089828a0162000af3565b965050602087013567ffffffffffffffff81111562000c745762000c736200074b565b5b62000c8289828a0162000af3565b955050604062000c9589828a016200076a565b945050606062000ca889828a016200076a565b935050608062000cbb89828a016200076a565b92505060a087013567ffffffffffffffff81111562000cdf5762000cde6200074b565b5b62000ced89828a0162000bce565b9150509295509295509295565b600082825260208201905092915050565b600062000d188262000878565b62000d24818562000cfa565b935062000d318362000894565b8060005b8381101562000d6857815162000d4c88826200090f565b975062000d598362000929565b92505060018101905062000d35565b5085935050505092915050565b60008115159050919050565b62000d8c8162000d75565b82525050565b62000d9d8162000704565b82525050565b6000608083016000830151848203600086015262000dc2828262000d0b565b915050602083015162000dd9602086018262000d81565b50604083015162000dee604086018262000d92565b50606083015162000e03606086018262000d92565b508091505092915050565b6000602082019050818103600083015262000e2a818462000da3565b905092915050565b7f4e487b7100000000000000000000000000000000000000000000000000000000600052601160045260246000fd5b600062000e6e8262000704565b91507fffffffffffffffffffffffffffffffffffffffffffffffffffffffffffffffff820362000ea35762000ea262000e32565b5b600182019050919050565b600081519050919050565b600082825260208201905092915050565b60005b8381101562000eea57808201518184015260208101905062000ecd565b60008484015250505050565b600062000f038262000eae565b62000f0f818562000eb9565b935062000f2181856020860162000eca565b62000f2c81620009ce565b840191505092915050565b600081519050919050565b600082825260208201905092915050565b6000819050602082019050919050565b600062000f71838362000d92565b60208301905092915050565b6000602082019050919050565b600062000f978262000f37565b62000fa3818562000f42565b935062000fb08362000f53565b8060005b8381101562000fe757815162000fcb888262000f63565b975062000fd88362000f7d565b92505060018101905062000fb4565b5085935050505092915050565b600060e082019050818103600083015262001010818a62000ef6565b9050818103602083015262001026818962000ef6565b9050620010376040830188620007e7565b6200104660608301876200070e565b6200105560808301866200070e565b6200106460a08301856200070e565b81810360c083015262001078818462000f8a565b90509897505050505050505056fe60806040526001600e553480156200001657600080fd5b506040516200421c3803806200421c83398181016040528101906200003c9190620005b3565b86600090816200004d919062000904565b5085600190816200005f919062000904565b5084600260006101000a81548173ffffffffffffffffffffffffffffffffffffffff021916908373ffffffffffffffffffffffffffffffffffffffff1602179055506201518084620000b2919062000a1a565b6004819055506201518083620000c9919062000a1a565b6005819055508160068190555084604051620000e59062000297565b620000f1919062000a8a565b604051809103906000f0801580156200010e573d6000803e3d6000fd5b50600360006101000a81548173ffffffffffffffffffffffffffffffffffffffff021916908373ffffffffffffffffffffffffffffffffffffffff160217905550600060045460055462000163919062000ad6565b905060008111620001ab576040517f08c379a0000000000000000000000000000000000000000000000000000000008152600401620001a29062000b6f565b60405180910390fd5b60005b818110156200024257600d6040518060400160405280858481518110620001da57620001d962000b91565b5b602002602001015181526020016004548152509080600181540180825580915050600190039060005260206000209060020201600090919091909150600082015181600001556020820151816001015550508080620002399062000bc0565b915050620001ae565b506001600760006101000a81548160ff0219169083151502179055506000600760016101000a81548160ff0219169083151502179055506000600c819055506000600881905550505050505050505062000c0d565b6113e78062002e3583390190565b6000604051905090565b600080fd5b600080fd5b600080fd5b600080fd5b6000601f19601f8301169050919050565b7f4e487b7100000000000000000000000000000000000000000000000000000000600052604160045260246000fd5b6200030e82620002c3565b810181811067ffffffffffffffff8211171562000330576200032f620002d4565b5b80604052505050565b600062000345620002a5565b905062000353828262000303565b919050565b600067ffffffffffffffff821115620003765762000375620002d4565b5b6200038182620002c3565b9050602081019050919050565b60005b83811015620003ae57808201518184015260208101905062000391565b60008484015250505050565b6000620003d1620003cb8462000358565b62000339565b905082815260208101848484011115620003f057620003ef620002be565b5b620003fd8482856200038e565b509392505050565b600082601f8301126200041d576200041c620002b9565b5b81516200042f848260208601620003ba565b91505092915050565b600073ffffffffffffffffffffffffffffffffffffffff82169050919050565b6000620004658262000438565b9050919050565b620004778162000458565b81146200048357600080fd5b50565b60008151905062000497816200046c565b92915050565b6000819050919050565b620004b2816200049d565b8114620004be57600080fd5b50565b600081519050620004d281620004a7565b92915050565b600067ffffffffffffffff821115620004f657620004f5620002d4565b5b602082029050602081019050919050565b600080fd5b6000620005236200051d84620004d8565b62000339565b9050808382526020820190506020840283018581111562000549576200054862000507565b5b835b81811015620005765780620005618882620004c1565b8452602084019350506020810190506200054b565b5050509392505050565b600082601f830112620005985762000597620002b9565b5b8151620005aa8482602086016200050c565b91505092915050565b600080600080600080600060e0888a031215620005d557620005d4620002af565b5b600088015167ffffffffffffffff811115620005f657620005f5620002b4565b5b620006048a828b0162000405565b975050602088015167ffffffffffffffff811115620006285762000627620002b4565b5b620006368a828b0162000405565b9650506040620006498a828b0162000486565b95505060606200065c8a828b01620004c1565b94505060806200066f8a828b01620004c1565b93505060a0620006828a828b01620004c1565b92505060c088015167ffffffffffffffff811115620006a657620006a5620002b4565b5b620006b48a828b0162000580565b91505092959891949750929550565b600081519050919050565b7f4e487b7100000000000000000000000000000000000000000000000000000000600052602260045260246000fd5b600060028204905060018216806200071657607f821691505b6020821081036200072c576200072b620006ce565b5b50919050565b60008190508160005260206000209050919050565b60006020601f8301049050919050565b600082821b905092915050565b600060088302620007967fffffffffffffffffffffffffffffffffffffffffffffffffffffffffffffffff8262000757565b620007a2868362000757565b95508019841693508086168417925050509392505050565b6000819050919050565b6000620007e5620007df620007d9846200049d565b620007ba565b6200049d565b9050919050565b6000819050919050565b6200080183620007c4565b620008196200081082620007ec565b84845462000764565b825550505050565b600090565b6200083062000821565b6200083d818484620007f6565b505050565b5b8181101562000865576200085960008262000826565b60018101905062000843565b5050565b601f821115620008b4576200087e8162000732565b620008898462000747565b8101602085101562000899578190505b620008b1620008a88562000747565b83018262000842565b50505b505050565b600082821c905092915050565b6000620008d960001984600802620008b9565b1980831691505092915050565b6000620008f48383620008c6565b9150826002028217905092915050565b6200090f82620006c3565b67ffffffffffffffff8111156200092b576200092a620002d4565b5b620009378254620006fd565b6200094482828562000869565b600060209050601f8311600181146200097c576000841562000967578287015190505b620009738582620008e6565b865550620009e3565b601f1984166200098c8662000732565b60005b82811015620009b6578489015182556001820191506020850194506020810190506200098f565b86831015620009d65784890151620009d2601f891682620008c6565b8355505b6001600288020188555050505b505050505050565b7f4e487b7100000000000000000000000000000000000000000000000000000000600052601160045260246000fd5b600062000a27826200049d565b915062000a34836200049d565b925082820262000a44816200049d565b9150828204841483151762000a5e5762000a5d620009eb565b5b5092915050565b600062000a728262000438565b9050919050565b62000a848162000a65565b82525050565b600060208201905062000aa1600083018462000a79565b92915050565b7f4e487b7100000000000000000000000000000000000000000000000000000000600052601260045260246000fd5b600062000ae3826200049d565b915062000af0836200049d565b92508262000b035762000b0262000aa7565b5b828204905092915050565b600082825260208201905092915050565b7f496e76616c696420506572696f64000000000000000000000000000000000000600082015250565b600062000b57600e8362000b0e565b915062000b648262000b1f565b602082019050919050565b6000602082019050818103600083015262000b8a8162000b48565b9050919050565b7f4e487b7100000000000000000000000000000000000000000000000000000000600052603260045260246000fd5b600062000bcd826200049d565b91507fffffffffffffffffffffffffffffffffffffffffffffffffffffffffffffffff820362000c025762000c01620009eb565b5b600182019050919050565b6122188062000c1d6000396000f3fe6080604052600436106101095760003560e01c80637284e41611610095578063c435cf2d11610064578063c435cf2d14610318578063d06ef16414610343578063dffde3ce1461036e578063e2fdcc1714610399578063ec3246a2146103c457610109565b80637284e416146102a1578063980e7844146102cc5780639c105582146102e3578063b8484231146102ed57610109565b80633ba8e565116100dc5780633ba8e565146101cc578063590e1ae3146102095780635bf5d54c1461022057806369d895751461024b5780636f7bc9be1461026257610109565b806305760a5a1461010e57806306fdde03146101395780630bfd1a1114610164578063344612c7146101a1575b600080fd5b34801561011a57600080fd5b506101236103ed565b604051610130919061121f565b60405180910390f35b34801561014557600080fd5b5061014e6103f3565b60405161015b91906112ca565b60405180910390f35b34801561017057600080fd5b5061018b6004803603810190610186919061132c565b610481565b6040516101989190611397565b60405180910390f35b3480156101ad57600080fd5b506101b661052f565b6040516101c3919061121f565b60405180910390f35b3480156101d857600080fd5b506101f360048036038101906101ee919061132c565b610535565b60405161020091906113f3565b60405180910390f35b34801561021557600080fd5b5061021e610574565b005b34801561022c57600080fd5b50610235610707565b604051610242919061121f565b60405180910390f35b34801561025757600080fd5b5061026061070d565b005b34801561026e57600080fd5b506102896004803603810190610284919061143a565b61089a565b60405161029893929190611482565b60405180910390f35b3480156102ad57600080fd5b506102b6610979565b6040516102c391906112ca565b60405180910390f35b3480156102d857600080fd5b506102e1610a07565b005b6102eb610b85565b005b3480156102f957600080fd5b50610302610e19565b60405161030f919061121f565b60405180910390f35b34801561032457600080fd5b5061032d610ebc565b60405161033a91906114fe565b60405180910390f35b34801561034f57600080fd5b50610358610f64565b604051610365919061121f565b60405180910390f35b34801561037a57600080fd5b50610383610f6a565b604051610390919061121f565b60405180910390f35b3480156103a557600080fd5b506103ae610f70565b6040516103bb9190611578565b60405180910390f35b3480156103d057600080fd5b506103eb60048036038101906103e691906116c8565b610f96565b005b60045481565b6000805461040090611740565b80601f016020809104026020016040519081016040528092919081815260200182805461042c90611740565b80156104795780601f1061044e57610100808354040283529160200191610479565b820191906000526020600020905b81548152906001019060200180831161045c57829003601f168201915b505050505081565b6104896111d0565b60045460055461049991906117cf565b8211156104db576040517f08c379a00000000000000000000000000000000000000000000000000000000081526004016104d29061184c565b60405180910390fd5b600d6001836104ea919061186c565b815481106104fb576104fa6118a0565b5b9060005260206000209060020201604051806040016040529081600082015481526020016001820154815250509050919050565b60065481565b600b818154811061054557600080fd5b906000526020600020016000915054906101000a900473ffffffffffffffffffffffffffffffffffffffff1681565b600a60003373ffffffffffffffffffffffffffffffffffffffff1673ffffffffffffffffffffffffffffffffffffffff16815260200190815260200160002060010160149054906101000a900460ff16610603576040517f08c379a00000000000000000000000000000000000000000000000000000000081526004016105fa90611941565b60405180910390fd5b600360009054906101000a900473ffffffffffffffffffffffffffffffffffffffff1673ffffffffffffffffffffffffffffffffffffffff1663fa89401a336040518263ffffffff1660e01b815260040161065e91906113f3565b600060405180830381600087803b15801561067857600080fd5b505af115801561068c573d6000803e3d6000fd5b505050507f1b7ba75643ab42927a47f2481d63cb47a9cd2dca64188a70849cf8e6ccd9db0f600a60003373ffffffffffffffffffffffffffffffffffffffff1673ffffffffffffffffffffffffffffffffffffffff1681526020019081526020016000206040516106fd9190611af5565b60405180910390a1565b600e5481565b60045460055461071d91906117cf565b600e541115610761576040517f08c379a00000000000000000000000000000000000000000000000000000000081526004016107589061184c565b60405180910390fd5b6000600d6001600e54610774919061186c565b81548110610785576107846118a0565b5b9060005260206000209060020201604051806040016040529081600082015481526020016001820154815250509050600360009054906101000a900473ffffffffffffffffffffffffffffffffffffffff1673ffffffffffffffffffffffffffffffffffffffff1663efcf51cc600b83600001516040518363ffffffff1660e01b8152600401610816929190611be5565b600060405180830381600087803b15801561083057600080fd5b505af1158015610844573d6000803e3d6000fd5b50505050600e600081548092919061085b90611c15565b91905055507febd00f8ace8c792e860ab7480ca7578b8eea2859bcc1ae0ceff6488370a72a118160405161088f9190611397565b60405180910390a150565b600a6020528060005260406000206000915090508060000180546108bd90611740565b80601f01602080910402602001604051908101604052809291908181526020018280546108e990611740565b80156109365780601f1061090b57610100808354040283529160200191610936565b820191906000526020600020905b81548152906001019060200180831161091957829003601f168201915b5050505050908060010160009054906101000a900473ffffffffffffffffffffffffffffffffffffffff16908060010160149054906101000a900460ff16905083565b6001805461098690611740565b80601f01602080910402602001604051908101604052809291908181526020018280546109b290611740565b80156109ff5780601f106109d4576101008083540402835291602001916109ff565b820191906000526020600020905b8154815290600101906020018083116109e257829003601f168201915b505050505081565b600260009054906101000a900473ffffffffffffffffffffffffffffffffffffffff1673ffffffffffffffffffffffffffffffffffffffff163373ffffffffffffffffffffffffffffffffffffffff1614610a97576040517f08c379a0000000000000000000000000000000000000000000000000000000008152600401610a8e90611ccf565b60405180910390fd5b60005b600c54811015610b8257600360009054906101000a900473ffffffffffffffffffffffffffffffffffffffff1673ffffffffffffffffffffffffffffffffffffffff1663fa89401a600b8381548110610af657610af56118a0565b5b9060005260206000200160009054906101000a900473ffffffffffffffffffffffffffffffffffffffff166040518263ffffffff1660e01b8152600401610b3d91906113f3565b600060405180830381600087803b158015610b5757600080fd5b505af1158015610b6b573d6000803e3d6000fd5b505050508080610b7a90611c15565b915050610a9a565b50565b600a60003373ffffffffffffffffffffffffffffffffffffffff1673ffffffffffffffffffffffffffffffffffffffff16815260200190815260200160002060010160149054906101000a900460ff16610c14576040517f08c379a0000000000000000000000000000000000000000000000000000000008152600401610c0b90611d61565b60405180910390fd5b600360009054906101000a900473ffffffffffffffffffffffffffffffffffffffff1673ffffffffffffffffffffffffffffffffffffffff1663f340fa0134336040518363ffffffff1660e01b8152600401610c7091906113f3565b6000604051808303818588803b158015610c8957600080fd5b505af1158015610c9d573d6000803e3d6000fd5b50505050504260088190555060646006546064600360009054906101000a900473ffffffffffffffffffffffffffffffffffffffff1673ffffffffffffffffffffffffffffffffffffffff1631610cf49190611d81565b610cfe91906117cf565b10610da0576001600760016101000a81548160ff02191690831515021790555060004290506000600454600554610d3591906117cf565b905060005b81811015610d9c5760045483610d509190611dc3565b600d8281548110610d6457610d636118a0565b5b90600052602060002090600202016001018190555060045483610d879190611dc3565b92508080610d9490611c15565b915050610d3a565b5050505b7fadaf7b0a13ca988bb7ec352abeea5619f1865a53553dbd99c06a1089cbdf8a4d600a60003373ffffffffffffffffffffffffffffffffffffffff1673ffffffffffffffffffffffffffffffffffffffff16815260200190815260200160002034604051610e0f929190611df7565b60405180910390a1565b6000600360009054906101000a900473ffffffffffffffffffffffffffffffffffffffff1673ffffffffffffffffffffffffffffffffffffffff16639e0b51fb336040518263ffffffff1660e01b8152600401610e7691906113f3565b602060405180830381865afa158015610e93573d6000803e3d6000fd5b505050506040513d601f19601f82011682018060405250810190610eb79190611e3c565b905090565b610ec46111ea565b600360009054906101000a900473ffffffffffffffffffffffffffffffffffffffff1673ffffffffffffffffffffffffffffffffffffffff1663bcad0083336040518263ffffffff1660e01b8152600401610f1f91906113f3565b6040805180830381865afa158015610f3b573d6000803e3d6000fd5b505050506040513d601f19601f82011682018060405250810190610f5f9190611eea565b905090565b60085481565b60055481565b600360009054906101000a900473ffffffffffffffffffffffffffffffffffffffff1681565b600a60003373ffffffffffffffffffffffffffffffffffffffff1673ffffffffffffffffffffffffffffffffffffffff16815260200190815260200160002060010160149054906101000a900460ff1615611026576040517f08c379a000000000000000000000000000000000000000000000000000000000815260040161101d90611f63565b60405180910390fd5b33600a60003373ffffffffffffffffffffffffffffffffffffffff1673ffffffffffffffffffffffffffffffffffffffff16815260200190815260200160002060010160006101000a81548173ffffffffffffffffffffffffffffffffffffffff021916908373ffffffffffffffffffffffffffffffffffffffff16021790555080600a60003373ffffffffffffffffffffffffffffffffffffffff1673ffffffffffffffffffffffffffffffffffffffff16815260200190815260200160002060000190816110f69190612110565b506001600a60003373ffffffffffffffffffffffffffffffffffffffff1673ffffffffffffffffffffffffffffffffffffffff16815260200190815260200160002060010160146101000a81548160ff021916908315150217905550600b339080600181540180825580915050600190039060005260206000200160009091909190916101000a81548173ffffffffffffffffffffffffffffffffffffffff021916908373ffffffffffffffffffffffffffffffffffffffff160217905550600c60008154809291906111c890611c15565b919050555050565b604051806040016040528060008152602001600081525090565b6040518060400160405280600081526020016000151581525090565b6000819050919050565b61121981611206565b82525050565b60006020820190506112346000830184611210565b92915050565b600081519050919050565b600082825260208201905092915050565b60005b83811015611274578082015181840152602081019050611259565b60008484015250505050565b6000601f19601f8301169050919050565b600061129c8261123a565b6112a68185611245565b93506112b6818560208601611256565b6112bf81611280565b840191505092915050565b600060208201905081810360008301526112e48184611291565b905092915050565b6000604051905090565b600080fd5b600080fd5b61130981611206565b811461131457600080fd5b50565b60008135905061132681611300565b92915050565b600060208284031215611342576113416112f6565b5b600061135084828501611317565b91505092915050565b61136281611206565b82525050565b60408201600082015161137e6000850182611359565b5060208201516113916020850182611359565b50505050565b60006040820190506113ac6000830184611368565b92915050565b600073ffffffffffffffffffffffffffffffffffffffff82169050919050565b60006113dd826113b2565b9050919050565b6113ed816113d2565b82525050565b600060208201905061140860008301846113e4565b92915050565b611417816113d2565b811461142257600080fd5b50565b6000813590506114348161140e565b92915050565b6000602082840312156114505761144f6112f6565b5b600061145e84828501611425565b91505092915050565b60008115159050919050565b61147c81611467565b82525050565b6000606082019050818103600083015261149c8186611291565b90506114ab60208301856113e4565b6114b86040830184611473565b949350505050565b6114c981611467565b82525050565b6040820160008201516114e56000850182611359565b5060208201516114f860208501826114c0565b50505050565b600060408201905061151360008301846114cf565b92915050565b6000819050919050565b600061153e611539611534846113b2565b611519565b6113b2565b9050919050565b600061155082611523565b9050919050565b600061156282611545565b9050919050565b61157281611557565b82525050565b600060208201905061158d6000830184611569565b92915050565b600080fd5b600080fd5b7f4e487b7100000000000000000000000000000000000000000000000000000000600052604160045260246000fd5b6115d582611280565b810181811067ffffffffffffffff821117156115f4576115f361159d565b5b80604052505050565b60006116076112ec565b905061161382826115cc565b919050565b600067ffffffffffffffff8211156116335761163261159d565b5b61163c82611280565b9050602081019050919050565b82818337600083830152505050565b600061166b61166684611618565b6115fd565b90508281526020810184848401111561168757611686611598565b5b611692848285611649565b509392505050565b600082601f8301126116af576116ae611593565b5b81356116bf848260208601611658565b91505092915050565b6000602082840312156116de576116dd6112f6565b5b600082013567ffffffffffffffff8111156116fc576116fb6112fb565b5b6117088482850161169a565b91505092915050565b7f4e487b7100000000000000000000000000000000000000000000000000000000600052602260045260246000fd5b6000600282049050600182168061175857607f821691505b60208210810361176b5761176a611711565b5b50919050565b7f4e487b7100000000000000000000000000000000000000000000000000000000600052601260045260246000fd5b7f4e487b7100000000000000000000000000000000000000000000000000000000600052601160045260246000fd5b60006117da82611206565b91506117e583611206565b9250826117f5576117f4611771565b5b828204905092915050565b7f496e76616c6964205374616765204e6f2e000000000000000000000000000000600082015250565b6000611836601183611245565b915061184182611800565b602082019050919050565b6000602082019050818103600083015261186581611829565b9050919050565b600061187782611206565b915061188283611206565b925082820390508181111561189a576118996117a0565b5b92915050565b7f4e487b7100000000000000000000000000000000000000000000000000000000600052603260045260246000fd5b7f4f6e6c7920696e766573746f72732063616e2063616c6c20746869732066756e60008201527f6374696f6e000000000000000000000000000000000000000000000000000000602082015250565b600061192b602583611245565b9150611936826118cf565b604082019050919050565b6000602082019050818103600083015261195a8161191e565b9050919050565b600082825260208201905092915050565b60008190508160005260206000209050919050565b6000815461199481611740565b61199e8186611961565b945060018216600081146119b957600181146119cf57611a02565b60ff198316865281151560200286019350611a02565b6119d885611972565b60005b838110156119fa578154818901526001820191506020810190506119db565b808801955050505b50505092915050565b60008160001c9050919050565b600073ffffffffffffffffffffffffffffffffffffffff82169050919050565b6000611a4b611a4683611a0b565b611a18565b9050919050565b611a5b816113d2565b82525050565b60008160a01c9050919050565b600060ff82169050919050565b6000611a8e611a8983611a61565b611a6e565b9050919050565b60006060830160008084018583036000870152611ab28382611987565b92505060018401549050611ac581611a38565b611ad26020870182611a52565b50611adc81611a7b565b611ae960408701826114c0565b50819250505092915050565b60006020820190508181036000830152611b0f8184611a95565b905092915050565b600081549050919050565b600082825260208201905092915050565b60008190508160005260206000209050919050565b6000611b548383611a52565b60208301905092915050565b6000611b6c8254611a38565b9050919050565b6000600182019050919050565b6000611b8b82611b17565b611b958185611b22565b9350611ba083611b33565b8060005b83811015611bd857611bb582611b60565b611bbf8882611b48565b9750611bca83611b73565b925050600181019050611ba4565b5085935050505092915050565b60006040820190508181036000830152611bff8185611b80565b9050611c0e6020830184611210565b9392505050565b6000611c2082611206565b91507fffffffffffffffffffffffffffffffffffffffffffffffffffffffffffffffff8203611c5257611c516117a0565b5b600182019050919050565b7f4f6e6c792043616d706169676e20617574686f722063616e2063616e63656c2060008201527f612063616d706169676e2e000000000000000000000000000000000000000000602082015250565b6000611cb9602b83611245565b9150611cc482611c5d565b604082019050919050565b60006020820190508181036000830152611ce881611cac565b9050919050565b7f506c6561736520526567697374657220617320696e766573746f72206265666f60008201527f726520706c656467696e672066756e6473000000000000000000000000000000602082015250565b6000611d4b603183611245565b9150611d5682611cef565b604082019050919050565b60006020820190508181036000830152611d7a81611d3e565b9050919050565b6000611d8c82611206565b9150611d9783611206565b9250828202611da581611206565b91508282048414831517611dbc57611dbb6117a0565b5b5092915050565b6000611dce82611206565b9150611dd983611206565b9250828201905080821115611df157611df06117a0565b5b92915050565b60006040820190508181036000830152611e118185611a95565b9050611e206020830184611210565b9392505050565b600081519050611e3681611300565b92915050565b600060208284031215611e5257611e516112f6565b5b6000611e6084828501611e27565b91505092915050565b600080fd5b611e7781611467565b8114611e8257600080fd5b50565b600081519050611e9481611e6e565b92915050565b600060408284031215611eb057611eaf611e69565b5b611eba60406115fd565b90506000611eca84828501611e27565b6000830152506020611ede84828501611e85565b60208301525092915050565b600060408284031215611f0057611eff6112f6565b5b6000611f0e84828501611e9a565b91505092915050565b7f416c726561647920526567697374657265640000000000000000000000000000600082015250565b6000611f4d601283611245565b9150611f5882611f17565b602082019050919050565b60006020820190508181036000830152611f7c81611f40565b9050919050565b60006020601f8301049050919050565b600082821b905092915050565b600060088302611fd07fffffffffffffffffffffffffffffffffffffffffffffffffffffffffffffffff82611f93565b611fda8683611f93565b95508019841693508086168417925050509392505050565b600061200d61200861200384611206565b611519565b611206565b9050919050565b6000819050919050565b61202783611ff2565b61203b61203382612014565b848454611fa0565b825550505050565b600090565b612050612043565b61205b81848461201e565b505050565b5b8181101561207f57612074600082612048565b600181019050612061565b5050565b601f8211156120c45761209581611972565b61209e84611f83565b810160208510156120ad578190505b6120c16120b985611f83565b830182612060565b50505b505050565b600082821c905092915050565b60006120e7600019846008026120c9565b1980831691505092915050565b600061210083836120d6565b9150826002028217905092915050565b6121198261123a565b67ffffffffffffffff8111156121325761213161159d565b5b61213c8254611740565b612147828285612083565b600060209050601f83116001811461217a5760008415612168578287015190505b61217285826120f4565b8655506121da565b601f19841661218886611972565b60005b828110156121b05784890151825560018201915060208501945060208101905061218b565b868310156121cd57848901516121c9601f8916826120d6565b8355505b6001600288020188555050505b50505050505056fea2646970667358221220537f3d480540da1628c5f94d2cde4d33a6c278600e2c277e3f3c4944d04ef19e64736f6c6343000811003360806040523480156200001157600080fd5b50604051620013e7380380620013e7833981810160405281019062000037919062000157565b60008060006101000a81548160ff021916908360018111156200005f576200005e62000189565b5b021790555080600260006101000a81548173ffffffffffffffffffffffffffffffffffffffff021916908373ffffffffffffffffffffffffffffffffffffffff16021790555033600360006101000a81548173ffffffffffffffffffffffffffffffffffffffff021916908373ffffffffffffffffffffffffffffffffffffffff16021790555050620001b8565b600080fd5b600073ffffffffffffffffffffffffffffffffffffffff82169050919050565b60006200011f82620000f2565b9050919050565b620001318162000112565b81146200013d57600080fd5b50565b600081519050620001518162000126565b92915050565b60006020828403121562000170576200016f620000ed565b5b6000620001808482850162000140565b91505092915050565b7f4e487b7100000000000000000000000000000000000000000000000000000000600052602160045260246000fd5b61121f80620001c86000396000f3fe6080604052600436106100705760003560e01c8063bcad00831161004e578063bcad0083146100f4578063efcf51cc14610131578063f340fa011461015a578063fa89401a1461017657610070565b806308551a53146100755780639e0b51fb146100a0578063a369db8d146100dd575b600080fd5b34801561008157600080fd5b5061008a61019f565b6040516100979190610b42565b60405180910390f35b3480156100ac57600080fd5b506100c760048036038101906100c29190610ba5565b6101c5565b6040516100d49190610beb565b60405180910390f35b3480156100e957600080fd5b506100f26102b9565b005b34801561010057600080fd5b5061011b60048036038101906101169190610ba5565b61042b565b6040516101289190610c5f565b60405180910390f35b34801561013d57600080fd5b5061015860048036038101906101539190610d0b565b61053a565b005b610174600480360381019061016f9190610ba5565b610823565b005b34801561018257600080fd5b5061019d60048036038101906101989190610ba5565b61094c565b005b600260009054906101000a900473ffffffffffffffffffffffffffffffffffffffff1681565b600081600160008273ffffffffffffffffffffffffffffffffffffffff1673ffffffffffffffffffffffffffffffffffffffff16815260200190815260200160002060010160009054906101000a900460ff16610257576040517f08c379a000000000000000000000000000000000000000000000000000000000815260040161024e90610dee565b60405180910390fd5b476064600160008673ffffffffffffffffffffffffffffffffffffffff1673ffffffffffffffffffffffffffffffffffffffff168152602001908152602001600020600001546102a79190610e3d565b6102b19190610eae565b915050919050565b600360009054906101000a900473ffffffffffffffffffffffffffffffffffffffff1673ffffffffffffffffffffffffffffffffffffffff163373ffffffffffffffffffffffffffffffffffffffff1614610349576040517f08c379a000000000000000000000000000000000000000000000000000000000815260040161034090610f51565b60405180910390fd5b60004711156103bc57600260009054906101000a900473ffffffffffffffffffffffffffffffffffffffff1673ffffffffffffffffffffffffffffffffffffffff166108fc479081150290604051600060405180830381858888f193505050501580156103ba573d6000803e3d6000fd5b505b60016000806101000a81548160ff021916908360018111156103e1576103e0610f71565b5b021790555060004714610429576040517f08c379a000000000000000000000000000000000000000000000000000000000815260040161042090611012565b60405180910390fd5b565b610433610ae5565b81600160008273ffffffffffffffffffffffffffffffffffffffff1673ffffffffffffffffffffffffffffffffffffffff16815260200190815260200160002060010160009054906101000a900460ff166104c3576040517f08c379a00000000000000000000000000000000000000000000000000000000081526004016104ba90610dee565b60405180910390fd5b600160008473ffffffffffffffffffffffffffffffffffffffff1673ffffffffffffffffffffffffffffffffffffffff168152602001908152602001600020604051806040016040529081600082015481526020016001820160009054906101000a900460ff161515151581525050915050919050565b600360009054906101000a900473ffffffffffffffffffffffffffffffffffffffff1673ffffffffffffffffffffffffffffffffffffffff163373ffffffffffffffffffffffffffffffffffffffff16146105ca576040517f08c379a00000000000000000000000000000000000000000000000000000000081526004016105c190610f51565b60405180910390fd5b60005b8383905081101561081d576000476064600160008888878181106105f4576105f3611032565b5b90506020020160208101906106099190610ba5565b73ffffffffffffffffffffffffffffffffffffffff1673ffffffffffffffffffffffffffffffffffffffff168152602001908152602001600020600001546106519190610e3d565b61065b9190610eae565b9050478311156106a0576040517f08c379a0000000000000000000000000000000000000000000000000000000008152600401610697906110ad565b60405180910390fd5b600260009054906101000a900473ffffffffffffffffffffffffffffffffffffffff1673ffffffffffffffffffffffffffffffffffffffff166108fc849081150290604051600060405180830381858888f19350505050158015610708573d6000803e3d6000fd5b506064816001600088888781811061072357610722611032565b5b90506020020160208101906107389190610ba5565b73ffffffffffffffffffffffffffffffffffffffff1673ffffffffffffffffffffffffffffffffffffffff168152602001908152602001600020600001546107809190610e3d565b61078a9190610eae565b600160008787868181106107a1576107a0611032565b5b90506020020160208101906107b69190610ba5565b73ffffffffffffffffffffffffffffffffffffffff1673ffffffffffffffffffffffffffffffffffffffff168152602001908152602001600020600001600082825461080291906110cd565b9250508190555050808061081590611101565b9150506105cd565b50505050565b60018081111561083657610835610f71565b5b60008054906101000a900460ff16600181111561085657610855610f71565b5b03610896576040517f08c379a000000000000000000000000000000000000000000000000000000000815260040161088d90611195565b60405180910390fd5b34600160008373ffffffffffffffffffffffffffffffffffffffff1673ffffffffffffffffffffffffffffffffffffffff16815260200190815260200160002060000160008282546108e891906111b5565b9250508190555060018060008373ffffffffffffffffffffffffffffffffffffffff1673ffffffffffffffffffffffffffffffffffffffff16815260200190815260200160002060010160006101000a81548160ff02191690831515021790555050565b80600160008273ffffffffffffffffffffffffffffffffffffffff1673ffffffffffffffffffffffffffffffffffffffff16815260200190815260200160002060010160009054906101000a900460ff166109dc576040517f08c379a00000000000000000000000000000000000000000000000000000000081526004016109d390610dee565b60405180910390fd5b6000476064600160008673ffffffffffffffffffffffffffffffffffffffff1673ffffffffffffffffffffffffffffffffffffffff16815260200190815260200160002060000154610a2e9190610e3d565b610a389190610eae565b90508273ffffffffffffffffffffffffffffffffffffffff166108fc60648347610a629190610e3d565b610a6c9190610eae565b9081150290604051600060405180830381858888f19350505050158015610a97573d6000803e3d6000fd5b506000600160008573ffffffffffffffffffffffffffffffffffffffff1673ffffffffffffffffffffffffffffffffffffffff16815260200190815260200160002060000181905550505050565b6040518060400160405280600081526020016000151581525090565b600073ffffffffffffffffffffffffffffffffffffffff82169050919050565b6000610b2c82610b01565b9050919050565b610b3c81610b21565b82525050565b6000602082019050610b576000830184610b33565b92915050565b600080fd5b600080fd5b6000610b7282610b01565b9050919050565b610b8281610b67565b8114610b8d57600080fd5b50565b600081359050610b9f81610b79565b92915050565b600060208284031215610bbb57610bba610b5d565b5b6000610bc984828501610b90565b91505092915050565b6000819050919050565b610be581610bd2565b82525050565b6000602082019050610c006000830184610bdc565b92915050565b610c0f81610bd2565b82525050565b60008115159050919050565b610c2a81610c15565b82525050565b604082016000820151610c466000850182610c06565b506020820151610c596020850182610c21565b50505050565b6000604082019050610c746000830184610c30565b92915050565b600080fd5b600080fd5b600080fd5b60008083601f840112610c9f57610c9e610c7a565b5b8235905067ffffffffffffffff811115610cbc57610cbb610c7f565b5b602083019150836020820283011115610cd857610cd7610c84565b5b9250929050565b610ce881610bd2565b8114610cf357600080fd5b50565b600081359050610d0581610cdf565b92915050565b600080600060408486031215610d2457610d23610b5d565b5b600084013567ffffffffffffffff811115610d4257610d41610b62565b5b610d4e86828701610c89565b93509350506020610d6186828701610cf6565b9150509250925092565b600082825260208201905092915050565b7f4f6e6c7920496e766573746f72732063616e2063616c6c207468652066756e6360008201527f74696f6e00000000000000000000000000000000000000000000000000000000602082015250565b6000610dd8602483610d6b565b9150610de382610d7c565b604082019050919050565b60006020820190508181036000830152610e0781610dcb565b9050919050565b7f4e487b7100000000000000000000000000000000000000000000000000000000600052601160045260246000fd5b6000610e4882610bd2565b9150610e5383610bd2565b9250828202610e6181610bd2565b91508282048414831517610e7857610e77610e0e565b5b5092915050565b7f4e487b7100000000000000000000000000000000000000000000000000000000600052601260045260246000fd5b6000610eb982610bd2565b9150610ec483610bd2565b925082610ed457610ed3610e7f565b5b828204905092915050565b7f4f6e6c79206f776e6572732063616e2063616c6c207468652066756e6374696f60008201527f6e00000000000000000000000000000000000000000000000000000000000000602082015250565b6000610f3b602183610d6b565b9150610f4682610edf565b604082019050919050565b60006020820190508181036000830152610f6a81610f2e565b9050919050565b7f4e487b7100000000000000000000000000000000000000000000000000000000600052602160045260246000fd5b7f42616c616e6365206973207374696c6c206c65667420696e2074686520636f6e60008201527f7472616374000000000000000000000000000000000000000000000000000000602082015250565b6000610ffc602583610d6b565b915061100782610fa0565b604082019050919050565b6000602082019050818103600083015261102b81610fef565b9050919050565b7f4e487b7100000000000000000000000000000000000000000000000000000000600052603260045260246000fd5b7f416d6f756e7420657863656564732062616c616e636500000000000000000000600082015250565b6000611097601683610d6b565b91506110a282611061565b602082019050919050565b600060208201905081810360008301526110c68161108a565b9050919050565b60006110d882610bd2565b91506110e383610bd2565b92508282039050818111156110fb576110fa610e0e565b5b92915050565b600061110c82610bd2565b91507fffffffffffffffffffffffffffffffffffffffffffffffffffffffffffffffff820361113e5761113d610e0e565b5b600182019050919050565b7f416c726561647920506169640000000000000000000000000000000000000000600082015250565b600061117f600c83610d6b565b915061118a82611149565b602082019050919050565b600060208201905081810360008301526111ae81611172565b9050919050565b60006111c082610bd2565b91506111cb83610bd2565b92508282019050808211156111e3576111e2610e0e565b5b9291505056fea26469706673582212206bf030930813d3ec2708d11be77a8d1b7c30c1130b13888ce97c9300624bc18164736f6c63430008110033a2646970667358221220e548203c43a5f73e812dc3d25934431ba67b127d6b1f5a80e529b8c6f67e342264736f6c63430008110033",
  "linkReferences": {},
  "deployedLinkReferences": {}
}