{
  "_format": "hh-sol-artifact-1",
  "contractName": "CFunding",
  "sourceName": "contracts/CFunding.sol",
  "abi": [
    {
      "inputs": [
        {
          "internalType": "string",
          "name": "_name",
          "type": "string"
        }
      ],
      "stateMutability": "nonpayable",
      "type": "constructor"
    },
    {
      "inputs": [],
      "name": "campaignCount",
      "outputs": [
        {
          "internalType": "uint256",
          "name": "",
          "type": "uint256"
        }
      ],
      "stateMutability": "view",
      "type": "function"
    },
    {
      "inputs": [
        {
          "internalType": "uint256",
          "name": "",
          "type": "uint256"
        }
      ],
      "name": "campaignLUT",
      "outputs": [
        {
          "internalType": "address",
          "name": "",
          "type": "address"
        }
      ],
      "stateMutability": "view",
      "type": "function"
    },
    {
      "inputs": [
        {
          "internalType": "string",
          "name": "_name",
          "type": "string"
        },
        {
          "internalType": "string",
          "name": "_description",
          "type": "string"
        },
        {
          "internalType": "uint256",
          "name": "_sPeriod",
          "type": "uint256"
        },
        {
          "internalType": "uint256",
          "name": "_totalProjectTime",
          "type": "uint256"
        },
        {
          "internalType": "uint256",
          "name": "_totalAmountNeeded",
          "type": "uint256"
        },
        {
          "internalType": "uint256[]",
          "name": "_stages",
          "type": "uint256[]"
        },
        {
          "internalType": "string",
          "name": "_coverImg",
          "type": "string"
        },
        {
          "internalType": "string",
          "name": "_iOffering",
          "type": "string"
        }
      ],
      "name": "createCampaign",
      "outputs": [],
      "stateMutability": "nonpayable",
      "type": "function"
    },
    {
      "inputs": [
        {
          "internalType": "address",
          "name": "_user",
          "type": "address"
        }
      ],
      "name": "getAllCampaignsOfUser",
      "outputs": [
        {
          "internalType": "contract Campaign[]",
          "name": "",
          "type": "address[]"
        }
      ],
      "stateMutability": "view",
      "type": "function"
    },
    {
      "inputs": [
        {
          "internalType": "address",
          "name": "_user",
          "type": "address"
        }
      ],
      "name": "getUserProfile",
      "outputs": [
        {
          "components": [
            {
              "internalType": "contract Campaign[]",
              "name": "campaigns",
              "type": "address[]"
            },
            {
              "internalType": "bool",
              "name": "isValid",
              "type": "bool"
            },
            {
              "internalType": "uint256",
              "name": "timestamp",
              "type": "uint256"
            },
            {
              "internalType": "uint256",
              "name": "userCampaignCount",
              "type": "uint256"
            }
          ],
          "internalType": "struct CFunding.CampaignData",
          "name": "",
          "type": "tuple"
        }
      ],
      "stateMutability": "view",
      "type": "function"
    },
    {
      "inputs": [],
      "name": "userCount",
      "outputs": [
        {
          "internalType": "uint256",
          "name": "",
          "type": "uint256"
        }
      ],
      "stateMutability": "view",
      "type": "function"
    }
  ],
  "bytecode": "0x60806040523480156200001157600080fd5b506040516200647138038062006471833981810160405281019062000037919062000234565b8060009081620000489190620004d0565b506000600481905550600060038190555033600560006101000a81548173ffffffffffffffffffffffffffffffffffffffff021916908373ffffffffffffffffffffffffffffffffffffffff16021790555050620005b7565b6000604051905090565b600080fd5b600080fd5b600080fd5b600080fd5b6000601f19601f8301169050919050565b7f4e487b7100000000000000000000000000000000000000000000000000000000600052604160045260246000fd5b6200010a82620000bf565b810181811067ffffffffffffffff821117156200012c576200012b620000d0565b5b80604052505050565b600062000141620000a1565b90506200014f8282620000ff565b919050565b600067ffffffffffffffff821115620001725762000171620000d0565b5b6200017d82620000bf565b9050602081019050919050565b60005b83811015620001aa5780820151818401526020810190506200018d565b60008484015250505050565b6000620001cd620001c78462000154565b62000135565b905082815260208101848484011115620001ec57620001eb620000ba565b5b620001f98482856200018a565b509392505050565b600082601f830112620002195762000218620000b5565b5b81516200022b848260208601620001b6565b91505092915050565b6000602082840312156200024d576200024c620000ab565b5b600082015167ffffffffffffffff8111156200026e576200026d620000b0565b5b6200027c8482850162000201565b91505092915050565b600081519050919050565b7f4e487b7100000000000000000000000000000000000000000000000000000000600052602260045260246000fd5b60006002820490506001821680620002d857607f821691505b602082108103620002ee57620002ed62000290565b5b50919050565b60008190508160005260206000209050919050565b60006020601f8301049050919050565b600082821b905092915050565b600060088302620003587fffffffffffffffffffffffffffffffffffffffffffffffffffffffffffffffff8262000319565b62000364868362000319565b95508019841693508086168417925050509392505050565b6000819050919050565b6000819050919050565b6000620003b1620003ab620003a5846200037c565b62000386565b6200037c565b9050919050565b6000819050919050565b620003cd8362000390565b620003e5620003dc82620003b8565b84845462000326565b825550505050565b600090565b620003fc620003ed565b62000409818484620003c2565b505050565b5b81811015620004315762000425600082620003f2565b6001810190506200040f565b5050565b601f82111562000480576200044a81620002f4565b620004558462000309565b8101602085101562000465578190505b6200047d620004748562000309565b8301826200040e565b50505b505050565b600082821c905092915050565b6000620004a56000198460080262000485565b1980831691505092915050565b6000620004c0838362000492565b9150826002028217905092915050565b620004db8262000285565b67ffffffffffffffff811115620004f757620004f6620000d0565b5b620005038254620002bf565b6200051082828562000435565b600060209050601f83116001811462000548576000841562000533578287015190505b6200053f8582620004b2565b865550620005af565b601f1984166200055886620002f4565b60005b8281101562000582578489015182556001820191506020850194506020810190506200055b565b86831015620005a257848901516200059e601f89168262000492565b8355505b6001600288020188555050505b505050505050565b615eaa80620005c76000396000f3fe60806040523480156200001157600080fd5b50600436106200006a5760003560e01c806307973ccf146200006f5780630973d84914620000915780631d986f6e14620000c75780637274e30d14620000fd578063987ee156146200011f578063b8ffb0801462000155575b600080fd5b6200007962000175565b60405162000088919062000725565b60405180910390f35b620000af6004803603810190620000a9919062000787565b6200017b565b604051620000be9190620007fe565b60405180910390f35b620000e56004803603810190620000df91906200084c565b620001bb565b604051620000f49190620009a6565b60405180910390f35b620001076200028d565b60405162000116919062000725565b60405180910390f35b6200013d60048036038101906200013791906200084c565b62000293565b6040516200014c919062000ade565b60405180910390f35b6200017360048036038101906200016d919062000d3f565b620003ad565b005b60035481565b600281815481106200018c57600080fd5b906000526020600020016000915054906101000a900473ffffffffffffffffffffffffffffffffffffffff1681565b6060600160008373ffffffffffffffffffffffffffffffffffffffff1673ffffffffffffffffffffffffffffffffffffffff1681526020019081526020016000206000018054806020026020016040519081016040528092919081815260200182805480156200028157602002820191906000526020600020905b8160009054906101000a900473ffffffffffffffffffffffffffffffffffffffff1673ffffffffffffffffffffffffffffffffffffffff168152602001906001019080831162000236575b50505050509050919050565b60045481565b6200029d620006d2565b600160008373ffffffffffffffffffffffffffffffffffffffff1673ffffffffffffffffffffffffffffffffffffffff168152602001908152602001600020604051806080016040529081600082018054806020026020016040519081016040528092919081815260200182805480156200036e57602002820191906000526020600020905b8160009054906101000a900473ffffffffffffffffffffffffffffffffffffffff1673ffffffffffffffffffffffffffffffffffffffff168152602001906001019080831162000323575b505050505081526020016001820160009054906101000a900460ff16151515158152602001600282015481526020016003820154815250509050919050565b600160003373ffffffffffffffffffffffffffffffffffffffff1673ffffffffffffffffffffffffffffffffffffffff16815260200190815260200160002060010160009054906101000a900460ff16620005695760018060003373ffffffffffffffffffffffffffffffffffffffff1673ffffffffffffffffffffffffffffffffffffffff16815260200190815260200160002060010160006101000a81548160ff02191690831515021790555042600160003373ffffffffffffffffffffffffffffffffffffffff1673ffffffffffffffffffffffffffffffffffffffff168152602001908152602001600020600201819055506000600160003373ffffffffffffffffffffffffffffffffffffffff1673ffffffffffffffffffffffffffffffffffffffff168152602001908152602001600020600301819055506002339080600181540180825580915050600190039060005260206000200160009091909190916101000a81548173ffffffffffffffffffffffffffffffffffffffff021916908373ffffffffffffffffffffffffffffffffffffffff16021790555060036000815480929190620005639062000ed2565b91905055505b600160003373ffffffffffffffffffffffffffffffffffffffff1673ffffffffffffffffffffffffffffffffffffffff168152602001908152602001600020600001888833898989898989604051620005c290620006fc565b620005d69998979695949392919062001065565b604051809103906000f080158015620005f3573d6000803e3d6000fd5b509080600181540180825580915050600190039060005260206000200160009091909190916101000a81548173ffffffffffffffffffffffffffffffffffffffff021916908373ffffffffffffffffffffffffffffffffffffffff160217905550600160003373ffffffffffffffffffffffffffffffffffffffff1673ffffffffffffffffffffffffffffffffffffffff1681526020019081526020016000206003016000815480929190620006a99062000ed2565b919050555060046000815480929190620006c39062000ed2565b91905055505050505050505050565b60405180608001604052806060815260200160001515815260200160008152602001600081525090565b614d4d806200112883390190565b6000819050919050565b6200071f816200070a565b82525050565b60006020820190506200073c600083018462000714565b92915050565b6000604051905090565b600080fd5b600080fd5b62000761816200070a565b81146200076d57600080fd5b50565b600081359050620007818162000756565b92915050565b600060208284031215620007a0576200079f6200074c565b5b6000620007b08482850162000770565b91505092915050565b600073ffffffffffffffffffffffffffffffffffffffff82169050919050565b6000620007e682620007b9565b9050919050565b620007f881620007d9565b82525050565b6000602082019050620008156000830184620007ed565b92915050565b6200082681620007d9565b81146200083257600080fd5b50565b60008135905062000846816200081b565b92915050565b6000602082840312156200086557620008646200074c565b5b6000620008758482850162000835565b91505092915050565b600081519050919050565b600082825260208201905092915050565b6000819050602082019050919050565b6000819050919050565b6000620008d5620008cf620008c984620007b9565b620008aa565b620007b9565b9050919050565b6000620008e982620008b4565b9050919050565b6000620008fd82620008dc565b9050919050565b6200090f81620008f0565b82525050565b600062000923838362000904565b60208301905092915050565b6000602082019050919050565b600062000949826200087e565b62000955818562000889565b935062000962836200089a565b8060005b83811015620009995781516200097d888262000915565b97506200098a836200092f565b92505060018101905062000966565b5085935050505092915050565b60006020820190508181036000830152620009c281846200093c565b905092915050565b600082825260208201905092915050565b6000620009e8826200087e565b620009f48185620009ca565b935062000a01836200089a565b8060005b8381101562000a3857815162000a1c888262000915565b975062000a29836200092f565b92505060018101905062000a05565b5085935050505092915050565b60008115159050919050565b62000a5c8162000a45565b82525050565b62000a6d816200070a565b82525050565b6000608083016000830151848203600086015262000a928282620009db565b915050602083015162000aa9602086018262000a51565b50604083015162000abe604086018262000a62565b50606083015162000ad3606086018262000a62565b508091505092915050565b6000602082019050818103600083015262000afa818462000a73565b905092915050565b600080fd5b600080fd5b6000601f19601f8301169050919050565b7f4e487b7100000000000000000000000000000000000000000000000000000000600052604160045260246000fd5b62000b578262000b0c565b810181811067ffffffffffffffff8211171562000b795762000b7862000b1d565b5b80604052505050565b600062000b8e62000742565b905062000b9c828262000b4c565b919050565b600067ffffffffffffffff82111562000bbf5762000bbe62000b1d565b5b62000bca8262000b0c565b9050602081019050919050565b82818337600083830152505050565b600062000bfd62000bf78462000ba1565b62000b82565b90508281526020810184848401111562000c1c5762000c1b62000b07565b5b62000c2984828562000bd7565b509392505050565b600082601f83011262000c495762000c4862000b02565b5b813562000c5b84826020860162000be6565b91505092915050565b600067ffffffffffffffff82111562000c825762000c8162000b1d565b5b602082029050602081019050919050565b600080fd5b600062000caf62000ca98462000c64565b62000b82565b9050808382526020820190506020840283018581111562000cd55762000cd462000c93565b5b835b8181101562000d02578062000ced888262000770565b84526020840193505060208101905062000cd7565b5050509392505050565b600082601f83011262000d245762000d2362000b02565b5b813562000d3684826020860162000c98565b91505092915050565b600080600080600080600080610100898b03121562000d635762000d626200074c565b5b600089013567ffffffffffffffff81111562000d845762000d8362000751565b5b62000d928b828c0162000c31565b985050602089013567ffffffffffffffff81111562000db65762000db562000751565b5b62000dc48b828c0162000c31565b975050604062000dd78b828c0162000770565b965050606062000dea8b828c0162000770565b955050608062000dfd8b828c0162000770565b94505060a089013567ffffffffffffffff81111562000e215762000e2062000751565b5b62000e2f8b828c0162000d0c565b93505060c089013567ffffffffffffffff81111562000e535762000e5262000751565b5b62000e618b828c0162000c31565b92505060e089013567ffffffffffffffff81111562000e855762000e8462000751565b5b62000e938b828c0162000c31565b9150509295985092959890939650565b7f4e487b7100000000000000000000000000000000000000000000000000000000600052601160045260246000fd5b600062000edf826200070a565b91507fffffffffffffffffffffffffffffffffffffffffffffffffffffffffffffffff820362000f145762000f1362000ea3565b5b600182019050919050565b600081519050919050565b600082825260208201905092915050565b60005b8381101562000f5b57808201518184015260208101905062000f3e565b60008484015250505050565b600062000f748262000f1f565b62000f80818562000f2a565b935062000f9281856020860162000f3b565b62000f9d8162000b0c565b840191505092915050565b600081519050919050565b600082825260208201905092915050565b6000819050602082019050919050565b600062000fe2838362000a62565b60208301905092915050565b6000602082019050919050565b6000620010088262000fa8565b62001014818562000fb3565b9350620010218362000fc4565b8060005b83811015620010585781516200103c888262000fd4565b9750620010498362000fee565b92505060018101905062001025565b5085935050505092915050565b600061012082019050818103600083015262001082818c62000f67565b9050818103602083015262001098818b62000f67565b9050620010a9604083018a620007ed565b620010b8606083018962000714565b620010c7608083018862000714565b620010d660a083018762000714565b81810360c0830152620010ea818662000ffb565b905081810360e083015262001100818562000f67565b905081810361010083015262001117818462000f67565b90509a995050505050505050505056fe608060405260016010553480156200001657600080fd5b5060405162004d4d38038062004d4d83398181016040528101906200003c91906200061d565b88600090816200004d9190620009d8565b5087600190816200005f9190620009d8565b5086600260006101000a81548173ffffffffffffffffffffffffffffffffffffffff021916908373ffffffffffffffffffffffffffffffffffffffff1602179055506201518086620000b2919062000aee565b6004819055506201518085620000c9919062000aee565b6005819055508360068190555086604051620000e59062000301565b620000f1919062000b5e565b604051809103906000f0801580156200010e573d6000803e3d6000fd5b50600360006101000a81548173ffffffffffffffffffffffffffffffffffffffff021916908373ffffffffffffffffffffffffffffffffffffffff160217905550600060045460055462000163919062000baa565b905060008111620001ab576040517f08c379a0000000000000000000000000000000000000000000000000000000008152600401620001a29062000c43565b60405180910390fd5b60005b818110156200026b57600f6040518060600160405280878481518110620001da57620001d962000c65565b5b602002602001015181526020016004548152602001600015158152509080600181540180825580915050600190039060005260206000209060030201600090919091909150600082015181600001556020820151816001015560408201518160020160006101000a81548160ff02191690831515021790555050508080620002629062000c94565b915050620001ae565b5082600990816200027d9190620009d8565b5081600a90816200028f9190620009d8565b506001600760006101000a81548160ff0219169083151502179055506000600760016101000a81548160ff0219169083151502179055506000600e8190555060006008819055506000600760026101000a81548160ff0219169083151502179055505050505050505050505062000ce1565b6117c6806200358783390190565b6000604051905090565b600080fd5b600080fd5b600080fd5b600080fd5b6000601f19601f8301169050919050565b7f4e487b7100000000000000000000000000000000000000000000000000000000600052604160045260246000fd5b62000378826200032d565b810181811067ffffffffffffffff821117156200039a57620003996200033e565b5b80604052505050565b6000620003af6200030f565b9050620003bd82826200036d565b919050565b600067ffffffffffffffff821115620003e057620003df6200033e565b5b620003eb826200032d565b9050602081019050919050565b60005b8381101562000418578082015181840152602081019050620003fb565b60008484015250505050565b60006200043b6200043584620003c2565b620003a3565b9050828152602081018484840111156200045a576200045962000328565b5b62000467848285620003f8565b509392505050565b600082601f83011262000487576200048662000323565b5b81516200049984826020860162000424565b91505092915050565b600073ffffffffffffffffffffffffffffffffffffffff82169050919050565b6000620004cf82620004a2565b9050919050565b620004e181620004c2565b8114620004ed57600080fd5b50565b6000815190506200050181620004d6565b92915050565b6000819050919050565b6200051c8162000507565b81146200052857600080fd5b50565b6000815190506200053c8162000511565b92915050565b600067ffffffffffffffff82111562000560576200055f6200033e565b5b602082029050602081019050919050565b600080fd5b60006200058d620005878462000542565b620003a3565b90508083825260208201905060208402830185811115620005b357620005b262000571565b5b835b81811015620005e05780620005cb88826200052b565b845260208401935050602081019050620005b5565b5050509392505050565b600082601f83011262000602576200060162000323565b5b81516200061484826020860162000576565b91505092915050565b60008060008060008060008060006101208a8c03121562000643576200064262000319565b5b60008a015167ffffffffffffffff8111156200066457620006636200031e565b5b620006728c828d016200046f565b99505060208a015167ffffffffffffffff8111156200069657620006956200031e565b5b620006a48c828d016200046f565b9850506040620006b78c828d01620004f0565b9750506060620006ca8c828d016200052b565b9650506080620006dd8c828d016200052b565b95505060a0620006f08c828d016200052b565b94505060c08a015167ffffffffffffffff8111156200071457620007136200031e565b5b620007228c828d01620005ea565b93505060e08a015167ffffffffffffffff8111156200074657620007456200031e565b5b620007548c828d016200046f565b9250506101008a015167ffffffffffffffff8111156200077957620007786200031e565b5b620007878c828d016200046f565b9150509295985092959850929598565b600081519050919050565b7f4e487b7100000000000000000000000000000000000000000000000000000000600052602260045260246000fd5b60006002820490506001821680620007ea57607f821691505b6020821081036200080057620007ff620007a2565b5b50919050565b60008190508160005260206000209050919050565b60006020601f8301049050919050565b600082821b905092915050565b6000600883026200086a7fffffffffffffffffffffffffffffffffffffffffffffffffffffffffffffffff826200082b565b6200087686836200082b565b95508019841693508086168417925050509392505050565b6000819050919050565b6000620008b9620008b3620008ad8462000507565b6200088e565b62000507565b9050919050565b6000819050919050565b620008d58362000898565b620008ed620008e482620008c0565b84845462000838565b825550505050565b600090565b62000904620008f5565b62000911818484620008ca565b505050565b5b8181101562000939576200092d600082620008fa565b60018101905062000917565b5050565b601f8211156200098857620009528162000806565b6200095d846200081b565b810160208510156200096d578190505b620009856200097c856200081b565b83018262000916565b50505b505050565b600082821c905092915050565b6000620009ad600019846008026200098d565b1980831691505092915050565b6000620009c883836200099a565b9150826002028217905092915050565b620009e38262000797565b67ffffffffffffffff811115620009ff57620009fe6200033e565b5b62000a0b8254620007d1565b62000a188282856200093d565b600060209050601f83116001811462000a50576000841562000a3b578287015190505b62000a478582620009ba565b86555062000ab7565b601f19841662000a608662000806565b60005b8281101562000a8a5784890151825560018201915060208501945060208101905062000a63565b8683101562000aaa578489015162000aa6601f8916826200099a565b8355505b6001600288020188555050505b505050505050565b7f4e487b7100000000000000000000000000000000000000000000000000000000600052601160045260246000fd5b600062000afb8262000507565b915062000b088362000507565b925082820262000b188162000507565b9150828204841483151762000b325762000b3162000abf565b5b5092915050565b600062000b4682620004a2565b9050919050565b62000b588162000b39565b82525050565b600060208201905062000b75600083018462000b4d565b92915050565b7f4e487b7100000000000000000000000000000000000000000000000000000000600052601260045260246000fd5b600062000bb78262000507565b915062000bc48362000507565b92508262000bd75762000bd662000b7b565b5b828204905092915050565b600082825260208201905092915050565b7f496e76616c696420506572696f64000000000000000000000000000000000000600082015250565b600062000c2b600e8362000be2565b915062000c388262000bf3565b602082019050919050565b6000602082019050818103600083015262000c5e8162000c1c565b9050919050565b7f4e487b7100000000000000000000000000000000000000000000000000000000600052603260045260246000fd5b600062000ca18262000507565b91507fffffffffffffffffffffffffffffffffffffffffffffffffffffffffffffffff820362000cd65762000cd562000abf565b5b600182019050919050565b6128968062000cf16000396000f3fe6080604052600436106101815760003560e01c80639a82a09a116100d1578063bb5d40eb1161008a578063d51087f411610064578063d51087f4146104fd578063dffde3ce14610528578063e2fdcc1714610553578063ec3246a21461057e57610181565b8063bb5d40eb1461047c578063c435cf2d146104a7578063d06ef164146104d257610181565b80639a82a09a146103af5780639c105582146103da578063a6c3e6b9146103e4578063ac87b01b1461040f578063b7acb19c1461043a578063b84842311461045157610181565b80635bf5d54c1161013e5780637284e416116101185780637284e416146103195780637d3d6522146103445780638fbb38ff1461036f578063980e78441461039857610181565b80635bf5d54c1461029857806369d89575146102c35780636f7bc9be146102da57610181565b806305760a5a1461018657806306fdde03146101b15780630bfd1a11146101dc578063344612c7146102195780633ba8e56514610244578063590e1ae314610281575b600080fd5b34801561019257600080fd5b5061019b6105a7565b6040516101a8919061177a565b60405180910390f35b3480156101bd57600080fd5b506101c66105ad565b6040516101d39190611825565b60405180910390f35b3480156101e857600080fd5b5061020360048036038101906101fe9190611887565b61063b565b6040516102109190611920565b60405180910390f35b34801561022557600080fd5b5061022e610704565b60405161023b919061177a565b60405180910390f35b34801561025057600080fd5b5061026b60048036038101906102669190611887565b61070a565b604051610278919061197c565b60405180910390f35b34801561028d57600080fd5b50610296610749565b005b3480156102a457600080fd5b506102ad6108df565b6040516102ba919061177a565b60405180910390f35b3480156102cf57600080fd5b506102d86108e5565b005b3480156102e657600080fd5b5061030160048036038101906102fc91906119c3565b610a8a565b604051610310939291906119ff565b60405180910390f35b34801561032557600080fd5b5061032e610b69565b60405161033b9190611825565b60405180910390f35b34801561035057600080fd5b50610359610bf7565b6040516103669190611a3d565b60405180910390f35b34801561037b57600080fd5b5061039660048036038101906103919190611887565b610c0a565b005b3480156103a457600080fd5b506103ad610c57565b005b3480156103bb57600080fd5b506103c4610e50565b6040516103d19190611a3d565b60405180910390f35b6103e2610e63565b005b3480156103f057600080fd5b506103f96110fa565b6040516104069190611a79565b60405180910390f35b34801561041b57600080fd5b50610424611120565b6040516104319190611825565b60405180910390f35b34801561044657600080fd5b5061044f6111ae565b005b34801561045d57600080fd5b506104666112c2565b604051610473919061177a565b60405180910390f35b34801561048857600080fd5b50610491611365565b60405161049e9190611a3d565b60405180910390f35b3480156104b357600080fd5b506104bc611378565b6040516104c99190611ad6565b60405180910390f35b3480156104de57600080fd5b506104e7611421565b6040516104f4919061177a565b60405180910390f35b34801561050957600080fd5b50610512611427565b60405161051f9190611825565b60405180910390f35b34801561053457600080fd5b5061053d6114b5565b60405161054a919061177a565b60405180910390f35b34801561055f57600080fd5b506105686114bb565b6040516105759190611b50565b60405180910390f35b34801561058a57600080fd5b506105a560048036038101906105a09190611ca0565b6114e1565b005b60045481565b600080546105ba90611d18565b80601f01602080910402602001604051908101604052809291908181526020018280546105e690611d18565b80156106335780601f1061060857610100808354040283529160200191610633565b820191906000526020600020905b81548152906001019060200180831161061657829003601f168201915b505050505081565b61064361171b565b6004546005546106539190611da7565b821115610695576040517f08c379a000000000000000000000000000000000000000000000000000000000815260040161068c90611e24565b60405180910390fd5b600f6001836106a49190611e44565b815481106106b5576106b4611e78565b5b906000526020600020906003020160405180606001604052908160008201548152602001600182015481526020016002820160009054906101000a900460ff1615151515815250509050919050565b60065481565b600d818154811061071a57600080fd5b906000526020600020016000915054906101000a900473ffffffffffffffffffffffffffffffffffffffff1681565b600c60003373ffffffffffffffffffffffffffffffffffffffff1673ffffffffffffffffffffffffffffffffffffffff16815260200190815260200160002060010160149054906101000a900460ff166107d8576040517f08c379a00000000000000000000000000000000000000000000000000000000081526004016107cf90611f19565b60405180910390fd5b600360009054906101000a900473ffffffffffffffffffffffffffffffffffffffff1673ffffffffffffffffffffffffffffffffffffffff16634d83ec8e600d336040518363ffffffff1660e01b815260040161083692919061205d565b600060405180830381600087803b15801561085057600080fd5b505af1158015610864573d6000803e3d6000fd5b505050507f1b7ba75643ab42927a47f2481d63cb47a9cd2dca64188a70849cf8e6ccd9db0f600c60003373ffffffffffffffffffffffffffffffffffffffff1673ffffffffffffffffffffffffffffffffffffffff1681526020019081526020016000206040516108d591906121cb565b60405180910390a1565b60105481565b6004546005546108f59190611da7565b6010541115610939576040517f08c379a000000000000000000000000000000000000000000000000000000000815260040161093090611e24565b60405180910390fd5b6000600f600160105461094c9190611e44565b8154811061095d5761095c611e78565b5b906000526020600020906003020160405180606001604052908160008201548152602001600182015481526020016002820160009054906101000a900460ff1615151515815250509050600360009054906101000a900473ffffffffffffffffffffffffffffffffffffffff1673ffffffffffffffffffffffffffffffffffffffff1663947aa72b82600001516040518263ffffffff1660e01b8152600401610a06919061177a565b600060405180830381600087803b158015610a2057600080fd5b505af1158015610a34573d6000803e3d6000fd5b5050505060106000815480929190610a4b906121ed565b91905055507fab0bbc5225ed82879961bbdb8f081389f2fb2fff5f855db942d156524197420881604051610a7f9190611920565b60405180910390a150565b600c602052806000526040600020600091509050806000018054610aad90611d18565b80601f0160208091040260200160405190810160405280929190818152602001828054610ad990611d18565b8015610b265780601f10610afb57610100808354040283529160200191610b26565b820191906000526020600020905b815481529060010190602001808311610b0957829003601f168201915b5050505050908060010160009054906101000a900473ffffffffffffffffffffffffffffffffffffffff16908060010160149054906101000a900460ff16905083565b60018054610b7690611d18565b80601f0160208091040260200160405190810160405280929190818152602001828054610ba290611d18565b8015610bef5780601f10610bc457610100808354040283529160200191610bef565b820191906000526020600020905b815481529060010190602001808311610bd257829003601f168201915b505050505081565b600760019054906101000a900460ff1681565b6001600f600183610c1b9190611e44565b81548110610c2c57610c2b611e78565b5b906000526020600020906003020160020160006101000a81548160ff02191690831515021790555050565b600260009054906101000a900473ffffffffffffffffffffffffffffffffffffffff1673ffffffffffffffffffffffffffffffffffffffff163373ffffffffffffffffffffffffffffffffffffffff1614610ce7576040517f08c379a0000000000000000000000000000000000000000000000000000000008152600401610cde906122a7565b60405180910390fd5b6000600360009054906101000a900473ffffffffffffffffffffffffffffffffffffffff1673ffffffffffffffffffffffffffffffffffffffff16311115610e185760005b600e54811015610e1657600360009054906101000a900473ffffffffffffffffffffffffffffffffffffffff1673ffffffffffffffffffffffffffffffffffffffff16634d83ec8e600d808481548110610d8957610d88611e78565b5b9060005260206000200160009054906101000a900473ffffffffffffffffffffffffffffffffffffffff166040518363ffffffff1660e01b8152600401610dd192919061205d565b600060405180830381600087803b158015610deb57600080fd5b505af1158015610dff573d6000803e3d6000fd5b505050508080610e0e906121ed565b915050610d2c565b505b6000600760006101000a81548160ff0219169083151502179055506001600760026101000a81548160ff021916908315150217905550565b600760029054906101000a900460ff1681565b600c60003373ffffffffffffffffffffffffffffffffffffffff1673ffffffffffffffffffffffffffffffffffffffff16815260200190815260200160002060010160149054906101000a900460ff16610ef2576040517f08c379a0000000000000000000000000000000000000000000000000000000008152600401610ee990612339565b60405180910390fd5b600360009054906101000a900473ffffffffffffffffffffffffffffffffffffffff1673ffffffffffffffffffffffffffffffffffffffff1663cd5aebc834600d336040518463ffffffff1660e01b8152600401610f5192919061205d565b6000604051808303818588803b158015610f6a57600080fd5b505af1158015610f7e573d6000803e3d6000fd5b505050505060646006546064600360009054906101000a900473ffffffffffffffffffffffffffffffffffffffff1673ffffffffffffffffffffffffffffffffffffffff1631610fce9190612359565b610fd89190611da7565b10611081576001600760016101000a81548160ff02191690831515021790555042600881905550600042905060006004546005546110169190611da7565b905060005b8181101561107d5760045483611031919061239b565b600f828154811061104557611044611e78565b5b90600052602060002090600302016001018190555060045483611068919061239b565b92508080611075906121ed565b91505061101b565b5050505b7fadaf7b0a13ca988bb7ec352abeea5619f1865a53553dbd99c06a1089cbdf8a4d600c60003373ffffffffffffffffffffffffffffffffffffffff1673ffffffffffffffffffffffffffffffffffffffff168152602001908152602001600020346040516110f09291906123cf565b60405180910390a1565b600260009054906101000a900473ffffffffffffffffffffffffffffffffffffffff1681565b6009805461112d90611d18565b80601f016020809104026020016040519081016040528092919081815260200182805461115990611d18565b80156111a65780601f1061117b576101008083540402835291602001916111a6565b820191906000526020600020905b81548152906001019060200180831161118957829003601f168201915b505050505081565b600260009054906101000a900473ffffffffffffffffffffffffffffffffffffffff1673ffffffffffffffffffffffffffffffffffffffff163373ffffffffffffffffffffffffffffffffffffffff161461123e576040517f08c379a000000000000000000000000000000000000000000000000000000000815260040161123590612471565b60405180910390fd5b600360009054906101000a900473ffffffffffffffffffffffffffffffffffffffff1673ffffffffffffffffffffffffffffffffffffffff1663a369db8d6040518163ffffffff1660e01b8152600401600060405180830381600087803b1580156112a857600080fd5b505af11580156112bc573d6000803e3d6000fd5b50505050565b6000600360009054906101000a900473ffffffffffffffffffffffffffffffffffffffff1673ffffffffffffffffffffffffffffffffffffffff16639e0b51fb336040518263ffffffff1660e01b815260040161131f919061197c565b602060405180830381865afa15801561133c573d6000803e3d6000fd5b505050506040513d601f19601f8201168201806040525081019061136091906124a6565b905090565b600760009054906101000a900460ff1681565b61138061173e565b600360009054906101000a900473ffffffffffffffffffffffffffffffffffffffff1673ffffffffffffffffffffffffffffffffffffffff1663bcad0083336040518263ffffffff1660e01b81526004016113db919061197c565b606060405180830381865afa1580156113f8573d6000803e3d6000fd5b505050506040513d601f19601f8201168201806040525081019061141c9190612568565b905090565b60085481565b600a805461143490611d18565b80601f016020809104026020016040519081016040528092919081815260200182805461146090611d18565b80156114ad5780601f10611482576101008083540402835291602001916114ad565b820191906000526020600020905b81548152906001019060200180831161149057829003601f168201915b505050505081565b60055481565b600360009054906101000a900473ffffffffffffffffffffffffffffffffffffffff1681565b600c60003373ffffffffffffffffffffffffffffffffffffffff1673ffffffffffffffffffffffffffffffffffffffff16815260200190815260200160002060010160149054906101000a900460ff1615611571576040517f08c379a0000000000000000000000000000000000000000000000000000000008152600401611568906125e1565b60405180910390fd5b33600c60003373ffffffffffffffffffffffffffffffffffffffff1673ffffffffffffffffffffffffffffffffffffffff16815260200190815260200160002060010160006101000a81548173ffffffffffffffffffffffffffffffffffffffff021916908373ffffffffffffffffffffffffffffffffffffffff16021790555080600c60003373ffffffffffffffffffffffffffffffffffffffff1673ffffffffffffffffffffffffffffffffffffffff1681526020019081526020016000206000019081611641919061278e565b506001600c60003373ffffffffffffffffffffffffffffffffffffffff1673ffffffffffffffffffffffffffffffffffffffff16815260200190815260200160002060010160146101000a81548160ff021916908315150217905550600d339080600181540180825580915050600190039060005260206000200160009091909190916101000a81548173ffffffffffffffffffffffffffffffffffffffff021916908373ffffffffffffffffffffffffffffffffffffffff160217905550600e6000815480929190611713906121ed565b919050555050565b604051806060016040528060008152602001600081526020016000151581525090565b604051806060016040528060008152602001600081526020016000151581525090565b6000819050919050565b61177481611761565b82525050565b600060208201905061178f600083018461176b565b92915050565b600081519050919050565b600082825260208201905092915050565b60005b838110156117cf5780820151818401526020810190506117b4565b60008484015250505050565b6000601f19601f8301169050919050565b60006117f782611795565b61180181856117a0565b93506118118185602086016117b1565b61181a816117db565b840191505092915050565b6000602082019050818103600083015261183f81846117ec565b905092915050565b6000604051905090565b600080fd5b600080fd5b61186481611761565b811461186f57600080fd5b50565b6000813590506118818161185b565b92915050565b60006020828403121561189d5761189c611851565b5b60006118ab84828501611872565b91505092915050565b6118bd81611761565b82525050565b60008115159050919050565b6118d8816118c3565b82525050565b6060820160008201516118f460008501826118b4565b50602082015161190760208501826118b4565b50604082015161191a60408501826118cf565b50505050565b600060608201905061193560008301846118de565b92915050565b600073ffffffffffffffffffffffffffffffffffffffff82169050919050565b60006119668261193b565b9050919050565b6119768161195b565b82525050565b6000602082019050611991600083018461196d565b92915050565b6119a08161195b565b81146119ab57600080fd5b50565b6000813590506119bd81611997565b92915050565b6000602082840312156119d9576119d8611851565b5b60006119e7848285016119ae565b91505092915050565b6119f9816118c3565b82525050565b60006060820190508181036000830152611a1981866117ec565b9050611a28602083018561196d565b611a3560408301846119f0565b949350505050565b6000602082019050611a5260008301846119f0565b92915050565b6000611a638261193b565b9050919050565b611a7381611a58565b82525050565b6000602082019050611a8e6000830184611a6a565b92915050565b606082016000820151611aaa60008501826118b4565b506020820151611abd60208501826118b4565b506040820151611ad060408501826118cf565b50505050565b6000606082019050611aeb6000830184611a94565b92915050565b6000819050919050565b6000611b16611b11611b0c8461193b565b611af1565b61193b565b9050919050565b6000611b2882611afb565b9050919050565b6000611b3a82611b1d565b9050919050565b611b4a81611b2f565b82525050565b6000602082019050611b656000830184611b41565b92915050565b600080fd5b600080fd5b7f4e487b7100000000000000000000000000000000000000000000000000000000600052604160045260246000fd5b611bad826117db565b810181811067ffffffffffffffff82111715611bcc57611bcb611b75565b5b80604052505050565b6000611bdf611847565b9050611beb8282611ba4565b919050565b600067ffffffffffffffff821115611c0b57611c0a611b75565b5b611c14826117db565b9050602081019050919050565b82818337600083830152505050565b6000611c43611c3e84611bf0565b611bd5565b905082815260208101848484011115611c5f57611c5e611b70565b5b611c6a848285611c21565b509392505050565b600082601f830112611c8757611c86611b6b565b5b8135611c97848260208601611c30565b91505092915050565b600060208284031215611cb657611cb5611851565b5b600082013567ffffffffffffffff811115611cd457611cd3611856565b5b611ce084828501611c72565b91505092915050565b7f4e487b7100000000000000000000000000000000000000000000000000000000600052602260045260246000fd5b60006002820490506001821680611d3057607f821691505b602082108103611d4357611d42611ce9565b5b50919050565b7f4e487b7100000000000000000000000000000000000000000000000000000000600052601260045260246000fd5b7f4e487b7100000000000000000000000000000000000000000000000000000000600052601160045260246000fd5b6000611db282611761565b9150611dbd83611761565b925082611dcd57611dcc611d49565b5b828204905092915050565b7f496e76616c6964205374616765204e6f2e000000000000000000000000000000600082015250565b6000611e0e6011836117a0565b9150611e1982611dd8565b602082019050919050565b60006020820190508181036000830152611e3d81611e01565b9050919050565b6000611e4f82611761565b9150611e5a83611761565b9250828203905081811115611e7257611e71611d78565b5b92915050565b7f4e487b7100000000000000000000000000000000000000000000000000000000600052603260045260246000fd5b7f4f6e6c7920696e766573746f72732063616e2063616c6c20746869732066756e60008201527f6374696f6e000000000000000000000000000000000000000000000000000000602082015250565b6000611f036025836117a0565b9150611f0e82611ea7565b604082019050919050565b60006020820190508181036000830152611f3281611ef6565b9050919050565b600081549050919050565b600082825260208201905092915050565b60008190508160005260206000209050919050565b611f738161195b565b82525050565b6000611f858383611f6a565b60208301905092915050565b60008160001c9050919050565b600073ffffffffffffffffffffffffffffffffffffffff82169050919050565b6000611fd1611fcc83611f91565b611f9e565b9050919050565b6000611fe48254611fbe565b9050919050565b6000600182019050919050565b600061200382611f39565b61200d8185611f44565b935061201883611f55565b8060005b838110156120505761202d82611fd8565b6120378882611f79565b975061204283611feb565b92505060018101905061201c565b5085935050505092915050565b600060408201905081810360008301526120778185611ff8565b9050612086602083018461196d565b9392505050565b600082825260208201905092915050565b60008190508160005260206000209050919050565b600081546120c081611d18565b6120ca818661208d565b945060018216600081146120e557600181146120fb5761212e565b60ff19831686528115156020028601935061212e565b6121048561209e565b60005b8381101561212657815481890152600182019150602081019050612107565b808801955050505b50505092915050565b60008160a01c9050919050565b600060ff82169050919050565b600061216461215f83612137565b612144565b9050919050565b6000606083016000808401858303600087015261218883826120b3565b9250506001840154905061219b81611fbe565b6121a86020870182611f6a565b506121b281612151565b6121bf60408701826118cf565b50819250505092915050565b600060208201905081810360008301526121e5818461216b565b905092915050565b60006121f882611761565b91507fffffffffffffffffffffffffffffffffffffffffffffffffffffffffffffffff820361222a57612229611d78565b5b600182019050919050565b7f4f6e6c792043616d706169676e20617574686f722063616e2063616e63656c2060008201527f612063616d706169676e2e000000000000000000000000000000000000000000602082015250565b6000612291602b836117a0565b915061229c82612235565b604082019050919050565b600060208201905081810360008301526122c081612284565b9050919050565b7f506c6561736520526567697374657220617320696e766573746f72206265666f60008201527f726520706c656467696e672066756e6473000000000000000000000000000000602082015250565b60006123236031836117a0565b915061232e826122c7565b604082019050919050565b6000602082019050818103600083015261235281612316565b9050919050565b600061236482611761565b915061236f83611761565b925082820261237d81611761565b9150828204841483151761239457612393611d78565b5b5092915050565b60006123a682611761565b91506123b183611761565b92508282019050808211156123c9576123c8611d78565b5b92915050565b600060408201905081810360008301526123e9818561216b565b90506123f8602083018461176b565b9392505050565b7f4f6e6c792043616d706169676e20617574686f722063616e20636f6d706c657460008201527f6520612063616d706169676e2e00000000000000000000000000000000000000602082015250565b600061245b602d836117a0565b9150612466826123ff565b604082019050919050565b6000602082019050818103600083015261248a8161244e565b9050919050565b6000815190506124a08161185b565b92915050565b6000602082840312156124bc576124bb611851565b5b60006124ca84828501612491565b91505092915050565b600080fd5b6124e1816118c3565b81146124ec57600080fd5b50565b6000815190506124fe816124d8565b92915050565b60006060828403121561251a576125196124d3565b5b6125246060611bd5565b9050600061253484828501612491565b600083015250602061254884828501612491565b602083015250604061255c848285016124ef565b60408301525092915050565b60006060828403121561257e5761257d611851565b5b600061258c84828501612504565b91505092915050565b7f416c726561647920526567697374657265640000000000000000000000000000600082015250565b60006125cb6012836117a0565b91506125d682612595565b602082019050919050565b600060208201905081810360008301526125fa816125be565b9050919050565b60006020601f8301049050919050565b600082821b905092915050565b60006008830261264e7fffffffffffffffffffffffffffffffffffffffffffffffffffffffffffffffff82612611565b6126588683612611565b95508019841693508086168417925050509392505050565b600061268b61268661268184611761565b611af1565b611761565b9050919050565b6000819050919050565b6126a583612670565b6126b96126b182612692565b84845461261e565b825550505050565b600090565b6126ce6126c1565b6126d981848461269c565b505050565b5b818110156126fd576126f26000826126c6565b6001810190506126df565b5050565b601f821115612742576127138161209e565b61271c84612601565b8101602085101561272b578190505b61273f61273785612601565b8301826126de565b50505b505050565b600082821c905092915050565b600061276560001984600802612747565b1980831691505092915050565b600061277e8383612754565b9150826002028217905092915050565b61279782611795565b67ffffffffffffffff8111156127b0576127af611b75565b5b6127ba8254611d18565b6127c5828285612701565b600060209050601f8311600181146127f857600084156127e6578287015190505b6127f08582612772565b865550612858565b601f1984166128068661209e565b60005b8281101561282e57848901518255600182019150602085019450602081019050612809565b8683101561284b5784890151612847601f891682612754565b8355505b6001600288020188555050505b50505050505056fea26469706673582212202de6fca482b8759bbfdc0f173a964b2dcef422866cd24ea8d9656b937125735464736f6c6343000811003360806040523480156200001157600080fd5b50604051620017c6380380620017c6833981810160405281019062000037919062000157565b60008060006101000a81548160ff021916908360018111156200005f576200005e62000189565b5b021790555080600260006101000a81548173ffffffffffffffffffffffffffffffffffffffff021916908373ffffffffffffffffffffffffffffffffffffffff16021790555033600360006101000a81548173ffffffffffffffffffffffffffffffffffffffff021916908373ffffffffffffffffffffffffffffffffffffffff16021790555050620001b8565b600080fd5b600073ffffffffffffffffffffffffffffffffffffffff82169050919050565b60006200011f82620000f2565b9050919050565b620001318162000112565b81146200013d57600080fd5b50565b600081519050620001518162000126565b92915050565b60006020828403121562000170576200016f620000ed565b5b6000620001808482850162000140565b91505092915050565b7f4e487b7100000000000000000000000000000000000000000000000000000000600052602160045260246000fd5b6115fe80620001c86000396000f3fe6080604052600436106100705760003560e01c80639e0b51fb1161004e5780639e0b51fb146100f2578063a369db8d1461012f578063bcad008314610146578063cd5aebc81461018357610070565b806308551a53146100755780634d83ec8e146100a0578063947aa72b146100c9575b600080fd5b34801561008157600080fd5b5061008a61019f565b6040516100979190610e1b565b60405180910390f35b3480156100ac57600080fd5b506100c760048036038101906100c29190610fe1565b6101c5565b005b3480156100d557600080fd5b506100f060048036038101906100eb9190611073565b6105bb565b005b3480156100fe57600080fd5b50610119600480360381019061011491906110a0565b6106fa565b60405161012691906110dc565b60405180910390f35b34801561013b57600080fd5b506101446107d7565b005b34801561015257600080fd5b5061016d600480360381019061016891906110a0565b610949565b60405161017a9190611163565b60405180910390f35b61019d60048036038101906101989190610fe1565b610a62565b005b600260009054906101000a900473ffffffffffffffffffffffffffffffffffffffff1681565b80600160008273ffffffffffffffffffffffffffffffffffffffff1673ffffffffffffffffffffffffffffffffffffffff16815260200190815260200160002060020160009054906101000a900460ff16610255576040517f08c379a000000000000000000000000000000000000000000000000000000000815260040161024c90611201565b60405180910390fd5b6000600160008473ffffffffffffffffffffffffffffffffffffffff1673ffffffffffffffffffffffffffffffffffffffff1681526020019081526020016000206001015490508273ffffffffffffffffffffffffffffffffffffffff166108fc606483476102c49190611250565b6102ce91906112c1565b9081150290604051600060405180830381858888f193505050501580156102f9573d6000803e3d6000fd5b506000600160008573ffffffffffffffffffffffffffffffffffffffff1673ffffffffffffffffffffffffffffffffffffffff168152602001908152602001600020600001819055506000600160008573ffffffffffffffffffffffffffffffffffffffff1673ffffffffffffffffffffffffffffffffffffffff1681526020019081526020016000206001018190555060005b84518110156105b45760004711610405576000600160008784815181106103b7576103b66112f2565b5b602002602001015173ffffffffffffffffffffffffffffffffffffffff1673ffffffffffffffffffffffffffffffffffffffff168152602001908152602001600020600101819055506105a1565b4760646001600088858151811061041f5761041e6112f2565b5b602002602001015173ffffffffffffffffffffffffffffffffffffffff1673ffffffffffffffffffffffffffffffffffffffff1681526020019081526020016000206000015461046f9190611250565b61047991906112c1565b600160008784815181106104905761048f6112f2565b5b602002602001015173ffffffffffffffffffffffffffffffffffffffff1673ffffffffffffffffffffffffffffffffffffffff168152602001908152602001600020600101819055506064600160008784815181106104f2576104f16112f2565b5b602002602001015173ffffffffffffffffffffffffffffffffffffffff1673ffffffffffffffffffffffffffffffffffffffff16815260200190815260200160002060010154106105a057606460016000878481518110610556576105556112f2565b5b602002602001015173ffffffffffffffffffffffffffffffffffffffff1673ffffffffffffffffffffffffffffffffffffffff168152602001908152602001600020600101819055505b5b80806105ac90611321565b91505061038d565b5050505050565b600360009054906101000a900473ffffffffffffffffffffffffffffffffffffffff1673ffffffffffffffffffffffffffffffffffffffff163373ffffffffffffffffffffffffffffffffffffffff161461064b576040517f08c379a0000000000000000000000000000000000000000000000000000000008152600401610642906113db565b60405180910390fd5b4781111561068e576040517f08c379a000000000000000000000000000000000000000000000000000000000815260040161068590611447565b60405180910390fd5b600260009054906101000a900473ffffffffffffffffffffffffffffffffffffffff1673ffffffffffffffffffffffffffffffffffffffff166108fc829081150290604051600060405180830381858888f193505050501580156106f6573d6000803e3d6000fd5b5050565b600081600160008273ffffffffffffffffffffffffffffffffffffffff1673ffffffffffffffffffffffffffffffffffffffff16815260200190815260200160002060020160009054906101000a900460ff1661078c576040517f08c379a000000000000000000000000000000000000000000000000000000000815260040161078390611201565b60405180910390fd5b600160008473ffffffffffffffffffffffffffffffffffffffff1673ffffffffffffffffffffffffffffffffffffffff16815260200190815260200160002060010154915050919050565b600360009054906101000a900473ffffffffffffffffffffffffffffffffffffffff1673ffffffffffffffffffffffffffffffffffffffff163373ffffffffffffffffffffffffffffffffffffffff1614610867576040517f08c379a000000000000000000000000000000000000000000000000000000000815260040161085e906113db565b60405180910390fd5b60004711156108da57600260009054906101000a900473ffffffffffffffffffffffffffffffffffffffff1673ffffffffffffffffffffffffffffffffffffffff166108fc479081150290604051600060405180830381858888f193505050501580156108d8573d6000803e3d6000fd5b505b60016000806101000a81548160ff021916908360018111156108ff576108fe611467565b5b021790555060004714610947576040517f08c379a000000000000000000000000000000000000000000000000000000000815260040161093e90611508565b60405180910390fd5b565b610951610db7565b81600160008273ffffffffffffffffffffffffffffffffffffffff1673ffffffffffffffffffffffffffffffffffffffff16815260200190815260200160002060020160009054906101000a900460ff166109e1576040517f08c379a00000000000000000000000000000000000000000000000000000000081526004016109d890611201565b60405180910390fd5b600160008473ffffffffffffffffffffffffffffffffffffffff1673ffffffffffffffffffffffffffffffffffffffff16815260200190815260200160002060405180606001604052908160008201548152602001600182015481526020016002820160009054906101000a900460ff161515151581525050915050919050565b600180811115610a7557610a74611467565b5b60008054906101000a900460ff166001811115610a9557610a94611467565b5b03610ad5576040517f08c379a0000000000000000000000000000000000000000000000000000000008152600401610acc90611574565b60405180910390fd5b34600160008373ffffffffffffffffffffffffffffffffffffffff1673ffffffffffffffffffffffffffffffffffffffff1681526020019081526020016000206000016000828254610b279190611594565b9250508190555060005b8251811015610d585760004711610ba957600060016000858481518110610b5b57610b5a6112f2565b5b602002602001015173ffffffffffffffffffffffffffffffffffffffff1673ffffffffffffffffffffffffffffffffffffffff16815260200190815260200160002060010181905550610d45565b47606460016000868581518110610bc357610bc26112f2565b5b602002602001015173ffffffffffffffffffffffffffffffffffffffff1673ffffffffffffffffffffffffffffffffffffffff16815260200190815260200160002060000154610c139190611250565b610c1d91906112c1565b60016000858481518110610c3457610c336112f2565b5b602002602001015173ffffffffffffffffffffffffffffffffffffffff1673ffffffffffffffffffffffffffffffffffffffff16815260200190815260200160002060010181905550606460016000858481518110610c9657610c956112f2565b5b602002602001015173ffffffffffffffffffffffffffffffffffffffff1673ffffffffffffffffffffffffffffffffffffffff1681526020019081526020016000206001015410610d4457606460016000858481518110610cfa57610cf96112f2565b5b602002602001015173ffffffffffffffffffffffffffffffffffffffff1673ffffffffffffffffffffffffffffffffffffffff168152602001908152602001600020600101819055505b5b8080610d5090611321565b915050610b31565b5060018060008373ffffffffffffffffffffffffffffffffffffffff1673ffffffffffffffffffffffffffffffffffffffff16815260200190815260200160002060020160006101000a81548160ff0219169083151502179055505050565b604051806060016040528060008152602001600081526020016000151581525090565b600073ffffffffffffffffffffffffffffffffffffffff82169050919050565b6000610e0582610dda565b9050919050565b610e1581610dfa565b82525050565b6000602082019050610e306000830184610e0c565b92915050565b6000604051905090565b600080fd5b600080fd5b600080fd5b6000601f19601f8301169050919050565b7f4e487b7100000000000000000000000000000000000000000000000000000000600052604160045260246000fd5b610e9882610e4f565b810181811067ffffffffffffffff82111715610eb757610eb6610e60565b5b80604052505050565b6000610eca610e36565b9050610ed68282610e8f565b919050565b600067ffffffffffffffff821115610ef657610ef5610e60565b5b602082029050602081019050919050565b600080fd5b6000610f1782610dda565b9050919050565b610f2781610f0c565b8114610f3257600080fd5b50565b600081359050610f4481610f1e565b92915050565b6000610f5d610f5884610edb565b610ec0565b90508083825260208201905060208402830185811115610f8057610f7f610f07565b5b835b81811015610fa95780610f958882610f35565b845260208401935050602081019050610f82565b5050509392505050565b600082601f830112610fc857610fc7610e4a565b5b8135610fd8848260208601610f4a565b91505092915050565b60008060408385031215610ff857610ff7610e40565b5b600083013567ffffffffffffffff81111561101657611015610e45565b5b61102285828601610fb3565b925050602061103385828601610f35565b9150509250929050565b6000819050919050565b6110508161103d565b811461105b57600080fd5b50565b60008135905061106d81611047565b92915050565b60006020828403121561108957611088610e40565b5b60006110978482850161105e565b91505092915050565b6000602082840312156110b6576110b5610e40565b5b60006110c484828501610f35565b91505092915050565b6110d68161103d565b82525050565b60006020820190506110f160008301846110cd565b92915050565b6111008161103d565b82525050565b60008115159050919050565b61111b81611106565b82525050565b60608201600082015161113760008501826110f7565b50602082015161114a60208501826110f7565b50604082015161115d6040850182611112565b50505050565b60006060820190506111786000830184611121565b92915050565b600082825260208201905092915050565b7f4f6e6c7920496e766573746f72732063616e2063616c6c207468652066756e6360008201527f74696f6e00000000000000000000000000000000000000000000000000000000602082015250565b60006111eb60248361117e565b91506111f68261118f565b604082019050919050565b6000602082019050818103600083015261121a816111de565b9050919050565b7f4e487b7100000000000000000000000000000000000000000000000000000000600052601160045260246000fd5b600061125b8261103d565b91506112668361103d565b92508282026112748161103d565b9150828204841483151761128b5761128a611221565b5b5092915050565b7f4e487b7100000000000000000000000000000000000000000000000000000000600052601260045260246000fd5b60006112cc8261103d565b91506112d78361103d565b9250826112e7576112e6611292565b5b828204905092915050565b7f4e487b7100000000000000000000000000000000000000000000000000000000600052603260045260246000fd5b600061132c8261103d565b91507fffffffffffffffffffffffffffffffffffffffffffffffffffffffffffffffff820361135e5761135d611221565b5b600182019050919050565b7f4f6e6c79206f776e6572732063616e2063616c6c207468652066756e6374696f60008201527f6e00000000000000000000000000000000000000000000000000000000000000602082015250565b60006113c560218361117e565b91506113d082611369565b604082019050919050565b600060208201905081810360008301526113f4816113b8565b9050919050565b7f416d6f756e7420657863656564732062616c616e636500000000000000000000600082015250565b600061143160168361117e565b915061143c826113fb565b602082019050919050565b6000602082019050818103600083015261146081611424565b9050919050565b7f4e487b7100000000000000000000000000000000000000000000000000000000600052602160045260246000fd5b7f42616c616e6365206973207374696c6c206c65667420696e2074686520636f6e60008201527f7472616374000000000000000000000000000000000000000000000000000000602082015250565b60006114f260258361117e565b91506114fd82611496565b604082019050919050565b60006020820190508181036000830152611521816114e5565b9050919050565b7f416c726561647920506169640000000000000000000000000000000000000000600082015250565b600061155e600c8361117e565b915061156982611528565b602082019050919050565b6000602082019050818103600083015261158d81611551565b9050919050565b600061159f8261103d565b91506115aa8361103d565b92508282019050808211156115c2576115c1611221565b5b9291505056fea2646970667358221220ab6523119bc6e6bd43a128895ecfd9f44fee81699215efd9e2366f361256836f64736f6c63430008110033a264697066735822122002e266f23a29a0cf1f3a87df60b923ed2e87e9514a2e3543e042283c66a79a1e64736f6c63430008110033",
  "linkReferences": {},
  "deployedLinkReferences": {}
}