{
  "_format": "hh-sol-artifact-1",
  "contractName": "CFunding",
  "sourceName": "contracts/CFunding.sol",
  "abi": [
    {
      "inputs": [
        {
          "internalType": "string",
          "name": "_name",
          "type": "string"
        }
      ],
      "stateMutability": "nonpayable",
      "type": "constructor"
    },
    {
      "inputs": [],
      "name": "campaignCount",
      "outputs": [
        {
          "internalType": "uint256",
          "name": "",
          "type": "uint256"
        }
      ],
      "stateMutability": "view",
      "type": "function"
    },
    {
      "inputs": [
        {
          "internalType": "uint256",
          "name": "",
          "type": "uint256"
        }
      ],
      "name": "campaignLUT",
      "outputs": [
        {
          "internalType": "address",
          "name": "",
          "type": "address"
        }
      ],
      "stateMutability": "view",
      "type": "function"
    },
    {
      "inputs": [
        {
          "internalType": "string",
          "name": "_name",
          "type": "string"
        },
        {
          "internalType": "string",
          "name": "_description",
          "type": "string"
        },
        {
          "internalType": "uint256",
          "name": "_sPeriod",
          "type": "uint256"
        },
        {
          "internalType": "uint256",
          "name": "_totalProjectTime",
          "type": "uint256"
        },
        {
          "internalType": "uint256",
          "name": "_totalAmountNeeded",
          "type": "uint256"
        },
        {
          "internalType": "uint256[]",
          "name": "_stages",
          "type": "uint256[]"
        }
      ],
      "name": "createCampaign",
      "outputs": [],
      "stateMutability": "nonpayable",
      "type": "function"
    },
    {
      "inputs": [
        {
          "internalType": "address",
          "name": "_user",
          "type": "address"
        }
      ],
      "name": "getAllCampaignsOfUser",
      "outputs": [
        {
          "internalType": "contract Campaign[]",
          "name": "",
          "type": "address[]"
        }
      ],
      "stateMutability": "view",
      "type": "function"
    },
    {
      "inputs": [
        {
          "internalType": "address",
          "name": "_user",
          "type": "address"
        }
      ],
      "name": "getUserProfile",
      "outputs": [
        {
          "components": [
            {
              "internalType": "contract Campaign[]",
              "name": "campaigns",
              "type": "address[]"
            },
            {
              "internalType": "bool",
              "name": "isValid",
              "type": "bool"
            },
            {
              "internalType": "uint256",
              "name": "timestamp",
              "type": "uint256"
            },
            {
              "internalType": "uint256",
              "name": "userCampaignCount",
              "type": "uint256"
            }
          ],
          "internalType": "struct CFunding.CampaignData",
          "name": "",
          "type": "tuple"
        }
      ],
      "stateMutability": "view",
      "type": "function"
    }
  ],
  "bytecode": "0x60806040523480156200001157600080fd5b50604051620054843803806200548483398181016040528101906200003791906200022c565b8060009081620000489190620004c8565b50600060038190555033600460006101000a81548173ffffffffffffffffffffffffffffffffffffffff021916908373ffffffffffffffffffffffffffffffffffffffff16021790555050620005af565b6000604051905090565b600080fd5b600080fd5b600080fd5b600080fd5b6000601f19601f8301169050919050565b7f4e487b7100000000000000000000000000000000000000000000000000000000600052604160045260246000fd5b6200010282620000b7565b810181811067ffffffffffffffff82111715620001245762000123620000c8565b5b80604052505050565b60006200013962000099565b9050620001478282620000f7565b919050565b600067ffffffffffffffff8211156200016a5762000169620000c8565b5b6200017582620000b7565b9050602081019050919050565b60005b83811015620001a257808201518184015260208101905062000185565b60008484015250505050565b6000620001c5620001bf846200014c565b6200012d565b905082815260208101848484011115620001e457620001e3620000b2565b5b620001f184828562000182565b509392505050565b600082601f830112620002115762000210620000ad565b5b815162000223848260208601620001ae565b91505092915050565b600060208284031215620002455762000244620000a3565b5b600082015167ffffffffffffffff811115620002665762000265620000a8565b5b6200027484828501620001f9565b91505092915050565b600081519050919050565b7f4e487b7100000000000000000000000000000000000000000000000000000000600052602260045260246000fd5b60006002820490506001821680620002d057607f821691505b602082108103620002e657620002e562000288565b5b50919050565b60008190508160005260206000209050919050565b60006020601f8301049050919050565b600082821b905092915050565b600060088302620003507fffffffffffffffffffffffffffffffffffffffffffffffffffffffffffffffff8262000311565b6200035c868362000311565b95508019841693508086168417925050509392505050565b6000819050919050565b6000819050919050565b6000620003a9620003a36200039d8462000374565b6200037e565b62000374565b9050919050565b6000819050919050565b620003c58362000388565b620003dd620003d482620003b0565b8484546200031e565b825550505050565b600090565b620003f4620003e5565b62000401818484620003ba565b505050565b5b8181101562000429576200041d600082620003ea565b60018101905062000407565b5050565b601f82111562000478576200044281620002ec565b6200044d8462000301565b810160208510156200045d578190505b620004756200046c8562000301565b83018262000406565b50505b505050565b600082821c905092915050565b60006200049d600019846008026200047d565b1980831691505092915050565b6000620004b883836200048a565b9150826002028217905092915050565b620004d3826200027d565b67ffffffffffffffff811115620004ef57620004ee620000c8565b5b620004fb8254620002b7565b620005088282856200042d565b600060209050601f8311600181146200054057600084156200052b578287015190505b620005378582620004aa565b865550620005a7565b601f1984166200055086620002ec565b60005b828110156200057a5784890151825560018201915060208501945060208101905062000553565b868310156200059a578489015162000596601f8916826200048a565b8355505b6001600288020188555050505b505050505050565b614ec580620005bf6000396000f3fe60806040523480156200001157600080fd5b50600436106200005e5760003560e01c80630973d84914620000635780631d986f6e14620000995780637274e30d14620000cf5780638ceb537d14620000f1578063987ee1561462000111575b600080fd5b6200008160048036038101906200007b919062000705565b62000147565b6040516200009091906200077c565b60405180910390f35b620000b76004803603810190620000b19190620007ca565b62000187565b604051620000c6919062000924565b60405180910390f35b620000d962000259565b604051620000e8919062000959565b60405180910390f35b6200010f600480360381019062000109919062000bb3565b6200025f565b005b6200012f6004803603810190620001299190620007ca565b62000564565b6040516200013e919062000dc0565b60405180910390f35b600281815481106200015857600080fd5b906000526020600020016000915054906101000a900473ffffffffffffffffffffffffffffffffffffffff1681565b6060600160008373ffffffffffffffffffffffffffffffffffffffff1673ffffffffffffffffffffffffffffffffffffffff1681526020019081526020016000206000018054806020026020016040519081016040528092919081815260200182805480156200024d57602002820191906000526020600020905b8160009054906101000a900473ffffffffffffffffffffffffffffffffffffffff1673ffffffffffffffffffffffffffffffffffffffff168152602001906001019080831162000202575b50505050509050919050565b60035481565b600160003373ffffffffffffffffffffffffffffffffffffffff1673ffffffffffffffffffffffffffffffffffffffff16815260200190815260200160002060010160009054906101000a900460ff16620004015760018060003373ffffffffffffffffffffffffffffffffffffffff1673ffffffffffffffffffffffffffffffffffffffff16815260200190815260200160002060010160006101000a81548160ff02191690831515021790555042600160003373ffffffffffffffffffffffffffffffffffffffff1673ffffffffffffffffffffffffffffffffffffffff168152602001908152602001600020600201819055506000600160003373ffffffffffffffffffffffffffffffffffffffff1673ffffffffffffffffffffffffffffffffffffffff168152602001908152602001600020600301819055506002339080600181540180825580915050600190039060005260206000200160009091909190916101000a81548173ffffffffffffffffffffffffffffffffffffffff021916908373ffffffffffffffffffffffffffffffffffffffff1602179055505b600160003373ffffffffffffffffffffffffffffffffffffffff1673ffffffffffffffffffffffffffffffffffffffff1681526020019081526020016000206000018686338787878760405162000458906200067e565b6200046a979695949392919062000f2a565b604051809103906000f08015801562000487573d6000803e3d6000fd5b509080600181540180825580915050600190039060005260206000200160009091909190916101000a81548173ffffffffffffffffffffffffffffffffffffffff021916908373ffffffffffffffffffffffffffffffffffffffff160217905550600160003373ffffffffffffffffffffffffffffffffffffffff1673ffffffffffffffffffffffffffffffffffffffff16815260200190815260200160002060030160008154809291906200053d9062000feb565b919050555060036000815480929190620005579062000feb565b9190505550505050505050565b6200056e6200068c565b600160008373ffffffffffffffffffffffffffffffffffffffff1673ffffffffffffffffffffffffffffffffffffffff168152602001908152602001600020604051806080016040529081600082018054806020026020016040519081016040528092919081815260200182805480156200063f57602002820191906000526020600020905b8160009054906101000a900473ffffffffffffffffffffffffffffffffffffffff1673ffffffffffffffffffffffffffffffffffffffff1681526020019060010190808311620005f4575b505050505081526020016001820160009054906101000a900460ff16151515158152602001600282015481526020016003820154815250509050919050565b613e57806200103983390190565b60405180608001604052806060815260200160001515815260200160008152602001600081525090565b6000604051905090565b600080fd5b600080fd5b6000819050919050565b620006df81620006ca565b8114620006eb57600080fd5b50565b600081359050620006ff81620006d4565b92915050565b6000602082840312156200071e576200071d620006c0565b5b60006200072e84828501620006ee565b91505092915050565b600073ffffffffffffffffffffffffffffffffffffffff82169050919050565b6000620007648262000737565b9050919050565b620007768162000757565b82525050565b60006020820190506200079360008301846200076b565b92915050565b620007a48162000757565b8114620007b057600080fd5b50565b600081359050620007c48162000799565b92915050565b600060208284031215620007e357620007e2620006c0565b5b6000620007f384828501620007b3565b91505092915050565b600081519050919050565b600082825260208201905092915050565b6000819050602082019050919050565b6000819050919050565b6000620008536200084d620008478462000737565b62000828565b62000737565b9050919050565b6000620008678262000832565b9050919050565b60006200087b826200085a565b9050919050565b6200088d816200086e565b82525050565b6000620008a1838362000882565b60208301905092915050565b6000602082019050919050565b6000620008c782620007fc565b620008d3818562000807565b9350620008e08362000818565b8060005b8381101562000917578151620008fb888262000893565b97506200090883620008ad565b925050600181019050620008e4565b5085935050505092915050565b60006020820190508181036000830152620009408184620008ba565b905092915050565b6200095381620006ca565b82525050565b600060208201905062000970600083018462000948565b92915050565b600080fd5b600080fd5b6000601f19601f8301169050919050565b7f4e487b7100000000000000000000000000000000000000000000000000000000600052604160045260246000fd5b620009cb8262000980565b810181811067ffffffffffffffff82111715620009ed57620009ec62000991565b5b80604052505050565b600062000a02620006b6565b905062000a108282620009c0565b919050565b600067ffffffffffffffff82111562000a335762000a3262000991565b5b62000a3e8262000980565b9050602081019050919050565b82818337600083830152505050565b600062000a7162000a6b8462000a15565b620009f6565b90508281526020810184848401111562000a905762000a8f6200097b565b5b62000a9d84828562000a4b565b509392505050565b600082601f83011262000abd5762000abc62000976565b5b813562000acf84826020860162000a5a565b91505092915050565b600067ffffffffffffffff82111562000af65762000af562000991565b5b602082029050602081019050919050565b600080fd5b600062000b2362000b1d8462000ad8565b620009f6565b9050808382526020820190506020840283018581111562000b495762000b4862000b07565b5b835b8181101562000b76578062000b618882620006ee565b84526020840193505060208101905062000b4b565b5050509392505050565b600082601f83011262000b985762000b9762000976565b5b813562000baa84826020860162000b0c565b91505092915050565b60008060008060008060c0878903121562000bd35762000bd2620006c0565b5b600087013567ffffffffffffffff81111562000bf45762000bf3620006c5565b5b62000c0289828a0162000aa5565b965050602087013567ffffffffffffffff81111562000c265762000c25620006c5565b5b62000c3489828a0162000aa5565b955050604062000c4789828a01620006ee565b945050606062000c5a89828a01620006ee565b935050608062000c6d89828a01620006ee565b92505060a087013567ffffffffffffffff81111562000c915762000c90620006c5565b5b62000c9f89828a0162000b80565b9150509295509295509295565b600082825260208201905092915050565b600062000cca82620007fc565b62000cd6818562000cac565b935062000ce38362000818565b8060005b8381101562000d1a57815162000cfe888262000893565b975062000d0b83620008ad565b92505060018101905062000ce7565b5085935050505092915050565b60008115159050919050565b62000d3e8162000d27565b82525050565b62000d4f81620006ca565b82525050565b6000608083016000830151848203600086015262000d74828262000cbd565b915050602083015162000d8b602086018262000d33565b50604083015162000da0604086018262000d44565b50606083015162000db5606086018262000d44565b508091505092915050565b6000602082019050818103600083015262000ddc818462000d55565b905092915050565b600081519050919050565b600082825260208201905092915050565b60005b8381101562000e2057808201518184015260208101905062000e03565b60008484015250505050565b600062000e398262000de4565b62000e45818562000def565b935062000e5781856020860162000e00565b62000e628162000980565b840191505092915050565b600081519050919050565b600082825260208201905092915050565b6000819050602082019050919050565b600062000ea7838362000d44565b60208301905092915050565b6000602082019050919050565b600062000ecd8262000e6d565b62000ed9818562000e78565b935062000ee68362000e89565b8060005b8381101562000f1d57815162000f01888262000e99565b975062000f0e8362000eb3565b92505060018101905062000eea565b5085935050505092915050565b600060e082019050818103600083015262000f46818a62000e2c565b9050818103602083015262000f5c818962000e2c565b905062000f6d60408301886200076b565b62000f7c606083018762000948565b62000f8b608083018662000948565b62000f9a60a083018562000948565b81810360c083015262000fae818462000ec0565b905098975050505050505050565b7f4e487b7100000000000000000000000000000000000000000000000000000000600052601160045260246000fd5b600062000ff882620006ca565b91507fffffffffffffffffffffffffffffffffffffffffffffffffffffffffffffffff82036200102d576200102c62000fbc565b5b60018201905091905056fe60806040526001600b553480156200001657600080fd5b5060405162003e5738038062003e5783398181016040528101906200003c9190620005ad565b86600090816200004d9190620008fe565b5085600190816200005f9190620008fe565b5084600260006101000a81548173ffffffffffffffffffffffffffffffffffffffff021916908373ffffffffffffffffffffffffffffffffffffffff1602179055506201518084620000b2919062000a14565b6004819055506201518083620000c9919062000a14565b6005819055508160068190555084604051620000e59062000291565b620000f1919062000a84565b604051809103906000f0801580156200010e573d6000803e3d6000fd5b50600360006101000a81548173ffffffffffffffffffffffffffffffffffffffff021916908373ffffffffffffffffffffffffffffffffffffffff160217905550600060045460055462000163919062000ad0565b905060008111620001ab576040517f08c379a0000000000000000000000000000000000000000000000000000000008152600401620001a29062000b69565b60405180910390fd5b600042905060005b828110156200026657600a6040518060400160405280868481518110620001df57620001de62000b8b565b5b6020026020010151815260200160045485620001fc919062000bba565b815250908060018154018082558091505060019003906000526020600020906002020160009091909190915060008201518160000155602082015181600101555050600454826200024e919062000bba565b915080806200025d9062000bf5565b915050620001b3565b506001600760006101000a81548160ff02191690831515021790555050505050505050505062000c42565b6113e78062002a7083390190565b6000604051905090565b600080fd5b600080fd5b600080fd5b600080fd5b6000601f19601f8301169050919050565b7f4e487b7100000000000000000000000000000000000000000000000000000000600052604160045260246000fd5b6200030882620002bd565b810181811067ffffffffffffffff821117156200032a5762000329620002ce565b5b80604052505050565b60006200033f6200029f565b90506200034d8282620002fd565b919050565b600067ffffffffffffffff82111562000370576200036f620002ce565b5b6200037b82620002bd565b9050602081019050919050565b60005b83811015620003a85780820151818401526020810190506200038b565b60008484015250505050565b6000620003cb620003c58462000352565b62000333565b905082815260208101848484011115620003ea57620003e9620002b8565b5b620003f784828562000388565b509392505050565b600082601f830112620004175762000416620002b3565b5b815162000429848260208601620003b4565b91505092915050565b600073ffffffffffffffffffffffffffffffffffffffff82169050919050565b60006200045f8262000432565b9050919050565b620004718162000452565b81146200047d57600080fd5b50565b600081519050620004918162000466565b92915050565b6000819050919050565b620004ac8162000497565b8114620004b857600080fd5b50565b600081519050620004cc81620004a1565b92915050565b600067ffffffffffffffff821115620004f057620004ef620002ce565b5b602082029050602081019050919050565b600080fd5b60006200051d6200051784620004d2565b62000333565b9050808382526020820190506020840283018581111562000543576200054262000501565b5b835b818110156200057057806200055b8882620004bb565b84526020840193505060208101905062000545565b5050509392505050565b600082601f830112620005925762000591620002b3565b5b8151620005a484826020860162000506565b91505092915050565b600080600080600080600060e0888a031215620005cf57620005ce620002a9565b5b600088015167ffffffffffffffff811115620005f057620005ef620002ae565b5b620005fe8a828b01620003ff565b975050602088015167ffffffffffffffff811115620006225762000621620002ae565b5b620006308a828b01620003ff565b9650506040620006438a828b0162000480565b9550506060620006568a828b01620004bb565b9450506080620006698a828b01620004bb565b93505060a06200067c8a828b01620004bb565b92505060c088015167ffffffffffffffff811115620006a0576200069f620002ae565b5b620006ae8a828b016200057a565b91505092959891949750929550565b600081519050919050565b7f4e487b7100000000000000000000000000000000000000000000000000000000600052602260045260246000fd5b600060028204905060018216806200071057607f821691505b602082108103620007265762000725620006c8565b5b50919050565b60008190508160005260206000209050919050565b60006020601f8301049050919050565b600082821b905092915050565b600060088302620007907fffffffffffffffffffffffffffffffffffffffffffffffffffffffffffffffff8262000751565b6200079c868362000751565b95508019841693508086168417925050509392505050565b6000819050919050565b6000620007df620007d9620007d38462000497565b620007b4565b62000497565b9050919050565b6000819050919050565b620007fb83620007be565b620008136200080a82620007e6565b8484546200075e565b825550505050565b600090565b6200082a6200081b565b62000837818484620007f0565b505050565b5b818110156200085f576200085360008262000820565b6001810190506200083d565b5050565b601f821115620008ae5762000878816200072c565b620008838462000741565b8101602085101562000893578190505b620008ab620008a28562000741565b8301826200083c565b50505b505050565b600082821c905092915050565b6000620008d360001984600802620008b3565b1980831691505092915050565b6000620008ee8383620008c0565b9150826002028217905092915050565b6200090982620006bd565b67ffffffffffffffff811115620009255762000924620002ce565b5b620009318254620006f7565b6200093e82828562000863565b600060209050601f83116001811462000976576000841562000961578287015190505b6200096d8582620008e0565b865550620009dd565b601f19841662000986866200072c565b60005b82811015620009b05784890151825560018201915060208501945060208101905062000989565b86831015620009d05784890151620009cc601f891682620008c0565b8355505b6001600288020188555050505b505050505050565b7f4e487b7100000000000000000000000000000000000000000000000000000000600052601160045260246000fd5b600062000a218262000497565b915062000a2e8362000497565b925082820262000a3e8162000497565b9150828204841483151762000a585762000a57620009e5565b5b5092915050565b600062000a6c8262000432565b9050919050565b62000a7e8162000a5f565b82525050565b600060208201905062000a9b600083018462000a73565b92915050565b7f4e487b7100000000000000000000000000000000000000000000000000000000600052601260045260246000fd5b600062000add8262000497565b915062000aea8362000497565b92508262000afd5762000afc62000aa1565b5b828204905092915050565b600082825260208201905092915050565b7f496e76616c696420506572696f64000000000000000000000000000000000000600082015250565b600062000b51600e8362000b08565b915062000b5e8262000b19565b602082019050919050565b6000602082019050818103600083015262000b848162000b42565b9050919050565b7f4e487b7100000000000000000000000000000000000000000000000000000000600052603260045260246000fd5b600062000bc78262000497565b915062000bd48362000497565b925082820190508082111562000bef5762000bee620009e5565b5b92915050565b600062000c028262000497565b91507fffffffffffffffffffffffffffffffffffffffffffffffffffffffffffffffff820362000c375762000c36620009e5565b5b600182019050919050565b611e1e8062000c526000396000f3fe6080604052600436106100f35760003560e01c80636f7bc9be1161008a578063c435cf2d11610059578063c435cf2d146102eb578063dffde3ce14610316578063e2fdcc1714610341578063ec3246a21461036c576100f3565b80636f7bc9be1461024c5780637284e4161461028b5780639c105582146102b6578063b8484231146102c0576100f3565b80633ba8e565116100c65780633ba8e565146101b6578063590e1ae3146101f35780635bf5d54c1461020a57806369d8957514610235576100f3565b806305760a5a146100f857806306fdde03146101235780630bfd1a111461014e578063344612c71461018b575b600080fd5b34801561010457600080fd5b5061010d610395565b60405161011a9190610f2d565b60405180910390f35b34801561012f57600080fd5b5061013861039b565b6040516101459190610fd8565b60405180910390f35b34801561015a57600080fd5b506101756004803603810190610170919061103a565b610429565b60405161018291906110a5565b60405180910390f35b34801561019757600080fd5b506101a06104d7565b6040516101ad9190610f2d565b60405180910390f35b3480156101c257600080fd5b506101dd60048036038101906101d8919061103a565b6104dd565b6040516101ea9190611101565b60405180910390f35b3480156101ff57600080fd5b5061020861051c565b005b34801561021657600080fd5b5061021f6106af565b60405161022c9190610f2d565b60405180910390f35b34801561024157600080fd5b5061024a6106b5565b005b34801561025857600080fd5b50610273600480360381019061026e9190611148565b610842565b60405161028293929190611190565b60405180910390f35b34801561029757600080fd5b506102a0610921565b6040516102ad9190610fd8565b60405180910390f35b6102be6109af565b005b3480156102cc57600080fd5b506102d5610b45565b6040516102e29190610f2d565b60405180910390f35b3480156102f757600080fd5b50610300610be8565b60405161030d919061120c565b60405180910390f35b34801561032257600080fd5b5061032b610c90565b6040516103389190610f2d565b60405180910390f35b34801561034d57600080fd5b50610356610c96565b6040516103639190611286565b60405180910390f35b34801561037857600080fd5b50610393600480360381019061038e91906113d6565b610cbc565b005b60045481565b600080546103a89061144e565b80601f01602080910402602001604051908101604052809291908181526020018280546103d49061144e565b80156104215780601f106103f657610100808354040283529160200191610421565b820191906000526020600020905b81548152906001019060200180831161040457829003601f168201915b505050505081565b610431610ede565b60045460055461044191906114dd565b821115610483576040517f08c379a000000000000000000000000000000000000000000000000000000000815260040161047a9061155a565b60405180910390fd5b600a600183610492919061157a565b815481106104a3576104a26115ae565b5b9060005260206000209060020201604051806040016040529081600082015481526020016001820154815250509050919050565b60065481565b600981815481106104ed57600080fd5b906000526020600020016000915054906101000a900473ffffffffffffffffffffffffffffffffffffffff1681565b600860003373ffffffffffffffffffffffffffffffffffffffff1673ffffffffffffffffffffffffffffffffffffffff16815260200190815260200160002060010160149054906101000a900460ff166105ab576040517f08c379a00000000000000000000000000000000000000000000000000000000081526004016105a29061164f565b60405180910390fd5b600360009054906101000a900473ffffffffffffffffffffffffffffffffffffffff1673ffffffffffffffffffffffffffffffffffffffff1663fa89401a336040518263ffffffff1660e01b81526004016106069190611101565b600060405180830381600087803b15801561062057600080fd5b505af1158015610634573d6000803e3d6000fd5b505050507f1b7ba75643ab42927a47f2481d63cb47a9cd2dca64188a70849cf8e6ccd9db0f600860003373ffffffffffffffffffffffffffffffffffffffff1673ffffffffffffffffffffffffffffffffffffffff1681526020019081526020016000206040516106a59190611803565b60405180910390a1565b600b5481565b6004546005546106c591906114dd565b600b541115610709576040517f08c379a00000000000000000000000000000000000000000000000000000000081526004016107009061155a565b60405180910390fd5b6000600a6001600b5461071c919061157a565b8154811061072d5761072c6115ae565b5b9060005260206000209060020201604051806040016040529081600082015481526020016001820154815250509050600360009054906101000a900473ffffffffffffffffffffffffffffffffffffffff1673ffffffffffffffffffffffffffffffffffffffff1663efcf51cc600983600001516040518363ffffffff1660e01b81526004016107be9291906118f3565b600060405180830381600087803b1580156107d857600080fd5b505af11580156107ec573d6000803e3d6000fd5b50505050600b600081548092919061080390611923565b91905055507febd00f8ace8c792e860ab7480ca7578b8eea2859bcc1ae0ceff6488370a72a118160405161083791906110a5565b60405180910390a150565b60086020528060005260406000206000915090508060000180546108659061144e565b80601f01602080910402602001604051908101604052809291908181526020018280546108919061144e565b80156108de5780601f106108b3576101008083540402835291602001916108de565b820191906000526020600020905b8154815290600101906020018083116108c157829003601f168201915b5050505050908060010160009054906101000a900473ffffffffffffffffffffffffffffffffffffffff16908060010160149054906101000a900460ff16905083565b6001805461092e9061144e565b80601f016020809104026020016040519081016040528092919081815260200182805461095a9061144e565b80156109a75780601f1061097c576101008083540402835291602001916109a7565b820191906000526020600020905b81548152906001019060200180831161098a57829003601f168201915b505050505081565b600860003373ffffffffffffffffffffffffffffffffffffffff1673ffffffffffffffffffffffffffffffffffffffff16815260200190815260200160002060010160149054906101000a900460ff16610a3e576040517f08c379a0000000000000000000000000000000000000000000000000000000008152600401610a35906119dd565b60405180910390fd5b600360009054906101000a900473ffffffffffffffffffffffffffffffffffffffff1673ffffffffffffffffffffffffffffffffffffffff1663f340fa0134336040518363ffffffff1660e01b8152600401610a9a9190611101565b6000604051808303818588803b158015610ab357600080fd5b505af1158015610ac7573d6000803e3d6000fd5b50505050507fadaf7b0a13ca988bb7ec352abeea5619f1865a53553dbd99c06a1089cbdf8a4d600860003373ffffffffffffffffffffffffffffffffffffffff1673ffffffffffffffffffffffffffffffffffffffff16815260200190815260200160002034604051610b3b9291906119fd565b60405180910390a1565b6000600360009054906101000a900473ffffffffffffffffffffffffffffffffffffffff1673ffffffffffffffffffffffffffffffffffffffff16639e0b51fb336040518263ffffffff1660e01b8152600401610ba29190611101565b602060405180830381865afa158015610bbf573d6000803e3d6000fd5b505050506040513d601f19601f82011682018060405250810190610be39190611a42565b905090565b610bf0610ef8565b600360009054906101000a900473ffffffffffffffffffffffffffffffffffffffff1673ffffffffffffffffffffffffffffffffffffffff1663bcad0083336040518263ffffffff1660e01b8152600401610c4b9190611101565b6040805180830381865afa158015610c67573d6000803e3d6000fd5b505050506040513d601f19601f82011682018060405250810190610c8b9190611af0565b905090565b60055481565b600360009054906101000a900473ffffffffffffffffffffffffffffffffffffffff1681565b600860003373ffffffffffffffffffffffffffffffffffffffff1673ffffffffffffffffffffffffffffffffffffffff16815260200190815260200160002060010160149054906101000a900460ff1615610d4c576040517f08c379a0000000000000000000000000000000000000000000000000000000008152600401610d4390611b69565b60405180910390fd5b33600860003373ffffffffffffffffffffffffffffffffffffffff1673ffffffffffffffffffffffffffffffffffffffff16815260200190815260200160002060010160006101000a81548173ffffffffffffffffffffffffffffffffffffffff021916908373ffffffffffffffffffffffffffffffffffffffff16021790555080600860003373ffffffffffffffffffffffffffffffffffffffff1673ffffffffffffffffffffffffffffffffffffffff1681526020019081526020016000206000019081610e1c9190611d16565b506001600860003373ffffffffffffffffffffffffffffffffffffffff1673ffffffffffffffffffffffffffffffffffffffff16815260200190815260200160002060010160146101000a81548160ff0219169083151502179055506009339080600181540180825580915050600190039060005260206000200160009091909190916101000a81548173ffffffffffffffffffffffffffffffffffffffff021916908373ffffffffffffffffffffffffffffffffffffffff16021790555050565b604051806040016040528060008152602001600081525090565b6040518060400160405280600081526020016000151581525090565b6000819050919050565b610f2781610f14565b82525050565b6000602082019050610f426000830184610f1e565b92915050565b600081519050919050565b600082825260208201905092915050565b60005b83811015610f82578082015181840152602081019050610f67565b60008484015250505050565b6000601f19601f8301169050919050565b6000610faa82610f48565b610fb48185610f53565b9350610fc4818560208601610f64565b610fcd81610f8e565b840191505092915050565b60006020820190508181036000830152610ff28184610f9f565b905092915050565b6000604051905090565b600080fd5b600080fd5b61101781610f14565b811461102257600080fd5b50565b6000813590506110348161100e565b92915050565b6000602082840312156110505761104f611004565b5b600061105e84828501611025565b91505092915050565b61107081610f14565b82525050565b60408201600082015161108c6000850182611067565b50602082015161109f6020850182611067565b50505050565b60006040820190506110ba6000830184611076565b92915050565b600073ffffffffffffffffffffffffffffffffffffffff82169050919050565b60006110eb826110c0565b9050919050565b6110fb816110e0565b82525050565b600060208201905061111660008301846110f2565b92915050565b611125816110e0565b811461113057600080fd5b50565b6000813590506111428161111c565b92915050565b60006020828403121561115e5761115d611004565b5b600061116c84828501611133565b91505092915050565b60008115159050919050565b61118a81611175565b82525050565b600060608201905081810360008301526111aa8186610f9f565b90506111b960208301856110f2565b6111c66040830184611181565b949350505050565b6111d781611175565b82525050565b6040820160008201516111f36000850182611067565b50602082015161120660208501826111ce565b50505050565b600060408201905061122160008301846111dd565b92915050565b6000819050919050565b600061124c611247611242846110c0565b611227565b6110c0565b9050919050565b600061125e82611231565b9050919050565b600061127082611253565b9050919050565b61128081611265565b82525050565b600060208201905061129b6000830184611277565b92915050565b600080fd5b600080fd5b7f4e487b7100000000000000000000000000000000000000000000000000000000600052604160045260246000fd5b6112e382610f8e565b810181811067ffffffffffffffff82111715611302576113016112ab565b5b80604052505050565b6000611315610ffa565b905061132182826112da565b919050565b600067ffffffffffffffff821115611341576113406112ab565b5b61134a82610f8e565b9050602081019050919050565b82818337600083830152505050565b600061137961137484611326565b61130b565b905082815260208101848484011115611395576113946112a6565b5b6113a0848285611357565b509392505050565b600082601f8301126113bd576113bc6112a1565b5b81356113cd848260208601611366565b91505092915050565b6000602082840312156113ec576113eb611004565b5b600082013567ffffffffffffffff81111561140a57611409611009565b5b611416848285016113a8565b91505092915050565b7f4e487b7100000000000000000000000000000000000000000000000000000000600052602260045260246000fd5b6000600282049050600182168061146657607f821691505b6020821081036114795761147861141f565b5b50919050565b7f4e487b7100000000000000000000000000000000000000000000000000000000600052601260045260246000fd5b7f4e487b7100000000000000000000000000000000000000000000000000000000600052601160045260246000fd5b60006114e882610f14565b91506114f383610f14565b9250826115035761150261147f565b5b828204905092915050565b7f496e76616c6964205374616765204e6f2e000000000000000000000000000000600082015250565b6000611544601183610f53565b915061154f8261150e565b602082019050919050565b6000602082019050818103600083015261157381611537565b9050919050565b600061158582610f14565b915061159083610f14565b92508282039050818111156115a8576115a76114ae565b5b92915050565b7f4e487b7100000000000000000000000000000000000000000000000000000000600052603260045260246000fd5b7f4f6e6c7920696e766573746f72732063616e2063616c6c20746869732066756e60008201527f6374696f6e000000000000000000000000000000000000000000000000000000602082015250565b6000611639602583610f53565b9150611644826115dd565b604082019050919050565b600060208201905081810360008301526116688161162c565b9050919050565b600082825260208201905092915050565b60008190508160005260206000209050919050565b600081546116a28161144e565b6116ac818661166f565b945060018216600081146116c757600181146116dd57611710565b60ff198316865281151560200286019350611710565b6116e685611680565b60005b83811015611708578154818901526001820191506020810190506116e9565b808801955050505b50505092915050565b60008160001c9050919050565b600073ffffffffffffffffffffffffffffffffffffffff82169050919050565b600061175961175483611719565b611726565b9050919050565b611769816110e0565b82525050565b60008160a01c9050919050565b600060ff82169050919050565b600061179c6117978361176f565b61177c565b9050919050565b600060608301600080840185830360008701526117c08382611695565b925050600184015490506117d381611746565b6117e06020870182611760565b506117ea81611789565b6117f760408701826111ce565b50819250505092915050565b6000602082019050818103600083015261181d81846117a3565b905092915050565b600081549050919050565b600082825260208201905092915050565b60008190508160005260206000209050919050565b60006118628383611760565b60208301905092915050565b600061187a8254611746565b9050919050565b6000600182019050919050565b600061189982611825565b6118a38185611830565b93506118ae83611841565b8060005b838110156118e6576118c38261186e565b6118cd8882611856565b97506118d883611881565b9250506001810190506118b2565b5085935050505092915050565b6000604082019050818103600083015261190d818561188e565b905061191c6020830184610f1e565b9392505050565b600061192e82610f14565b91507fffffffffffffffffffffffffffffffffffffffffffffffffffffffffffffffff82036119605761195f6114ae565b5b600182019050919050565b7f506c6561736520526567697374657220617320696e766573746f72206265666f60008201527f726520706c656467696e672066756e6473000000000000000000000000000000602082015250565b60006119c7603183610f53565b91506119d28261196b565b604082019050919050565b600060208201905081810360008301526119f6816119ba565b9050919050565b60006040820190508181036000830152611a1781856117a3565b9050611a266020830184610f1e565b9392505050565b600081519050611a3c8161100e565b92915050565b600060208284031215611a5857611a57611004565b5b6000611a6684828501611a2d565b91505092915050565b600080fd5b611a7d81611175565b8114611a8857600080fd5b50565b600081519050611a9a81611a74565b92915050565b600060408284031215611ab657611ab5611a6f565b5b611ac0604061130b565b90506000611ad084828501611a2d565b6000830152506020611ae484828501611a8b565b60208301525092915050565b600060408284031215611b0657611b05611004565b5b6000611b1484828501611aa0565b91505092915050565b7f416c726561647920526567697374657265640000000000000000000000000000600082015250565b6000611b53601283610f53565b9150611b5e82611b1d565b602082019050919050565b60006020820190508181036000830152611b8281611b46565b9050919050565b60006020601f8301049050919050565b600082821b905092915050565b600060088302611bd67fffffffffffffffffffffffffffffffffffffffffffffffffffffffffffffffff82611b99565b611be08683611b99565b95508019841693508086168417925050509392505050565b6000611c13611c0e611c0984610f14565b611227565b610f14565b9050919050565b6000819050919050565b611c2d83611bf8565b611c41611c3982611c1a565b848454611ba6565b825550505050565b600090565b611c56611c49565b611c61818484611c24565b505050565b5b81811015611c8557611c7a600082611c4e565b600181019050611c67565b5050565b601f821115611cca57611c9b81611680565b611ca484611b89565b81016020851015611cb3578190505b611cc7611cbf85611b89565b830182611c66565b50505b505050565b600082821c905092915050565b6000611ced60001984600802611ccf565b1980831691505092915050565b6000611d068383611cdc565b9150826002028217905092915050565b611d1f82610f48565b67ffffffffffffffff811115611d3857611d376112ab565b5b611d42825461144e565b611d4d828285611c89565b600060209050601f831160018114611d805760008415611d6e578287015190505b611d788582611cfa565b865550611de0565b601f198416611d8e86611680565b60005b82811015611db657848901518255600182019150602085019450602081019050611d91565b86831015611dd35784890151611dcf601f891682611cdc565b8355505b6001600288020188555050505b50505050505056fea2646970667358221220570e438eca3fb82a16af253054e7e236e4bf8f8f5d9b87d0f068d9a037a5a76a64736f6c6343000811003360806040523480156200001157600080fd5b50604051620013e7380380620013e7833981810160405281019062000037919062000157565b60008060006101000a81548160ff021916908360018111156200005f576200005e62000189565b5b021790555080600260006101000a81548173ffffffffffffffffffffffffffffffffffffffff021916908373ffffffffffffffffffffffffffffffffffffffff16021790555033600360006101000a81548173ffffffffffffffffffffffffffffffffffffffff021916908373ffffffffffffffffffffffffffffffffffffffff16021790555050620001b8565b600080fd5b600073ffffffffffffffffffffffffffffffffffffffff82169050919050565b60006200011f82620000f2565b9050919050565b620001318162000112565b81146200013d57600080fd5b50565b600081519050620001518162000126565b92915050565b60006020828403121562000170576200016f620000ed565b5b6000620001808482850162000140565b91505092915050565b7f4e487b7100000000000000000000000000000000000000000000000000000000600052602160045260246000fd5b61121f80620001c86000396000f3fe6080604052600436106100705760003560e01c8063bcad00831161004e578063bcad0083146100f4578063efcf51cc14610131578063f340fa011461015a578063fa89401a1461017657610070565b806308551a53146100755780639e0b51fb146100a0578063a369db8d146100dd575b600080fd5b34801561008157600080fd5b5061008a61019f565b6040516100979190610b42565b60405180910390f35b3480156100ac57600080fd5b506100c760048036038101906100c29190610ba5565b6101c5565b6040516100d49190610beb565b60405180910390f35b3480156100e957600080fd5b506100f26102b9565b005b34801561010057600080fd5b5061011b60048036038101906101169190610ba5565b61042b565b6040516101289190610c5f565b60405180910390f35b34801561013d57600080fd5b5061015860048036038101906101539190610d0b565b61053a565b005b610174600480360381019061016f9190610ba5565b610823565b005b34801561018257600080fd5b5061019d60048036038101906101989190610ba5565b61094c565b005b600260009054906101000a900473ffffffffffffffffffffffffffffffffffffffff1681565b600081600160008273ffffffffffffffffffffffffffffffffffffffff1673ffffffffffffffffffffffffffffffffffffffff16815260200190815260200160002060010160009054906101000a900460ff16610257576040517f08c379a000000000000000000000000000000000000000000000000000000000815260040161024e90610dee565b60405180910390fd5b476064600160008673ffffffffffffffffffffffffffffffffffffffff1673ffffffffffffffffffffffffffffffffffffffff168152602001908152602001600020600001546102a79190610e3d565b6102b19190610eae565b915050919050565b600360009054906101000a900473ffffffffffffffffffffffffffffffffffffffff1673ffffffffffffffffffffffffffffffffffffffff163373ffffffffffffffffffffffffffffffffffffffff1614610349576040517f08c379a000000000000000000000000000000000000000000000000000000000815260040161034090610f51565b60405180910390fd5b60004711156103bc57600260009054906101000a900473ffffffffffffffffffffffffffffffffffffffff1673ffffffffffffffffffffffffffffffffffffffff166108fc479081150290604051600060405180830381858888f193505050501580156103ba573d6000803e3d6000fd5b505b60016000806101000a81548160ff021916908360018111156103e1576103e0610f71565b5b021790555060004714610429576040517f08c379a000000000000000000000000000000000000000000000000000000000815260040161042090611012565b60405180910390fd5b565b610433610ae5565b81600160008273ffffffffffffffffffffffffffffffffffffffff1673ffffffffffffffffffffffffffffffffffffffff16815260200190815260200160002060010160009054906101000a900460ff166104c3576040517f08c379a00000000000000000000000000000000000000000000000000000000081526004016104ba90610dee565b60405180910390fd5b600160008473ffffffffffffffffffffffffffffffffffffffff1673ffffffffffffffffffffffffffffffffffffffff168152602001908152602001600020604051806040016040529081600082015481526020016001820160009054906101000a900460ff161515151581525050915050919050565b600360009054906101000a900473ffffffffffffffffffffffffffffffffffffffff1673ffffffffffffffffffffffffffffffffffffffff163373ffffffffffffffffffffffffffffffffffffffff16146105ca576040517f08c379a00000000000000000000000000000000000000000000000000000000081526004016105c190610f51565b60405180910390fd5b60005b8383905081101561081d576000476064600160008888878181106105f4576105f3611032565b5b90506020020160208101906106099190610ba5565b73ffffffffffffffffffffffffffffffffffffffff1673ffffffffffffffffffffffffffffffffffffffff168152602001908152602001600020600001546106519190610e3d565b61065b9190610eae565b9050478311156106a0576040517f08c379a0000000000000000000000000000000000000000000000000000000008152600401610697906110ad565b60405180910390fd5b600260009054906101000a900473ffffffffffffffffffffffffffffffffffffffff1673ffffffffffffffffffffffffffffffffffffffff166108fc849081150290604051600060405180830381858888f19350505050158015610708573d6000803e3d6000fd5b506064816001600088888781811061072357610722611032565b5b90506020020160208101906107389190610ba5565b73ffffffffffffffffffffffffffffffffffffffff1673ffffffffffffffffffffffffffffffffffffffff168152602001908152602001600020600001546107809190610e3d565b61078a9190610eae565b600160008787868181106107a1576107a0611032565b5b90506020020160208101906107b69190610ba5565b73ffffffffffffffffffffffffffffffffffffffff1673ffffffffffffffffffffffffffffffffffffffff168152602001908152602001600020600001600082825461080291906110cd565b9250508190555050808061081590611101565b9150506105cd565b50505050565b60018081111561083657610835610f71565b5b60008054906101000a900460ff16600181111561085657610855610f71565b5b03610896576040517f08c379a000000000000000000000000000000000000000000000000000000000815260040161088d90611195565b60405180910390fd5b34600160008373ffffffffffffffffffffffffffffffffffffffff1673ffffffffffffffffffffffffffffffffffffffff16815260200190815260200160002060000160008282546108e891906111b5565b9250508190555060018060008373ffffffffffffffffffffffffffffffffffffffff1673ffffffffffffffffffffffffffffffffffffffff16815260200190815260200160002060010160006101000a81548160ff02191690831515021790555050565b80600160008273ffffffffffffffffffffffffffffffffffffffff1673ffffffffffffffffffffffffffffffffffffffff16815260200190815260200160002060010160009054906101000a900460ff166109dc576040517f08c379a00000000000000000000000000000000000000000000000000000000081526004016109d390610dee565b60405180910390fd5b6000476064600160008673ffffffffffffffffffffffffffffffffffffffff1673ffffffffffffffffffffffffffffffffffffffff16815260200190815260200160002060000154610a2e9190610e3d565b610a389190610eae565b90508273ffffffffffffffffffffffffffffffffffffffff166108fc60648347610a629190610e3d565b610a6c9190610eae565b9081150290604051600060405180830381858888f19350505050158015610a97573d6000803e3d6000fd5b506000600160008573ffffffffffffffffffffffffffffffffffffffff1673ffffffffffffffffffffffffffffffffffffffff16815260200190815260200160002060000181905550505050565b6040518060400160405280600081526020016000151581525090565b600073ffffffffffffffffffffffffffffffffffffffff82169050919050565b6000610b2c82610b01565b9050919050565b610b3c81610b21565b82525050565b6000602082019050610b576000830184610b33565b92915050565b600080fd5b600080fd5b6000610b7282610b01565b9050919050565b610b8281610b67565b8114610b8d57600080fd5b50565b600081359050610b9f81610b79565b92915050565b600060208284031215610bbb57610bba610b5d565b5b6000610bc984828501610b90565b91505092915050565b6000819050919050565b610be581610bd2565b82525050565b6000602082019050610c006000830184610bdc565b92915050565b610c0f81610bd2565b82525050565b60008115159050919050565b610c2a81610c15565b82525050565b604082016000820151610c466000850182610c06565b506020820151610c596020850182610c21565b50505050565b6000604082019050610c746000830184610c30565b92915050565b600080fd5b600080fd5b600080fd5b60008083601f840112610c9f57610c9e610c7a565b5b8235905067ffffffffffffffff811115610cbc57610cbb610c7f565b5b602083019150836020820283011115610cd857610cd7610c84565b5b9250929050565b610ce881610bd2565b8114610cf357600080fd5b50565b600081359050610d0581610cdf565b92915050565b600080600060408486031215610d2457610d23610b5d565b5b600084013567ffffffffffffffff811115610d4257610d41610b62565b5b610d4e86828701610c89565b93509350506020610d6186828701610cf6565b9150509250925092565b600082825260208201905092915050565b7f4f6e6c7920496e766573746f72732063616e2063616c6c207468652066756e6360008201527f74696f6e00000000000000000000000000000000000000000000000000000000602082015250565b6000610dd8602483610d6b565b9150610de382610d7c565b604082019050919050565b60006020820190508181036000830152610e0781610dcb565b9050919050565b7f4e487b7100000000000000000000000000000000000000000000000000000000600052601160045260246000fd5b6000610e4882610bd2565b9150610e5383610bd2565b9250828202610e6181610bd2565b91508282048414831517610e7857610e77610e0e565b5b5092915050565b7f4e487b7100000000000000000000000000000000000000000000000000000000600052601260045260246000fd5b6000610eb982610bd2565b9150610ec483610bd2565b925082610ed457610ed3610e7f565b5b828204905092915050565b7f4f6e6c79206f776e6572732063616e2063616c6c207468652066756e6374696f60008201527f6e00000000000000000000000000000000000000000000000000000000000000602082015250565b6000610f3b602183610d6b565b9150610f4682610edf565b604082019050919050565b60006020820190508181036000830152610f6a81610f2e565b9050919050565b7f4e487b7100000000000000000000000000000000000000000000000000000000600052602160045260246000fd5b7f42616c616e6365206973207374696c6c206c65667420696e2074686520636f6e60008201527f7472616374000000000000000000000000000000000000000000000000000000602082015250565b6000610ffc602583610d6b565b915061100782610fa0565b604082019050919050565b6000602082019050818103600083015261102b81610fef565b9050919050565b7f4e487b7100000000000000000000000000000000000000000000000000000000600052603260045260246000fd5b7f416d6f756e7420657863656564732062616c616e636500000000000000000000600082015250565b6000611097601683610d6b565b91506110a282611061565b602082019050919050565b600060208201905081810360008301526110c68161108a565b9050919050565b60006110d882610bd2565b91506110e383610bd2565b92508282039050818111156110fb576110fa610e0e565b5b92915050565b600061110c82610bd2565b91507fffffffffffffffffffffffffffffffffffffffffffffffffffffffffffffffff820361113e5761113d610e0e565b5b600182019050919050565b7f416c726561647920506169640000000000000000000000000000000000000000600082015250565b600061117f600c83610d6b565b915061118a82611149565b602082019050919050565b600060208201905081810360008301526111ae81611172565b9050919050565b60006111c082610bd2565b91506111cb83610bd2565b92508282019050808211156111e3576111e2610e0e565b5b9291505056fea26469706673582212206bf030930813d3ec2708d11be77a8d1b7c30c1130b13888ce97c9300624bc18164736f6c63430008110033a2646970667358221220a4d2489ccc6a1a958451ba0320b599a7d340b7c0e8eefbac0310944d66ca2f5d64736f6c63430008110033",
  "linkReferences": {},
  "deployedLinkReferences": {}
}