{
  "_format": "hh-sol-artifact-1",
  "contractName": "Escrow",
  "sourceName": "contracts/Escrow.sol",
  "abi": [
    {
      "inputs": [
        {
          "internalType": "address payable",
          "name": "_seller",
          "type": "address"
        }
      ],
      "stateMutability": "nonpayable",
      "type": "constructor"
    },
    {
      "inputs": [
        {
          "internalType": "address",
          "name": "_investor",
          "type": "address"
        }
      ],
      "name": "deposit",
      "outputs": [],
      "stateMutability": "payable",
      "type": "function"
    },
    {
      "inputs": [
        {
          "internalType": "address",
          "name": "_investor",
          "type": "address"
        }
      ],
      "name": "getInvestmentRatio",
      "outputs": [
        {
          "internalType": "uint256",
          "name": "",
          "type": "uint256"
        }
      ],
      "stateMutability": "view",
      "type": "function"
    },
    {
      "inputs": [
        {
          "internalType": "address",
          "name": "_investor",
          "type": "address"
        }
      ],
      "name": "getInvestorProfile",
      "outputs": [
        {
          "components": [
            {
              "internalType": "uint256",
              "name": "amount",
              "type": "uint256"
            },
            {
              "internalType": "bool",
              "name": "isValid",
              "type": "bool"
            }
          ],
          "internalType": "struct Escrow.Investment",
          "name": "",
          "type": "tuple"
        }
      ],
      "stateMutability": "view",
      "type": "function"
    },
    {
      "inputs": [],
      "name": "markAsComplete",
      "outputs": [],
      "stateMutability": "nonpayable",
      "type": "function"
    },
    {
      "inputs": [
        {
          "internalType": "address",
          "name": "_investor",
          "type": "address"
        }
      ],
      "name": "refund",
      "outputs": [],
      "stateMutability": "nonpayable",
      "type": "function"
    },
    {
      "inputs": [
        {
          "internalType": "address[]",
          "name": "cInvestors",
          "type": "address[]"
        },
        {
          "internalType": "uint256",
          "name": "amount",
          "type": "uint256"
        }
      ],
      "name": "releaseFundsToSeller",
      "outputs": [],
      "stateMutability": "nonpayable",
      "type": "function"
    },
    {
      "inputs": [],
      "name": "seller",
      "outputs": [
        {
          "internalType": "address payable",
          "name": "",
          "type": "address"
        }
      ],
      "stateMutability": "view",
      "type": "function"
    }
  ],
  "bytecode": "0x60806040523480156200001157600080fd5b50604051620013e7380380620013e7833981810160405281019062000037919062000157565b60008060006101000a81548160ff021916908360018111156200005f576200005e62000189565b5b021790555080600260006101000a81548173ffffffffffffffffffffffffffffffffffffffff021916908373ffffffffffffffffffffffffffffffffffffffff16021790555033600360006101000a81548173ffffffffffffffffffffffffffffffffffffffff021916908373ffffffffffffffffffffffffffffffffffffffff16021790555050620001b8565b600080fd5b600073ffffffffffffffffffffffffffffffffffffffff82169050919050565b60006200011f82620000f2565b9050919050565b620001318162000112565b81146200013d57600080fd5b50565b600081519050620001518162000126565b92915050565b60006020828403121562000170576200016f620000ed565b5b6000620001808482850162000140565b91505092915050565b7f4e487b7100000000000000000000000000000000000000000000000000000000600052602160045260246000fd5b61121f80620001c86000396000f3fe6080604052600436106100705760003560e01c8063bcad00831161004e578063bcad0083146100f4578063efcf51cc14610131578063f340fa011461015a578063fa89401a1461017657610070565b806308551a53146100755780639e0b51fb146100a0578063a369db8d146100dd575b600080fd5b34801561008157600080fd5b5061008a61019f565b6040516100979190610b42565b60405180910390f35b3480156100ac57600080fd5b506100c760048036038101906100c29190610ba5565b6101c5565b6040516100d49190610beb565b60405180910390f35b3480156100e957600080fd5b506100f26102b9565b005b34801561010057600080fd5b5061011b60048036038101906101169190610ba5565b61042b565b6040516101289190610c5f565b60405180910390f35b34801561013d57600080fd5b5061015860048036038101906101539190610d0b565b61053a565b005b610174600480360381019061016f9190610ba5565b610823565b005b34801561018257600080fd5b5061019d60048036038101906101989190610ba5565b61094c565b005b600260009054906101000a900473ffffffffffffffffffffffffffffffffffffffff1681565b600081600160008273ffffffffffffffffffffffffffffffffffffffff1673ffffffffffffffffffffffffffffffffffffffff16815260200190815260200160002060010160009054906101000a900460ff16610257576040517f08c379a000000000000000000000000000000000000000000000000000000000815260040161024e90610dee565b60405180910390fd5b476064600160008673ffffffffffffffffffffffffffffffffffffffff1673ffffffffffffffffffffffffffffffffffffffff168152602001908152602001600020600001546102a79190610e3d565b6102b19190610eae565b915050919050565b600360009054906101000a900473ffffffffffffffffffffffffffffffffffffffff1673ffffffffffffffffffffffffffffffffffffffff163373ffffffffffffffffffffffffffffffffffffffff1614610349576040517f08c379a000000000000000000000000000000000000000000000000000000000815260040161034090610f51565b60405180910390fd5b60004711156103bc57600260009054906101000a900473ffffffffffffffffffffffffffffffffffffffff1673ffffffffffffffffffffffffffffffffffffffff166108fc479081150290604051600060405180830381858888f193505050501580156103ba573d6000803e3d6000fd5b505b60016000806101000a81548160ff021916908360018111156103e1576103e0610f71565b5b021790555060004714610429576040517f08c379a000000000000000000000000000000000000000000000000000000000815260040161042090611012565b60405180910390fd5b565b610433610ae5565b81600160008273ffffffffffffffffffffffffffffffffffffffff1673ffffffffffffffffffffffffffffffffffffffff16815260200190815260200160002060010160009054906101000a900460ff166104c3576040517f08c379a00000000000000000000000000000000000000000000000000000000081526004016104ba90610dee565b60405180910390fd5b600160008473ffffffffffffffffffffffffffffffffffffffff1673ffffffffffffffffffffffffffffffffffffffff168152602001908152602001600020604051806040016040529081600082015481526020016001820160009054906101000a900460ff161515151581525050915050919050565b600360009054906101000a900473ffffffffffffffffffffffffffffffffffffffff1673ffffffffffffffffffffffffffffffffffffffff163373ffffffffffffffffffffffffffffffffffffffff16146105ca576040517f08c379a00000000000000000000000000000000000000000000000000000000081526004016105c190610f51565b60405180910390fd5b60005b8383905081101561081d576000476064600160008888878181106105f4576105f3611032565b5b90506020020160208101906106099190610ba5565b73ffffffffffffffffffffffffffffffffffffffff1673ffffffffffffffffffffffffffffffffffffffff168152602001908152602001600020600001546106519190610e3d565b61065b9190610eae565b9050478311156106a0576040517f08c379a0000000000000000000000000000000000000000000000000000000008152600401610697906110ad565b60405180910390fd5b600260009054906101000a900473ffffffffffffffffffffffffffffffffffffffff1673ffffffffffffffffffffffffffffffffffffffff166108fc849081150290604051600060405180830381858888f19350505050158015610708573d6000803e3d6000fd5b506064816001600088888781811061072357610722611032565b5b90506020020160208101906107389190610ba5565b73ffffffffffffffffffffffffffffffffffffffff1673ffffffffffffffffffffffffffffffffffffffff168152602001908152602001600020600001546107809190610e3d565b61078a9190610eae565b600160008787868181106107a1576107a0611032565b5b90506020020160208101906107b69190610ba5565b73ffffffffffffffffffffffffffffffffffffffff1673ffffffffffffffffffffffffffffffffffffffff168152602001908152602001600020600001600082825461080291906110cd565b9250508190555050808061081590611101565b9150506105cd565b50505050565b60018081111561083657610835610f71565b5b60008054906101000a900460ff16600181111561085657610855610f71565b5b03610896576040517f08c379a000000000000000000000000000000000000000000000000000000000815260040161088d90611195565b60405180910390fd5b34600160008373ffffffffffffffffffffffffffffffffffffffff1673ffffffffffffffffffffffffffffffffffffffff16815260200190815260200160002060000160008282546108e891906111b5565b9250508190555060018060008373ffffffffffffffffffffffffffffffffffffffff1673ffffffffffffffffffffffffffffffffffffffff16815260200190815260200160002060010160006101000a81548160ff02191690831515021790555050565b80600160008273ffffffffffffffffffffffffffffffffffffffff1673ffffffffffffffffffffffffffffffffffffffff16815260200190815260200160002060010160009054906101000a900460ff166109dc576040517f08c379a00000000000000000000000000000000000000000000000000000000081526004016109d390610dee565b60405180910390fd5b6000476064600160008673ffffffffffffffffffffffffffffffffffffffff1673ffffffffffffffffffffffffffffffffffffffff16815260200190815260200160002060000154610a2e9190610e3d565b610a389190610eae565b90508273ffffffffffffffffffffffffffffffffffffffff166108fc60648347610a629190610e3d565b610a6c9190610eae565b9081150290604051600060405180830381858888f19350505050158015610a97573d6000803e3d6000fd5b506000600160008573ffffffffffffffffffffffffffffffffffffffff1673ffffffffffffffffffffffffffffffffffffffff16815260200190815260200160002060000181905550505050565b6040518060400160405280600081526020016000151581525090565b600073ffffffffffffffffffffffffffffffffffffffff82169050919050565b6000610b2c82610b01565b9050919050565b610b3c81610b21565b82525050565b6000602082019050610b576000830184610b33565b92915050565b600080fd5b600080fd5b6000610b7282610b01565b9050919050565b610b8281610b67565b8114610b8d57600080fd5b50565b600081359050610b9f81610b79565b92915050565b600060208284031215610bbb57610bba610b5d565b5b6000610bc984828501610b90565b91505092915050565b6000819050919050565b610be581610bd2565b82525050565b6000602082019050610c006000830184610bdc565b92915050565b610c0f81610bd2565b82525050565b60008115159050919050565b610c2a81610c15565b82525050565b604082016000820151610c466000850182610c06565b506020820151610c596020850182610c21565b50505050565b6000604082019050610c746000830184610c30565b92915050565b600080fd5b600080fd5b600080fd5b60008083601f840112610c9f57610c9e610c7a565b5b8235905067ffffffffffffffff811115610cbc57610cbb610c7f565b5b602083019150836020820283011115610cd857610cd7610c84565b5b9250929050565b610ce881610bd2565b8114610cf357600080fd5b50565b600081359050610d0581610cdf565b92915050565b600080600060408486031215610d2457610d23610b5d565b5b600084013567ffffffffffffffff811115610d4257610d41610b62565b5b610d4e86828701610c89565b93509350506020610d6186828701610cf6565b9150509250925092565b600082825260208201905092915050565b7f4f6e6c7920496e766573746f72732063616e2063616c6c207468652066756e6360008201527f74696f6e00000000000000000000000000000000000000000000000000000000602082015250565b6000610dd8602483610d6b565b9150610de382610d7c565b604082019050919050565b60006020820190508181036000830152610e0781610dcb565b9050919050565b7f4e487b7100000000000000000000000000000000000000000000000000000000600052601160045260246000fd5b6000610e4882610bd2565b9150610e5383610bd2565b9250828202610e6181610bd2565b91508282048414831517610e7857610e77610e0e565b5b5092915050565b7f4e487b7100000000000000000000000000000000000000000000000000000000600052601260045260246000fd5b6000610eb982610bd2565b9150610ec483610bd2565b925082610ed457610ed3610e7f565b5b828204905092915050565b7f4f6e6c79206f776e6572732063616e2063616c6c207468652066756e6374696f60008201527f6e00000000000000000000000000000000000000000000000000000000000000602082015250565b6000610f3b602183610d6b565b9150610f4682610edf565b604082019050919050565b60006020820190508181036000830152610f6a81610f2e565b9050919050565b7f4e487b7100000000000000000000000000000000000000000000000000000000600052602160045260246000fd5b7f42616c616e6365206973207374696c6c206c65667420696e2074686520636f6e60008201527f7472616374000000000000000000000000000000000000000000000000000000602082015250565b6000610ffc602583610d6b565b915061100782610fa0565b604082019050919050565b6000602082019050818103600083015261102b81610fef565b9050919050565b7f4e487b7100000000000000000000000000000000000000000000000000000000600052603260045260246000fd5b7f416d6f756e7420657863656564732062616c616e636500000000000000000000600082015250565b6000611097601683610d6b565b91506110a282611061565b602082019050919050565b600060208201905081810360008301526110c68161108a565b9050919050565b60006110d882610bd2565b91506110e383610bd2565b92508282039050818111156110fb576110fa610e0e565b5b92915050565b600061110c82610bd2565b91507fffffffffffffffffffffffffffffffffffffffffffffffffffffffffffffffff820361113e5761113d610e0e565b5b600182019050919050565b7f416c726561647920506169640000000000000000000000000000000000000000600082015250565b600061117f600c83610d6b565b915061118a82611149565b602082019050919050565b600060208201905081810360008301526111ae81611172565b9050919050565b60006111c082610bd2565b91506111cb83610bd2565b92508282019050808211156111e3576111e2610e0e565b5b9291505056fea26469706673582212206bf030930813d3ec2708d11be77a8d1b7c30c1130b13888ce97c9300624bc18164736f6c63430008110033",
  "linkReferences": {},
  "deployedLinkReferences": {}
}