{
  "_format": "hh-sol-artifact-1",
  "contractName": "VotingFactory",
  "sourceName": "contracts/VotingFactory.sol",
  "abi": [
    {
      "inputs": [],
      "stateMutability": "nonpayable",
      "type": "constructor"
    },
    {
      "inputs": [
        {
          "internalType": "uint256",
          "name": "",
          "type": "uint256"
        }
      ],
      "name": "campaignAddressLUT",
      "outputs": [
        {
          "internalType": "address",
          "name": "",
          "type": "address"
        }
      ],
      "stateMutability": "view",
      "type": "function"
    },
    {
      "inputs": [
        {
          "internalType": "address",
          "name": "",
          "type": "address"
        }
      ],
      "name": "campaignRegister",
      "outputs": [
        {
          "internalType": "bool",
          "name": "isValid",
          "type": "bool"
        }
      ],
      "stateMutability": "view",
      "type": "function"
    },
    {
      "inputs": [
        {
          "internalType": "address",
          "name": "_campaign",
          "type": "address"
        },
        {
          "internalType": "address",
          "name": "_user",
          "type": "address"
        },
        {
          "internalType": "uint256",
          "name": "_stage",
          "type": "uint256"
        }
      ],
      "name": "checkUserVote",
      "outputs": [
        {
          "internalType": "bool",
          "name": "",
          "type": "bool"
        }
      ],
      "stateMutability": "view",
      "type": "function"
    },
    {
      "inputs": [
        {
          "internalType": "address",
          "name": "_campaign",
          "type": "address"
        },
        {
          "internalType": "uint256",
          "name": "_stage",
          "type": "uint256"
        }
      ],
      "name": "checkVote",
      "outputs": [
        {
          "internalType": "bool",
          "name": "",
          "type": "bool"
        }
      ],
      "stateMutability": "view",
      "type": "function"
    },
    {
      "inputs": [
        {
          "internalType": "address",
          "name": "_campaign",
          "type": "address"
        }
      ],
      "name": "createCampaign",
      "outputs": [],
      "stateMutability": "nonpayable",
      "type": "function"
    },
    {
      "inputs": [
        {
          "internalType": "address",
          "name": "_campaign",
          "type": "address"
        },
        {
          "internalType": "uint256",
          "name": "stage",
          "type": "uint256"
        },
        {
          "internalType": "string",
          "name": "powLink",
          "type": "string"
        }
      ],
      "name": "createVote",
      "outputs": [],
      "stateMutability": "nonpayable",
      "type": "function"
    },
    {
      "inputs": [
        {
          "internalType": "address",
          "name": "_campaign",
          "type": "address"
        }
      ],
      "name": "getAllStageVotesOfCampaign",
      "outputs": [
        {
          "internalType": "contract Voting[]",
          "name": "",
          "type": "address[]"
        }
      ],
      "stateMutability": "view",
      "type": "function"
    },
    {
      "inputs": [
        {
          "internalType": "address",
          "name": "_campaign",
          "type": "address"
        },
        {
          "internalType": "uint256",
          "name": "_stage",
          "type": "uint256"
        }
      ],
      "name": "getResult",
      "outputs": [
        {
          "components": [
            {
              "internalType": "uint256",
              "name": "yes",
              "type": "uint256"
            },
            {
              "internalType": "uint256",
              "name": "no",
              "type": "uint256"
            }
          ],
          "internalType": "struct Voting.Result",
          "name": "",
          "type": "tuple"
        }
      ],
      "stateMutability": "view",
      "type": "function"
    },
    {
      "inputs": [
        {
          "internalType": "address",
          "name": "_campaign",
          "type": "address"
        },
        {
          "internalType": "uint256",
          "name": "_stage",
          "type": "uint256"
        }
      ],
      "name": "getStageVote",
      "outputs": [
        {
          "internalType": "contract Voting",
          "name": "",
          "type": "address"
        }
      ],
      "stateMutability": "view",
      "type": "function"
    },
    {
      "inputs": [
        {
          "internalType": "address",
          "name": "_campaign",
          "type": "address"
        },
        {
          "internalType": "address",
          "name": "_user",
          "type": "address"
        },
        {
          "internalType": "uint256",
          "name": "_stage",
          "type": "uint256"
        }
      ],
      "name": "getVoteOfUser",
      "outputs": [
        {
          "internalType": "bool",
          "name": "",
          "type": "bool"
        }
      ],
      "stateMutability": "view",
      "type": "function"
    },
    {
      "inputs": [
        {
          "internalType": "address",
          "name": "_campaign",
          "type": "address"
        },
        {
          "internalType": "address",
          "name": "_user",
          "type": "address"
        },
        {
          "internalType": "uint256",
          "name": "_stage",
          "type": "uint256"
        },
        {
          "internalType": "bool",
          "name": "yes",
          "type": "bool"
        }
      ],
      "name": "vote",
      "outputs": [],
      "stateMutability": "nonpayable",
      "type": "function"
    },
    {
      "inputs": [],
      "name": "voteCount",
      "outputs": [
        {
          "internalType": "uint256",
          "name": "",
          "type": "uint256"
        }
      ],
      "stateMutability": "view",
      "type": "function"
    }
  ],
  "bytecode": "0x608060405234801561001057600080fd5b506000600281905550612a71806100286000396000f3fe60806040523480156200001157600080fd5b5060043610620000c45760003560e01c80639e182ec9116200007b5780639e182ec914620001e1578063c63840711462000217578063c8344a201462000239578063e86a3283146200026f578063eb7f82d1146200028f578063fee8533c14620002c557620000c4565b8063243e21b814620000c95780634b1d270f14620000ff57806357325dbb146200011f5780636fbb91a71462000155578063950e7f93146200018b57806397aceeda14620001ab575b600080fd5b620000e76004803603810190620000e1919062000d4b565b620002fb565b604051620000f6919062000dfd565b60405180910390f35b6200011d600480360381019062000117919062000e1a565b62000394565b005b6200013d600480360381019062000137919062000e4c565b6200044c565b6040516200014c919062000e8f565b60405180910390f35b6200017360048036038101906200016d919062000eac565b6200048c565b60405162000182919062000f25565b60405180910390f35b620001a96004803603810190620001a3919062000f73565b620005a4565b005b620001c96004803603810190620001c3919062000e1a565b620006a9565b604051620001d8919062000f25565b60405180910390f35b620001ff6004803603810190620001f9919062000d4b565b620006d4565b6040516200020e919062000f25565b60405180910390f35b62000221620007de565b60405162000230919062000ff6565b60405180910390f35b62000257600480360381019062000251919062000d4b565b620007e4565b60405162000266919062001057565b60405180910390f35b6200028d6004803603810190620002879190620011d6565b620008f5565b005b620002ad6004803603810190620002a7919062000eac565b620009d8565b604051620002bc919062000f25565b60405180910390f35b620002e36004803603810190620002dd919062000e1a565b62000af0565b604051620002f291906200131f565b60405180910390f35b60008060008473ffffffffffffffffffffffffffffffffffffffff1673ffffffffffffffffffffffffffffffffffffffff1681526020019081526020016000206000016001836200034d919062001372565b81548110620003615762000360620013ad565b5b9060005260206000200160009054906101000a900473ffffffffffffffffffffffffffffffffffffffff16905092915050565b60606040518060400160405280828152602001600115158152506000808473ffffffffffffffffffffffffffffffffffffffff1673ffffffffffffffffffffffffffffffffffffffff16815260200190815260200160002060008201518160000190805190602001906200040a92919062000bc1565b5060208201518160010160006101000a81548160ff021916908315150217905550905050600260008154809291906200044390620013dc565b91905055505050565b600181815481106200045d57600080fd5b906000526020600020016000915054906101000a900473ffffffffffffffffffffffffffffffffffffffff1681565b60008060008573ffffffffffffffffffffffffffffffffffffffff1673ffffffffffffffffffffffffffffffffffffffff168152602001908152602001600020600001600183620004de919062001372565b81548110620004f257620004f1620013ad565b5b9060005260206000200160009054906101000a900473ffffffffffffffffffffffffffffffffffffffff1673ffffffffffffffffffffffffffffffffffffffff1663576c4045846040518263ffffffff1660e01b815260040162000557919062000e8f565b602060405180830381865afa15801562000575573d6000803e3d6000fd5b505050506040513d601f19601f820116820180604052508101906200059b919062001440565b90509392505050565b6000808573ffffffffffffffffffffffffffffffffffffffff1673ffffffffffffffffffffffffffffffffffffffff168152602001908152602001600020600001600183620005f4919062001372565b81548110620006085762000607620013ad565b5b9060005260206000200160009054906101000a900473ffffffffffffffffffffffffffffffffffffffff1673ffffffffffffffffffffffffffffffffffffffff1663bd041c4d84836040518363ffffffff1660e01b81526004016200066f92919062001472565b600060405180830381600087803b1580156200068a57600080fd5b505af11580156200069f573d6000803e3d6000fd5b5050505050505050565b60006020528060005260406000206000915090508060010160009054906101000a900460ff16905081565b60008060008473ffffffffffffffffffffffffffffffffffffffff1673ffffffffffffffffffffffffffffffffffffffff16815260200190815260200160002060000160018362000726919062001372565b815481106200073a5762000739620013ad565b5b9060005260206000200160009054906101000a900473ffffffffffffffffffffffffffffffffffffffff1673ffffffffffffffffffffffffffffffffffffffff1663bb5d40eb6040518163ffffffff1660e01b8152600401602060405180830381865afa158015620007b0573d6000803e3d6000fd5b505050506040513d601f19601f82011682018060405250810190620007d6919062001440565b905092915050565b60025481565b620007ee62000c50565b6000808473ffffffffffffffffffffffffffffffffffffffff1673ffffffffffffffffffffffffffffffffffffffff1681526020019081526020016000206000016001836200083e919062001372565b81548110620008525762000851620013ad565b5b9060005260206000200160009054906101000a900473ffffffffffffffffffffffffffffffffffffffff1673ffffffffffffffffffffffffffffffffffffffff1663de2927896040518163ffffffff1660e01b81526004016040805180830381865afa158015620008c7573d6000803e3d6000fd5b505050506040513d601f19601f82011682018060405250810190620008ed919062001514565b905092915050565b6000808473ffffffffffffffffffffffffffffffffffffffff1673ffffffffffffffffffffffffffffffffffffffff168152602001908152602001600020600001838383604051620009479062000c6a565b6200095593929190620015cf565b604051809103906000f08015801562000972573d6000803e3d6000fd5b509080600181540180825580915050600190039060005260206000200160009091909190916101000a81548173ffffffffffffffffffffffffffffffffffffffff021916908373ffffffffffffffffffffffffffffffffffffffff160217905550505050565b60008060008573ffffffffffffffffffffffffffffffffffffffff1673ffffffffffffffffffffffffffffffffffffffff16815260200190815260200160002060000160018362000a2a919062001372565b8154811062000a3e5762000a3d620013ad565b5b9060005260206000200160009054906101000a900473ffffffffffffffffffffffffffffffffffffffff1673ffffffffffffffffffffffffffffffffffffffff1663ab94f97d846040518263ffffffff1660e01b815260040162000aa3919062000e8f565b602060405180830381865afa15801562000ac1573d6000803e3d6000fd5b505050506040513d601f19601f8201168201806040525081019062000ae7919062001440565b90509392505050565b60606000808373ffffffffffffffffffffffffffffffffffffffff1673ffffffffffffffffffffffffffffffffffffffff16815260200190815260200160002060000180548060200260200160405190810160405280929190818152602001828054801562000bb557602002820191906000526020600020905b8160009054906101000a900473ffffffffffffffffffffffffffffffffffffffff1673ffffffffffffffffffffffffffffffffffffffff168152602001906001019080831162000b6a575b50505050509050919050565b82805482825590600052602060002090810192821562000c3d579160200282015b8281111562000c3c5782518260006101000a81548173ffffffffffffffffffffffffffffffffffffffff021916908373ffffffffffffffffffffffffffffffffffffffff1602179055509160200191906001019062000be2565b5b50905062000c4c919062000c78565b5090565b604051806040016040528060008152602001600081525090565b611428806200161483390190565b5b8082111562000c9357600081600090555060010162000c79565b5090565b6000604051905090565b600080fd5b600080fd5b600073ffffffffffffffffffffffffffffffffffffffff82169050919050565b600062000cd88262000cab565b9050919050565b62000cea8162000ccb565b811462000cf657600080fd5b50565b60008135905062000d0a8162000cdf565b92915050565b6000819050919050565b62000d258162000d10565b811462000d3157600080fd5b50565b60008135905062000d458162000d1a565b92915050565b6000806040838503121562000d655762000d6462000ca1565b5b600062000d758582860162000cf9565b925050602062000d888582860162000d34565b9150509250929050565b6000819050919050565b600062000dbd62000db762000db18462000cab565b62000d92565b62000cab565b9050919050565b600062000dd18262000d9c565b9050919050565b600062000de58262000dc4565b9050919050565b62000df78162000dd8565b82525050565b600060208201905062000e14600083018462000dec565b92915050565b60006020828403121562000e335762000e3262000ca1565b5b600062000e438482850162000cf9565b91505092915050565b60006020828403121562000e655762000e6462000ca1565b5b600062000e758482850162000d34565b91505092915050565b62000e898162000ccb565b82525050565b600060208201905062000ea6600083018462000e7e565b92915050565b60008060006060848603121562000ec85762000ec762000ca1565b5b600062000ed88682870162000cf9565b935050602062000eeb8682870162000cf9565b925050604062000efe8682870162000d34565b9150509250925092565b60008115159050919050565b62000f1f8162000f08565b82525050565b600060208201905062000f3c600083018462000f14565b92915050565b62000f4d8162000f08565b811462000f5957600080fd5b50565b60008135905062000f6d8162000f42565b92915050565b6000806000806080858703121562000f905762000f8f62000ca1565b5b600062000fa08782880162000cf9565b945050602062000fb38782880162000cf9565b935050604062000fc68782880162000d34565b925050606062000fd98782880162000f5c565b91505092959194509250565b62000ff08162000d10565b82525050565b60006020820190506200100d600083018462000fe5565b92915050565b6200101e8162000d10565b82525050565b6040820160008201516200103c600085018262001013565b50602082015162001051602085018262001013565b50505050565b60006040820190506200106e600083018462001024565b92915050565b600080fd5b600080fd5b6000601f19601f8301169050919050565b7f4e487b7100000000000000000000000000000000000000000000000000000000600052604160045260246000fd5b620010c9826200107e565b810181811067ffffffffffffffff82111715620010eb57620010ea6200108f565b5b80604052505050565b60006200110062000c97565b90506200110e8282620010be565b919050565b600067ffffffffffffffff8211156200113157620011306200108f565b5b6200113c826200107e565b9050602081019050919050565b82818337600083830152505050565b60006200116f620011698462001113565b620010f4565b9050828152602081018484840111156200118e576200118d62001079565b5b6200119b84828562001149565b509392505050565b600082601f830112620011bb57620011ba62001074565b5b8135620011cd84826020860162001158565b91505092915050565b600080600060608486031215620011f257620011f162000ca1565b5b6000620012028682870162000cf9565b9350506020620012158682870162000d34565b925050604084013567ffffffffffffffff81111562001239576200123862000ca6565b5b6200124786828701620011a3565b9150509250925092565b600081519050919050565b600082825260208201905092915050565b6000819050602082019050919050565b620012888162000dd8565b82525050565b60006200129c83836200127d565b60208301905092915050565b6000602082019050919050565b6000620012c28262001251565b620012ce81856200125c565b9350620012db836200126d565b8060005b8381101562001312578151620012f688826200128e565b97506200130383620012a8565b925050600181019050620012df565b5085935050505092915050565b600060208201905081810360008301526200133b8184620012b5565b905092915050565b7f4e487b7100000000000000000000000000000000000000000000000000000000600052601160045260246000fd5b60006200137f8262000d10565b91506200138c8362000d10565b9250828203905081811115620013a757620013a662001343565b5b92915050565b7f4e487b7100000000000000000000000000000000000000000000000000000000600052603260045260246000fd5b6000620013e98262000d10565b91507fffffffffffffffffffffffffffffffffffffffffffffffffffffffffffffffff82036200141e576200141d62001343565b5b600182019050919050565b6000815190506200143a8162000f42565b92915050565b60006020828403121562001459576200145862000ca1565b5b6000620014698482850162001429565b91505092915050565b600060408201905062001489600083018562000e7e565b62001498602083018462000f14565b9392505050565b600080fd5b600081519050620014b58162000d1a565b92915050565b600060408284031215620014d457620014d36200149f565b5b620014e06040620010f4565b90506000620014f284828501620014a4565b60008301525060206200150884828501620014a4565b60208301525092915050565b6000604082840312156200152d576200152c62000ca1565b5b60006200153d84828501620014bb565b91505092915050565b600081519050919050565b600082825260208201905092915050565b60005b838110156200158257808201518184015260208101905062001565565b60008484015250505050565b60006200159b8262001546565b620015a7818562001551565b9350620015b981856020860162001562565b620015c4816200107e565b840191505092915050565b6000606082019050620015e6600083018662000e7e565b620015f5602083018562000fe5565b81810360408301526200160981846200158e565b905094935050505056fe60806040523480156200001157600080fd5b506040516200142838038062001428833981810160405281019062000037919062000328565b826000806101000a81548173ffffffffffffffffffffffffffffffffffffffff021916908373ffffffffffffffffffffffffffffffffffffffff1602179055508160018190555060006004819055508060059081620000979190620005e4565b50426006819055506202a30042620000b09190620006fa565b6007819055506000600860006101000a81548160ff0219169083151502179055506001600860016101000a81548160ff02191690831515021790555050505062000735565b6000604051905090565b600080fd5b600080fd5b600073ffffffffffffffffffffffffffffffffffffffff82169050919050565b6000620001368262000109565b9050919050565b620001488162000129565b81146200015457600080fd5b50565b60008151905062000168816200013d565b92915050565b6000819050919050565b62000183816200016e565b81146200018f57600080fd5b50565b600081519050620001a38162000178565b92915050565b600080fd5b600080fd5b6000601f19601f8301169050919050565b7f4e487b7100000000000000000000000000000000000000000000000000000000600052604160045260246000fd5b620001fe82620001b3565b810181811067ffffffffffffffff8211171562000220576200021f620001c4565b5b80604052505050565b600062000235620000f5565b9050620002438282620001f3565b919050565b600067ffffffffffffffff821115620002665762000265620001c4565b5b6200027182620001b3565b9050602081019050919050565b60005b838110156200029e57808201518184015260208101905062000281565b60008484015250505050565b6000620002c1620002bb8462000248565b62000229565b905082815260208101848484011115620002e057620002df620001ae565b5b620002ed8482856200027e565b509392505050565b600082601f8301126200030d576200030c620001a9565b5b81516200031f848260208601620002aa565b91505092915050565b600080600060608486031215620003445762000343620000ff565b5b6000620003548682870162000157565b9350506020620003678682870162000192565b925050604084015167ffffffffffffffff8111156200038b576200038a62000104565b5b6200039986828701620002f5565b9150509250925092565b600081519050919050565b7f4e487b7100000000000000000000000000000000000000000000000000000000600052602260045260246000fd5b60006002820490506001821680620003f657607f821691505b6020821081036200040c576200040b620003ae565b5b50919050565b60008190508160005260206000209050919050565b60006020601f8301049050919050565b600082821b905092915050565b600060088302620004767fffffffffffffffffffffffffffffffffffffffffffffffffffffffffffffffff8262000437565b62000482868362000437565b95508019841693508086168417925050509392505050565b6000819050919050565b6000620004c5620004bf620004b9846200016e565b6200049a565b6200016e565b9050919050565b6000819050919050565b620004e183620004a4565b620004f9620004f082620004cc565b84845462000444565b825550505050565b600090565b6200051062000501565b6200051d818484620004d6565b505050565b5b8181101562000545576200053960008262000506565b60018101905062000523565b5050565b601f82111562000594576200055e8162000412565b620005698462000427565b8101602085101562000579578190505b62000591620005888562000427565b83018262000522565b50505b505050565b600082821c905092915050565b6000620005b96000198460080262000599565b1980831691505092915050565b6000620005d48383620005a6565b9150826002028217905092915050565b620005ef82620003a3565b67ffffffffffffffff8111156200060b576200060a620001c4565b5b620006178254620003dd565b6200062482828562000549565b600060209050601f8311600181146200065c576000841562000647578287015190505b620006538582620005c6565b865550620006c3565b601f1984166200066c8662000412565b60005b8281101562000696578489015182556001820191506020850194506020810190506200066f565b86831015620006b65784890151620006b2601f891682620005a6565b8355505b6001600288020188555050505b505050505050565b7f4e487b7100000000000000000000000000000000000000000000000000000000600052601160045260246000fd5b600062000707826200016e565b915062000714836200016e565b92508282019050808211156200072f576200072e620006cb565b5b92915050565b610ce380620007456000396000f3fe608060405234801561001057600080fd5b50600436106100cf5760003560e01c8063bd041c4d1161008c578063d8bff5a511610066578063d8bff5a514610204578063da58c7d914610235578063de29278914610265578063f989869714610283576100cf565b8063bd041c4d146101ac578063c040e6b8146101c8578063cf09e0d0146101e6576100cf565b806312fa6feb146100d457806329dcb0cf146100f2578063576c404514610110578063a2daa0b114610140578063ab94f97d1461015e578063bb5d40eb1461018e575b600080fd5b6100dc6102a1565b6040516100e991906107cd565b60405180910390f35b6100fa6102b4565b6040516101079190610801565b60405180910390f35b61012a6004803603810190610125919061087f565b6102ba565b60405161013791906107cd565b60405180910390f35b610148610313565b604051610155919061093c565b60405180910390f35b6101786004803603810190610173919061087f565b6103a1565b60405161018591906107cd565b60405180910390f35b6101966103fa565b6040516101a391906107cd565b60405180910390f35b6101c660048036038101906101c1919061098a565b61040d565b005b6101d0610603565b6040516101dd9190610801565b60405180910390f35b6101ee610609565b6040516101fb9190610801565b60405180910390f35b61021e6004803603810190610219919061087f565b61060f565b60405161022c9291906109ca565b60405180910390f35b61024f600480360381019061024a9190610a1f565b61064d565b60405161025c9190610a5b565b60405180910390f35b61026d61068c565b60405161027a9190610ab4565b60405180910390f35b61028b610792565b6040516102989190610801565b60405180910390f35b600860009054906101000a900460ff1681565b60075481565b6000600260008373ffffffffffffffffffffffffffffffffffffffff1673ffffffffffffffffffffffffffffffffffffffff16815260200190815260200160002060000160019054906101000a900460ff169050919050565b6005805461032090610afe565b80601f016020809104026020016040519081016040528092919081815260200182805461034c90610afe565b80156103995780601f1061036e57610100808354040283529160200191610399565b820191906000526020600020905b81548152906001019060200180831161037c57829003601f168201915b505050505081565b6000600260008373ffffffffffffffffffffffffffffffffffffffff1673ffffffffffffffffffffffffffffffffffffffff16815260200190815260200160002060000160009054906101000a900460ff169050919050565b600860019054906101000a900460ff1681565b60011515600260008473ffffffffffffffffffffffffffffffffffffffff1673ffffffffffffffffffffffffffffffffffffffff16815260200190815260200160002060000160019054906101000a900460ff161515036104a3576040517f08c379a000000000000000000000000000000000000000000000000000000000815260040161049a90610b7b565b60405180910390fd5b6007544211156104e8576040517f08c379a00000000000000000000000000000000000000000000000000000000081526004016104df90610be7565b60405180910390fd5b6040518060400160405280821515815260200160011515815250600260008473ffffffffffffffffffffffffffffffffffffffff1673ffffffffffffffffffffffffffffffffffffffff16815260200190815260200160002060008201518160000160006101000a81548160ff02191690831515021790555060208201518160000160016101000a81548160ff0219169083151502179055509050506003829080600181540180825580915050600190039060005260206000200160009091909190916101000a81548173ffffffffffffffffffffffffffffffffffffffff021916908373ffffffffffffffffffffffffffffffffffffffff160217905550600460008154809291906105fa90610c36565b91905055505050565b60015481565b60065481565b60026020528060005260406000206000915090508060000160009054906101000a900460ff16908060000160019054906101000a900460ff16905082565b6003818154811061065d57600080fd5b906000526020600020016000915054906101000a900473ffffffffffffffffffffffffffffffffffffffff1681565b610694610798565b60008060005b60038054905081101561076f5760026000600383815481106106bf576106be610c7e565b5b9060005260206000200160009054906101000a900473ffffffffffffffffffffffffffffffffffffffff1673ffffffffffffffffffffffffffffffffffffffff1673ffffffffffffffffffffffffffffffffffffffff16815260200190815260200160002060000160009054906101000a900460ff161561074d57828061074590610c36565b93505061075c565b818061075890610c36565b9250505b808061076790610c36565b91505061069a565b506000604051806040016040528084815260200183815250905080935050505090565b60045481565b604051806040016040528060008152602001600081525090565b60008115159050919050565b6107c7816107b2565b82525050565b60006020820190506107e260008301846107be565b92915050565b6000819050919050565b6107fb816107e8565b82525050565b600060208201905061081660008301846107f2565b92915050565b600080fd5b600073ffffffffffffffffffffffffffffffffffffffff82169050919050565b600061084c82610821565b9050919050565b61085c81610841565b811461086757600080fd5b50565b60008135905061087981610853565b92915050565b6000602082840312156108955761089461081c565b5b60006108a38482850161086a565b91505092915050565b600081519050919050565b600082825260208201905092915050565b60005b838110156108e65780820151818401526020810190506108cb565b60008484015250505050565b6000601f19601f8301169050919050565b600061090e826108ac565b61091881856108b7565b93506109288185602086016108c8565b610931816108f2565b840191505092915050565b600060208201905081810360008301526109568184610903565b905092915050565b610967816107b2565b811461097257600080fd5b50565b6000813590506109848161095e565b92915050565b600080604083850312156109a1576109a061081c565b5b60006109af8582860161086a565b92505060206109c085828601610975565b9150509250929050565b60006040820190506109df60008301856107be565b6109ec60208301846107be565b9392505050565b6109fc816107e8565b8114610a0757600080fd5b50565b600081359050610a19816109f3565b92915050565b600060208284031215610a3557610a3461081c565b5b6000610a4384828501610a0a565b91505092915050565b610a5581610841565b82525050565b6000602082019050610a706000830184610a4c565b92915050565b610a7f816107e8565b82525050565b604082016000820151610a9b6000850182610a76565b506020820151610aae6020850182610a76565b50505050565b6000604082019050610ac96000830184610a85565b92915050565b7f4e487b7100000000000000000000000000000000000000000000000000000000600052602260045260246000fd5b60006002820490506001821680610b1657607f821691505b602082108103610b2957610b28610acf565b5b50919050565b7f5600000000000000000000000000000000000000000000000000000000000000600082015250565b6000610b656001836108b7565b9150610b7082610b2f565b602082019050919050565b60006020820190508181036000830152610b9481610b58565b9050919050565b7f4500000000000000000000000000000000000000000000000000000000000000600082015250565b6000610bd16001836108b7565b9150610bdc82610b9b565b602082019050919050565b60006020820190508181036000830152610c0081610bc4565b9050919050565b7f4e487b7100000000000000000000000000000000000000000000000000000000600052601160045260246000fd5b6000610c41826107e8565b91507fffffffffffffffffffffffffffffffffffffffffffffffffffffffffffffffff8203610c7357610c72610c07565b5b600182019050919050565b7f4e487b7100000000000000000000000000000000000000000000000000000000600052603260045260246000fdfea26469706673582212203f65997471aa7adb0ca270e03764f13f64d97d605e4067d6a9112da9df0cd98064736f6c63430008110033a2646970667358221220b43c9cb5d986043b87b4ad3cda87efe10d061ac669cf420511aaf5c5f67cab1564736f6c63430008110033",
  "linkReferences": {},
  "deployedLinkReferences": {}
}