{
  "_format": "hh-sol-artifact-1",
  "contractName": "Voting",
  "sourceName": "contracts/Voting.sol",
  "abi": [
    {
      "inputs": [
        {
          "internalType": "address",
          "name": "_c",
          "type": "address"
        },
        {
          "internalType": "uint256",
          "name": "_stage",
          "type": "uint256"
        },
        {
          "internalType": "string",
          "name": "_proofOfWorkURL",
          "type": "string"
        }
      ],
      "stateMutability": "nonpayable",
      "type": "constructor"
    },
    {
      "anonymous": false,
      "inputs": [
        {
          "indexed": false,
          "internalType": "address",
          "name": "",
          "type": "address"
        },
        {
          "indexed": false,
          "internalType": "bool",
          "name": "",
          "type": "bool"
        }
      ],
      "name": "Voted",
      "type": "event"
    },
    {
      "inputs": [
        {
          "internalType": "address",
          "name": "user",
          "type": "address"
        }
      ],
      "name": "checkUserVote",
      "outputs": [
        {
          "internalType": "bool",
          "name": "",
          "type": "bool"
        }
      ],
      "stateMutability": "view",
      "type": "function"
    },
    {
      "inputs": [],
      "name": "createdAt",
      "outputs": [
        {
          "internalType": "uint256",
          "name": "",
          "type": "uint256"
        }
      ],
      "stateMutability": "view",
      "type": "function"
    },
    {
      "inputs": [],
      "name": "deadline",
      "outputs": [
        {
          "internalType": "uint256",
          "name": "",
          "type": "uint256"
        }
      ],
      "stateMutability": "view",
      "type": "function"
    },
    {
      "inputs": [],
      "name": "ended",
      "outputs": [
        {
          "internalType": "bool",
          "name": "",
          "type": "bool"
        }
      ],
      "stateMutability": "view",
      "type": "function"
    },
    {
      "inputs": [],
      "name": "getResult",
      "outputs": [
        {
          "components": [
            {
              "internalType": "uint256",
              "name": "yes",
              "type": "uint256"
            },
            {
              "internalType": "uint256",
              "name": "no",
              "type": "uint256"
            }
          ],
          "internalType": "struct Voting.Result",
          "name": "",
          "type": "tuple"
        }
      ],
      "stateMutability": "view",
      "type": "function"
    },
    {
      "inputs": [
        {
          "internalType": "address",
          "name": "user",
          "type": "address"
        }
      ],
      "name": "getVoteOfUser",
      "outputs": [
        {
          "internalType": "bool",
          "name": "",
          "type": "bool"
        }
      ],
      "stateMutability": "view",
      "type": "function"
    },
    {
      "inputs": [],
      "name": "isValid",
      "outputs": [
        {
          "internalType": "bool",
          "name": "",
          "type": "bool"
        }
      ],
      "stateMutability": "view",
      "type": "function"
    },
    {
      "inputs": [],
      "name": "proofOfWorkURL",
      "outputs": [
        {
          "internalType": "string",
          "name": "",
          "type": "string"
        }
      ],
      "stateMutability": "view",
      "type": "function"
    },
    {
      "inputs": [],
      "name": "stage",
      "outputs": [
        {
          "internalType": "uint256",
          "name": "",
          "type": "uint256"
        }
      ],
      "stateMutability": "view",
      "type": "function"
    },
    {
      "inputs": [
        {
          "internalType": "address",
          "name": "voter",
          "type": "address"
        },
        {
          "internalType": "bool",
          "name": "yes",
          "type": "bool"
        }
      ],
      "name": "vote",
      "outputs": [],
      "stateMutability": "nonpayable",
      "type": "function"
    },
    {
      "inputs": [],
      "name": "voterIndex",
      "outputs": [
        {
          "internalType": "uint256",
          "name": "",
          "type": "uint256"
        }
      ],
      "stateMutability": "view",
      "type": "function"
    },
    {
      "inputs": [
        {
          "internalType": "uint256",
          "name": "",
          "type": "uint256"
        }
      ],
      "name": "voters",
      "outputs": [
        {
          "internalType": "address",
          "name": "",
          "type": "address"
        }
      ],
      "stateMutability": "view",
      "type": "function"
    },
    {
      "inputs": [
        {
          "internalType": "address",
          "name": "",
          "type": "address"
        }
      ],
      "name": "votes",
      "outputs": [
        {
          "internalType": "bool",
          "name": "vote",
          "type": "bool"
        },
        {
          "internalType": "bool",
          "name": "isValid",
          "type": "bool"
        }
      ],
      "stateMutability": "view",
      "type": "function"
    }
  ],
  "bytecode": "0x60806040523480156200001157600080fd5b506040516200142838038062001428833981810160405281019062000037919062000328565b826000806101000a81548173ffffffffffffffffffffffffffffffffffffffff021916908373ffffffffffffffffffffffffffffffffffffffff1602179055508160018190555060006004819055508060059081620000979190620005e4565b50426006819055506202a30042620000b09190620006fa565b6007819055506000600860006101000a81548160ff0219169083151502179055506001600860016101000a81548160ff02191690831515021790555050505062000735565b6000604051905090565b600080fd5b600080fd5b600073ffffffffffffffffffffffffffffffffffffffff82169050919050565b6000620001368262000109565b9050919050565b620001488162000129565b81146200015457600080fd5b50565b60008151905062000168816200013d565b92915050565b6000819050919050565b62000183816200016e565b81146200018f57600080fd5b50565b600081519050620001a38162000178565b92915050565b600080fd5b600080fd5b6000601f19601f8301169050919050565b7f4e487b7100000000000000000000000000000000000000000000000000000000600052604160045260246000fd5b620001fe82620001b3565b810181811067ffffffffffffffff8211171562000220576200021f620001c4565b5b80604052505050565b600062000235620000f5565b9050620002438282620001f3565b919050565b600067ffffffffffffffff821115620002665762000265620001c4565b5b6200027182620001b3565b9050602081019050919050565b60005b838110156200029e57808201518184015260208101905062000281565b60008484015250505050565b6000620002c1620002bb8462000248565b62000229565b905082815260208101848484011115620002e057620002df620001ae565b5b620002ed8482856200027e565b509392505050565b600082601f8301126200030d576200030c620001a9565b5b81516200031f848260208601620002aa565b91505092915050565b600080600060608486031215620003445762000343620000ff565b5b6000620003548682870162000157565b9350506020620003678682870162000192565b925050604084015167ffffffffffffffff8111156200038b576200038a62000104565b5b6200039986828701620002f5565b9150509250925092565b600081519050919050565b7f4e487b7100000000000000000000000000000000000000000000000000000000600052602260045260246000fd5b60006002820490506001821680620003f657607f821691505b6020821081036200040c576200040b620003ae565b5b50919050565b60008190508160005260206000209050919050565b60006020601f8301049050919050565b600082821b905092915050565b600060088302620004767fffffffffffffffffffffffffffffffffffffffffffffffffffffffffffffffff8262000437565b62000482868362000437565b95508019841693508086168417925050509392505050565b6000819050919050565b6000620004c5620004bf620004b9846200016e565b6200049a565b6200016e565b9050919050565b6000819050919050565b620004e183620004a4565b620004f9620004f082620004cc565b84845462000444565b825550505050565b600090565b6200051062000501565b6200051d818484620004d6565b505050565b5b8181101562000545576200053960008262000506565b60018101905062000523565b5050565b601f82111562000594576200055e8162000412565b620005698462000427565b8101602085101562000579578190505b62000591620005888562000427565b83018262000522565b50505b505050565b600082821c905092915050565b6000620005b96000198460080262000599565b1980831691505092915050565b6000620005d48383620005a6565b9150826002028217905092915050565b620005ef82620003a3565b67ffffffffffffffff8111156200060b576200060a620001c4565b5b620006178254620003dd565b6200062482828562000549565b600060209050601f8311600181146200065c576000841562000647578287015190505b620006538582620005c6565b865550620006c3565b601f1984166200066c8662000412565b60005b8281101562000696578489015182556001820191506020850194506020810190506200066f565b86831015620006b65784890151620006b2601f891682620005a6565b8355505b6001600288020188555050505b505050505050565b7f4e487b7100000000000000000000000000000000000000000000000000000000600052601160045260246000fd5b600062000707826200016e565b915062000714836200016e565b92508282019050808211156200072f576200072e620006cb565b5b92915050565b610ce380620007456000396000f3fe608060405234801561001057600080fd5b50600436106100cf5760003560e01c8063bd041c4d1161008c578063d8bff5a511610066578063d8bff5a514610204578063da58c7d914610235578063de29278914610265578063f989869714610283576100cf565b8063bd041c4d146101ac578063c040e6b8146101c8578063cf09e0d0146101e6576100cf565b806312fa6feb146100d457806329dcb0cf146100f2578063576c404514610110578063a2daa0b114610140578063ab94f97d1461015e578063bb5d40eb1461018e575b600080fd5b6100dc6102a1565b6040516100e991906107cd565b60405180910390f35b6100fa6102b4565b6040516101079190610801565b60405180910390f35b61012a6004803603810190610125919061087f565b6102ba565b60405161013791906107cd565b60405180910390f35b610148610313565b604051610155919061093c565b60405180910390f35b6101786004803603810190610173919061087f565b6103a1565b60405161018591906107cd565b60405180910390f35b6101966103fa565b6040516101a391906107cd565b60405180910390f35b6101c660048036038101906101c1919061098a565b61040d565b005b6101d0610603565b6040516101dd9190610801565b60405180910390f35b6101ee610609565b6040516101fb9190610801565b60405180910390f35b61021e6004803603810190610219919061087f565b61060f565b60405161022c9291906109ca565b60405180910390f35b61024f600480360381019061024a9190610a1f565b61064d565b60405161025c9190610a5b565b60405180910390f35b61026d61068c565b60405161027a9190610ab4565b60405180910390f35b61028b610792565b6040516102989190610801565b60405180910390f35b600860009054906101000a900460ff1681565b60075481565b6000600260008373ffffffffffffffffffffffffffffffffffffffff1673ffffffffffffffffffffffffffffffffffffffff16815260200190815260200160002060000160019054906101000a900460ff169050919050565b6005805461032090610afe565b80601f016020809104026020016040519081016040528092919081815260200182805461034c90610afe565b80156103995780601f1061036e57610100808354040283529160200191610399565b820191906000526020600020905b81548152906001019060200180831161037c57829003601f168201915b505050505081565b6000600260008373ffffffffffffffffffffffffffffffffffffffff1673ffffffffffffffffffffffffffffffffffffffff16815260200190815260200160002060000160009054906101000a900460ff169050919050565b600860019054906101000a900460ff1681565b60011515600260008473ffffffffffffffffffffffffffffffffffffffff1673ffffffffffffffffffffffffffffffffffffffff16815260200190815260200160002060000160019054906101000a900460ff161515036104a3576040517f08c379a000000000000000000000000000000000000000000000000000000000815260040161049a90610b7b565b60405180910390fd5b6007544211156104e8576040517f08c379a00000000000000000000000000000000000000000000000000000000081526004016104df90610be7565b60405180910390fd5b6040518060400160405280821515815260200160011515815250600260008473ffffffffffffffffffffffffffffffffffffffff1673ffffffffffffffffffffffffffffffffffffffff16815260200190815260200160002060008201518160000160006101000a81548160ff02191690831515021790555060208201518160000160016101000a81548160ff0219169083151502179055509050506003829080600181540180825580915050600190039060005260206000200160009091909190916101000a81548173ffffffffffffffffffffffffffffffffffffffff021916908373ffffffffffffffffffffffffffffffffffffffff160217905550600460008154809291906105fa90610c36565b91905055505050565b60015481565b60065481565b60026020528060005260406000206000915090508060000160009054906101000a900460ff16908060000160019054906101000a900460ff16905082565b6003818154811061065d57600080fd5b906000526020600020016000915054906101000a900473ffffffffffffffffffffffffffffffffffffffff1681565b610694610798565b60008060005b60038054905081101561076f5760026000600383815481106106bf576106be610c7e565b5b9060005260206000200160009054906101000a900473ffffffffffffffffffffffffffffffffffffffff1673ffffffffffffffffffffffffffffffffffffffff1673ffffffffffffffffffffffffffffffffffffffff16815260200190815260200160002060000160009054906101000a900460ff161561074d57828061074590610c36565b93505061075c565b818061075890610c36565b9250505b808061076790610c36565b91505061069a565b506000604051806040016040528084815260200183815250905080935050505090565b60045481565b604051806040016040528060008152602001600081525090565b60008115159050919050565b6107c7816107b2565b82525050565b60006020820190506107e260008301846107be565b92915050565b6000819050919050565b6107fb816107e8565b82525050565b600060208201905061081660008301846107f2565b92915050565b600080fd5b600073ffffffffffffffffffffffffffffffffffffffff82169050919050565b600061084c82610821565b9050919050565b61085c81610841565b811461086757600080fd5b50565b60008135905061087981610853565b92915050565b6000602082840312156108955761089461081c565b5b60006108a38482850161086a565b91505092915050565b600081519050919050565b600082825260208201905092915050565b60005b838110156108e65780820151818401526020810190506108cb565b60008484015250505050565b6000601f19601f8301169050919050565b600061090e826108ac565b61091881856108b7565b93506109288185602086016108c8565b610931816108f2565b840191505092915050565b600060208201905081810360008301526109568184610903565b905092915050565b610967816107b2565b811461097257600080fd5b50565b6000813590506109848161095e565b92915050565b600080604083850312156109a1576109a061081c565b5b60006109af8582860161086a565b92505060206109c085828601610975565b9150509250929050565b60006040820190506109df60008301856107be565b6109ec60208301846107be565b9392505050565b6109fc816107e8565b8114610a0757600080fd5b50565b600081359050610a19816109f3565b92915050565b600060208284031215610a3557610a3461081c565b5b6000610a4384828501610a0a565b91505092915050565b610a5581610841565b82525050565b6000602082019050610a706000830184610a4c565b92915050565b610a7f816107e8565b82525050565b604082016000820151610a9b6000850182610a76565b506020820151610aae6020850182610a76565b50505050565b6000604082019050610ac96000830184610a85565b92915050565b7f4e487b7100000000000000000000000000000000000000000000000000000000600052602260045260246000fd5b60006002820490506001821680610b1657607f821691505b602082108103610b2957610b28610acf565b5b50919050565b7f5600000000000000000000000000000000000000000000000000000000000000600082015250565b6000610b656001836108b7565b9150610b7082610b2f565b602082019050919050565b60006020820190508181036000830152610b9481610b58565b9050919050565b7f4500000000000000000000000000000000000000000000000000000000000000600082015250565b6000610bd16001836108b7565b9150610bdc82610b9b565b602082019050919050565b60006020820190508181036000830152610c0081610bc4565b9050919050565b7f4e487b7100000000000000000000000000000000000000000000000000000000600052601160045260246000fd5b6000610c41826107e8565b91507fffffffffffffffffffffffffffffffffffffffffffffffffffffffffffffffff8203610c7357610c72610c07565b5b600182019050919050565b7f4e487b7100000000000000000000000000000000000000000000000000000000600052603260045260246000fdfea26469706673582212203f65997471aa7adb0ca270e03764f13f64d97d605e4067d6a9112da9df0cd98064736f6c63430008110033",
  "linkReferences": {},
  "deployedLinkReferences": {}
}